:0600000002010C02315F59
:03000B000230C000
:03001300022C4478
:03001B00022C4B69
:03002300022C525A
:03002B00022C594B
:03003300022C603C
:03003B00022FDCB5
:030043000231A2E5
:03004B00022C671D
:03005300022C6E0E
:03005B00022C75FF
:03006300022C7CF0
:03006B00022C83E1
:100070000000E2FBEAF2802C0000E0FBEAF08024C2
:10008000E6B50202EBF62200E2B50202EBF2220034
:10009000E0B50202EBF02230F6E0A88220F5D3EAC8
:1000A000C6F582228B822230F6E6A88220F5D9801E
:0100B000CF80
:0301B4000200B195
:0300B10002020444
:1001B700122C3D122C39122E321246C812302D1233
:1001C7004561121346121DF81202D6124C901223E3
:1001D70062D2AF22121E1EE5827003124BCE024C72
:1001E7002A900285E0F582123825900285E0900278
:1001F70077F090027A7401F090027BF0221201B737
:100207001247941234621201DB1203AA124CC11274
:1002170001E812223575B100124811124B4B121624
:100227009D124E131203F1121E4D1222F180E61297
:1002370003F8AF82BF010690027CE07004C2088019
:1002470002D208A208E433F58222AF83024AF4AF50
:1002570083024B11C009858109AF82900004EFF03A
:10026700900005E50924FCF8E6F008E6A3F0900005
:1002770004124B2ED00922AE82AF83900000E0FC1F
:10028700A3E0FDEEB50405EFB5050122900000EEF1
:10029700F0EFA3F0C006C00775820112025B15815B
:1002A700158122AE82AF83900002E0FCA3E0FDEE51
:1002B700B50405EFB5050122900002EEF0EFA3F0BB
:1002C700C006C00775820212025B15811581229054
:1002D700020CE4F090020DF090020EF090020FF085
:1002E700900210F0C200C201900212E4F0900211D5
:1002F700F0900207F0A3F0900209F0A3F0A3F090AA
:100307000213F0A3F0900215F0022F4490020CE4C0
:10031700F090020DF090020EF090020FF090021094
:10032700F0C200C201900212E4F0900211F0022F15
:1003370054AE82AF83C007C0061203FFE582D00622
:10034700D0077001227D007408C0E08E828F838DF4
:10035700F0122F5E158122AE82AF83C007C006124E
:1003670003FFE582D006D0077001227D007416C016
:10037700E08E828F838DF0122F9C158122AE82AF83
:1003870083C007C0061203FFE582D006D0077001BD
:10039700227D007403C0E08E828F838DF0122F9C24
:1003A7001581227E007F008E048F05C3EC94A0ED9B
:1003B700940F503575B100900215E0600D9002134F
:1003C700E0F5F0A3E045F0700B22C3EC94F4ED9454
:1003D70001400122900001C007C006122C0DD00673
:1003E700D0070EBE00C10F80BE22300203022C2FA1
:1003F7002290020FE0F5822290020CE0FFBF020379
:10040700D38001C39208E433F58222C009E581F560
:10041700092408F581D310AF01C3C0D0AF090F7EFF
:10042700007D408F828E838DF012131ED0D092AF45
:10043700AF090F8F018706EF04F987058E04BC000B
:1004470002802DBC0103020529BE0203020589BEF5
:1004570021030205DEBE80030204E7BE8103020515
:1004670047BE82030205C0BEA10302062802065842
:10047700BD01028014BD03028021BD0502802EBD8F
:100487000702803BBD0950803C8F037C007E408B78
:10049700828C838EF012077F02065E8F037C007EBC
:1004A700408B828C838EF01207C202065E8F037C1C
:1004B700007E408B828C838EF012073802065E1214
:1004C70009B502065E8F037C007E408B828C838E8B
:1004D700F01208E802065E43970843970202065E99
:1004E700BD0002800ABD06028017BD082C80248F3C
:1004F700037C007E408B828C838EF01209BC02063F
:100507005E8F037C007E408B828C838EF0120B18EB
:1005170002065E120FC002065E4397084397020267
:10052700065EBD0B128F037C007E408B828C838E10
:10053700F012094F02065E43970843970202065ED0
:10054700BD0002800ABD06028017BD0A2C80248FD9
:10055700037C007E408B828C838EF01209FB02069F
:100567005E8F037C007E408B828C838EF0120B188B
:1005770002065E120FD802065E43970843970202EF
:10058700065EBD01028005BD032680128F037C0035
:100597007E408B828C838EF012080502065E8F03E5
:1005A7007C007E408B828C838EF012088502065E6B
:1005B70043970843970202065EBD00128F037C0033
:1005C7007E408B828C838EF0120A5702065E439719
:1005D7000843970202065EBD0902800ABD0A02802F
:1005E70016BD0B3580228F037C007E408B828C8367
:1005F7008EF0120FF480608F037C007E408B828C1C
:10060700838EF012108D804F8F037C007E408B828B
:100617008C838EF01210C4803E4397084397028064
:1006270036BD0102800ABD0202800ABD031B800A93
:10063700120FED80221210B2801D7E007D408F8246
:100647008E838DF012111E800E4397084397028008
:1006570006439708439702850981D00922AF92AED6
:1006670093EF70030206F5EF30E3275392F79002FA
:1006770013E0FCA3E0FD900213E0F5F0A3E045F0E2
:10068700600D1CBCFF011D900213ECF0EDA3F0C23E
:1006970001225392EF53929FEF30E70653927F0266
:1006A70002D6EF30E4145392EF90021374F4F0740F
:1006B70001A3F0900215F0020412EF30E204539206
:1006C700FB22EF30E10E5392FD90020CE0FDBD02DC
:1006D7005FD20122EF30E0585392FE439120000091
:1006E700000000005391DF1202D643970122EE600B
:1006F7003FEE30E6075393BF439A0122EE30E504FD
:100707005393DF22EE30E40A5393EF12115F4397BE
:100717000122EE30E2065393FB022FDBEE30E106B7
:100727005393FD022FDAEE30E0065393FE0211A336
:1007370022AD82AE83AFF0900212E4F074022DFD79
:10074700E43EFE8D828E838FF01259ACFBA31259C3
:10075700AC4B600890020C7401F0800590020CE429
:10076700F08D828E838FF01259AC90020DF0539B5F
:10077700F043970243970422AD82AE83AFF0900215
:1007870012E4F08D028E038F048A828B838CF01221
:1007970059AC540F701E74022DFDE43EFE8D828EFF
:1007A700838FF01259ACFDA31259ACFEBD0105BEF3
:1007B7000002C200539BF043970422AD82AE83AF81
:1007C700F0900212E4F08D028E038F048A828B83ED
:1007D7008CF01259AC540F701E74022DFDE43EFECE
:1007E7008D828E838FF01259ACFDA31259ACFEBDDA
:1007F7000105BE0002D200539BF043970422AE824C
:10080700AD83AFF0900212E4F08E028D038F048A5D
:10081700828B838CF01259ACFA53020FBA025874C8
:10082700022EFAE43DFB8F048A828B838CF01259E7
:10083700ACFAA31259AC4A703E74042EFEE43DFD97
:100847008E828D838FF01259ACFEA31259ACFF4EE6
:1008570070085397F75397FD801DBE8108BF0005A9
:100867005399F78012BE8208BF0005539AF7800795
:1008770043970843970222539BF043970422AD8284
:10088700AE83AFF0900212E4F08D028E038F048ADC
:10089700828B838CF01259ACFA53020FBA0234746C
:1008A700042DFDE43EFE8D828E838FF01259ACFD40
:1008B700A31259ACFEBD8108BE0005439908801AF2
:1008C700BD8208BE0005439A08800F4397084397E7
:1008D70002800743970843970222539BF0439704EC
:1008E70022AE82AD83AFF0900212E4F090020DE0E9
:1008F700604974022EFEE43DFD8E828D838FF012D7
:1009070059ACFEA31259ACFF4E600A8E048F05BC8A
:100917000121BD001E90020EEEF0EE600890020C61
:100927007402F0800690020C7401F0539BF0439719
:1009370004800E439708439702800643970843971E
:1009470002539BF043970422AE82AD83AFF090022F
:1009570012E4F074022EFAE43DFB8F048A828B8343
:100967008CF01259ACFAA31259AC4A703A74042E9F
:10097700FEE43DFD8E828D838FF01259ACFEA312EB
:1009870059ACFF4E700A539BF043970443970222DA
:10099700BE010DBF000A539BF04397044397022201
:1009A70043970843970222439708439702224397A6
:1009B7000843970222AD82AE83AFF0900212740211
:1009C700F08D828E838FF01259AC540F701F300058
:1009D700089011087402F08005901108E4F0901156
:1009E70009E4F0539BF0439B024397042243970883
:1009F70043970222AE82AD83AFF08E028D038F0440
:100A07008A828B838CF01259ACFA53020FBA0139E0
:100A170074042EFEE43DFD8E828D838FF01259AC57
:100A2700FEA31259ACFF4E6006BE0116BF0013901D
:100A37001108E4F0901109F0539BF0439B02439790
:100A470004224397084397022243970843970222B9
:100A5700AD82AE83AFF08D028E038F048A828B83C3
:100A67008CF01259ACFA53020FBA02028003020B40
:100A77001174042DFDE43EFE8D828E838FF0125992
:100A8700ACFDA31259ACFEBD801BBE0018AC97533A
:100A97000402E4A2E713CC13CC901108ECF09011F8
:100AA70009E4F0805BBD8127BE0024AC995304089C
:100AB700E423CCC423541F6CCC541FCC6CCC30E43F
:100AC7000244E0901108ECF0901109E4F08031BD88
:100AD7008227BE0024AE9A530608E423CEC42354CB
:100AE7001F6ECE541FCE6ECE30E40244E090110844
:100AF700EEF0901109E4F08007439708439702222C
:100B0700539BF0439B024397042243970843970262
:100B170022C009858109C082C083C0F0E581240B0A
:100B2700F581A80908740226FAE40836FB0886044A
:100B37008A828B838CF01259ACFAA31259ACFC8AC7
:100B470007BC01547C007A00905AF3E493FDA3E4B8
:100B570093FE8D828E83E493FF7B00C3EC9FEA9B19
:100B6700501EEC2407FBEA3400FFEC2DF582EA3E29
:100B7700F583E4938B828F83F00CBC00CB0A80C88B
:100B87007D077E007F00900007E0FBE5092404F85D
:100B9700A603087600020F6FBC02028003020D3421
:100BA700905AF7E493FBC3EF9B4003020D34905A2E
:100BB700F8E493FAA3E493FBEF75F002A42AF58215
:100BC700EB35F0F583E493FFA3E493FE74092FFD5F
:100BD700E43EFCE509240DF876000876008F828E46
:100BE70083E5092406F8E493F6E5092406F8860266
:100BF7007B00E509240DF8C3E69A08E69B503EE51D
:100C070009240DF8E5092407F9E62407F708E6346F
:100C17000009F7E509240DF8E62FF58208E63EF509
:100C270083E493FBE5092407F88682088683EBF0C3
:100C3700E509240DF806B60002080680A0E5092498
:100C470006F8E5092409F9E62407F7E4340009F76B
:100C5700E5092407F8A60508A604E509240DF87692
:100C670000087600E5092407F88682088683E4935E
:100C7700FFA3E493FE8F828E83E493FB7A00E5095A
:100C8700240DF8C3E69B08E69A5034E5092409F8D1
:100C9700E509240DF9E726FD09E70836FCE50924EF
:100CA7000DF8E62FF58208E63EF583E4938D828CF6
:100CB70083F0E509240DF806B60002080680A58F23
:100CC700828E83E493FBE5092409F8EB26F6E40812
:100CD70036F6E5092407F8740226F6E40836F6E541
:100CE700092407F88682088683E493FAA3E4934AE3
:100CF7006003020C61900009E0FAA3E04A7017E56F
:100D0700092409F8E6C39407FA08E69400FB900063
:100D170009EAF0EBA3F07D077E007F00900009E56C
:100D2700092404F8E0F6A3E008F6020F6FE4BC0319
:100D37000104FB604CEF7049FDFC905AE9E493FA1B
:100D47007F00C3ED9AEC9F5020ED2407FFEC3400A1
:100D5700FEED24E9F582EC345AF583E4938F828E15
:100D670083F00DBD00D40C80D17D077E007F0090FD
:100D77000007E0FAE5092404F8A602087600020F46
:100D87006FEB7003020E59C0047E00EF24FFFDEEE7
:100D970034FFFB905AFAE493FA7C00C3ED9AEB64B4
:100DA700808CF063F08095F0D0044003020E5990D8
:100DB7005AFBE493FDA3E493FCEF24FFFAEE34FF20
:100DC700FBEA2AFAEB33FBEA2DF582EB3CF583E4E9
:100DD70093FEA3E493FD9000077402F090000804CB
:100DE700F0E509240BF874012408F6E4340008F64A
:100DF7008E828D83E493FF60418F030EBE00010D49
:100E0700E509240BF88682088683EBF0E509240BB5
:100E1700F8740126FAE40836FB8A828B83E4F0E54E
:100E270009240BF874012AF6E43B08F6900007E062
:100E3700FB0B0B900007EBF080B67D077E007F0071
:100E4700900007E0FBE5092404F8A60308760002F2
:100E57000F6FBC224CA80908740426FFE40836FE6D
:100E67000886058F828E838DF01259ACFA70137D38
:100E7700C87E597F80E5092404F8764E087600027B
:100E87000F6FBA01137D167E5A7F80E5092404F897
:100E97007676087600020F6F439708439702020F92
:100EA700BABC21028003020F67A80908740426FA56
:100EB700E40836FB0886048A828B838CF01259ACCF
:100EC700FC7048FDFC905AA7E493FB7A00C3ED9BA6
:100ED700EC9A5020ED2407FFEC3400FEED24A7F533
:100EE70082EC345AF583E4938F828E83F00DBD0034
:100EF700D40C80D17D077E007F00900007E0FBE5E2
:100F0700092404F8A603087600805DBC014A7F0027
:100F17007E00905AC0E493FA7C00C3EF9AEE9C508F
:100F270020EF2407FBEE3400FCEF24C0F582EE34FB
:100F37005AF583E4938B828C83F00FBF00D40E8025
:100F4700D17D077E007F00900007E0FCE5092404BF
:100F5700F8A6040876008010439708439702805349
:100F6700439708439702804BA80908740626FBE4B9
:100F77000836FA0886048B828A838CF01259ACFBF8
:100F8700A31259ACFCE5092404F8C3EB96EC0896C8
:100F9700400AE5092404F88603088604C003C00450
:100FA7008D828E838FF01211CC158115811211F26B
:100FB700439704850981D009229002127402F090A8
:100FC700020EE0901108F0539BF0439B01439704F6
:100FD700229002127402F0901108E4F0539BF04340
:100FE7009B014397042243970843970222C0098530
:100FF7008109C082C083C0F0A80908740226FBE4F7
:101007000836FA0886048B828A838CF01259ACFB67
:10101700A31259ACFABA02028005BA035D804DA843
:101027000908740426FDE40836FE0886078D828EBB
:10103700838FF01259ACFDA31259AC4D7042A80929
:1010470008740626FDE40836FE0886078D828E831F
:101057008FF01259ACFDA31259ACFEBD0122BE00A0
:101067001F9002127404F04397018014BB0511907E
:1010770002127405F04397018006439708439702CD
:10108700850981D00922AD82AE83AFF074022DFDB0
:10109700E43EFE8D828E838FF01259ACA31259ACB9
:1010A700900211F0539BF043970422900211E090B5
:1010B7001108F0539BF0439B0143970422AD82AE86
:1010C70083AFF074042DFBE43EFA8F048B828A838E
:1010D7008CF01259ACFBA31259ACFC4B701874027C
:1010E7002DF8E43EF98F02888289838AF01259AC81
:1010F70090020FF0801ABB0117BC001474022DFD7B
:10110700E43EFE8D828E838FF01259AC900210F070
:10111700539BF043970422AE82AD83AFF074042E45
:10112700FEE43DFD8E828D838FF01259ACFEA31233
:1011370059ACFF4E700A90020FE0901108F0800E34
:10114700BE010BBF0008900210E0901108F0539BFE
:10115700F0439B0143970422900212E0FFBF04155E
:10116700900212E4F0901100E0F582121E12539BD8
:10117700F043970422BF0518900212E4F090110083
:10118700E0FFBF0516901101E0FFBF750ED20222E6
:10119700900212E4F0539BF043970422900212E06E
:1011A700FFBF010A1211F243970443970122BF02BE
:1011B70007439701439708224397084397019002F3
:1011C7000DE0F59622C009858109AFF0AE83E5826F
:1011D700900209F0EEA3F0EFA3F0E50924FCF890E4
:1011E7000207E6F008E6A3F0D00922900207E0FE26
:1011F700A3E0FF4E700D9002127402F0539BF0852E
:101207009B9B228E048F05C374089CE49D505890C5
:1012170002127401F0900209E0F9A3E0FAA3E0FBDF
:101227007408C0E089828A838BF01212D1158190ED
:101237000207E0FAA3E0FBEA24F8FAEB34FFFB909D
:101247000207EAF0EBA3F0900209E0F9A3E0FAA3A2
:10125700E0FB900209740829F0E43AA3F0EBA3F04D
:10126700539BF0439B0822BC0831BD002E9002120D
:101277007401F0900209E0FBA3E0FCA3E0FD740811
:10128700C0E08B828C838DF01212D11581900207FA
:10129700E4F0A3F0539BF0439B08229002127402E0
:1012A700F0900209E0FCA3E0FDA3E0FFC0068C82FA
:1012B7008D838FF01212D11581539BF0900207E0B6
:1012C700FEA3E0AD9BEE4DF59B22C009858109C0C9
:1012D70082C083C0F0E50924FDF8E624F740327C9C
:1012E70000E50924FDF8C3EC965026EC2408FAE43F
:1012F7003411FBA80908EC26FDE40836FE0886072A
:101307008D828E838FF01259AC8A828B83F00C808A
:10131700D0850981D00922AD82AE83AFF07C00BCB5
:101327000800501AEC2DF9E43EFA8F038C8275837E
:0F13370011E089828A838BF01257240C80E12207
:1059C80005010906A101050719E029E715002501C8
:1059D800750195088102750895018101050719006F
:1059E80029FF150026FF0075089505810005FF09A8
:1059F8000375089501810205081901290515002577
:105A080001750195059102750395019101C0050184
:105A18000980A101850119812983150025017501D6
:105A28009503810295058101C0050C0901A1018535
:105A38000219002A3C021500263C027510950181C6
:105A480000C00600FF0901A10185051901290215F9
:105A58000026FF0075089505B102C005010906A1D9
:105A6800018506050719E029E71500250175019547
:105A780008810205071900299F1500250175019560
:105A8800A08102C01201100100000008AC054F02FD
:105A980000000102030109040000010301010009DB
:105AA8002111010001224E000705810310000109A0
:105AB8000401000103000000092111010001227600
:105AC800000705820340000109020000020100A04E
:105AD800FA9E5AA75AB05AB75AC05AC95A0000D0A3
:105AE8005A04030904FD5A015B0D5B8C5A0000013E
:105AF800E75A03ED5A534D4B004169723735202858
:0A5B0800534D4B29003030303100BE
:10134600900237E4F0900238F0900236F0FFBF10BA
:1013560000501BEF2416F582E43402F583E4F0EF27
:101366002426F582E43402F583E4F00F80E022E5DA
:1013760082900238F022C009858109AE82AF83903F
:101386000237E0FDE070068E828F838045ED75F0B2
:10139600C0A4248FFC745B35F0FDE50924FDF8E656
:1013A600C42354E02CFCE43DFDE50924FCF8E626C4
:1013B6002CF582E43DF583E493FCA3E493FD8C02D3
:1013C6008D03BA0105BB000280048C068D078E8250
:1013D6008F83D00922C009858109AE82AF838E042E
:1013E6008F05C3EC94E0ED9400404574E79CE49DC2
:1013F600403EE50924FDF8E660198E0374075BF5A7
:10140600F005F07401800225E0D5F0FBF582121C90
:10141600BA80178E0374075BF5F005F0740180023D
:1014260025E0D5F0FBF582121CC31217750214D302
:10143600C3EC9404ED9400403474A49CE49D402DC8
:10144600E50924FDF8E660118E03C00390023975A4
:10145600F000121BD01581800F8E03C00390023955
:1014660075F000121C1915811217758060C3EC9473
:10147600A5ED9400402974A79CE49D4022E509242B
:10148600FDF8E6600D8E038B82121D0EAA82AB83D9
:1014960080047A007B008A828B8312027E802EC3B0
:1014A600EC94A8ED9400402574C29CE49D401EE592
:1014B6000924FDF8E6600B8E82121D2FAE82AF83E3
:1014C60080047E007F008E828F831202AAD00922BA
:1014D600C009858109AF82900238E075F0C0A42466
:1014E6008FFD745B35F0FEEFC42354E02DFDE43E22
:1014F600FEE50924FDF8E6262DF582E43EF583E4B3
:1015060093FDA3E493FE8D038E04C3EB9420EC9429
:10151600524068743F9B74529C4060E50924FCF875
:10152600E66023C006C0057401C0E0C005C006E53C
:101536000924FDF8E6C0E08F82122974E58124FCB7
:10154600F581D005D006E50924FCF8E660148D0483
:1015560053041F900237ECF08C821256D01217AC4F
:10156600807390023975F000121C62900237E4F025
:101576001226857582001217AC805AC007E5092429
:10158600FDF8E6C0E0C0078D828E8312137CAD8223
:10159600AE8315811581D007C006C005E50924FC78
:1015A600F8E6C0E0C005C006E50924FDF8E6C0E09F
:1015B6008F82122974AF82E58124FCF581D005D093
:1015C60006EF7011E50924FCF8E6C0E08D828E83F3
:1015D6001215DE1581D00922C009858109AE82AFB8
:1015E60083C007C006E50924FDF8E6C0E08E828FB9
:1015F600831248CFAD821581D006D007ED700280E8
:1016060031C007C006E50924FDF8E6C0E08E828FEA
:10161600831256E0AD821581D006D007ED700280A8
:1016260011E50924FDF8E6C0E08E828F831213DBF4
:101636001581D0092212567E12454F12445A124481
:101646004D7F00BF100050428F82C0071244809029
:10165600000A122BFD12453CAE8290000AC006120B
:101666002BFD12453CAD82D006D007EEB5050FEF37
:101676002416FCE43402FDEEF48C828D83F08F8216
:10168600C0071244DED0070F80B912446712561500
:101696009002367401F022C009E581F5092410F59F
:1016A60081122B51900236E07005F58202176F9079
:1016B6000236E4F0AF090FFEBE10005012EE2FF90D
:1016C600EE2416F582E43402F583E0F70E80E9C2D3
:1016D600087E00BE10004003021769EE2FF9870549
:1016E600EE2426F582E43402F583E0FCED6204EC98
:1016F600FB606CD208C007C006C005C003C021123B
:101706002295D021D003D005D006D0077C017A00DF
:10171600BA0600503EEC5B6034C007EC5D24FFE483
:1017260033FFC007C006C005C004C003C002C02105
:10173600C007C0068A821214D615811581D021D021
:1017460002D003D004D005D006D007D0070AEC2C6F
:10175600FC80BDEE2426F582E43402F583EDF00E1E
:101766000216D9A208E433F582850981D00922122E
:101776000236E58260030218520217C5AE82AF83B5
:1017860074022EFEE43FFF7D00BD05005014ED2ED1
:10179600FBE43FFC8B828C83E06004758201220DA2
:1017A60080E775820022AF82900275EFF0EF700E2F
:1017B600900240E06008900240E4F00217C52290D3
:1017C600049DE0FF900239F090049EE042079002EB
:1017D60039EFF0900275E06022900240E0701C90B4
:1017E6000239121782E58260129002487401F09065
:1017F60002411202519002407401F07408C0E0E404
:10180600C0E07441C0E07402C0E0E4C0E090023978
:10181600F5F01257DBAE82AF83E58124FBF581EE4E
:101826004F60287F00BF0800501BEF2441FDE434C1
:1018360002FEEF2439F582E43402F583E08D828ED0
:1018460083F00F80E090023902025122900249741F
:1018560006F090049DE0FF90024AF090049EE0425C
:101866000790024AEFF07416C0E0E4C0E0745FC06F
:10187600E07402C0E0E4C0E0900249F5F01257DBE4
:10188600AE82AF83E58124FBF581EE4F60287F00B1
:10189600BF1600501BEF245FFDE43402FEEF24491F
:1018A600F582E43402F583E08D828E83F00F80E0CA
:1018B60090024902025622AD82AE83AFF074022D29
:1018C600FDE43EFE7C05C007C006C005C00412024A
:1018D60036E582D004D005D006D00760087D4B7E61
:1018E600027F007C147B008C021CEA60158D828EC0
:1018F600838FF01259ACFAA3AD82AE83EA60E80B8F
:1019060080E58B8222AD82AE83AFF0C007C006C0F1
:1019160005120236E582D005D006D007603B7C0072
:10192600BC14005012EC244BFAE43402FB8A828B7E
:1019360083E070030C80E9ECC40354F8FBEC244B01
:10194600F582E43402F583E0F582C003121CE2ACB2
:1019560082D003EC42038B822274022DFDE43EFE0C
:101966008D828E838FF01259ACF58222C009858153
:101976000905810581AD82AE83AFF0E50924FDF846
:10198600E67005F582021A37C007C006C0051202C6
:1019960036E582D005D006D0076051E50924FDF86A
:1019A600E6C423541FFCBC1400503CEC244BFFE45B
:1019B6003402FEE50924FDF886E05407F5F005F04B
:1019C6007D017A008006ED2DFDEA33FAD5F0F78F1A
:1019D600828E83E0FB7C00ED5203EA5204EB4C243A
:1019E600FFE433F582804A758200804574022DFD3E
:1019F600E43EFEA809087600A80908B60500502EA0
:101A0600A80908E62DFAE43EFB8F048A828B838CB4
:101A1600F01259ACFAE50924FDF8E6B5020575821F
:101A260001800EA80908A90909E604F780CA75828B
:101A360000850981D00922C009858109C082C08339
:101A4600C0F07CFF7B00C3EB64809485503AC004F1
:101A5600A80908740226FAE40836FC088607EB2A69
:101A6600FAE43CFC8A828C838FF01259ACFFE509BC
:101A760024FDF8E6B50704D004800DD004BCFF05AC
:101A8600EF70028B040B80BEBB052ABCFF028025CB
:101A9600A80908740226FDE40836FE088607EC2D20
:101AA600FCE43EFB8F028C828B838AF0E50924FDE1
:101AB600F8E6125724850981D00922C009858109D3
:101AC600058105810581AD82AE83AFF074022DFDDF
:101AD600E43EFE7C00BC05005037A80908EC2DF654
:101AE600E43E08F608A607A8090886820886830841
:101AF60086F01259ACFBE50924FDF8E6B5030FA8FC
:101B0600090886820886830886F0E41257240C802A
:101B1600C4850981D00922C009858109AD82AE83B9
:101B2600AFF0E50924FDF8E6C423541FFCBC1400FD
:101B3600503B74022DFDE43EFEEC2DFCE43EFB8F93
:101B460002E50924FDF886E05407F5F005F0740176
:101B5600800225E0D5F0FBFF8C828B838AF0125938
:101B6600AC42078C828B838AF0EF125724D009226D
:101B7600C009858109AD82AE83AFF0E50924FDF881
:101B8600E6C423541FFCBC1400503C74022DFDE433
:101B96003EFEEC2DFCE43EFB8F02E50924FDF886B3
:101BA600E05407F5F005F07401800225E0D5F0FB5E
:101BB600F4FF8C828B838AF01259AC52078C828B8D
:101BC600838AF0EF125724D00922C009858109AD16
:101BD60082AE83AFF0C007C006C005120236E582AA
:101BE600D005D006D0076015E50924FDF8E6C0E06B
:101BF60090024975F000121B1D15818013E509241A
:101C0600FDF8E6C0E08D828E838FF0121A3D1581B5
:101C1600D00922C009858109AD82AE83AFF0C00725
:101C2600C006C005120236E582D005D006D0076090
:101C360015E50924FDF8E6C0E090024975F00012AA
:101C46001B7615818013E50924FDF8E6C0E08D8238
:101C56008E838FF0121AC11581D00922AD82AE8310
:101C6600AFF0C007C006C005120236E582D005D027
:101C760006D00760187414C0E0E4C0E0C0E090022B
:101C86004BF5F01259521581158115812274022DDA
:101C9600FDE43EFE7405C0E0E4C0E0C0E08D828E47
:101CA600838FF01259521581158115812290049D5A
:101CB600E0F58222AF8290049DE04FF022E582F4A7
:101CC600FF90049DE05FF022E58290049DF0229053
:101CD600049DE4F02290049EE0F58222AF827E000D
:101CE600EFC4540FFD60048D077E04EF0303543FD9
:101CF600FD60088D078E0574022DFEEFC313600587
:101D06008E07EF04FE8E8222AF82BFA502800ABF35
:101D1600A6028009BFA70E8008900001229000024B
:101D2600229000042290000022AF82BFA800500338
:101D3600021DF4EF243D5003021DF4EF2458FF2446
:101D46000A83F582EF241F83F583E473888C9094CD
:101D560098A4ACB0A8B4B8BCC8CCD0D4D8DCE89CA5
:101D6600A0E0E4C0C4ECF01D1D1D1D1D1D1D1D1DA4
:101D76001D1D1D1D1D1D1D1D1D1D1D1D1D1D1D1D8D
:101D86001D1D9000E2229000E9229000EA229000B8
:101D9600B5229000B6229000B3229000B4229000A3
:101DA600B7229000CC229000CD2290018322900190
:101DB6008A22900192229001942290019F22900102
:101DC600CB2290022122900223229002242290020A
:101DD6002522900226229002272290006F22900050
:101DE600702290022A2290029F229002A022900046
:021DF6000022C9
:025F050000009A
:101DF800900276E4F0900277F0900278F090027901
:101E0800F090027AF090027BF022AF82900276EF97
:101E1800F02222021E1A740AC0E090027D12429B30
:101E2800AF8215818F8222900287E4F01256727475
:101E38000AC0E090027D1243411581025678900253
:101E4800877401F022900287E06003021E2F22C0EF
:101E580009858109AF82BF00028038BF0102800571
:101E6800BF02308017E50924FCF88682125712AFAA
:101E780082E50924FBF8E62FF5828036E50924FD82
:101E8800F8868212571BAF82E50924FBF8E62FF586
:101E980082801FE50924FCF8E6C0E0E50924FDF886
:101EA80086821256EBAF821581E50924FBF8E62FEE
:101EB800F582D00922C009E581F5092406F581AF2C
:101EC80082BF55005064E50924FBF8A90909E6F723
:101ED80008E609F708E609F78F03EB75F003A4D3C2
:101EE80094FFF4FBA8090886820886830886F0EB2D
:101EF800125724A80908740126FAE40836FB088654
:101F0800068A828B838EF0E4125724A8090874028B
:101F180026FCE40836FD088606EF75F003A48C82DB
:101F28008D838EF0125724021FF8BFAA0050668FC7
:101F380006EE24ABFFE50924FBF8A90909E6F70832
:101F4800E609F708E609F7A80908868208868308DB
:101F580086F0E4125724A809080426FAE40836FD96
:101F6800088606EF75F003A48A828D838EF01257D7
:101F780024A80908740226FCE40836FD0886068FA2
:101F880003EB75F003A4D394FFF48C828D838EF059
:101F9800125724805BEF2456FFE50924FBF88604DA
:101FA800088605088606EF75F003A48C828D838E5B
:101FB800F0125724E5092404F874012CF6E43D08CE
:101FC800F608A606EF75F003A4D394FFF4FFE5091D
:101FD8002404F886820886830886F0EF1257247452
:101FE800022CFCE43DFD8C828D838EF0E412572494
:101FF800850981D00922C009E581F5092406F58102
:10200800AF82BF0360E50924F7F886020886030853
:102018008607E5092404F874012AF6E43B08F60863
:10202800A60774022AFCE43BFD8F068C828D838E02
:10203800F0E50924FAF8E6125724E5092404F8869D
:10204800820886830886F0E50924FAF9E7125724FE
:102058008A828B838FF0E50924FAF8E612572475F3
:1020680082010221ABBF040040067582000221AB49
:10207800E50924FBF8E6C0E0E50924FCF8E6C0E041
:10208800E50924FDF8E6C0E08F82121E57AF8215DD
:102098008115811581E50924F7F8E6C0E008E6C056
:1020A800E008E6C0E08F82121EBD158115811581FA
:1020B800E50924F7F886050886060886078D828EC6
:1020C800838FF01259ACFC7B00E50924FAF8A909C2
:1020D80009E6F7097700C007C006C005A80908E6A1
:1020E800C0E008E6C0E08C828B8312573FAC8315B2
:1020F800811581D005D006D0078C038D828E838F01
:10210800F0EB125724E5092404F874012DF6E43E97
:1021180008F608A607E5092404F8868208868308D5
:1021280086F01259ACFC7B00C007C006C005A809A0
:1021380008E6C0E008E6C0E08C828B8312573FAC0B
:102148008315811581D005D006D0078C03E50924B5
:1021580004F886820886830886F0EB1257247402F6
:102168002DFDE43EFE8D828E838FF01259ACFC7BF0
:1021780000C007C006C005A80908E6C0E008E6C018
:10218800E08C828B8312573FAC8315811581D00573
:10219800D006D0078C038D828E838FF0EB125724E4
:1021A800758201850981D00922C009858109AF821C
:1021B800BF031DE50924F8F8860408860508860685
:1021C8008C828D838EF074FF125724758201805A99
:1021D800BF040040057582008050E50924FBF8E63D
:1021E800C0E0E50924FCF8E6C0E0E50924FDF8E6CE
:1021F800C0E08F82121E57AF82158115811581E5C7
:102208000924F8F88604088605088606BF80005069
:1022180005EF2FFB800774FFC39F25E0FB8C828DA1
:10222800838EF0EB125724758201D0092290028820
:10223800E4F0A3F090028AF090028BF022E582701D
:10224800012290028AE0601090028AE4F0900288ED
:10225800F0A3F090028BF022900288E0FEA3E0FF4A
:10226800C3EE9408EF94525023900288E02401FEB4
:10227800A3E03400FF900288EEF0EFA3F0C3EE94E1
:1022880008EF9452400690028B7401F02290028A63
:102298007401F022AF82BF01028005BF0214800BD7
:1022A80090028BE024FFE433F58222A201E433F5A7
:1022B80082227582002290028C740AF012418C905E
:1022C800000A122C0D90027675F00012364FE58246
:1022D800600790027AE060012290000A122C0D90AB
:1022E800028CE014F0E070D422124700AF82C007DD
:1022F80012229CE582D0077007BF010122022295B5
:1023080090028BE4F0BF0203048001E4B401009260
:10231800085007C021124143D021C0211223F2D016
:1023280021C02112567ED021C021124781D021A27E
:1023380008E433F582C021123098D021C021124719
:1023480087D021C021125615D021C0211223F5D0E3
:10235800213008031222BE02229590028D7401F0EA
:1023680090028EE4F002312FD310AF01C3C0D09099
:10237800028FE0FEA3E0FFD0D092AF8E828F83223F
:1023880075820012314412163B90028FE0FEA3E0E2
:10239800FF90028F74012EF0E43FA3F022758201B2
:1023A800123144124E01E4C0E0900276F5F0124E6C
:1023B80030AF821581C007124EF3D0078F820222F8
:1023C8004590028DE0600C90028DE4F090028EF052
:1023D8000223881223A590028EE02401FFF0BF019A
:1023E80000400690028D7401F02202315902315CDE
:1023F800900286E0B40100B39208E433F58222E546
:10240800829002C4F0221223F8E58260069002C48A
:10241800E07004C2088002D208A208E433F58222E0
:10242800AF82C0071223F8AE82D007EEB5070122AB
:10243800EF60047E0180027E00900286EEF0C00705
:10244800121E46D0078F820248CC9002C3E0FFE0FC
:102458006008E4BF020104FF80071223F8AE828EF1
:1024680007EF24FFE433F58222AF82C0071224521B
:10247800AE82D007EEB50701229002C1E0600FEFEF
:1024880060047E0280027E019002C3EEF022900278
:10249800C3E4F08F82022428122452E582B401009A
:1024A8009208E433F5820224717F009002C1E0FEB5
:1024B800C3EF9E5022EF75F004A42491FD740235F9
:1024C800F0FE74022DFDE43EFE8D828E83E06004F2
:1024D800758201220F80D475820022121CB3AF824C
:1024E8005307DD9002C1E0FEE0606BEE14FDC2D53B
:1024F80075F004ED30E704B2D5F404A430D50AF43D
:102508002401C5F0F43400C5F02491FC740235F0C0
:10251800FD74022CFCE43DFD8C828D83E060371E47
:10252800C2D575F004EE30E704B2D5F404A430D572
:102538000AF42401C5F0F43400C5F02491FD7402B6
:1025480035F0FE74032DFDE43EFE8D828E83E0603F
:102558000B43070280069002C2E042078F822212D4
:1025680024E3021CCEAF829002C1E0FE1E8E05ED70
:1025780020E731C2D575F004ED30E704B2D5F40494
:10258800A430D50AF42401C5F0F43400C5F0249130
:10259800F582740235F0F583E0B507038E82221DBB
:1025A8008D0680CB7582FF22AF828F06EE04FD90E8
:1025B80002C1E0FCC3ED9C50580EC2D575F004EE84
:1025C80030E704B2D5F404A430D50AF42401C5F0E8
:1025D800F43400C5F02491FD740235F0FE7B00EF61
:1025E80075F004A42491F9740235F0F87A00C00754
:1025F8007404C0E0E4C0E0C005C006C00389828856
:10260800838AF01258BFE58124FBF581D0070F803B
:1026180099EC149002C1F022C009858109AF827E2D
:10262800007D00BD14005030ED75F004A42412FBA9
:10263800745B35F0FC8B828C83E493B507158B8231
:102648008C83A3E493FCE50924FDF8E6B504048E25
:102658008280080D8D0680CB7582FFD009229002FA
:10266800C1E070189002C3E0FFE06010E4BF02010F
:1026780004FF9002C3E4F08F82022428229002C152
:10268800E4F0122567022666C009858109058105DF
:1026980081AE82AF838E048F05BCE105BD00028048
:1026A80006BCE548BD00458E035303078BF005F0D3
:1026B8007401800225E0D5F0FBFBE50924FDF8E66E
:1026C80060089002C2E04BF08009EBF4FB9002C274
:1026D800E05BF01224B1E58270067582010228AF32
:1026E8001225671217757582000228AFC3EC94048F
:1026F800ED9400400774A49CE49D50067582010285
:1027080028AFE50924FDF8E670030228329002C1DB
:10271800E0FFBF0C0040067582010228AF9002C29C
:10272800E0B401009208B3E433FFC007C0061224E6
:102738000EE582D006D0076015C007C006C0078E18
:1027480082122620AD821581D006D00780027DFF37
:10275800C0079002C1E0FC04F0EC75F004A4ABF0F3
:102768002491FCEB3402FB8C828B83EEF074022CF8
:10277800FAE43BFFBDFF03D38001C39208B392097B
:102788008A828F83A209E433F0A8090874012CF621
:10279800E43B08F6D00720081CC007ED75F004A438
:1027A8002412FA745B35F0FF8A828F83A3A3E49323
:1027B800FAD00780028E02A809088682088683EA72
:1027C800F074032CFCE43BFB20081DC004ED75F0FD
:1027D80004A42412FA745B35F0FC8A828C83A3A3C8
:1027E800A3E493FED00480028F06EE24FFE4338C2A
:1027F800828B83F0BDFF101224B1E582600312259D
:10280800677582010228AF122567A8090886820821
:102818008683E0FFC00790023975F000121BD015BF
:10282800811217757582000228AF8E8212256DE518
:1028380082FF30E705758201806DC2D575F004EF1F
:1028480030E704B2D5F404A430D50AF42401C5F065
:10285800F43400C5F02491FD740235F0FE8D828EAB
:1028680083A3A3E0FC8D828E83A3E0FE8F82C00643
:10287800C0041225B0D004D006EC70121224B1E5C1
:102888008260031225671226667582018019C006C8
:1028980012256790023975F000121C19158112175C
:0D28A80075122666758200850981D009220F
:105B120035012E011F012F0023012E002401230134
:105B22002501340126012501270126012D018701C6
:105B32002E002D012E0133012F0030002F013001E4
:105B42003000320030013201310087003101890119
:105B5200330134003400240134011F0135002F01C8
:1028B500AF838F0653061F7FE0EE30E3047FE3808E
:1028C5000EEE30E2047FE28006EE30E1027FE1EEBB
:1028D50030E4068F0674042EFF7E008F828E8322DD
:1028E500E58275F007A424C5FE740235F0FF8E82DB
:1028F5008F837402F08E828F83A3A3A3E0FEA3E0EF
:10290500FF8E828F831228B5AE82AF837401C0E03B
:102915008E828F831215DE158122C009858109AF4C
:10292500827E007D00BD0200503FC006ED75F007B8
:10293500A424C5FB740235F0FC8B028C068A828EBA
:1029450083E0D006601E8B828C83A3E0B507158BD0
:10295500828C83A3A3E0FCE50924FDF8E6B5040415
:102965008E8280080D8D0680BC758202D00922C03A
:1029750009858109AF82C007E50924FDF8E6C0E0B5
:102985008F8212291FAE821581D007E50924FAF836
:10299500E67003022A867D00BD0200502EED75F01B
:1029A50007A424C5F582740235F0F583E0FCBC016B
:1029B50017EDB5060280118D82C007C006C005124D
:1029C50028E5D005D006D0070D80CDE50924FBF814
:1029D500860408860574E02D5009C374FF9C743F76
:1029E5009D5006758200022B4E7D00BD0200506D84
:1029F500ED75F007A424C5FB740235F0FC8B068C3D
:102A0500028E828A83E070528E828A837401F08BF3
:102A1500828C83A3EFF08B828C83A3A3E50924FD2D
:102A2500F8E6F08B828C83A3A3A3E50924FBF8E6E3
:102A3500F008E6A3F074052BFFE43CFEC007C006D2
:102A4500122370AA82AC83D006D0078F828E83EAC8
:102A5500F0ECA3F0758201022B4E0D808EE5092462
:102A6500FBF886820886831228B5AD82AF83740190
:102A7500C0E08D828F831215DE1581758201022BD0
:102A85004EBE0241E50924FBF8860508860774E079
:102A95002F502CC374FF9D743F9F4023E50924FBF1
:102AA500F886820886831228B5AD82AF83E4C0E03C
:102AB5008D828F831215DE1581758201022B4E756D
:102AC5008200022B4EEE75F007A424C5FE74023574
:102AD500F0FF8E048F058C828D83E0FBBB01368E63
:102AE500828F83A3A3A3E0FB7A00C005C004C003C3
:102AF500C0027401C0E08B828A831215DE1581D075
:102B050002D003E4C0E08B828A831215DE1581D0E2
:102B150004D005802B8E828F83A3A3A3E0FEA3E0C0
:102B2500FF8E828F83C005C0041228B5AE82AF83A5
:102B3500E4C0E08E828F831215DE1581D004D005A6
:102B45008C828D83E4F0758201D00922122370AE48
:102B550082AF837D00BD02005048ED75F007A424C7
:102B6500C5FB740235F0FC8B828C83E0FABA012F29
:102B75008B828C83A3A3A3A3A3E0FBA3E0FCEEC3FA
:102B85009BFBEF9CFCC3EB941DEC940140118D82E3
:102B9500C007C006C0051228E5D005D006D0070D30
:102BA50080B3227910E9440060237A017B057C5FBC
:102BB5007D9D7E048C838B82E493A3AB82AC838E54
:102BC500838D82F0A3AD82AE83D9E9DAE775820001
:102BD50022AE82AF83BE0005BF0003801A0F8013AB
:102BE50075B10000000000000000000000000000BA
:102BF500000000DEEBDFE922AE82AF83EE4F70010D
:102C0500228E828F83022BD6AE82AF838E048F05F0
:102C15001EBEFF011FEC4D60109003E8C007C00603
:102C2500122BFDD006D00780E322C2AF75F0A57444
:0F2C35005A02FF00758F01229002D3E5B1F02201
:030165007508FF1B
:102C440075080253A8FB3275080353A8F7327508B8
:102C54000453A8EF3275080553A8DF3275080653EC
:102C6400A8BF3275080953A9FB3275080A53A9F79E
:102C74003275080B53A9EF3275080C53A9DF32756E
:102C8400080D53A9BF32C009858109AF82D310AFA3
:102C940001C3C0D0EF60027401FF8FA77F00E50974
:102CA40024F9F8C3EF96502E8F06E50924FCF88624
:102CB400040886057B00EE2CFCEB3DFDE50924FAB7
:102CC400F8EF26FBE40836FE8C828D83E4938B8236
:102CD4008E83F00F80C875A700D0D092AFD00922A0
:102CE400C009858109AF82D208D310AF01C3C0D017
:102CF400EF60047F0180027F008FA77F00E5092435
:102D0400F9F8C3EF9650388F06E50924FCF88604D9
:102D14000886057B00EE2CFCEB3DFD8C828D83E464
:102D240093FEE50924FAF8EF26F582E40836F583E4
:102D3400E0FDEEB505028004C20880030F80BE7575
:102D4400A700D0D092AFA208E433F582D00922C004
:102D540009858109AF82D310AF01C3C0D08FA7E525
:102D64000924FCF80886F7E50924FCF886FBE50944
:102D740024FAF886FCE50924FBF886F275F3057558
:102D8400F40A75F50975F606000000000075F700F1
:102D940075A700D0D092AFD00922C009858109055A
:102DA40081E58260027401FFA80908A6077E00E598
:102DB4000924F9F8C3EE965043E50924FAF8EE26FF
:102DC400F582E40836F583E0FD8E04E50924FCF879
:102DD40086020886037F00EC2AFAEF3BFBC006C09C
:102DE40005746EC0E0C002C003A809088682122DD3
:102DF40053E58124FCF581D0060E80B31581D009FA
:102E040022C009858109E58260027401FFE4C0E003
:102E140074E6C0E0E50924FCF8E6C0E008E6C0E09A
:102E24008F82122D53E58124FCF581D0092275B2DD
:102E34000875BC02E5BC20E20575B10080F643BC10
:102E44000143B204227F00BFC8005004000F80F782
:102E540022D310AF01C3C0D043B20843BC0275B142
:102E640000122E4975BC0375B20C75B100D0D09216
:102E7400AF22C009858109C082C083C0F0E509245E
:102E8400FDF8E624EF40327C00E50924FDF8C3ECAC
:102E9400965026EC2420FAE43411FBA80908EC2609
:102EA400FDE40836FE0886078D828E838FF0125962
:102EB400AC8A828B83F00C80D0850981D00922C032
:102EC40009858109C082C083C0F0E50924FDF8E6C4
:102ED40024BF40327C00E50924FDF8C3EC9650265B
:102EE400EC2480FAE43411FBA80908EC26FDE4087C
:102EF40036FE0886078D828E838FF01259AC8A8243
:102F04008B83F00C80D0850981D009227F00BFFF1C
:102F1400005012E59930E20D900028C007122BFDF5
:102F2400D0070F80E9227F00BFFF005012E59A30DE
:102F3400E20D900028C007122BFDD0070F80E92274
:102F440075960075945F7595117591C043A901221A
:102F540075960053913B53A9FE22C009858109ADA2
:102F640082AE83AFF0C007C006C005122F10D00593
:102F7400D006D007E50924FDF8E6C0E08D828E83F3
:102F84008FF0122E761581539CE0E50924FDF8E6B6
:102F9400429C439904D00922C009858109AD82AEBF
:102FA40083AFF0C007C006C005122F2AD005D00693
:102FB400D007E50924FDF8E6C0E08D828E838FF00A
:102FC400122EC31581539D80E50924FDF8E6429D28
:102FD400439A04D009222222C021C0E0C0F0C0825A
:102FE400C083C007C006C005C004C003C002C0013E
:102FF400C000C0D075D000AF86AEA7C007C006120F
:103004000664D006D0078EA78F86D0D0D000D0011A
:10301400D002D003D004D005D006D007D083D0820C
:10302400D0F0D0E0D0210200B422E58270044391B4
:10303400012202031353B2FB53BCFE53BCFD53B233
:10304400F722AF8243948553927AEF700475A901F5
:103054002275A900538FFE2200758E554387020006
:10306400000000000022AF825392FD5391FE9002B3
:10307400D4E060084391029002D4E4F0EF70097543
:10308400945F43A901C20122438F019001F4122BE2
:10309400FD0202D6AF82C00712302E123039D0079B
:1030A4008F82C00712304675B1009002D4E4F0124A
:1030B400305C122E55D0078F8202306AC021C0E0E6
:1030C400C0F0C082C083C007C006C005C004C003EE
:1030D400C002C001C000C0D075D0001231079002F8
:1030E400D47401F0D0D0D000D001D002D003D004E9
:1030F400D005D006D007D083D082D0F0D0E0D02144
:103104000200B475E8002212310775BAF375B640AF
:10311400D2A922C2A9023107AE82AF83C2CA8F05E7
:103124008DCB8ECA8DCD8ECCD2CA22C2CA75C800B0
:1031340075C90090FCDF12311CC2CFD2A8D2CA22BA
:10314400E58270067E377FFF80047EDF7FFC8E82FF
:103154008F8302311CC2A822D2A822C021C0E0C0A1
:10316400F0C082C083C007C006C005C004C003C04D
:1031740002C001C000C0D075D000C2CF1223C9D094
:10318400D0D000D001D002D003D004D005D006D0D6
:1031940007D083D082D0F0D0E0D0210200B432C076
:1031A40009858109C082C083C0F0C28543E120C281
:1031B40085900003122BFDC2FC43D110C2FCE5092B
:1031C40024FBF8E66068D310AF01C3C0D07B007C59
:1031D40000E50924FCF8C3EB96EC64800886F063F0
:1031E400F08095F05042A80908EB26FAEC0836FE68
:1031F4000886078A828E838FF01259ACF582C00745
:10320400C006C004C003C00212332DAD82D002D068
:1032140003D004D006D0078A828E838FF0ED125734
:10322400240BBB00AC0C80A9D0D092AF805B7E0095
:103234007F00E50924FCF8C3EE96EF64800886F06D
:1032440063F08095F05042A80908EE26FBEF08369B
:10325400FC0886058B828C838DF01259ACF582C0F4
:1032640007C006C005C004C00312332DAA82D003D0
:10327400D004D005D006D0078B828C838DF0EA125F
:1032840057240EBE00AC0F80A953D1EFD2FC53E1FA
:103294007FD28753E1DFD285850981D00922C00915
:1032A400858109AD82AE83AFF0A2B2E433FCC004E1
:1032B400E4C0E0E50924FCF8E6C0E008E6C0E08DDF
:1032C400828E838FF01231A3158115811581D0046C
:1032D4007F00BF3200501FA2B2E433B50402800560
:1032E4007582018014900003C007C004122BFDD026
:1032F40004D0070F80DC758200D00922C0098581C3
:1033040009AD82AE83AFF07401C0E0E50924FCF896
:10331400E6C0E008E6C0E08D828E838FF01231A310
:10332400158115811581D00922AF827E007D00BDF3
:103334000800502DEE2EFEC2B743E580C2B7EF3031
:10334400E70753E17FD2878007C28743E180C287C2
:1033540030860343060153E57FD2B7EF2FFF0D807C
:04336400CE8E822265
:10016800900321E4F090032204F0900323E4F0903C
:100178000324F0900325F0900326F0900327F090D5
:100188000328F0900329F090032AF090032BF090B5
:10019800032CF0900330E4F0900331F0900332F038
:0C01A800900333F0900334F0900335F026
:10336800E5829002F8F022E5829002F9F022AF821D
:103378009002F8E0600475820022EF600475820014
:10338800229002F9E060047582002275820122AF62
:103398008290049FE0FEEFB506012290049FEFF0B3
:1033A8007E007D00ED905B6293FC6017BE0F0050BD
:1033B80012EE24FAFAE43402FB0E8A828B83ECF0D4
:1033C8000D80E1EE04FDEE24FAF582E43402F58383
:1033D800742DF0ED04FEED24FAFDE43402FC7430A3
:1033E8002F8D828C83F0EE24FAF582E43402F58383
:1033F800E4F0C00674FAC0E07402C0E0E4C0E0750E
:103408008200124053158115811581900032122CCB
:103418000DD0068E077E00EE905B6893FD6012EF7C
:1034280024FAFBE43402FC0F8B828C83EDF00E80CF
:10343800E6EF24FAF582E43402F583E4F074FAC086
:10344800E07402C0E0E4C0E07582011240531581C7
:1034580015811581900032022C0DC009858109055E
:103468008105819000FF122C0D9000FF122C0D9009
:1034780000FF122C0D9000FF122C0D9000FF122C53
:103488000D9000FF122C0DA909097F0AEF603CC0BE
:1034980007C00112418CD001D0078F057E008D82B4
:1034A8008E83C007C001122C0DD00189047D007ED7
:1034B800408C828D838EF0C0011239FAE582D001EA
:1034C800D0076004E720E7031F80C175820112332B
:1034D80097758200123825850981D00922AF82C0EC
:1034E80007E4C0E08F82123AF11581900014122C83
:1034F8000DD007E4C0E08F82123AF115812275825F
:1035080002123EA89000C8122C0D758200124007C6
:10351800900064122C0D1241439000C8122C0D1219
:1035280034629000C8022C0DAE82AF8374072EF56A
:1035380082E43FF583E090031FF08E828F83E09052
:103548000318F08E828F83A3A3E0900319F08E8274
:103558008F83A3A3A3E090031AF08E828F83A3A383
:10356800A3A3E090031BF08E828F83A3A3A3A3A33E
:10357800E090031CF074062EF582E43FF583E0909A
:10358800031DF090031E7401F002359490031EE0B1
:1035980070012290031875F000123B68E5826005FF
:1035A80090031EE4F022AE82AF83D2087D01BD15E0
:1035B800005012ED2EFBE43FFC8B828C83E060020E
:1035C800C2080D80E930081F7D00BD0600500FEDD0
:1035D8002412F582E43403F583E4F00D80EC9003C3
:1035E8001275F000023B6874022EFCE43FFD8E82E7
:1035F8008F83A3E0FFC004C0058F82123CDD1581D4
:10360800158122AE82AF83E0FDBD01028005BD02B7
:103618003580198E828F83A3E0FCA3E0FDC004C02F
:1036280005900000123F3115811581228E828F830B
:10363800A3E0FEA3E0FFE4C0E0C0E08E828F831227
:103648003F311581158122C009858109C082C08357
:10365800C0F005810581E5092404F9FA7B007C4066
:103668008A828B838CF0C0011239FAE582D001700E
:1036780005F582023737E720E707C00112418CD0F1
:1036880001A80908740226FAE40836FB08860487AC
:10369800075307078A828B838CF0EF125724A809F7
:1036A8000886050886060886070987045304078DD7
:1036B800828E838FF0EC125724A80908740426FD23
:1036C800E40836FE088607E7A2E3E4338D828E839A
:1036D8008FF0125724A80908740526FDE40836FE61
:1036E800088607E7C454018D828E838FF012572411
:1036F800A80908740326FDE40836FE088607E723B0
:1037080054018D828E838FF0125724A80908740102
:1037180026FDE40836FE0886078704530460ECC4D7
:103728000354078D828E838FF0125724758201858A
:103738000981D00922AD82AE83AFF09004A3E024C2
:1037480001F0A3E03400F09004A3E0FBA3E0FCC385
:10375800EB94D0EC94075001229004A3E4F0A3F07A
:1037680074052DFAE43EFB8F048A828B838CF01259
:1037780059AC9004A5F08D828E838FF0C007C006E7
:10378800C00512364FE582D005D006D00770012259
:1037980074052DFAE43EFB8F048A828B838CF01229
:1037A80059ACFC60169004A5E070109004A1E4F0F8
:1037B800A3F09004A0E0F5820234E59004A1E0FAB9
:1037C800A3E0FB9004A1E0F5F0A3E045F0600E1A39
:1037D800BAFF011B9004A1EAF0EBA3F02274042DB8
:1037E800F9E43EFA8F0389828A838BF01259AC7010
:1037F80003EC60190DBD00010E8D828E838FF012CF
:1038080059ACFD9004A0E0FFEDB50701229004A09B
:10381800E0FFE4C0E08F82123AF1158122E582FFD1
:1038280060098F82C007123397D0079004A0EFF089
:10383800C007E4C0E08F82123AF11581900014129B
:103848002C0DD007E4C0E08F82123AF11581227561
:103858008201123FBC900014122C0D758201023FA8
:10386800BC9003207401F09002F5E4F09002F6F0A9
:10387800229002F6E0FF700122EF20E0067D217E13
:103888000380047D277E037C00EF149002F6F090FD
:1038980002F77401F08D828E838CF0123B689002DF
:1038A800F7E4F022C009858109058105810581AF0A
:1038B800829004A0EFF0C0077401C0E08F82123A32
:1038C800F1158190032FE4F0900064122C0DD007BD
:1038D800E50924FCF88605088606E5092403F87638
:1038E8000AE5092403F8E670030239D3C007C006C5
:1038F800C00512418C90000A122C0D90032D75F012
:10390800001239FAE582D005D006D00770030239D3
:10391800B890032DE0FB20E7030239B8C0078D8279
:103928008E83A3A3530307EBF08D028E0390032E1F
:10393800E0FF5307078A828B83EFF074042DFBE4C2
:103948003EFF90032EE0A2E3E4338B828F83F07472
:10395800052DFBE43EFF90032EE0C454018B828FBB
:1039680083F0A8090874032DF6E43E08F690032EA8
:10397800E0235401FCA809088682088683ECF0A895
:10398800090874012DF6E43E08F690032EE0546011
:10399800C4035407FCA809088682088683ECF08BC8
:1039A800828F83E0D007600890032F7401F0801B9A
:1039B800900014C007C006C005122C0DD005D00613
:1039C800D007E5092403F8160238E990032FE060D0
:1039D80011900032C007122C0DD0078F821234E5E7
:1039E800800A9004A17458F07402A3F0850981D06C
:1039F8000922AD82AE83AFF0C007C006C0051240F1
:103A0800FA900064122BFD123A7DD005D006D0073B
:103A18009002D5E0FCBCBB02800712418C75820085
:103A280022C007C006C0057402C0E0E4C0E09002EE
:103A3800D7F5F01241D5AC8215811581D005D00695
:103A4800D0079002D6E0B50402800712418C758237
:103A580000229002D7E08D828E838FF01257240DBA
:103A6800BD00010E9002D8E08D828E838FF0125730
:103A780024758201229002D574FFF09002D6F0904E
:103A880002D7F09002D8F07404C0E0E4C0E09002DD
:103A9800D5F5F01233001581158122C009858109F9
:103AA800AD82AE83AFF07C00BC05005036C007C0C5
:103AB80006C005C004E50924FCF8E6C0E008E6C035
:103AC800E08D828E838FF01232A2AB821581158130
:103AD800D004D005D006D007EB60057582018006BA
:103AE8000C80C5758200D00922C009858109AF8282
:103AF8009002D574AAF09002D67403F09002D7749D
:103B080001F09002D8E50924FDF8E6F09002D9EF1B
:103B1800F07405C0E0E4C0E09002D5F5F01241D59C
:103B2800AF82158115819002DAEFF07406C0E0E4E7
:103B3800C0E09002D5F5F01232A215811581D009A6
:103B480022AF829002F7E0600122EF60069002F651
:103B5800E4F0229002F5E060069002F67406F02286
:103B6800C00985810905810581AD82AE83AFF090DA
:103B78000320E0600A900320E4F07D307E03FF908C
:103B880002D574AAF09002D6741DF09002D7740280
:103B9800F08D828E838FF01259AC9002D8F07401A8
:103BA8002DFAE43EFB8F048A828B838CF01259AC89
:103BB8009002D9F074022DFAE43EFB8F048A828BBE
:103BC800838CF01259AC9002DAF074032DFAE43EBB
:103BD800FB8F048A828B838CF01259AC9002DBF045
:103BE80074042DFAE43EFB8F048A828B838CF012D6
:103BF80059AC9002DCF074052DFAE43EFB8F048A80
:103C0800828B838CF01259AC9002DDF07C00A809FD
:103C1800087600A80908B606005029C004A80908B3
:103C2800E62DFAE43EFB8F048A828B838CF01259CE
:103C3800ACD00460047C01800BA80908A90909E636
:103C480004F780CF7430C0E07403C0E0E4C0E08DB6
:103C5800828E838FF01200DE158115811581700325
:103C6800FF800590031FE0FF9002DEEFF07F0ABFA0
:103C78001F00500FEF24D5F582E43402F583E4F0F9
:103C88000F80ECC004741FC0E0E4C0E09002D5F5DA
:103C9800F01241D5AF82158115819002F4EFF074CE
:103CA80020C0E0E4C0E09002D5F5F0123AA3AF825C
:103CB80015811581D004EC24FFE433F582C007C0D8
:103CC80004123B49D004D0079002F5ECF08F8285AE
:103CD8000981D00922C009858109AF829002D57473
:103CE800AAF09002D6741DF09002D77402F09002E8
:103CF800D8EFF09002D9E4F09002DAF09002DBF00D
:103D08009002DCF09002DDF0EFB40100B39208E419
:103D180033FF7020FEBE1400501AE50924FCF8EEAB
:103D280026FCE40836FD8C828D83E060047F0180E8
:103D3800030E80E1EF24FFE433FEF582C007C006DE
:103D4800123376AD829002DEEDF0E50924FCF886A8
:103D5800040886058C828D83E09002DFF08C828DCA
:103D680083A3E09002E0F08C828D83A3A3E090020D
:103D7800E1F08C828D83A3A3A3E09002E2F08C8211
:103D88008D83A3A3A3A3E09002E3F08C828D83A389
:103D9800A3A3A3A3E09002E4F074062CF582E43D0B
:103DA800F583E09002E5F074072CF582E43DF58395
:103DB800E09002E6F074082CF582E43DF583E0908B
:103DC80002E7F074092CF582E43DF583E09002E8FF
:103DD800F0740A2CF582E43DF583E09002E9F07472
:103DE8000B2CF582E43DF583E09002EAF0740C2C8C
:103DF800F582E43DF583E09002EBF0740D2CF5823A
:103E0800E43DF583E09002ECF0740E2CF582E43D7D
:103E1800F583E09002EDF0740F2CF582E43DF58314
:103E2800E09002EEF074102CF582E43DF583E0900A
:103E380002EFF074112CF582E43DF583E09002F076
:103E4800F074122CF582E43DF583E09002F1F074F1
:103E5800132CF582E43DF583E09002F2F09002F332
:103E6800E4F0741FC0E0E4C0E09002D5F5F0124120
:103E7800D5AD82158115819002F4EDF07420C0E073
:103E8800E4C0E09002D5F5F0123AA315811581D06F
:103E9800068E82123B49D0079002F5EFF0D0092236
:103EA800AF829002D574AAF09002D67403F0900203
:103EB800D7F09002D8EFF09002D9E4F07405C0E092
:103EC800E4C0E09002D5F5F01241D5AF8215811516
:103ED800819002DAEFF07406C0E0E4C0E09002D509
:103EE800F5F01232A215811581229002D574AAF03C
:103EF8009002D67401F09002D77404F014C0E0E484
:103F0800C0E09002D5F5F01241D5AF821581158138
:103F18009002D8EFF07404C0E0E4C0E09002D5F558
:103F2800F01232A21581158122C009858109AE825D
:103F3800AF839002D574AAF09002D6740BF0900269
:103F4800D77405F09002D8E4F09002D9F09002DA24
:103F5800F09002DBF09002DCF09002DDF08E05902C
:103F680002DEEDF08F069002DFEEF0E50924FCF8A2
:103F780086079002E0EFF0E50924FCF80886079030
:103F880002E1EFF0740DC0E0E4C0E09002D5F5F076
:103F98001241D5AF82158115819002E2EFF0740EBF
:103FA800C0E0E4C0E09002D5F5F0123AA3158115FF
:103FB80081D00922AF829002D574AAF09002D674FB
:103FC80003F09002D723F09002D8EFF09002D9E4E2
:103FD800F07405C0E0E4C0E09002D5F5F01241D5D8
:103FE800AF82158115819002DAEFF07406C0E0E423
:103FF800C0E09002D5F5F01232A21581158122AFEA
:10400800829002D574AAF09002D67403F09002D779
:104018007407F09002D8EFF09002D9E4F07405C06C
:10402800E0E4C0E09002D5F5F01241D5AF821581E9
:1040380015819002DAEFF07406C0E0E4C0E0900267
:10404800D5F5F01232A21581158122C009858109A2
:10405800AF829002D574AAF09002D6741DF0900237
:10406800D77408F09002D8EFF0E50924FBF886052C
:104078000886060886077C057B008D828E838FF074
:104088001259ACFA601ABC1F005015EC24D5F58201
:10409800E43402F583EAF00DBD00010E0C0B80DA62
:1040A8009002D9EBF0BC1F00500FEC24D5F582E448
:1040B8003402F583E4F00C80EC741FC0E0E4C0E047
:1040C8009002D5F5F01241D5AF8215811581900285
:1040D800F4EFF07420C0E0E4C0E09002D5F5F012EF
:1040E80032A215811581900014122C0D123EF2D0C7
:1040F80009229002D574AAF09002D67403F09002B7
:10410800D7740AF09002D8E4F09002D9F07405C090
:10411800E0E4C0E09002D5F5F01241D5AF821581F8
:1041280015819002DAEFF07406C0E0E4C0E0900276
:10413800D5F5F01232A215811581229002D574AA04
:10414800F09002D67403F09002D7740BF09002D866
:10415800E4F09002D9F07405C0E0E4C0E09002D524
:10416800F5F01241D5AF82158115819002DAEFF092
:104178007406C0E0E4C0E09002D5F5F01232A21552
:10418800811581229002D574AAF09002D67403F0AA
:104198009002D7740CF09002D8E4F09002D9F07431
:1041A80005C0E0E4C0E09002D5F5F01241D5AF8239
:1041B800158115819002DAEFF07406C0E0E4C0E0E2
:1041C8009002D5F5F01232A21581158122C0098519
:1041D8008109C082C083C0F07C007A007B00E509B9
:1041E80024FCF8C3EA96EB64800886F063F08095B7
:1041F800F0501FA80908EA26FDEB0836FE088607D6
:104208008D828E838FF01259AC2CFC0ABA00CF0B2A
:0E42180080CC7455C39CF582850981D00922A3
:0D5B6200416972373500204254332E300067
:075F0700FF00000000000094
:10422600C009858109AE82AF837D007C00E5092443
:10423600FDF8C3EC96500EEC2EF582E43FF583E0D4
:104246002DFD0C80E88D82D00922AF82C007740351
:10425600C0E07436C0E07403C0E0E4C0E074ECC0B3
:10426600E0758200122C8AE58124FBF581D0079047
:104276000336E0FEBE5A11900337E0FEBEA5099054
:104286000338E0B507028004C2088002D208A208FB
:10429600E433F58222C009858109AE82AF83E50940
:1042A60024FDF88682C007C006124250E582D00679
:1042B600D0077005F58202433EC007C006E5092413
:1042C600FDF8E6C0E0C006C0077403C0E074ECC0A9
:1042D600E0758200122C8AE58124FBF581E509242C
:1042E600FDF886057C0074032DFD74EC3CFC74011E
:1042F600C0E07436C0E07403C0E0C005C004758237
:1043060000122C8AE58124FBF581D006D0079003A4
:1043160036E0FDC005E50924FDF8E6C0E08E828F93
:1043260083124226AF821581D005EDB50703D380EF
:1043360001C39208E433F582D00922C009858109B8
:10434600AE82AF83E50924FDF88682C007C0061257
:104356004250E582D006D0076030C007C006E509A6
:1043660024FDF8E6C0E0C006C0077403C0E074ECA4
:10437600C0E0758200122CE4AD82E58124FBF58154
:10438600D006D007ED600302444AC007C006E4C069
:10439600E074ECC0E0758200122E0515811581903F
:1043A6000336745AF0900337F4F0900338E5092485
:1043B600FDF8E6F07403C0E07436C0E07403C0E0B4
:1043C600E4C0E074ECC0E0758200122D9EE5812405
:1043D600FBF581D006D007C007C006E50924FDF825
:1043E600E6C0E0C006C0077403C0E074ECC0E07528
:1043F6008200122D9EE58124FBF581D006D007E5CB
:104406000924FDF8E6C0E08E828F83124226AF8231
:104416001581900336EFF0E50924FDF886077E0046
:1044260074032FFF74EC3EFE7401C0E07436C0E0E6
:104436007403C0E0C007C006758200122D9EE58198
:1044460024FBF581D0092243902043983F43A03FA7
:104456004388072243E22043E33F43E43F43E60722
:104466002253EADF53E2DF53EBC053E3C053ECC001
:1044760053E4C053EEF853E6F822E582FF24F050E9
:104486000122EF2F90448E73801E801F8020802192
:1044960080228023802480258026802780288029EA
:1044A600802A802B802C802DC28822C28922C28A33
:1044B60022C2A522C2A422C2A322C2A222C2A12231
:1044C600C2A022C29D22C29C22C29B22C29A22C2A2
:1044D6009922C29822C29522E582FF24F050012239
:1044E600EF2F9044EC73801E801F80208021802255
:1044F6008023802480258026802780288029802A82
:10450600802B802C802DD28822D28922D28A22D258
:10451600A522D2A422D2A322D2A222D2A122D2A002
:1045260022D29D22D29C22D29B22D29A22D2992298
:10453600D29822D29522E5F8540FFFE58825E0FEB1
:1045460074305E4F44C0F582225380E35390F1539A
:10455600B08453887FE5C075C000221245670245C6
:10456600BB758C0575A500758C4575A600758C8583
:1045760075BB00758CC5758D00758C0075E11C7555
:10458600E22E75E33F75E43F75E57B75E68775E7D3
:10459600FF43EA0175EE7875D98FA2FDB392FE430B
:1045A600D14043F81043B0804380A043E9E043ED97
:1045B6008443D9102290FF9C7401F090FF98E4F098
:1045C60090FF9D04F090FF99E4F090FF9E04F09018
:1045D600FF9AE4F075DE01F5DDF5D5F5D2F5C3F504
:1045E600CEF5D6F5D3F5C4F5C1F5D7F5D4F5C5F5B1
:1045F600C290FFBDF090FFA5F090FFEDF090FFD5C3
:10460600F090FFBCF090FFA4F090FFECF090FFD488
:10461600F090FFBBF090FFA3F090FFEBF090FFD37C
:10462600F090FFBAF090FFA2F090FFEAF090FFD270
:10463600F090FFB9F090FFA1F090FFE9F090FFD164
:10464600F090FFB8F090FFA0F090FFE8F090FFD058
:10465600F090FFC3F090FFABF090FFF3F090FFDB1C
:10466600F090FFC2F090FFAAF090FFF2F090FFDA10
:10467600F090FFC1F090FFA9F090FFF1F090FFD904
:10468600F090FFC0F090FFA8F090FFF0F090FFD8F8
:10469600F090FFBFF090FFA7F090FFEFF090FFD7EC
:1046A600F090FFBEF090FFA6F090FFEEF090FFD6E0
:1046B600F090FFC9F090FFB1F090FFF9F090FFE1A4
:1046C600F02243D901C28843E6017F007E00BE1076
:1046D60000501875B1009001F4C007C006122BFDFA
:1046E600D006D00720F8010F0E80E3D28853E6FEED
:1046F60053D9FEBF1003022C2F22208D047F018088
:10470600027F028F822253EADF53E2DF53EBC0536C
:10471600E3C053ECC053E4C053EEF853E6F843E667
:10472600475388B843E43F53A0C043E33F5398C080
:1047360043E2285390D153E9E343E11C5380E3530A
:10474600EE7F43E6C053883FE5EF75EF00E5E7757A
:10475600E7FFE5C075C00053ED8443E57B53B084A5
:1047660053EE9F53E69F53889F53E57F53E15F5374
:10477600D1EFD28ED293C2FED2FF2212470C023163
:104786000B123117C28543E120C285024567A28D0F
:10479600E433900339F0A28EE43390033AF09003A9
:1047A6003AE0F5821256C312137590033AE0F58289
:1047B60012336890033AE0B401009208E433F582BC
:1047C600022407AF82900339EFF0BF00028006BFD4
:1047D600010F023857900285E0F58212382502381B
:1047E6006922AF8290033AEFF08F82C0071256C358
:1047F600121375D0078F82C007123368D007EFB443
:1048060001009208E433F582022407A28DE433FF07
:10481600900339E0FE8F05EDB5060990033BE4F001
:10482600A3F0802890033BE02401F0A3E03400F0DD
:1048360090033BE0A3E0C39401401190033BE4F0F6
:10484600A3F0EF24FFE433F5821247C9A2FDB39229
:10485600FEA28EE433FF90033AE0FE8F05EDB50627
:104866000890033DE4F0A3F02290033DE02401F01C
:10487600A3E03400F090033DE0A3E0C394014011AF
:1048860090033DE4F0A3F0EF24FFE433F582024702
:10489600E822AE82AF83BE4005BF7E028024BE41C1
:1048A60005BF7E028010BE4205BF7E02800CBE435D
:1048B60011BF7E0E800875820122758202227582E2
:1048C600032275820022024C05C009858109AE8249
:1048D600AF83C007C006E50924FDF8E6C0E08E8276
:1048E6008F83122690AD821581D006D007ED700514
:1048F600F582024AF1C3EE9440EF947E5003024AD9
:10490600EEC374509E747E9F5003024AEE8E048F4F
:1049160005EC24C0FC240A83F582EC241583F58378
:10492600E4733D3D3D3D95B1CDE905215B6B7BBE15
:10493600CEDE4A4A4A4A4A494949494A4A494949C0
:104946004A4A4A49E50924FDF8E660031224A0759F
:104956008200024AF1E50924FDF890033FE6F0756E
:104966008200024AF1E50924FDF8900340E6F0755D
:104976008200024AF1E50924FDF8E6600C90034046
:10498600E06006124C24123506758200024AF1E5F3
:104996000924FDF8E6600E90033FE06005124D76AF
:1049A6008003124CE7758200024AF1E50924FDF8FE
:1049B600E6600E90033FE06005124D8E8003124CB8
:1049C600FF758200024AF1E50924FDF8E6600E90C3
:1049D600033FE06005124DA68003124D1B75820051
:1049E600024AF1E50924FDF8E6600E90033FE06017
:1049F60005124DC18003124D36758200024AF1E55B
:104A06000924FDF8E6600E90033FE06005124DDCD8
:104A16008003124D51758200024AF1E50924FDF822
:104A2600E6600E90033FE06005124DEF8003124DE5
:104A360064758200024AF1900339E07076E5092434
:104A4600FDF8E660538E828F83C007C00612489831
:104A5600AD82C005123825D005900285EDF0C0055F
:104A6600121E46D005D006D007900277EDF09002D0
:104A76007A7401F090027BF09004A8EEF0EFA3F0B8
:104A8600122370E5828583F09004A6F0E5F0A3F08A
:104A96009004AA7401F0801B9004A8E0FCA3E0FD3A
:104AA600ECB5060FEDB5070B9004A8E4F0A3F09063
:104AB60004AAF07582008033E50924FDF8E6600358
:104AC600124BFE7582008023E50924FDF8E660039B
:104AD600124C137582008013E50924FDF8E6600385
:104AE600124C1C7582008003758201D00922AE82A9
:104AF600AF83900339E0FD600ABD010E8E828F837D
:104B06000203388E828F8302353022AE82AF8390C5
:104B16000339E0FD600ABD010E8E828F8302035EBB
:104B26008E828F830235AE22AE82AF83900339E048
:104B3600FD600ABD010E8E828F830203848E828FF2
:104B46008302360B22900339E070709004AAE0606D
:104B56005B9004A8E0F5F0A3E045F0604F122370E7
:104B6600AE82AF839004A6E0FCA3E0FDEEC39CFEFC
:104B7600EF9DFFC3EE9430EF941140309004A8E00F
:104B8600FEA3E0FF8E828F83124898AF8290027B4D
:104B9600E4F090027AF07476C0E07402C0E08F828E
:104BA6001238AC158115819004AAE4F0900276754E
:104BB600F00012373D1235941238799004ABE02498
:084BC60001F0A3E03400F0222D
:075F0E00000000000000008C
:104BCE0090027DE4F090027E14F090027F7404F067
:104BDE00900281E4F090028214F09002837401F04E
:104BEE00900284E4F090028504F0900286E4F022B4
:104BFE0090049974C8F022AF8290049BEFF0900459
:104C0E009A7404F0229002847401F0021E469002FF
:104C1E0084E4F0021E46124BCE021E4690027DE048
:104C2E0024FB500690027D7404F090027FE0FFBFDB
:104C3E000100500690027F7401F090027FE024EF95
:104C4E00500690027F7410F0900281E024FB500613
:104C5E009002817404F0900283E0FFBF01005006C1
:104C6E009002837401F0900283E024EF50069002CC
:104C7E00837410F0900286E024FE5005900286E4C4
:104C8E00F0227420C0E07401C0E0E4C0E090034163
:104C9E00F5F01259521581158115817430C0E0E47A
:104CAE00C0E0C0E0900461F5F012595215811581F3
:104CBE00158122900491E4F0900492F0900497F004
:104CCE0090049804F0900493E4F0900494F090040F
:104CDE0095F0900496F002561590027DE0FF0F902D
:104CEE00027DEFF0EF24FB500590027DE4F0021EF2
:104CFE004690027DE0700890027D7404F0800B9067
:104D0E00027DE0FF1F90027DEFF0021E4690027EB4
:104D1E00E0FF2420500890027E74FFF0800774207C
:104D2E002F90027EF0021E4690027EE0FFBF200012
:104D3E00500790027EE4F08007EF24E090027EF0B0
:104D4E00021E4690027FE0FFBF100050060F900239
:104D5E007FEFF0021E4690027FE0FF24FE50061FFA
:104D6E0090027FEFF0021E46900281E0FF0F90024C
:104D7E0081EFF0EF24FB5005900281E4F0021E4615
:104D8E00900281E0FF70089002817404F080061F8B
:104D9E00900281EFF0021E46900282E0FF24205026
:104DAE000890028274FFF0800774202F900282F028
:104DBE00021E46900282E0FFBF2000500790028242
:104DCE00E4F08007EF24E0900282F0021E4690028B
:104DDE0083E0FFBF100050060F900283EFF0021E1B
:104DEE0046900283E0FF24FE50061F900283EFF0F0
:104DFE00021E465380E35390F153B08453887FE5EF
:104E0E00C075C00022900498E0700122900498E4CE
:104E1E00F0FFBF7000500AC007124EFCD0070F8083
:104E2E00F122C009858109900497E02401F0E0FF8A
:104E3E00BF7000403B900497E4F0900283E0FE9038
:104E4E000494E02EF0900499E0FEE06006EE1490DB
:104E5E000499F090049AE0FEE06006EE1490049A35
:104E6E00F090049CE02401F09004987401F08014FA
:104E7E00BF601190027FE0FF900493E02FF090044A
:104E8E00987401F012567E7F00900491E0FEBE06EB
:104E9E0000501190027DE0FEBE0400500C125373C0
:104EAE00AF828005125373AF82EF60061252C912A1
:104EBE005615C208900492E02401F0E0FFBF0300F3
:104ECE00401A900492E4F0900491E02401F0E0FF87
:104EDE00BF07004007900491E4F0D208A208E43323
:104EEE00F582D0092290FF80E053E0DFF022C00966
:104EFE00E581F5092407F581900495E0FFBF0600D2
:104F0E004003024FC1E5092405F9FC7D007E409067
:104F1E00027EE0FB90027DE0FAC001C004C005C035
:104F2E0006C003900493E0C0E0900496E0C0E0C099
:104F3E00078A82121FFEAF82E58124F9F581D00126
:104F4E00EF700302529D900495E075F030A4244159
:104F5E00FE740335F0FF900496E02EF582E43FF5E3
:104F6E0083E7F0900495E075F030A42441FE7403BD
:104F7E0035F0FF74102EFEE43FFF900496E02EF500
:104F8E0082E43FF583E904F8E6F0900495E075F0CD
:104F9E0030A42441FE740335F0FF74202EFEE43F4E
:104FAE00FF900496E02EF582E43FF5830909E7F0C1
:104FBE0002529D900496E0FFBF0800E433FE70039A
:104FCE000250DA90049AE0603690049BE013920847
:104FDE0050047DFF80027D3CA80908A60530080418
:104FEE007C0080027C3CE5092404F8A60430080409
:104FFE007BFF80027B3CA8090808A6030251EC90B7
:10500E000276E030E115A809087632E5092404F8A5
:10501E007678A809080876320251EC308D15A80969
:10502E000876FFE5092404F876B4A8090808760086
:10503E000251EC7F007E00900277E070047FFF80CB
:10504E00027EFF7AFF90027BE0701190049CE030AC
:10505E00E2047DFF80027D008D02802190027AE0C5
:10506E00701B90049CE0543FFD30E5098D04743FA5
:10507E00C39CFC80028D04EC905B6F93FA8A047BD8
:10508E0000A8090876008F027D00C006C004C00388
:10509E00C004C0038A828D8312573FAD83158115DC
:1050AE0081D003D004D006E5092404F8A6058E02AB
:1050BE007D00C004C0038A828D8312573FAD8315D5
:1050CE00811581A8090808A6050251EC208D639070
:1050DE000284E07006900499E06057900279E070C7
:1050EE0008900278E024FE4015A8090876FFE5092D
:1050FE002404F87600A809080876000251EC900204
:10510E0078E0FDBD06004015A809087600E50924E3
:10511E0004F876FFA809080876000251ECA80908E1
:10512E0076FFE5092404F876B4A80908087600028B
:10513E0051EC900281E0FDBD0315A8090876FFE54C
:10514E00092404F876FFA809080876FF0251ECBD81
:10515E0004005078BD00028020BD01028005BD0212
:10516E0018800F8F82125712AD82900494E02DFD9D
:10517E00801E900494E0FD8017EE60047E00800493
:10518E00EF24F8FEEE75F024A4FE900494E02EFDBC
:10519E00E5092405F9FA7E007F40C001C002C00671
:1051AE00C0078D82121EBD158115811581D001A8F3
:1051BE000908E7F6E904F8C001E5092404F9E6F761
:1051CE00D0010909A8090808E7F68012A80908768F
:1051DE0000E5092404F87600A80908087600900472
:1051EE0096E02461FFE43404FEA8090886027D00DF
:1051FE00900282E0FB7C00C007C006C003C0048A98
:10520E00828D8312573FAD8315811581D006D0074D
:10521E008D048F828E83ECF0900496E02471FFE46F
:10522E003404FEE5092404F886047D00900282E031
:10523E00FB7A00C007C006C003C0028C828D8312A9
:10524E00573FAD8315811581D006D0078D048F820F
:10525E008E83ECF0900496E02481FFE43404FEA8E3
:10526E0009080886037D00900282E0FC7A00C007E0
:10527E00C006C004C0028B828D8312573FAD8315CA
:10528E00811581D006D0078D048F828E83ECF0902D
:10529E000496E02401F0E0FFBF1000401890049641
:1052AE00E4F0900495E02401F0E0FFBF0700400514
:1052BE00900495E4F0850981D00922900491E0FFD5
:1052CE0024F9500122EF2F9052D973800C801E804A
:1052DE00308042805480668078900492E0FFE070C7
:1052EE0003D2B122BF0103D2C022D2B022900492C7
:1052FE00E0FFE07003D28422BF0103D2C122D28329
:10530E0022900492E0FFE07003D2C722BF0103D2C5
:10531E00C222D2C622900492E0FFE07003D2822213
:10532E00BF0103D2C322D28F22900492E0FFE0701D
:10533E0003D2B522BF0103D2C422D2B62290049268
:10534E00E0FFE07003D2B422BF0103D2C522D2B374
:10535E0022900492E0FFE07003D29122BF0103D2AB
:10536E009222D29322C0098581090581058190047C
:10537E0091E0FFBF0613900492E075F010A4AEF01A
:10538E002461FDEE3404FE8019EF75F030A4244143
:10539E00FC740335F0FF900492E0C454F02CFDE44D
:1053AE003FFEA80908A60508A606A80908868208D1
:1053BE008683E0FF7C008CC38FCEA8090886820806
:1053CE008683A3E0FC7B008BC48CC1EF4204A8094A
:1053DE00088682088683A3A3E0FF7B008BC58FC25D
:1053EE00EC4207A80908740326FBE40836FC8B82FE
:1053FE008C83E07E0090FFEDEEF08B828C83E0904C
:10540E00FFD5F08B828C83E0FBEF4203A809087472
:10541E000426FEE40836FF8E828F83E07C0090FF28
:10542E00ECECF08E828F83E090FFD4F08E828F832F
:10543E00E0FEEB4206A80908740526FDE40836FFD7
:10544E008D828F83E07B0090FFEBEBF08D828F835C
:10545E00E090FFD3F08D828F83E0FDEE4205A80928
:10546E0008740626FEE40836FF8E828F83E07B00EA
:10547E0090FFEAEBF08E828F83E090FFD2F08E8267
:10548E008F83E0FEED4206A80908740726FDE408A6
:10549E0036FF8D828F83E07B0090FFE9EBF08D82EB
:1054AE008F83E090FFD1F08D828F83E0FDEE420579
:1054BE00A80908740826FEE40836FF8E828F83E062
:1054CE007B0090FFE8EBF08E828F83E090FFD0F0B0
:1054DE008E828F83E0FEED4206A80908740926FD30
:1054EE00E40836FF8D828F83E07B0090FFF3EBF0B4
:1054FE008D828F83E090FFDBF08D828F83E04206FA
:10550E00A80908740A26FDE40836FF8D828F83E011
:10551E007B0090FFF2EBF08D828F83E090FFDAF04C
:10552E008D828F83E0FDEE4205A80908740B26FEDE
:10553E00E40836FF8E828F83E07B0090FFF1EBF064
:10554E008E828F83E090FFD9F08E828F83E0FEED06
:10555E004206A80908740C26FDE40836FF8D828FDA
:10556E0083E07B0090FFF0EBF08D828F83E090FF65
:10557E00D8F08D828F83E0FDEE4205A80908740DE8
:10558E0026FEE40836FF8E828F83E07B0090FFEFCD
:10559E00EBF08E828F83E090FFD7F08E828F83E0C8
:1055AE00FEED4206A80908740E26FDE40836FF8DAE
:1055BE00828F83E07B0090FFEEEBF08D828F83E095
:1055CE0090FFD6F08D828F83E0FDEE4205A809088C
:1055DE00740F26FEE40836FF8E828F83E07B0090E8
:1055EE00FFF9EBF08E828F83E090FFE1F08E828FD9
:1055FE0083E0FEED4206EEB40100B39208E433F50B
:10560E0082850981D0092290FF80748AF090FF81F3
:10561E007408F090FF82F090FF83F090FF84F0907A
:10562E00FF85F090FF86748AF090FF877408F090E3
:10563E00FF88F090FF89F090FF8AF090FF8BF0903A
:10564E00FF8C7482F090FF8DE4F090FF8EF090FF4F
:10565E008FF090FF907408F090FF91F075DA8AF554
:10566E00DBF5DC221223F202567E1256150223F5CA
:10567E0090FF807402F090FF81F090FF82F090FF17
:10568E0083F090FF84F090FF85F090FF86F090FFFE
:10569E0087F090FF88F090FF89F090FF8AF090FFDE
:1056AE008BF090FF8CF090FF90F090FF91F0F5DA78
:0556BE00F5DBF5DC2224
:105B6F00000D1A2733404C5864707C87929CA6B066
:105B7F00B9C2CAD2D9DFE5EAEFF4F7FBFDFEFFFFAA
:1056C300E58260047F0080027F018F8222AF82BF68
:1056D3000203D38001C39208E433F58222C0098513
:0856E3008109758201D0092242
:105B8F0029003A003B003C003D00477E467E400026
:105B9F0041004200430044004500460049004C00CC
:105BAF0035001E001F0020002100220023002400CA
:105BBF002500260027002D002E002A0000004B0094
:105BCF002B0014001A000800150017001C00180005
:105BDF000C00120013002F003000310000004E00A7
:105BEF00E00004001600070009000A000B000D007A
:105BFF000E000F00330034000000280000004A00A0
:105C0F00E1001D001B000600190005001100100027
:105C1F0036003700380000000000E50052004D004C
:105C2F003900E2009128000000002C000000000065
:105C3F0090382252E40000000000500051004F0045
:105C4F0029003A003B003C003D003E003F00400071
:105C5F0041004200430044004500460049004C000B
:105C6F0035001E001F002000210022002300240009
:105C7F002500260027002D002E002A0000004B00D3
:105C8F002B0014001A000800150017001C00180044
:105C9F000C00120013002F003000310000004E00E6
:105CAF00E00004001600070009000A000B000D00B9
:105CBF000E000F00330034000000280000004A00DF
:105CCF00E1001D001B000600190005001100100067
:105CDF0036003700380000000000E50052004D008C
:105CEF003900E3008B24000000002C0000000000AE
:105CFF008A342352E40000000000500051004F008E
:105D0F004B7E01000100010001003E003F00010039
:105D1F00010001000100010001000100010001006C
:105D2F00010001000100010001000100010001005C
:105D3F00010001000100010001000100000001004D
:105D4F00507E417E427E437E407E01000100010075
:105D5F000100010001004D7E4E7E4F7E00000100CC
:105D6F00010001000100010001000100010001001C
:105D7F00010001000100010000000100000001000E
:105D8F0001000100010001004C7E01000100010033
:105D9F00497E487E4A7E000000000100467E0100D9
:105DAF0001000100010000000000010000000000E0
:105DBF0001000100010000000000457E477E447E87
:105DCF004B7EBE00BD000100010003780478BC00CB
:105DDF00AE00BB00A800AA00A9000100010001004D
:105DEF00010001000100010001000100010001009C
:105DFF00010001000100010001000100000001008D
:105E0F00507E417E427E437E407E010001000100B4
:105E1F000100010001004D7E4E7E4F7E000001000B
:105E2F00010001000100010001000100010001005B
