:0600000002010C0233B501
:03000B00023314A9
:03001300022BFDC0
:03001B00022C04B0
:03002300022C0BA1
:03002B00022C1292
:03003300022C1983
:03003B0002322A64
:030043000233F88D
:03004B00022C2064
:03005300022C2755
:03005B00022C2E46
:03006300022C3537
:03006B00022C3C28
:100070000000E2FBEAF2802C0000E0FBEAF08024C2
:10008000E6B50202EBF62200E2B50202EBF2220034
:10009000E0B50202EBF02230F6E0A88220F5D3EAC8
:1000A000C6F582228B822230F6E6A88220F5D9801E
:0100B000CF80
:0301B9000200B190
:0300B10002020A3E
:1001BC00122B50122B4C122E0F12498D12327B1215
:1001CC004825121513121FD5120316124F8A122A24
:1001DC001DD2AF221223EEE5827003124ED7124FBE
:1001EC003122900333E0F582123AC1900333E09050
:1001FC000282F09002857401F0900286F0221201C6
:10020C00BC742FC0E0745DC0E01220E5158115812F
:10021C00743CC0E0745DC0E01220E515811581745A
:10022C0054C0E0745DC0E01220E515811581124ABE
:10023C005B1236BE1201E01223FF1203EF124FBB0A
:10024C001201EE1228E975B100124AFB124E31125E
:10025C00180C12511A1204381225011229A8122B4B
:0A026C00CF122C4312237380DD2211
:105D2F00534D4B2076616C7068610D0A004B422019
:105D3F006E757068792D6169723735202F20616E0D
:105D4F0073690D0A00444556494345207649643A24
:105D5F00307830356163207049643A3078303234AE
:045D6F00660A0D00B3
:100276001204F8AF82BF0106900287E07004C2083C
:100286008002D208A208E433F58222124DD422124B
:100296004DF322C009858109AF82900004EFF090EA
:1002A6000005E50924FCF8E6F008E6A3F090000452
:1002B600124E12D00922AE82AF83900000E0FCA35A
:1002C600E0FDEEB50406EFB505028016900000EEDF
:1002D600F0EFA3F0C006C0077582011202991581DE
:1002E600158122AE82AF83900002E0FCA3E0FDEE12
:1002F600B50406EFB505028016900002EEF0EFA3F6
:10030600F0C006C007758202120299158115812276
:10031600900215E4F0900216F0900217F090021881
:10032600F0900219F0C200C20190021BE4F09002A4
:100336001AF0900210F0A3F0900212F0A3F0A3F0CE
:1003460090021CF0A3F090021EF0123134229002AB
:1003560015E4F0900216F0900217F0900218F09053
:100366000219F0C200C20190021BE4F090021AF0DA
:1003760012314422AE82AF83C007C0061204FFE5E5
:1003860082D006D007700280117D007408C0E08E0E
:10039600828F838DF012314E158122AE82AF83C0DB
:1003A60007C0061204FFE582D006D007700280114E
:1003B6007D007416C0E08E828F838DF012318C150D
:1003C6008122AE82AF83C007C0061204FFE582D049
:1003D60006D007700280117D007403C0E08E828F04
:1003E600838DF012318C1581227E007F008E048F62
:1003F60005C3EC94A0ED940F503775B10090021E22
:10040600E0600E90021CE0F5F0A3E045F0700D8070
:1004160020C3EC94F4ED940140028015900001C0D5
:1004260007C006122B20D006D0070EBE00BF0F80D5
:10043600BC22300203122B4290021FE0FF900007FD
:10044600E0FEEFB50602803D900007E090021FF047
:1004560090000CE0FEA3E0FF90000AE0FCA3E0FDA4
:10046600900008E0FAA3E0FBC006C007C004C00580
:10047600C002C00374BFC0E0745EC0E01220E5E5B0
:100486008124F8F581900220E0FF90000EE0FEEF57
:10049600B50602802490000EE0900220F090000F36
:1004A600E0FE7F00C006C00774F1C0E0745EC0E0E5
:1004B6001220E5E58124FCF581221204FFE5826025
:1004C600071231CCE5827004C2088002D208A20865
:1004D600E433F58222C009858109AE82AF83E5093E
:1004E60024FDF8E6C0E08E828F831231DC1581D0C0
:1004F6000922900218E0F58222900215E0FFBF0261
:1005060003D38001C39208E433F58222C009E58152
:10051600F5092408F581D310AF01C3C0D0AF090F88
:100526007E007D408F828E838DF01214EBD0D092A8
:10053600AFAF090F8F018706EF04F987058E04BC5C
:100546000002802DBC0103020629BE0203020689B1
:10055600BE21030206DEBE80030205E7BE8103025A
:100566000647BE82030206C0BEA103020728020791
:1005760058BD01028014BD03028021BD0502802EF4
:10058600BD0702803BBD0950803C8F037C007E4046
:100596008B828C838EF012089202075E8F037C009A
:1005A6007E408B828C838EF01208D502075E8F0305
:1005B6007C007E408B828C838EF012084B02075E95
:1005C600120ACD02075E8F037C007E408B828C83ED
:1005D6008EF01209FD02075E439708439702020751
:1005E6005EBD0002800ABD06028017BD082C80246D
:1005F6008F037C007E408B828C838EF0120AD4029D
:10060600075E8F037C007E408B828C838EF0120CFB
:100616003502075E1210DD02075E43970843970214
:1006260002075EBD0B128F037C007E408B828C839B
:100636008EF0120A6402075E439708439702020788
:100646005EBD0002800ABD06028017BD0A2C80240A
:100656008F037C007E408B828C838EF0120B1402FB
:10066600075E8F037C007E408B828C838EF0120C9B
:100676003502075E1210F502075E4397084397029C
:1006860002075EBD01028005BD032680128F037C32
:10069600007E408B828C838EF012091802075E8FD3
:1006A600037C007E408B828C838EF01209990207B0
:1006B6005E43970843970202075EBD00128F037CD4
:1006C600007E408B828C838EF0120B7202075E4393
:1006D600970843970202075EBD0902800ABD0A0217
:1006E6008016BD0B3580228F037C007E408B828C6A
:1006F600838EF012111180608F037C007E408B8206
:100706008C838EF0121231804F8F037C007E408BDB
:10071600828C838EF0121268803E439708439702BC
:100726008036BD0102800ABD0202800ABD031B801D
:100736000A12110A8022121256801D7E007D408FF9
:10074600828E838DF01212C2800E43970843970261
:100756008006439708439702850981D00922AF9204
:10076600AE93EF7003020801EF30E3295392F7903E
:10077600021CE0FCA3E0FD90021CE0F5F0A3E045BE
:10078600F0600D1CBCFF011D90021CECF0EDA3F007
:10079600C20102084A5392EF53929FEF30E7095382
:1007A600927F12031602084AEF30E4175392EF9035
:1007B600021C74F4F07401A3F090021EF0120512EC
:1007C60002084AEF30E2065392FB02084AEF30E194
:1007D6000F5392FD900215E0FDBD0268D2018064C0
:1007E600EF30E0605392FE439120000000000000CD
:1007F6005391DF1203164397018049EE6046EE30AF
:10080600E6085393BF439A01803AEE30E5055393C9
:10081600DF8031EE30E40B5393EF1213034397015D
:100826008022EE30E2085393FB1231CB8016EE3075
:10083600E1085393FD1231CA800AEE30E006539365
:10084600FE12136A22AD82AE83AFF090021BE4F073
:1008560074022DFDE43EFE8D828E838FF0125C9530
:10086600FBA3125C954B60089002157401F080059D
:10087600900215E4F08D828E838FF0125C959002C3
:1008860016F0539BF043970243970422AD82AE8342
:10089600AFF090021BE4F08D028E038F048A828BE8
:1008A600838CF0125C95540F701E74022DFDE43E8D
:1008B600FE8D828E838FF0125C95FDA3125C95FEF1
:1008C600BD0105BE0002C200539BF043970422AD52
:1008D60082AE83AFF090021BE4F08D028E038F048C
:1008E6008A828B838CF0125C95540F701E74022DD5
:1008F600FDE43EFE8D828E838FF0125C95FDA31281
:100906005C95FEBD0105BE0002D200539BF04397E5
:100916000422AE82AD83AFF090021BE4F08E028D0E
:10092600038F048A828B838CF0125C95FA53020F34
:10093600BA025974022EFAE43DFB8F048A828B8335
:100946008CF0125C95FAA3125C954A703F74042EE3
:10095600FEE43DFD8E828D838FF0125C95FEA31220
:100966005C95FF4E70085397F75397FD801EBE8126
:1009760008BF00055399F78013BE8208BF000553D0
:100986009AF780084397084397028006539BF043E3
:10099600970422AD82AE83AFF090021BE4F08D0285
:1009A6008E038F048A828B838CF0125C95FA530235
:1009B6000FBA023474042DFDE43EFE8D828E838FC1
:1009C600F0125C95FDA3125C95FEBD8108BE000584
:1009D600439908801BBD8208BE0005439A08801013
:1009E6004397084397028008439708439702800677
:1009F600539BF043970422AE82AD83AFF090021B67
:100A0600E4F0900216E0604974022EFEE43DFD8E8D
:100A1600828D838FF0125C95FEA3125C95FF4E606B
:100A26000A8E048F05BC0121BD001E900217EEF050
:100A3600EE60089002157402F080069002157401AB
:100A4600F0539BF0439704800E4397084397028028
:100A560006439708439702539BF043970422AE82BE
:100A6600AD83AFF090021BE4F074022EFAE43DFB76
:100A76008F048A828B838CF0125C95FAA3125C95A4
:100A86004A703D74042EFEE43DFD8E828D838FF008
:100A9600125C95FEA3125C95FF4E700B539BF043C0
:100AA6009704439702801FBE010EBF000B539BF0B5
:100AB600439704439702800E4397084397028006A4
:100AC6004397084397022243970843970222AD8231
:100AD600AE83AFF090021B7402F08D828E838FF08E
:100AE600125C95540F70203000089011087402F0C3
:100AF6008005901108E4F0901109E4F0539BF0434F
:100B06009B02439704800643970843970222AE82CE
:100B1600AD83AFF08E028D038F048A828B838CF0B7
:100B2600125C95FA53020FBA013B74042EFEE43DA3
:100B3600FD8E828D838FF0125C95FEA3125C95FF6D
:100B46004E6006BE0117BF0014901108E4F0901124
:100B560009F0539BF0439B02439704800E4397088A
:100B6600439702800643970843970222AD82AE83DD
:100B7600AFF08D028E038F048A828B838CF0125C19
:100B860095FA53020FBA02028003020C2E74042D4A
:100B9600FDE43EFE8D828E838FF0125C95FDA312DE
:100BA6005C95FEBD801BBE0018AC97530402E4A200
:100BB600E713CC13CC901108ECF0901109E4F08007
:100BC6005CBD8127BE0024AC99530408E423CCC441
:100BD60023541F6CCC541FCC6CCC30E40244E09000
:100BE6001108ECF0901109E4F08032BD8227BE00B6
:100BF60024AE9A530608E423CEC423541F6ECE5463
:100C06001FCE6ECE30E40244E0901108EEF0901153
:100C160009E4F080084397084397028011539BF03C
:100C2600439B02439704800643970843970222C0DA
:100C360009858109C082C083C0F0E581240BF58156
:100C4600A80908740226FAE40836FB0886048A8294
:100C56008B838CF0125C95FAA3125C95FC8A07BC18
:100C660001547C007A00905EB5E493FDA3E493FE04
:100C76008D828E83E493FF7B00C3EC9FEA9B501E1C
:100C8600EC2410FBEA3400FFEC2DF582EA3EF583F6
:100C9600E4938B828F83F00CBC00CB0A80C87D1056
:100CA6007E007F00900010E0FBE5092404F8A6030F
:100CB60008760002108CBC02028003020E51905E80
:100CC600B9E493FBC3EF9B4003020E51905EBAE476
:100CD60093FAA3E493FBEF75F002A42AF582EB35B1
:100CE600F0F583E493FFA3E493FE74092FFDE43E3D
:100CF600FCE509240DF876000876008F828E83E5E0
:100D0600092406F8E493F6E5092406F886027B0032
:100D1600E509240DF8C3E69A08E69B503EE509244A
:100D26000DF8E5092407F9E62410F708E63400096A
:100D3600F7E509240DF8E62FF58208E63EF583E48B
:100D460093FBE5092407F88682088683EBF0E5091C
:100D5600240DF806B60002080680A0E5092406F868
:100D6600E5092409F9E62410F7E4340009F7E50952
:100D76002407F8A60508A604E509240DF876000858
:100D86007600E5092407F88682088683E493FFA3A4
:100D9600E493FE8F828E83E493FB7A00E509240DAB
:100DA600F8C3E69B08E69A5034E5092409F8E509F4
:100DB600240DF9E726FD09E70836FCE509240DF8B8
:100DC600E62FF58208E63EF583E4938D828C83F068
:100DD600E509240DF806B60002080680A58F828E66
:100DE60083E493FBE5092409F8EB26F6E40836F6D6
:100DF600E5092407F8740226F6E40836F6E5092420
:100E060007F88682088683E493FAA3E4934A60038C
:100E1600020D7E900012E0FAA3E04A7017E509245D
:100E260009F8E6C39410FA08E69400FB900012EA6B
:100E3600F0EBA3F07D107E007F00900012E5092400
:100E460004F8E0F6A3E008F602108CE4BC03010403
:100E5600FB604CEF7049FDFC905EABE493FA7F00BB
:100E6600C3ED9AEC9F5020ED2410FFEC3400FEED0C
:100E760024ABF582EC345EF583E4938F828E83F0A7
:100E86000DBD00D40C80D17D107E007F0090001037
:100E9600E0FAE5092404F8A60208760002108CEBB5
:100EA6007003020F76C0047E00EF24FFFDEE34FFD0
:100EB600FB905EBCE493FA7C00C3ED9AEB64808CF5
:100EC600F063F08095F0D0044003020F76905EBD8B
:100ED600E493FDA3E493FCEF24FFFAEE34FFFBEA70
:100EE6002AFAEB33FBEA2DF582EB3CF583E493FE1D
:100EF600A3E493FD9000107402F090001104F0E555
:100F060009240BF874012411F6E4340008F68E82E5
:100F16008D83E493FF60418F030EBE00010DE5094A
:100F2600240BF88682088683EBF0E509240BF87417
:100F36000126FAE40836FB8A828B83E4F0E509246D
:100F46000BF874012AF6E43B08F6900010E0FB0B60
:100F56000B900010EBF080B67D107E007F009000B5
:100F660010E0FBE5092404F8A60308760002108CBD
:100F7600BC224CA80908740426FFE40836FE08863D
:100F8600058F828E838DF0125C95FA70137D737EC9
:100F96005D7F80E5092404F8764E08760002108C01
:100FA600BA01137DC17E5D7F80E5092404F8768D44
:100FB60008760002108C4397084397020210D7BCAC
:100FC60021028003021084A80908740426FAE408A2
:100FD60036FB0886048A828B838CF0125C95FC7043
:100FE60048FDFC905E69E493FB7A00C3ED9BEC9AA6
:100FF6005020ED2410FFEC3400FEED2469F582EC60
:10100600345EF583E4938F828E83F00DBD00D40C9D
:1010160080D17D107E007F00900010E0FBE5092462
:1010260004F8A603087600805DBC014A7F007E00B6
:10103600905E82E493FA7C00C3EF9AEE9C5020EF18
:101046002410FBEE3400FCEF2482F582EE345EF5CC
:1010560083E4938B828C83F00FBF00D40E80D17D06
:10106600107E007F00900010E0FCE5092404F8A63D
:1010760004087600801043970843970280534397ED
:1010860008439702804BA80908740626FBE4083635
:10109600FA0886048B828A838CF0125C95FBA31275
:1010A6005C95FCE5092404F8C3EB96EC0896400A27
:1010B600E5092404F88603088604C003C0048D826B
:1010C6008E838FF0121395158115811213BB4397EA
:1010D60004850981D0092290021B7402F090021740
:1010E600E0901108F0539BF0439B01439704229034
:1010F600021B7402F0901108E4F0539BF0439B012D
:101106004397042243970843970222C00985810921
:10111600C082C083C0F0E5812406F581A809087461
:101126000226FAE40836FB0886048A828B838CF052
:10113600125C95FEA3125C95FF900008EEF0EFA3FB
:10114600F0A80908E5092404F9740426F7E408362A
:1011560009F708E609F7E5092404F8868208868374
:101166000886F0125C95FEA3125C95FF90000AEECD
:10117600F0EFA3F0A80908E5092407F9740626F795
:10118600E4083609F708E609F7E5092407F8868230
:101196000886830886F0125C95FEA3125C95FF9084
:1011A600000CEEF0EFA3F0900007E004F08A828BCB
:1011B600838CF0125C95FEA3125C95FCBC02028047
:1011C60005BC035B803FE5092404F8868208868314
:1011D6000886F0125C95FCA3125C954C7047E509F5
:1011E6002407F886820886830886F0125C95FCA39D
:1011F600125C95FDBC012EBD002B90021B7404F001
:101206004397018020BE050990021B7405F04397A1
:1012160001BE071190021B7406F043970180064336
:101226009708439702850981D00922AD82AE83AF24
:10123600F074022DFDE43EFE8D828E838FF0125CEB
:1012460095A3125C9590021AF0539BF043970422E3
:1012560090021AE0901108F0539BF0439B014397CC
:101266000422AD82AE83AFF074042DFBE43EFA8F08
:10127600048B828A838CF0125C95FBA3125C95FC2E
:101286004B701874022DF8E43EF98F028882898328
:101296008AF0125C95900218F0801ABB0117BC0008
:1012A6001474022DFDE43EFE8D828E838FF0125C57
:1012B60095900219F0539BF043970422AE82AD83BA
:1012C600AFF074042EFEE43DFD8E828D838FF01206
:1012D6005C95FEA3125C95FF4E700A900218E09092
:1012E6001108F0800EBE010BBF0008900219E090B5
:1012F6001108F0539BF0439B014397042290021B75
:10130600E0FFBF042490021BE4F0901100E0F58298
:10131600121FEF901100E090000FF090000EE00415
:10132600F0539BF0439704803ABF051990021BE4E3
:10133600F0901100E0FEBE052A901101E0FEBE7598
:1013460022D202801EBF061090021BE4F012231365
:10135600539BF0439704800B90021BE4F0539BF0E1
:101366004397042290021BE0FFBF010B1213BB43FD
:1013760097044397018017BF0208439701439708D4
:10138600800C439708439701900216E0F59622C019
:1013960009858109AFF0AE83E582900212F0EEA3D3
:1013A600F0EFA3F0E50924FCF8900210E6F008E659
:1013B600A3F0D00922900210E0FEA3E0FF4E700FCA
:1013C60090021B7402F0539BF0859B9B02149D8E2A
:1013D600048F05C374089CE49D505990021B740148
:1013E600F0900212E0F9A3E0FAA3E0FB7408C0E073
:1013F60089828A838BF012149E1581900210E0FA7E
:10140600A3E0FBEA24F8FAEB34FFFB900210EAF0C3
:10141600EBA3F0900212E0F9A3E0FAA3E0FB90023E
:1014260012740829F0E43AA3F0EBA3F0539BF043BF
:101436009B088063BC0832BD002F90021B7401F02C
:10144600900212E0FBA3E0FCA3E0FD7408C0E08B71
:10145600828C838DF012149E1581900210E4F0A305
:10146600F0539BF0439B08802E90021B7402F09071
:101476000212E0FCA3E0FDA3E0FFC0068C828D8390
:101486008FF012149E1581539BF0900210E0FEA37C
:10149600E0AD9BEE4DF59B22C009858109C082C057
:1014A60083C0F0E50924FDF8E624F740327C00E528
:1014B6000924FDF8C3EC965026EC2408FAE434110E
:1014C600FBA80908EC26FDE40836FE0886078D828F
:1014D6008E838FF0125C958A828B83F00C80D08588
:1014E6000981D00922AD82AE83AFF07C00BC080032
:1014F600501AEC2DF9E43EFA8F038C82758311E0C5
:0D15060089828A838BF0125AA00C80E122AA
:105D730005010906A101050719E029E71500250119
:105D830075019508810275089501810105071900C0
:105D930029FF150026FF0075089505810005FF09F9
:105DA30003750895018102050819012905150025C8
:105DB30001750195059102750395019101C00501D6
:105DC3000980A10185011981298315002501750128
:105DD3009503810295058101C0050C0901A1018587
:105DE3000219002A3C021500263C02751095018118
:105DF30000C00600FF0901A101850519012902154B
:105E03000026FF0075089505B102C00631FF09742D
:105E1300A10185070975150026FF007508952081E6
:105E230002C005010906A1018506050719E029E756
:105E33001500250175019508810205071900299FA1
:105E430015002501750195A08102C0120110010002
:105E5300000008AC054F0200000102030109040021
:105E6300000103010100092111010001224E000775
:105E7300058103100001090401000103000000096A
:105E83002111010001228D00070582034000010951
:105E9300020000020100A0FA605E695E725E795E34
:105EA300825E8B5E0000925E04030904FC5E005F69
:105EB3000C5F4E5E000001A95E03AF5E5345545F65
:105EC3005245504F5254207756616C75653D2530CD
:105ED30034782077496E6465783D253034782077AF
:105EE3004C656E6774683D253034780D0A004C4567
:105EF3004420253032780D0A00534D4B004169721E
:0E5F030037352028534D4B2900303030310007
:10151300900242E4F0900243F0900241F0FFBF10CA
:1015230000501BEF2421F582E43402F583E4F0EF4D
:101533002431F582E43402F583E4F00F80E022E500
:1015430082900243F022C009858109AE82AF839065
:101553000242E0FDE070068E828F838045ED75F0D8
:10156300C0A4248AFC746035F0FDE50924FDF8E687
:10157300C42354E02CFCE43DFDE50924FCF8E626F5
:101583002CF582E43DF583E493FCA3E493FD8C0204
:101593008D03BA0105BB000280048C068D078E8281
:1015A3008F83D00922C009858109AE82AF838E045F
:1015B3008F05C3EC94E0ED9400404574E79CE49DF3
:1015C300403EE50924FDF8E660198E0374075BF5D8
:1015D300F005F07401800225E0D5F0FBF582121EC0
:1015E3006C80178E0374075BF5F005F074018002BD
:1015F30025E0D5F0FBF582121E751218E10216A044
:10160300C3EC9404ED9400403474A49CE49D402DF9
:10161300E50924FDF8E660118E03C00390024475CA
:10162300F000121D811581800F8E03C003900244C8
:1016330075F000121DCA15811218E18060C3EC9485
:10164300A5ED9400402974A79CE49D4022E509245C
:10165300FDF8E6600D8E038B82121EC0AA82AB8357
:1016630080047A007B008A828B831202BC802EC3A3
:10167300EC94A8ED9400402574C29CE49D401EE5C3
:101683000924FDF8E6600B8E82121EE4AE82AF835E
:1016930080047E007F008E828F831202E9D00922AC
:1016A300C009858109AF82900243E075F0C0A4248C
:1016B3008AFD746035F0FEEFC42354E02DFDE43E53
:1016C300FEE50924FDF8E6262DF582E43EF583E4E4
:1016D30093FDA3E493FE8D038E04C3EB9420EC945B
:1016E30052403A743F9B74529C4032E50924FCF803
:1016F300E660148D0453041F900242ECF08C8212B6
:101703005A0012191C804090024475F000121E13F7
:10171300900242E4F075820012191C802AE5092424
:10172300FDF8E6C0E0C0078D828E83121549AE82B4
:10173300AF8315811581E50924FCF8E6C0E08E82AC
:101743008F8312174D1581D00922C009858109AEF7
:1017530082AF83C007C006E50924FDF8E6C0E08E2A
:10176300828F83124BBAAD821581D006D007ED70FC
:10177300028031C007C006E50924FDF8E6C0E08E0B
:10178300828F83125A10AD821581D006D007ED7077
:10179300028011E50924FDF8E6C0E08E828F8312F2
:1017A30015A81581D009221259AE1248131246FC0E
:1017B3001246EF7F00BF100050428F82C0071247CE
:1017C3002290000A122B0E124800AE8290000AC02B
:1017D30006122B0E124800AD82D006D007EEB505D7
:1017E3000FEF2421FCE43402FDEEF48C828D83F0B0
:1017F3008F82C007124791D0070F80B91247091291
:1018030059439002417401F022C009E581F509248E
:1018130010F581900241E07005F5820218DB900219
:1018230041E4F0AF090FFEBE10005012EE2FF9EEA7
:101833002421F582E43402F583E0F70E80E9C2083F
:101843007E00BE100040030218D5EE2FF98705EE87
:101853002431F582E43402F583E0FCED6204ECFB11
:10186300606CD208C007C006C005C003C02112299E
:1018730049D021D003D005D006D0077C017A00BA25
:101883000600503EEC5B6034C007EC5D24FFE4339C
:10189300FFC007C006C005C004C003C002C021C00A
:1018A30007C0068A821216A315811581D021D002A2
:1018B300D003D004D005D006D007D0070AEC2CFC07
:1018C30080BDEE2431F582E43402F583EDF00E029F
:1018D3001845A208E433F582850981D00922120252
:1018E30076E58260051219C2800312193522AE8291
:1018F300AF8374022EFEE43FFF7D00BD050050154B
:10190300ED2EFBE43FFC8B828C83E0600575820146
:1019130080060D80E675820022AF82900280EFF090
:10192300EF700E90024BE0600890024BE4F0121946
:10193300352290051AE0FF900244F090051BE04227
:1019430007900244EFF0900280E0602290024BE0A7
:10195300701C9002441218F1E582601290025374D5
:1019630001F090024C12029190024B7401F0740842
:10197300C0E0E4C0E0744CC0E07402C0E0E4C0E046
:10198300900244F5F0125B57AE82AF83E58124FBEE
:10199300F581EE4F60287F00BF0800501BEF244CF9
:1019A300FDE43402FEEF2444F582E43402F583E0DF
:1019B3008D828E83F00F80E0900244120291229078
:1019C30002547406F090051AE0FF900255F090055A
:1019D3001BE04207900255EFF07416C0E0E4C0E04C
:1019E300746AC0E07402C0E0E4C0E0900254F5F011
:1019F300125B57AE82AF83E58124FBF581EE4F6026
:101A0300287F00BF1600501BEF246AFDE43402FE5A
:101A1300EF2454F582E43402F583E08D828E83F063
:101A23000F80E090025412029522AD82AE83AFF094
:101A330074022DFDE43EFE7C05C007C006C005C050
:101A430004120276E582D004D005D006D0076008E0
:101A53007D567E027F007C147B008C021CEA60159D
:101A63008D828E838FF0125C95FAA3AD82AE83EAEA
:101A730060E80B80E58B8222AD82AE83AFF0C007B6
:101A8300C006C005120276E582D005D006D00760F5
:101A93003C7C00BC14005012EC2456FAE43402FBE4
:101AA3008A828B83E070030C80E9ECC40354F8FB57
:101AB300EC2456F582E43402F583E0F582C0031288
:101AC3001E94AC82D003EC42038B82801274022DED
:101AD300FDE43EFE8D828E838FF0125C95F58222AB
:101AE300C00985810905810581AD82AE83AFF0E52B
:101AF3000924FDF8E67005F582021BA8C007C0069D
:101B0300C005120276E582D005D006D0076051E504
:101B13000924FDF8E6C423541FFCBC1400503CEC1C
:101B23002456FFE43402FEE50924FDF886E0540759
:101B3300F5F005F07D017A008006ED2DFDEA33FA1C
:101B4300D5F0F78F828E83E0FB7C00ED5203EA52DF
:101B530004EB4C24FFE433F582804A758200804510
:101B630074022DFDE43EFEA809087600A80908B614
:101B73000500502EA80908E62DFAE43EFB8F048ADF
:101B8300828B838CF0125C95FAE50924FDF8E6B5A7
:101B93000205758201800EA80908A90909E604F760
:101BA30080CA758200850981D00922C0098581090F
:101BB300C082C083C0F07CFF7B00C3EB648094854C
:101BC300503AC004A80908740226FAE40836FC084F
:101BD3008607EB2AFAE43CFC8A828C838FF0125C42
:101BE30095FFE50924FDF8E6B50704D004800DD080
:101BF30004BCFF05EF70028B040B80BEBB052ABC3F
:101C0300FF028025A80908740226FDE40836FE08B1
:101C13008607EC2DFCE43EFB8F028C828B838AF0DB
:101C2300E50924FDF8E6125AA0850981D00922C0EE
:101C330009858109058105810581AD82AE83AFF0F8
:101C430074022DFDE43EFE7C00BC05005037A8095C
:101C530008EC2DF6E43E08F608A607A809088682D4
:101C63000886830886F0125C95FBE50924FDF8E6F7
:101C7300B5030FA8090886820886830886F0E41254
:101C83005AA00C80C4850981D00922C00985810925
:101C9300AD82AE83AFF0E50924FDF8E6C423541FFB
:101CA300FCBC14004020E50924FDF886027B00C03B
:101CB30002C0037411C0E0745FC0E01220E5E58147
:101CC30024FCF581803B74022DFDE43EFEEC2DFCEB
:101CD300E43EFB8F02E50924FDF886E05407F5F0A6
:101CE30005F07401800225E0D5F0FBFF8C828B8325
:101CF3008AF0125C9542078C828B838AF0EF125A2A
:101D0300A0D00922C009858109AD82AE83AFF0E579
:101D13000924FDF8E6C423541FFCBC14004020E54D
:101D23000924FDF886027B00C002C003742EC0E0C4
:101D3300745FC0E01220E5E58124FCF581803C74EA
:101D4300022DFDE43EFEEC2DFCE43EFB8F02E50993
:101D530024FDF886E05407F5F005F07401800225B0
:101D6300E0D5F0FBF4FF8C828B838AF0125C9552F2
:101D7300078C828B838AF0EF125AA0D00922C00904
:101D8300858109AD82AE83AFF0C007C006C00512DE
:101D93000276E582D005D006D0076015E50924FD5B
:101DA300F8E6C0E090025475F000121C8E15818095
:101DB30013E50924FDF8E6C0E08D828E838FF012CF
:101DC3001BAE1581D00922C009858109AD82AE837E
:101DD300AFF0C007C006C005120276E582D005D079
:101DE30006D0076015E50924FDF8E6C0E09002542B
:101DF30075F000121D0715818013E50924FDF8E62F
:101E0300C0E08D828E838FF0121C321581D009229F
:101E1300AD82AE83AFF0C007C006C005120276E5FF
:101E230082D005D006D00760197414C0E0E4C0E086
:101E3300C0E0900256F5F0125C3B158115811581C7
:101E4300801F74022DFDE43EFE7405C0E0E4C0E093
:101E5300C0E08D828E838FF0125C3B158115811556
:101E6300812290051AE0F58222AF8290051AE04F95
:101E7300F022E582F4FF90051AE05FF022E58290FC
:101E8300051AF02290051AE4F02290051BE0F58272
:101E930022AF827E00EFC4540FFD60048D077E04E1
:101EA300EF0303543FFD60088D078E0574022DFE7A
:101EB300EFC31360058E07EF04FE8E8222AF82BF4D
:101EC300A502800ABFA602800ABFA711800A90005C
:101ED30001800D90000280089000048003900000B0
:101EE30022AF82BFA8005003021FD1EF243D50034D
:101EF300021FD1EF2458FF240A83F582EF241F83A6
:101F0300F583E4733D43494F556773796D7F858B43
:101F13009A9FA4A9AEB3C25B61B8BD9095C7CC1F0D
:101F23001F1F1F1F1F1F1F1F1F1F1F1F1F1F1F1FBE
:101F33001F1F1F1F1F1F1F1F1F1F9000E2021FD401
:101F43009000E9021FD49000EA021FD49000B5026A
:101F53001FD49000B6021FD49000B3021FD4900088
:101F6300B4021FD49000B7021FD49000CC021FD438
:101F73009000CD021FD4900183021FD490018A02E6
:101F83001FD4900192021FD4900194804490019F2A
:101F9300803F9001CB803A900221803590022380CC
:101FA30030900224802B90022580269002268021E7
:101FB300900227801C90006F801790007080129011
:101FC300022A800D90029F80089002A08003900057
:021FD3000022EA
:105F11006E6B726F20616464206F7574206F6620F0
:105F210072616E676520253032780D0A006E6B72E2
:105F31006F2064656C206F7574206F662072616ECE
:0A5F4100676520253032780D0A0054
:0264000000009A
:101FD500900281E4F0900282F0900283F0900284F6
:101FE500F0900285F0900286F022AF82900281EF98
:101FF500F022C009858109C082C083E5812406F5E8
:1020050081E5092403FDE5092408F87600E509249E
:10201500FDF886027B00C005C003C002C002C003F4
:10202500A809088682088683125CB1AC82158115E1
:1020350081D002D003D005E5092408F8E62DF9E59D
:10204500092408F806BC0A0050088C0774302FFFD5
:102055008013E50924FAF8E660047E4180027E617A
:10206500EC2E24F6FFA707C005C002C003A8090887
:102075008682088683125A54A80908A68208A68370
:1020850015811581D005A80908E6084660030220D8
:1020950012E5092408F88607E5092408F88606E507
:1020A5000924FCF8C3EE965019E50924FBF886824D
:1020B500C007C006C0051223E6D005D006D0070E1E
:1020C50080DDEF60151FEF2DF987068E82C007C0F2
:1020D500051223E6D005D00780E8850981D00922BD
:1020E500C0098581090581A80908E50924FCF6E5EB
:1020F5000924FCF88682088683E493FEEE700302C9
:10210500230EBE250280088E821223E60222F3E505
:102115000924FCF806B600020806E50924FCF88641
:10212500040886058C828D83E493FB7E207A00BBB0
:10213500301C7E30E50924FCF874012CF6E43D08DA
:10214500F6E50924FCF88682088683E493FBBB3117
:10215500004023EB24C6401E8B05ED24D0FAE5098B
:1021650024FCF806B600020806E50924FCF8868278
:10217500088683E493FBBB000302230EBB25030201
:1021850022DCBB58030222AEBB63028019BB64028A
:10219500806BBB73028027BB7503022252BB780399
:1021A5000222800222E4A80908E624FEFDA8090807
:1021B500A6058D0187058D821223E60222F3A80963
:1021C50008E624FDFDA80908A6058D0187060987EF
:1021D5000509870419198E828D838CF0125C95FF91
:1021E50070030222F30EBE00010D8F82C006C005EA
:1021F500C0041223E6D004D005D00680D9A809086A
:10220500E624FEFFA80908A6078F018705098707A9
:1022150019EF30E71D75822DC007C006C005C00245
:102225001223E6D002D005D006D007C3E49DFDE415
:102235009FFFE4C0E0C006C002740AC0E08D828F33
:1022450083121FF7E58124FCF5810222F3A8090812
:10225500E624FEFFA80908A6078F01870509870759
:1022650019E4C0E0C006C002740AC0E08D828F8305
:10227500121FF7E58124FCF5818073A80908E6247F
:10228500FEFFA80908A6078F01870509870719E436
:10229500C0E0C006C0027410C0E08D828F83121F9B
:1022A500F7E58124FCF5818045A80908E624FEFFB1
:1022B500A80908A6078F018705098707197401C0B2
:1022C500E0C006C002C4C0E08D828F83121FF7E50F
:1022D5008124FCF58180177582251223E6800F7510
:1022E5008225C0031223E6D0038B821223E6E5097B
:1022F50024FCF806B600020806E50924FCF88682E7
:10230500088683E493FE0221011581D009229003FA
:102315000A7401F02290030AE06010900308E0FFC0
:10232500900309E0FEEFB506028004C2088002D2E0
:1023350008A208E433F58222AF82D310AF01C3C0EF
:10234500D0900308E0FE0E53067F900309E0FDEEF2
:10235500B505028014900308E02488F582E4340270
:10236500F583EFF0900308EEF0D0D092AF2212047F
:10237500FFE582700790030AE4F0806490030AE0A9
:10238500605E900308E0FF900309E0FEEFB50602EA
:10239500804E1204C0E58260477F00BF20005036A2
:1023A500900309E0FE900308E0FDEEB505028026E6
:1023B500EF240BFDE43403FE0F900309E02488F5B8
:1023C50082E43402F583E08D828E83F0900309E088
:1023D50004547FF080C5C00790030B1204DB158100
:1023E5002212233D221223E6227409C0E090032B1A
:1023F50012453DAF8215818F8222C009E581F5091D
:10240500240CF581900333E0FF7E00900332E0FD5C
:102415007C00900331E0FBE5092403F8A603087668
:1024250000900330E0FBA80908A603087600900396
:102435002FE0FBE5092405F8A60308760090032E96
:10244500E0FBE5092407F8A60308760090032DE0D4
:10245500FBE5092409F8A60308760090032CE0FBA8
:10246500E509240BF8A60308760090032BE0FB7A18
:1024750000C007C006C005C004E5092403F8E6C08E
:10248500E008E6C0E0A80908E6C0E008E6C0E0E527
:10249500092405F8E6C0E008E6C0E0E5092407F8E8
:1024A500E6C0E008E6C0E0E5092409F8E6C0E00872
:1024B500E6C0E0E509240BF8E6C0E008E6C0E0C0A8
:1024C50003C002744BC0E0745FC0E01220E5E581F3
:1024D50024ECF581850981D00922900334E4F012BA
:1024E50023FF1259A07409C0E090032B1245E31590
:1024F500811259A7229003347401F022900334E02D
:0625050060031224DF2236
:105F4B0073657474696E6773206C653D25303278A8
:105F5B00206C623D25303278206C733D25303278D1
:105F6B00206C633D253032782075653D25303278C5
:105F7B002075623D253032782075733D253032789F
:105F8B00206261743D253032782072663D253032B7
:045F9B00780D0A0073
:10250B00C009858109AF82BF00028038BF010280FC
:10251B0005BF02308017E50924FCF88682125A4267
:10252B00AF82E50924FBF8E62FF5828036E5092416
:10253B00FDF88682125A4BAF82E50924FBF8E62F91
:10254B00F582801FE50924FCF8E6C0E0E50924FDCF
:10255B00F88682125A1BAF821581E50924FBF8E637
:10256B002FF582D00922C009E581F5092406F581F2
:10257B00AF82BF55005064E50924FBF8A90909E6B1
:10258B00F708E609F708E609F78F03EB75F003A4E4
:10259B00D394FFF4FBA8090886820886830886F08B
:1025AB00EB125AA0A80908740126FAE40836FB08B6
:1025BB0086068A828B838EF0E4125AA0A8090874CF
:1025CB000226FCE40836FD088606EF75F003A48CA2
:1025DB00828D838EF0125AA00226ACBFAA005066E1
:1025EB008F06EE24ABFFE50924FBF8A90909E6F7F2
:1025FB0008E609F708E609F7A80908868208868322
:10260B000886F0E4125AA0A809080426FAE4083652
:10261B00FD088606EF75F003A48A828D838EF01277
:10262B005AA0A80908740226FCE40836FD088606A1
:10263B008F03EB75F003A4D394FFF48C828D838E00
:10264B00F0125AA0805BEF2456FFE50924FBF886B5
:10265B0004088605088606EF75F003A48C828D832B
:10266B008EF0125AA0E5092404F874012CF6E43D0F
:10267B0008F608A606EF75F003A4D394FFF4FFE564
:10268B00092404F886820886830886F0EF125AA084
:10269B0074022CFCE43DFD8C828D838EF0E4125A87
:1026AB00A0850981D00922C009E581F5092406F529
:1026BB0081AF82BF0360E50924F7F8860208860321
:1026CB00088607E5092404F874012AF6E43B08F6AA
:1026DB0008A60774022AFCE43BFD8F068C828D83CF
:1026EB008EF0E50924FAF8E6125AA0E5092404F85D
:1026FB0086820886830886F0E50924FAF9E7125AE0
:10270B00A08A828B838FF0E50924FAF8E6125AA08F
:10271B0075820102285FBF04004006758200022803
:10272B005FE50924FBF8E6C0E0E50924FCF8E6C008
:10273B00E0E50924FDF8E6C0E08F8212250BAF829D
:10274B00158115811581E50924F7F8E6C0E008E647
:10275B00C0E008E6C0E08F82122571158115811546
:10276B0081E50924F7F886050886060886078D8219
:10277B008E838FF0125C95FC7B00E50924FAF8A997
:10278B000909E6F7097700C007C006C005A80908C4
:10279B00E6C0E008E6C0E08C828B83125ABBAC83A8
:1027AB0015811581D005D006D0078C038D828E83C1
:1027BB008FF0EB125AA0E5092404F874012DF6E40E
:1027CB003E08F608A607E5092404F88682088683E6
:1027DB000886F0125C95FC7B00C007C006C005A8FC
:1027EB000908E6C0E008E6C0E08C828B83125ABB76
:1027FB00AC8315811581D005D006D0078C03E50974
:10280B002404F886820886830886F0EB125AA0749B
:10281B00022DFDE43EFE8D828E838FF0125C95FCC3
:10282B007B00C007C006C005A80908E6C0E008E6A3
:10283B00C0E08C828B83125ABBAC8315811581D07F
:10284B0005D006D0078C038D828E838FF0EB125A46
:10285B00A0758201850981D00922C009858109AF44
:10286B0082BF031DE50924F8F8860408860508864F
:10287B00068C828D838EF074FF125AA075820180B4
:10288B005ABF040040057582008050E50924FBF80F
:10289B00E6C0E0E50924FCF8E6C0E0E50924FDF814
:1028AB00E6C0E08F8212250BAF8215811581158151
:1028BB00E50924F8F88604088605088606BF80001B
:1028CB005005EF2FFB800774FFC39F25E0FB8C8225
:1028DB008D838EF0EB125AA0758201D009229003E2
:1028EB0035E4F0A3F0900337F0900338F022E58243
:1028FB00604B900337E06011900337E4F0900335A1
:10290B00F0A3F0900338F08034900335E0FEA3E0A1
:10291B00FFC3EE9408EF94525023900335E024014B
:10292B00FEA3E03400FF900335EEF0EFA3F0C3EE0F
:10293B009408EF945240069003387401F0229003F0
:10294B00377401F022AF82BF01028005BF021680EF
:10295B000C900338E024FFE433F582800BA201E4F2
:10296B0033F582800375820022900339740AF012CA
:10297B00442E90000A122B2090028175F000123821
:10298B00B1E5826008900285E06002800F90000A3A
:10299B00122B20900339E014F0E070D3221249C5BA
:1029AB00AF82C007122950E582D007700ABF01021F
:1029BB00805F122949805A900338E4F0BF02030468
:1029CB008001E4B4010092085007C0211243E5D006
:1029DB0021C021122AB1D021C0211259AED021C061
:1029EB0021124A46D021A208E433F582C0211232CB
:1029FB00EBD021C021124A4DD021C021125943D016
:102A0B0021C021122AB5D0213008031229741229B2
:102A1B00492290033A7401F090033BE4F0123384A3
:102A2B0022D310AF01C3C0D090033CE0FEA3E0FF64
:102A3B00D0D092AF8E828F8322758200123399127F
:102A4B0017AA90033CE0FEA3E0FF90033C74012E19
:102A5B00F0E43FA3F022758201123399125108E47E
:102A6B00C0E0900281F5F0125138AF821581C0079A
:102A7B001251FBD0078F821228F92290033AE060A3
:102A8B000E90033AE4F090033BF0122A44801612A6
:102A9B002A6190033BE02401FFF0BF010040069048
:102AAB00033A7401F0221233AF221233B22279109F
:102ABB00E9440060237A017B007C647D1A7E058CDF
:102ACB00838B82E493A3AB82AC838E838D82F0A342
:102ADB00AD82AE83D9E9DAE775820022AE82AF838D
:102AEB00BE0005BF0003801A0F801375B1000000F4
:102AFB000000000000000000000000000000DEEB02
:102B0B00DFE922AE82AF83EE4F700280078E828F99
:102B1B0083122AE722AE82AF838E048F051EBEFF7F
:102B2B00011FEC4D60109003E8C007C006122B0E7E
:102B3B00D006D00780E322C2AF75F0A5745A02FF0E
:0C2B4B0000758F012290033EE5B1F022DE
:05016500900350E4F0DE
:102B5700C009858109AE82AF83E50924FBF8E6C089
:102B6700E0E50924FCF8E6C0E008E6C0E0C006C0DE
:102B770007758201122C67E58124FBF581D00922B4
:102B8700C009858109AE82AF837D00E50924FDF880
:102B9700C3ED965030ED2EF582E43FF583E0FC7BE4
:102BA70000C007C006C005C004C003749FC0E0741E
:102BB7005FC0E01220E5E58124FCF581D005D00651
:102BC700D0070D80C6D00922900350E0FFBFFF0257
:102BD700802312231AE582601C900350E0F58212CD
:102BE7002E53E582700890035074FFF0800790031E
:062BF70050E02401F02271
:055F9F002530327800FE
:03016A007508FF16
:102BFD0075080253A8FB3275080353A8F732750800
:102C0D000453A8EF3275080553A8DF327508065333
:102C1D00A8BF3275080953A9FB3275080A53A9F7E5
:102C2D003275080B53A9EF3275080C53A9DF3275B5
:102C3D00080D53A9BF3274FFB50802801CAF08758B
:102C4D0008FF7E00C007C00674A4C0E0745FC0E03A
:0A2C5D001220E5E58124FCF5812238
:105FA400554E5553454420494E542025752C207395
:105FB4006F757263652064697361626C65640D0A50
:015FC40000DC
:102C6700C009858109AF82D310AF01C3C0D0EF601F
:102C7700027401FF8FA77F00E50924F9F8C3EF96D7
:102C8700502E8F06E50924FCF886040886057B008C
:102C9700EE2CFCEB3DFDE50924FAF8EF26FBE408F2
:102CA70036FE8C828D83E4938B828E83F00F80C8EF
:102CB70075A700D0D092AFD00922C009858109AF8E
:102CC70082D208D310AF01C3C0D0EF60047F018068
:102CD700027F008FA77F00E50924F9F8C3EF96501C
:102CE700388F06E50924FCF886040886057B00EE84
:102CF7002CFCEB3DFD8C828D83E493FEE50924FAE1
:102D0700F8EF26F582E40836F583E0FDEEB5050217
:102D17008004C20880030F80BE75A700D0D092AF91
:102D2700A208E433F582D00922C009858109AF8260
:102D3700D310AF01C3C0D08FA7E50924FCF80886DC
:102D4700F7E50924FCF886FBE50924FAF886FCE593
:102D57000924FBF886F275F30575F40A75F509750C
:102D6700F606000000000075F70075A700D0D092A6
:102D7700AFD00922C0098581090581E58260027407
:102D870001FFA80908A6077E00E50924F9F8C3EEA4
:102D9700965043E50924FAF8EE26F582E40836F55D
:102DA70083E0FD8E04E50924FCF886020886037F8C
:102DB70000EC2AFAEF3BFBC006C005746EC0E0C00A
:102DC70002C003A809088682122D30E58124FCF58C
:102DD70081D0060E80B31581D00922C009858109EB
:102DE700E58260027401FFE4C0E074E6C0E0E50933
:102DF70024FCF8E6C0E008E6C0E08F82122D30E53B
:102E07008124FCF581D0092275B20875BC02E5BCA6
:102E170020E20575B10080F643BC0143B204227F6E
:102E270000BFC8005004000F80F722D310AF01C3C2
:102E3700C0D043B20843BC0275B100122E2675BC40
:102E47000375B20C75B100D0D092AF22E582FF2492
:102E5700FA500302305DEF2F2F902E6473022E7607
:102E6700022EBB022F00022F78022FBD0230017401
:102E770005C0E0743FC0E07403C0E0901209122B54
:102E87005715811581158174C5C0E0745FC0E012C4
:102E970020E5158115817405C0E090033F122B874B
:102EA700158174CBC0E0745FC0E01220E515811571
:102EB700810230627405C0E0743FC0E07403C0E073
:102EC70090127B122B5715811581158174CEC0E0A6
:102ED700745FC0E01220E5158115817405C0E0908C
:102EE700033F122B87158174CBC0E0745FC0E012DB
:102EF70020E5158115810230627404C0E0743FC07B
:102F0700E07403C0E0901000122B5715811581154E
:102F17008174D3C0E0745FC0E01220E5158115818C
:102F27007404C0E090033F122B8715817402C0E040
:102F3700743FC0E07403C0E0901004122B57158152
:102F47001581158174D8C0E0745FC0E01220E515C3
:102F57008115817402C0E090033F122B871581749D
:102F6700CBC0E0745FC0E01220E515811581023007
:102F7700627404C0E0743FC0E07403C0E090103C8A
:102F8700122B5715811581158174DEC0E0745FC05F
:102F9700E01220E5158115817404C0E090033F120B
:102FA7002B87158174CBC0E0745FC0E01220E51554
:102FB7008115810230627411C0E0743FC0E0740370
:102FC700C0E090100A122B5715811581158174E204
:102FD700C0E0745FC0E01220E5158115817411C04F
:102FE700E090033F122B87158174CBC0E0745FC05C
:102FF700E01220E51581158180617404C0E0743FFB
:10300700C0E07403C0E0901006122B57158115819C
:1030170015817404C0E07443C0E07403C0E09011EC
:1030270000122B5715811581158174E7C0E0745F75
:10303700C0E01220E5158115817408C0E090033FB8
:10304700122B87158174CBC0E0745FC0E01220E5B6
:0F30570015811581800575820080037582012225
:105FC5005041525420000D0A0055494420004349D0
:105FD500442000204F504E2000534E20005345438F
:075FE50020004F5054200082
:10306600C009858109C082C083C0F0E50924FDF846
:10307600E624EF40327C00E50924FDF8C3EC9650C7
:1030860026EC2420FAE43411FBA80908EC26FDE41A
:103096000836FE0886078D828E838FF0125C958A2D
:1030A600828B83F00C80D0850981D00922C00985E6
:1030B6008109C082C083C0F0E50924FDF8E624BF7B
:1030C60040327C00E50924FDF8C3EC965026EC243A
:1030D60080FAE43411FBA80908EC26FDE40836FE64
:1030E6000886078D828E838FF0125C958A828B8389
:1030F600F00C80D0850981D009227F00BFFF0050E7
:1031060012E59930E20D900028C007122B0ED00769
:103116000F80E9227F00BFFF005012E59A30E20DD2
:10312600900028C007122B0ED0070F80E922759653
:103136000075945F7595117591C043A90122759626
:103146000053913B53A9FE22C009858109AD82AE89
:1031560083AFF0C007C006C005123100D005D00607
:10316600D007E50924FDF8E6C0E08D828E838FF056
:103176001230661581539CE0E50924FDF8E6429C71
:10318600439904D00922C009858109AD82AE83AF77
:10319600F0C007C006C00512311AD005D006D00708
:1031A600E50924FDF8E6C0E08D828E838FF01230AB
:1031B600B31581539D80E50924FDF8E6429D439AA7
:1031C60004D009222222E59A03035401B401009295
:1031D60008E433F58222C009858109AE82AF839067
:1031E60011807407F07D00BD2000502C8D040CEC7E
:1031F6002480FBE43411FCE50924FDF8C3ED965068
:103206000CED2EF582E43FF583E0FA80027A008B1E
:10321600828C83EAF00D80CF539D80439D21439A93
:1032260004D00922C021C0E0C0F0C082C083C0071C
:10323600C006C005C004C003C002C001C000C0D0A3
:1032460075D000AF86AEA7C007C006120764D006C9
:10325600D0078EA78F86D0D0D000D001D002D00361
:10326600D004D005D006D007D083D082D0F0D0E0ED
:10327600D0210200B422E582700543910180031239
:1032860003542253B2FB53BCFE53BCFD53B2F72288
:10329600AF8243948553927AEF700575A901800633
:1032A60075A900538FFE2200758E554387020000D4
:1032B6000000000022AF825392FD5391FE9003510D
:1032C600E06008439102900351E4F0EF700A7594B0
:1032D6005F43A901C201800C438F019001F4122BB8
:1032E6000E12031622AF82C00712327C123289D028
:1032F600078F82C00712329675B100900351E4F031
:103306001232AD122E32D0078F821232BB22C0216A
:10331600C0E0C0F0C082C083C007C006C005C004BC
:10332600C003C002C001C000C0D075D00012335B1C
:103336009003517401F0D0D0D000D001D002D00358
:10334600D004D005D006D007D083D082D0F0D0E00C
:10335600D0210200B475E8002212335B75BAF3750A
:10336600B640D2A922C2A912335B22AE82AF83C273
:10337600CA8F058DCB8ECA8DCD8ECCD2CA22C2CA3B
:1033860075C80075C90090FCDF123371C2CFD2A890
:10339600D2CA22E58270067E377FFF80047EDF7FF9
:1033A600FC8E828F8312337122C2A822D2A822C039
:1033B60021C0E0C0F0C082C083C007C006C005C0FF
:1033C60004C003C002C001C000C0D075D000C2CF87
:1033D600122A86D0D0D000D001D002D003D004D09B
:1033E60005D006D007D083D082D0F0D0E0D021021D
:1033F60000B432C009858109C082C083C0F0C2858D
:1034060043E120C285900003122B0EC2FC43D1106B
:10341600C2FCE50924FBF8E66068D310AF01C3C01F
:10342600D07B007C00E50924FCF8C3EB96EC6480B5
:103436000886F063F08095F05042A80908EB26FA5A
:10344600EC0836FE0886078A828E838FF0125C951A
:10345600F582C007C006C004C003C002123583ADA2
:1034660082D002D003D004D006D0078A828E838F02
:10347600F0ED125AA00BBB00AC0C80A9D0D092AFD5
:10348600805B7E007F00E50924FCF8C3EE96EF64BE
:10349600800886F063F08095F05042A80908EE2671
:1034A600FBEF0836FC0886058B828C838DF0125C58
:1034B60095F582C007C006C005C004C00312358357
:1034C600AA82D003D004D005D006D0078B828C8385
:1034D6008DF0EA125AA00EBE00AC0F80A953D1EFB0
:1034E600D2FC53E17FD28753E1DFD285850981D0B3
:1034F6000922C009858109AD82AE83AFF0A2B2E48C
:1035060033FCC004E4C0E0E50924FCF8E6C0E008AA
:10351600E6C0E08D828E838FF01233F91581158116
:103526001581D0047F00BF3200501FA2B2E433B52C
:10353600040280057582018014900003C007C00450
:10354600122B0ED004D0070F80DC758200D0092222
:10355600C009858109AD82AE83AFF07401C0E0E594
:103566000924FCF8E6C0E008E6C0E08D828E838F71
:10357600F01233F9158115811581D00922AF827EAB
:10358600007D00BD0800502DEE2EFEC2B743E5803B
:10359600C2B7EF30E70753E17FD2878007C2874380
:1035A600E180C28730860343060153E57FD2B7EF39
:0835B6002FFF0D80CE8E822252
:10016D0090039EE4F090039F04F09003A0E4F090C0
:10017D0003A1F09003A2F09003A3F09003A4F090DC
:10018D0003A5F09003A6F09003A7F09003A8F090BC
:10019D0003A9F09003ADE4F09003AEF09003AFF03F
:0C01AD009003B0F09003B1F09003B2F0AA
:1035BE00E582900375F022E582900376F022AF82C9
:1035CE00900375E060057582008016EF60057582C8
:1035DE0000800E900376E060057582008003758290
:1035EE000122AF8290051CE0FEEFB506030236BD48
:1035FE0090051CEFF07E007D00ED905FEC93FC607B
:10360E0017BE0F005012EE2477FAE43403FB0E8A35
:10361E00828B83ECF00D80E1EE04FDEE2477F582D3
:10362E00E43403F583742DF0ED04FEED2477FDE410
:10363E003403FC74302F8D828C83F0EE2477F58268
:10364E00E43403F583E4F0C0067477C0E07403C07D
:10365E00E0E4C0E07582001242F5158115811581F6
:10366E00900032122B20D0068E077E00EE905FF275
:10367E0093FD6012EF2477FBE43403FC0F8B828CF6
:10368E0083EDF00E80E6EF2477F582E43403F583C4
:10369E00E4F07477C0E07403C0E0E4C0E07582012A
:1036AE001242F5158115811581900032122B2022C0
:1036BE00C009858109058105819000FF122B20909C
:1036CE0000FF122B209000FF122B209000FF122BD8
:1036DE00209000FF122B209000FF122B20A9090929
:1036EE007F0AEF603CC007C00112442ED001D00704
:1036FE008F057E008D828E83C007C001122B20D0D5
:10370E000189047D007E408C828D838EF0C0011273
:10371E003C98E582D001D0076004E720E7031F80C4
:10372E00C17582011235F0758200123AC185098188
:10373E00D00922AF82C007E4C0E08F82123D9115FE
:10374E0081900014122B20D007E4C0E08F82123D2E
:10375E009115812275820212414A9000C8122B20C7
:10376E007582001242A9900064122B201243E5903C
:10377E0000C8122B201236BE9000C8122B2022AE8B
:10378E0082AF8374072EF582E43FF583E090039CAD
:10379E00F08E828F83E0900395F08E828F83A3A3A9
:1037AE00E0900396F08E828F83A3A3A3E0900397FD
:1037BE00F08E828F83A3A3A3A3E0900398F08E8252
:1037CE008F83A3A3A3A3A3E0900399F074062EF511
:1037DE0082E43FF583E090039AF090039B7401F02E
:1037EE001237F22290039BE07002801290039575BF
:1037FE00F000123E0AE582600590039BE4F022AED3
:10380E0082AF83D2087D01BD15005012ED2EFBE470
:10381E003FFC8B828C83E06002C2080D80E9300889
:10382E00217D00BD0600500FED248FF582E4340398
:10383E00F583E4F00D80EC90038F75F000123E0AD4
:10384E00801B74022EFCE43FFD8E828F83A3E0FF6B
:10385E00C004C0058F82123F7F1581158122AE8272
:10386E00AF83E0FDBD01028005BD0236801A8E8257
:10387E008F83A3E0FCA3E0FDC004C00590000012FE
:10388E0041D315811581801A8E828F83A3E0FEA30A
:10389E00E0FFE4C0E0C0E08E828F831241D3158139
:1038AE00158122C009858109C082C083C0F00581BF
:1038BE000581E5092404F9FA7B007C408A828B831A
:1038CE008CF0C001123C98E582D0017005F58202A1
:1038DE0039CBE720E707C00112442ED001A8090812
:1038EE00740226FAE40836FB088604870753070796
:1038FE008A828B838CF0EF125AA0A80908860508DD
:10390E0086060886070987045304078D828E838FE7
:10391E00F0EC125AA0A80908740426FDE40836FE3D
:10392E00088607E7A2E3E4338D828E838FF0125A66
:10393E00A0A80908740526FDE40836FE088607E7E8
:10394E00C454018D828E838FF0125AA0A809087478
:10395E000326FDE40836FE088607E72354018D8210
:10396E008E838FF0125AA0A80908740126FDE40870
:10397E0036FE0886078D828E838FF0125C95FC874B
:10398E0003530360EBC4035407FB8D828E838FF0C9
:10399E00125AA0ECB5030280218D828E838FF01215
:1039AE005C95FD7F00C005C00774F9C0E0745FC070
:1039BE00E01220E5E58124FCF581758201850981FF
:1039CE00D00922AD82AE83AFF0900520E02401F045
:1039DE00A3E03400F0900520E0FBA3E0FCC3EB94E1
:1039EE00D0EC94075003023AC0900520E4F0A3F007
:1039FE0074052DFAE43EFB8F048A828B838CF012C1
:103A0E005C95900522F08D828E838FF0C007C006E4
:103A1E00C0051238B1E582D005D006D0077003027A
:103A2E003AC074052DFAE43EFB8F048A828B838C98
:103A3E00F0125C95FC6018900522E0701290051E45
:103A4E00E4F0A3F090051DE0F582123741806390FB
:103A5E00051EE0FAA3E0FB90051EE0F5F0A3E0459D
:103A6E00F0600F1ABAFF011B90051EEAF0EBA3F0EF
:103A7E00804074042DF9E43EFA8F0389828A838B89
:103A8E00F0125C957003EC601A0DBD00010E8D8274
:103A9E008E838FF0125C95FD90051DE0FFEDB5074E
:103AAE0002800F90051DE0FFE4C0E08F82123D9171
:103ABE00158122E582FF60098F82C0071235F0D092
:103ACE000790051DEFF0C007E4C0E08F82123D9114
:103ADE001581900014122B20D007E4C0E08F8212C3
:103AEE003D9115812275820112425E900014122BB7
:103AFE002075820112425E2290039D7401F09003A4
:103B0E0072E4F0900373F022900373E0FF70028072
:103B1E002AEF20E0067D9E7E0380047DA47E037C3A
:103B2E0000EF14900373F09003747401F08D828E85
:103B3E00838CF0123E0A900374E4F022C009858152
:103B4E0009058105810581AF8290051DEFF0C00743
:103B5E007401C0E08F82123D9115819003ACE4F0A8
:103B6E00900064122B20D007E50924FCF886050886
:103B7E008606E5092403F8760AE5092403F8E670BB
:103B8E0003023C71C007C006C00512442E90000A05
:103B9E00122B209003AA75F000123C98E582D005F6
:103BAE00D006D0077003023C569003AAE0FB20E734
:103BBE0003023C56C0078D828E83A3A3530307EBEB
:103BCE00F08D028E039003ABE0FF5307078A828BC2
:103BDE0083EFF074042DFBE43EFF9003ABE0A2E311
:103BEE00E4338B828F83F074052DFBE43EFF90034C
:103BFE00ABE0C454018B828F83F0A8090874032DA7
:103C0E00F6E43E08F69003ABE0235401FCA8090845
:103C1E008682088683ECF0A8090874012DF6E43E2E
:103C2E0008F69003ABE05460C4035407FCA80908DF
:103C3E008682088683ECF08B828F83E0D007600843
:103C4E009003AC7401F0801B900014C007C006C036
:103C5E0005122B20D005D006D007E5092403F8164F
:103C6E00023B879003ACE06011900032C007122B2C
:103C7E0020D0078F82123741800A90051E7458F0AB
:103C8E007402A3F0850981D00922AD82AE83AFF014
:103C9E00C007C006C00512439C900064122B0E1282
:103CAE003D1DD005D006D007900352E0FCBCBB02F0
:103CBE00800812442E7582008054C007C006C005CD
:103CCE007402C0E0E4C0E0900354F5F0124477AC07
:103CDE008215811581D005D006D007900353E0B52B
:103CEE000402800812442E7582008022900354E054
:103CFE008D828E838FF0125AA00DBD00010E90039F
:103D0E0055E08D828E838FF0125AA075820122901B
:103D1E00035274FFF0900353F0900354F090035548
:103D2E00F07404C0E0E4C0E0900352F5F012355692
:103D3E001581158122C009858109AD82AE83AFF050
:103D4E007C00BC05005036C007C006C005C004E5A7
:103D5E000924FCF8E6C0E008E6C0E08D828E838F71
:103D6E00F01234F8AB8215811581D004D005D0063F
:103D7E00D007EB600575820180060C80C575820048
:103D8E00D00922C009858109AF8290035274AAF02E
:103D9E009003537403F09003547401F0900355E5AF
:103DAE000924FDF8E6F0900356EFF07405C0E0E448
:103DBE00C0E0900352F5F0124477AF821581158161
:103DCE00900357EFF07406C0E0E4C0E0900352F5A4
:103DDE00F01234F815811581D00922AF8290037448
:103DEE00E060028016EF6007900373E4F0800C90A1
:103DFE000372E060069003737406F022C009858199
:103E0E000905810581AD82AE83AFF090039DE06020
:103E1E000A90039DE4F07DAD7E03FF90035274AAD9
:103E2E00F0900353741DF09003547402F08D828E43
:103E3E00838FF0125C95900355F074012DFAE43ED9
:103E4E00FB8F048A828B838CF0125C95900356F064
:103E5E0074022DFAE43EFB8F048A828B838CF0125F
:103E6E005C95900357F074032DFAE43EFB8F048AA1
:103E7E00828B838CF0125C95900358F074042DFAAB
:103E8E00E43EFB8F048A828B838CF0125C95900348
:103E9E0059F074052DFAE43EFB8F048A828B838CD5
:103EAE00F0125C9590035AF07C00A809087600A8E1
:103EBE000908B606005029C004A80908E62DFAE440
:103ECE003EFB8F048A828B838CF0125C95D004604B
:103EDE00047C01800BA80908A90909E604F780CF24
:103EEE0074ADC0E07403C0E0E4C0E08D828E838FB9
:103EFE00F01200DE1581158115817003FF8005908B
:103F0E00039CE0FF90035BEFF07F0ABF1F00500F92
:103F1E00EF2452F582E43403F583E4F00F80ECC015
:103F2E0004741FC0E0E4C0E0900352F5F012447731
:103F3E00AF8215811581900371EFF07420C0E0E41B
:103F4E00C0E0900352F5F0123D43AF82158115810A
:103F5E00D004EC24FFE433F582C007C004123DE91F
:103F6E00D004D007900372ECF08F82850981D009BE
:103F7E0022C009858109AF8290035274AAF0900382
:103F8E0053741DF09003547402F0900355EFF090AB
:103F9E000356E4F0900357F0900358F0900359F055
:103FAE0090035AF0EFB40100B39208E433FF70208F
:103FBE00FEBE1400501AE50924FCF8EE26FCE408B7
:103FCE0036FD8C828D83E060047F0180030E80E1DC
:103FDE00EF24FFE433FEF582C007C0061235CCADE8
:103FEE008290035BEDF0E50924FCF8860408860553
:103FFE008C828D83E090035CF08C828D83A3E090A5
:10400E00035DF08C828D83A3A3E090035EF08C821F
:10401E008D83A3A3A3E090035FF08C828D83A3A373
:10402E00A3A3E0900360F08C828D83A3A3A3A3A32C
:10403E00E0900361F074062CF582E43DF583E09088
:10404E000362F074072CF582E43DF583E090036380
:10405E00F074082CF582E43DF583E0900364F0746F
:10406E00092CF582E43DF583E0900365F0740A2C8B
:10407E00F582E43DF583E0900366F0740B2CF58237
:10408E00E43DF583E0900367F0740C2CF582E43D7B
:10409E00F583E0900368F0740D2CF582E43DF58312
:1040AE00E0900369F0740E2CF582E43DF583E09008
:1040BE00036AF0740F2CF582E43DF583E090036BF8
:1040CE00F074102CF582E43DF583E090036CF074EF
:1040DE00112CF582E43DF583E090036DF074122C03
:1040EE00F582E43DF583E090036EF074132CF582B7
:1040FE00E43DF583E090036FF0900370E4F0741FDD
:10410E00C0E0E4C0E0900352F5F0124477AD8215A2
:10411E00811581900371EDF07420C0E0E4C0E09051
:10412E000352F5F0123D4315811581D0068E821291
:10413E003DE9D007900372EFF0D00922AF829003D1
:10414E005274AAF09003537403F0900354F090034A
:10415E0055EFF0900356E4F07405C0E0E4C0E09033
:10416E000352F5F0124477AF8215811581900357F3
:10417E00EFF07406C0E0E4C0E0900352F5F01234A4
:10418E00F8158115812290035274AAF0900353748E
:10419E0001F09003547404F014C0E0E4C0E0900306
:1041AE0052F5F0124477AF8215811581900355EFC9
:1041BE00F07404C0E0E4C0E0900352F5F01234F85D
:1041CE001581158122C009858109AE82AF839003C6
:1041DE005274AAF0900353740BF09003547405F0CC
:1041EE00900355E4F0900356F0900357F090035867
:1041FE00F0900359F090035AF08E0590035BEDF0AA
:10420E008F0690035CEEF0E50924FCF88607900318
:10421E005DEFF0E50924FCF808860790035EEFF0E9
:10422E00740DC0E0E4C0E0900352F5F0124477AF95
:10423E00821581158190035FEFF0740EC0E0E4C02B
:10424E00E0900352F5F0123D4315811581D00922FD
:10425E00AF8290035274AAF09003537403F090034C
:10426E005423F0900355EFF0900356E4F07405C01C
:10427E00E0E4C0E0900352F5F0124477AF8215816E
:10428E001581900357EFF07406C0E0E4C0E0900390
:10429E0052F5F01234F81581158122AF8290035237
:1042AE0074AAF09003537403F09003547407F090C3
:1042BE000355EFF0900356E4F07405C0E0E4C0E05F
:1042CE00900352F5F0124477AF8215811581900359
:1042DE0057EFF07406C0E0E4C0E0900352F5F01220
:1042EE0034F81581158122C009858109AF829003AA
:1042FE005274AAF0900353741DF09003547408F096
:10430E00900355EFF0E50924FBF8860508860608AC
:10431E0086077C057B008D828E838FF0125C95FA6A
:10432E00601ABC1F005015EC2452F582E43403F5DC
:10433E0083EAF00DBD00010E0C0B80DA900356EBF4
:10434E00F0BC1F00500FEC2452F582E43403F583C9
:10435E00E4F00C80EC741FC0E0E4C0E0900352F572
:10436E00F0124477AF8215811581900371EFF074CE
:10437E0020C0E0E4C0E0900352F5F01234F815814D
:10438E001581900014122B20124194D00922900313
:10439E005274AAF09003537403F0900354740AF00D
:1043AE00900355E4F0900356F07405C0E0E4C0E0CD
:1043BE00900352F5F0124477AF8215811581900368
:1043CE0057EFF07406C0E0E4C0E0900352F5F0122F
:1043DE0034F8158115812290035274AAF09003537C
:1043EE007403F0900354740BF0900355E4F09003B3
:1043FE0056F07405C0E0E4C0E0900352F5F01244AC
:10440E0077AF8215811581900357EFF07406C0E0E7
:10441E00E4C0E0900352F5F01234F81581158122B4
:10442E0090035274AAF09003537403F090035474E3
:10443E000CF0900355E4F0900356F07405C0E0E4E0
:10444E00C0E0900352F5F0124477AF8215811581CA
:10445E00900357EFF07406C0E0E4C0E0900352F50D
:10446E00F01234F81581158122C009858109C082A8
:10447E00C083C0F07C007A007B00E50924FCF8C301
:10448E00EA96EB64800886F063F08095F0501FA8E2
:10449E000908EA26FDEB0836FE0886078D828E8314
:1044AE008FF0125C952CFC0ABA00CF0B80CC7455A1
:0A44BE00C39CF582850981D0092214
:105FEC00416972373500204254332E3000726620DE
:105FFC006C696E6B206368616E6765642025303256
:04600C00780D0A0001
:07640200FF00000000000094
:1044C800C009858109AE82AF837D007C00E509249F
:1044D800FDF8C3EC96500EEC2EF582E43FF583E030
:1044E8002DFD0C80E88D82D00922AF82C0077403AD
:1044F800C0E074B3C0E07403C0E0E4C0E074ECC092
:10450800E0758200122C67E58124FBF581D00790C5
:1045180003B3E0FEBE5A119003B4E0FEBEA50990B5
:1045280003B5E0B507028004C2088002D208A208D9
:10453800E433F58222C009858109AE82AF83E5099B
:1045480024FDF88682C007C0061244F2E582D00630
:10455800D0077005F5820245E0C007C006E50924CA
:10456800FDF8E6C0E0C006C0077403C0E074ECC004
:10457800E0758200122C67E58124FBF581E50924AA
:10458800FDF886057C0074032DFD74EC3CFC740179
:10459800C0E074B3C0E07403C0E0C005C004758215
:1045A80000122C67E58124FBF581D006D007900323
:1045B800B3E0FDC005E50924FDF8E6C0E08E828F72
:1045C800831244C8AF821581D005EDB50703D380A7
:1045D80001C39208E433F582D00922C00985810914
:1045E800AE82AF83E50924FDF88682C007C00612B3
:1045F80044F2E582D006D0076030C007C006E5095E
:1046080024FDF8E6C0E0C006C0077403C0E074ECFF
:10461800C0E0758200122CC1AD82E58124FBF581D2
:10462800D006D007ED60030246ECC007C006E4C020
:10463800E074ECC0E0758200122DE21581158190BE
:1046480003B3745AF09003B4F4F09003B5E5092469
:10465800FDF8E6F07403C0E074B3C0E07403C0E092
:10466800E4C0E074ECC0E0758200122D7BE5812483
:10467800FBF581D006D007C007C006E50924FDF880
:10468800E6C0E0C006C0077403C0E074ECC0E07583
:104698008200122D7BE58124FBF581D006D007E549
:1046A8000924FDF8E6C0E08E828F831244C8AF82E9
:1046B80015819003B3EFF0E50924FDF886077E0025
:1046C80074032FFF74EC3EFE7401C0E074B3C0E0C5
:1046D8007403C0E0C007C006758200122D7BE58117
:1046E80024FBF581D0092243902043983F43A03F03
:1046F8004388072243E22043E33F43E43F43E6077E
:104708002253EADF53E2DF53EBC053E3C053ECC05C
:1047180053E4C053EEF853E6F822E582FF24F05044
:1047280003024790EF2F90473273801E802080222B
:10473800802480268028802A802C802E8030803219
:10474800803480368038803A803CC288803AC2897A
:104758008036C28A8032C2A5802EC2A4802AC2A313
:104768008026C2A28022C2A1801EC2A0801AC29D39
:104778008016C29C8012C29B800EC29A800AC2997F
:104788008006C2988002C29522E582FF24F0500379
:104798000247FFEF2F9047A173801E802080228060
:1047A8002480268028802A802C802E8030803280A9
:1047B8003480368038803A803CD288803AD28980EA
:1047C80036D28A8032D2A5802ED2A4802AD2A38063
:1047D80026D2A28022D2A1801ED2A0801AD29D8089
:1047E80016D29C8012D29B800ED29A800AD29980CF
:1047F80006D2988002D29522E5F8540FFFE5882565
:10480800E0FE74305E4F44C0F582225380E353903B
:10481800F153B08453887FE5C075C0002212482C3C
:1048280012488022758C0575A500758C4575A60003
:10483800758C8575BB00758CC5758D00758C00757C
:10484800E11C75E22E75E33F75E43F75E57B75E67F
:104858008775E7FF43EA0175EE7875D98FA2FDB336
:1048680092FE43D14043F81043B0804380A043E90F
:10487800E043ED8443D9102290FF9C7401F090FF2F
:1048880098E4F090FF9D04F090FF99E4F090FF9E6B
:1048980004F090FF9AE4F075DE01F5DDF5D5F5D268
:1048A800F5C3F5CEF5D6F5D3F5C4F5C1F5D7F5D4EE
:1048B800F5C5F5C290FFBDF090FFA5F090FFEDF0B3
:1048C80090FFD5F090FFBCF090FFA4F090FFECF0C3
:1048D80090FFD4F090FFBBF090FFA3F090FFEBF0B7
:1048E80090FFD3F090FFBAF090FFA2F090FFEAF0AB
:1048F80090FFD2F090FFB9F090FFA1F090FFE9F09F
:1049080090FFD1F090FFB8F090FFA0F090FFE8F092
:1049180090FFD0F090FFC3F090FFABF090FFF3F062
:1049280090FFDBF090FFC2F090FFAAF090FFF2F04A
:1049380090FFDAF090FFC1F090FFA9F090FFF1F03E
:1049480090FFD9F090FFC0F090FFA8F090FFF0F032
:1049580090FFD8F090FFBFF090FFA7F090FFEFF026
:1049680090FFD7F090FFBEF090FFA6F090FFEEF01A
:1049780090FFD6F090FFC9F090FFB1F090FFF9F0EA
:1049880090FFE1F02243D901C28843E6017F007E0F
:1049980000BE1000501875B1009001F4C007C006A1
:1049A800122B0ED006D00720F8010F0E80E3D28814
:1049B80053E6FE53D9FEBF1003122B4222208D046A
:1049C8007F0180027F028F822253EADF53E2DF53A6
:1049D800EBC053E3C053ECC053E4C053EEF853E6C6
:1049E800F843E6475388B843E43F53A0C043E33F46
:1049F8005398C043E2285390D153E9E343E11C5351
:104A080080E353EE7F43E6C053883FE5EF75EF0040
:104A1800E5E775E7FFE5C075C00053ED8443E57B26
:104A280053B08453EE9F53E69F53889F53E57F53BB
:104A3800E15F53D1EFD28ED293C2FED2FF22124948
:104A4800D112335F2212336BC28543E120C2851233
:104A5800482C22A28DE4339003B6F0A28EE4339062
:104A680003B7F09003B7E0F5821259F3121542909C
:104A780003B7E0F5821235BE22AF829003B6EFF09D
:104A8800BF00028017BF012F7410C0E07460C0E03F
:104A98001220E515811581123AF3801B741BC0E0C2
:104AA8007460C0E01220E515811581900333E0F5AC
:104AB80082123AC1123B0622AF828F069003B7EFEB
:104AC800F08F82C007C0061259F3121542D006D0E3
:104AD80007EF60067D257F6080047D307F60C0061B
:104AE800C005C0071220E515811581D0068E8212F7
:104AF80035BE22A28DE433FF9003B6E0FE8F05EDAC
:104B0800B506099003B8E4F0A3F080289003B8E054
:104B18002401F0A3E03400F09003B8E0A3E0C394CC
:104B28000140119003B8E4F0A3F0EF24FFE433F55B
:104B380082124A81A2FDB392FEA28EE433FF900353
:104B4800B7E0FE8F05EDB506099003BAE4F0A3F0CF
:104B580080289003BAE02401F0A3E03400F0900329
:104B6800BAE0A3E0C3940140119003BAE4F0A3F0C3
:104B7800EF24FFE433F582124AC022AE82AF83BE2F
:104B88004005BF7E028027BE4105BF7E028010BE61
:104B98004205BF7E02800DBE4314BF7E11800A7598
:104BA8008201800D758202800875820380037582F8
:104BB8000022C009858109AE82AF83C3EE9440EF1D
:104BC800947E5003024DCEC3744F9E747E9F500353
:104BD800024DCE8E048F05EC24C0FC2C2C904BE9A2
:104BE80073024CFB024CFB024CFB024CFB024C5385
:104BF800024C6F024C8B024CA7024CC3024CDF02E2
:104C08004C19024C29024C39024D9E024DAE024D00
:104C1800BEE50924FDF89003BCE6F0758200024D5C
:104C2800D1E50924FDF89003BDE6F0758200024D38
:104C3800D1E50924FDF8E6600C9003BDE06006129A
:104C48004F2A123762758200024DD1E50924FDF81A
:104C5800E6600E9003BCE060051250778003124FA7
:104C6800E2758200024DD1E50924FDF8E6600E9058
:104C780003BCE060051250908003124FFB75820060
:104C8800024DD1E50924FDF8E6600E9003BCE06012
:104C9800051250A98003125018758200024DD1E503
:104CA8000924FDF8E6600E9003BCE060051250C5CB
:104CB8008003125034758200024DD1E50924FDF8B5
:104CC800E6600E9003BCE060051250E180031250CC
:104CD80050758200024DD1E50924FDF8E6600E907A
:104CE80003BCE060051250F5800312506475820021
:104CF800024DD19003B6E06003024D99E50924FD09
:104D0800F8E660728E828F83C007C006124B83ADAF
:104D1800828D037C00C005C003C004743BC0E074EE
:104D280060C0E01220E5E58124FCF581D0058D8284
:104D3800C005123AC1D005900333EDF0C005122426
:104D4800FAD005D006D007900282EDF09002857463
:104D580001F0900286F0900525EEF0EFA3F0122AFC
:104D68002CE5828583F0900523F0E5F0A3F090050B
:104D7800277401F0801B900525E0FCA3E0FDECB54D
:104D8800060FEDB5070B900525E4F0A3F090052775
:104D9800F07582008033E50924FDF8E66003124FC0
:104DA800027582008023E50924FDF8E66003124FAE
:104DB800177582008013E50924FDF8E66003124F99
:104DC800217582008003758201D00922AE82AF83EB
:104DD8009003B6E0FD600CBD01108E828F83120334
:104DE8007A80078E828F8312378D22AE82AF8390AE
:104DF80003B6E0FD600CBD01108E828F831203A103
:104E080080078E828F8312380D22AE82AF83900383
:104E1800B6E0FD600CBD01108E828F831203C8803E
:104E2800078E828F8312386C229003B6E0600302EB
:104E38004ECA900527E07003024EBB900525E0F5A9
:104E4800F0A3E045F0606C122A2CAE82AF83900587
:104E580023E0FCA3E0FDEEC39CFEEF9DFFC3EE94B0
:104E680030EF9411404D900525E0FEA3E0FF8E82BF
:104E78008F83124B83AF828F057E00C007C005C0A9
:104E8800067453C0E07460C0E01220E5E58124FC9C
:104E9800F581D007900286E4F0900285F07481C015
:104EA800E07402C0E08F82123B4A1581158190059B
:104EB80027E4F090028175F0001239D11237F2120E
:0F4EC8003B16900528E02401F0A3E03400F0220F
:106010005553425F4D4F44450D0A0052465F4D4F68
:1060200044450D0A004D41435F4D4F44450D0A0064
:1060300057494E5F4D4F44450D0A007266206C690A
:106040006E6B2073656C65637465642025303278EF
:106050000D0A007266206C696E6B2070616972694E
:0A6060006E6720253032780D0A002B
:07640900000000000000008C
:104ED70090032BE4F090032C14F090032D7404F04E
:104EE70090032FE4F090033014F09003317401F035
:104EF700900332E4F090033304F02290051674C84F
:104F0700F022AF82900518EFF09005177404F02295
:104F17009003327401F01224FA22900332E4F01263
:104F270024FA22124ED71224FA2290032BE024FBF4
:104F3700500690032B7404F090032DE0FFBF01008F
:104F4700500690032D7401F090032DE024EF5006D6
:104F570090032D7410F090032FE024FB500690036C
:104F67002F7404F0900331E0FFBF01005006900357
:104F7700317401F0900331E024EF5006900331744F
:104F870010F0227420C0E07401C0E0E4C0E0900398
:104F9700BEF5F0125C3B1581158115817430C0E0B8
:104FA700E4C0E0C0E09004DEF5F0125C3B1581152B
:104FB7008115812290050EE4F090050FF0900514FD
:104FC700F090051504F0900510E4F0900511F090AD
:104FD7000512F0900513F01259432290032BE0FFBE
:104FE7000F90032BEFF0EF24FB500590032BE4F019
:104FF7001224FA2290032BE0700890032B7404F01C
:10500700800B90032BE0FF1F90032BEFF01224FA85
:105017002290032CE0FF2420500890032C74FFF00B
:10502700800774202F90032CF01224FA2290032C6F
:10503700E0FFBF2000500790032CE4F08007EF2427
:10504700E090032CF01224FA2290032DE0FFBF100A
:105057000050060F90032DEFF01224FA2290032D33
:10506700E0FF24FE50061F90032DEFF01224FA22D2
:1050770090032FE0FF0F90032FEFF0EF24FB500575
:1050870090032FE4F01224FA2290032FE0FF700818
:1050970090032F7404F080061F90032FEFF0122463
:1050A700FA22900330E0FF2420500890033074FF69
:1050B700F0800774202F900330F01224FA22900317
:1050C70030E0FFBF20005007900330E4F08007EF87
:1050D70024E0900330F01224FA22900331E0FFBF5E
:1050E700100050060F900331EFF01224FA229003BC
:1050F70031E0FF24FE50061F900331EFF01224FA2F
:10510700225380E35390F153B08453887FE5C075F1
:10511700C00022900515E070028015900515E4F097
:10512700FFBF7000500AC007125204D0070F80F16A
:1051370022C009858109900514E02401F0E0FFBF32
:105147007000403B900514E4F0900331E0FE9005B9
:1051570011E02EF0900516E0FEE06006EE149005D3
:1051670016F0900517E0FEE06006EE14900517F0C4
:10517700900519E02401F09005157401F08014BF23
:10518700601190032DE0FF900510E02FF0900515BA
:105197007401F01259AE7F0090050EE0FEBE0600C6
:1051A700501190032BE0FEBE0400500C1256A1AF25
:1051B7008280051256A1AF82EF60061255D11259AF
:1051C70043C20890050FE02401F0E0FFBF03004051
:1051D7001A90050FE4F090050EE02401F0E0FFBF00
:1051E7000700400790050EE4F0D208A208E433F563
:1051F70082D0092290FF80E053E0DFF022C009E56A
:1052070081F5092407F581900512E0FFBF060040EC
:10521700030252C9E5092405F9FC7D007E4090038D
:105227002CE0FB90032BE0FAC001C004C005C006C8
:10523700C003900510E0C0E0900513E0C0E0C00790
:105247008A821226B2AF82E58124F9F581D001EF77
:1052570070030255A5900512E075F030A424BEFE38
:10526700740335F0FF900513E02EF582E43FF583D4
:10527700E7F0900512E075F030A424BEFE74033504
:10528700F0FF74102EFEE43FFF900513E02EF58229
:10529700E43FF583E904F8E6F0900512E075F03095
:1052A700A424BEFE740335F0FF74202EFEE43FFFF6
:1052B700900513E02EF582E43FF5830909E7F00234
:1052C70055A5900513E0FFBF0800E433FE70030205
:1052D70053E2900517E06036900518E013920850E6
:1052E700047DFF80027D3CA80908A6053008047CE0
:1052F7000080027C3CE5092404F8A6043008047BFE
:10530700FF80027B3CA8090808A6030254F4900218
:1053170081E030E115A809087632E5092404F8761A
:1053270078A809080876320254F4308D15A80908C0
:1053370076FFE5092404F876B4A809080876000280
:1053470054F47F007E00900282E070047FFF8002A9
:105357007EFF7AFF900286E07011900519E030E237
:10536700047DFF80027D008D028021900285E07020
:105377001B900519E0543FFD30E5098D04743FC3C8
:105387009CFC80028D04EC90606A93FA8A047B008F
:10539700A8090876008F027D00C006C004C003C0BC
:1053A70004C0038A828D83125ABBAD831581158190
:1053B700D003D004D006E5092404F8A6058E027DA3
:1053C70000C004C0038A828D83125ABBAD83158146
:1053D7001581A8090808A6050254F4208D639003D7
:1053E70032E07006900516E06057900284E070087E
:1053F700900283E024FE4015A8090876FFE50924FA
:1054070004F87600A809080876000254F49002838D
:10541700E0FDBD06004015A809087600E50924044B
:10542700F876FFA809080876000254F4A809087658
:10543700FFE5092404F876B4A809080876000254A1
:10544700F490032FE0FDBD0315A8090876FFE509D1
:105457002404F876FFA809080876FF0254F4BD046F
:10546700005078BD00028020BD01028005BD0218F2
:10547700800F8F82125A42AD82900511E02DFD8078
:105487001E900511E0FD8017EE60047E008004EF9A
:1054970024F8FEEE75F024A4FE900511E02EFDE53C
:1054A700092405F9FA7E007F40C001C002C006C08A
:1054B700078D82122571158115811581D001A809E3
:1054C70008E7F6E904F8C001E5092404F9E6F7D08E
:1054D700010909A8090808E7F68012A80908760053
:1054E700E5092404F87600A8090808760090051352
:1054F700E024DEFFE43404FEA8090886027D00905C
:105507000330E0FB7C00C007C006C003C0048A82EA
:105517008D83125ABBAD8315811581D006D0078DB7
:10552700048F828E83ECF0900513E024EEFFE434C1
:1055370004FEE5092404F886047D00900330E0FBAF
:105547007A00C007C006C003C0028C828D83125A3E
:10555700BBAD8315811581D006D0078D048F828E50
:1055670083ECF0900513E024FEFFE43404FEA80961
:10557700080886037D00900330E0FC7A00C007C06E
:1055870006C004C0028B828D83125ABBAD8315817E
:105597001581D006D0078D048F828E83ECF090059D
:1055A70013E02401F0E0FFBF10004018900513E45A
:1055B700F0900512E02401F0E0FFBF0700400590DE
:1055C7000512E4F0850981D0092290050EE0FF2439
:1055D700F950030256A0EF2F2F9055E4730255F9A7
:1055E70002561302562D02564602565D02567402A3
:1055F700568B90050FE0FFE07005D2B10256A0BFB1
:105607000105D2C00256A0D2B00256A090050FE005
:10561700FFE07005D2840256A0BF0105D2C1025631
:10562700A0D2830256A090050FE0FFE07005D2C715
:105637000256A0BF0105D2C20256A0D2C6805A9018
:10564700050FE0FFE07004D282804EBF0104D2C391
:105657008047D28F804390050FE0FFE07004D2B5FA
:105667008037BF0104D2C48030D2B6802C90050F9A
:10567700E0FFE07004D2B48020BF0104D2C58019D6
:10568700D2B3801590050FE0FFE07004D291800936
:10569700BF0104D2928002D29322C00985810905F5
:1056A70081058190050EE0FFBF061390050FE07599
:1056B700F010A4AEF024DEFDEE3404FE8019EF7581
:1056C700F030A424BEFC740335F0FF90050FE0C44E
:1056D70054F02CFDE43FFEA80908A60508A606A875
:1056E70009088682088683E0FF7C008CC38FCEA8DA
:1056F70009088682088683A3E0FC7B008BC48CC1E3
:10570700EF4204A809088682088683A3A3E0FF7BEB
:10571700008BC58FC2EC4207A80908740326FBE477
:105727000836FC8B828C83E07E0090FFEDEEF08BD9
:10573700828C83E090FFD5F08B828C83E0FBEF4275
:1057470003A80908740426FEE40836FF8E828F83B7
:10575700E07C0090FFECECF08E828F83E090FFD42A
:10576700F08E828F83E0FEEB4206A80908740526B7
:10577700FDE40836FF8D828F83E07B0090FFEBEB23
:10578700F08D828F83E090FFD3F08D828F83E0FDD1
:10579700EE4205A80908740626FEE40836FF8E8245
:1057A7008F83E07B0090FFEAEBF08E828F83E0909F
:1057B700FFD2F08E828F83E0FEED4206A8090874BF
:1057C7000726FDE40836FF8D828F83E07B0090FF7C
:1057D700E9EBF08D828F83E090FFD1F08D828F838C
:1057E700E0FDEE4205A80908740826FEE40836FF26
:1057F7008E828F83E07B0090FFE8EBF08E828F83B1
:10580700E090FFD0F08E828F83E0FEED4206A8097C
