:0600000002010C023209AE
:03000B0002316A55
:03001300022CE3D9
:03001B00022CEACA
:03002300022CF1BB
:03002B00022CF8AC
:03003300022CFF9D
:03003B0002307B15
:0300430002324C3A
:03004B00022D067D
:03005300022D0D6E
:03005B00022D145F
:03006300022D1B50
:03006B00022D2241
:100070000000E2FBEAF2802C0000E0FBEAF08024C2
:10008000E6B50202EBF62200E2B50202EBF2220034
:10009000E0B50202EBF02230F6E0A88220F5D3EAC8
:1000A000C6F582228B822230F6E6A88220F5D9801E
:0100B000CF80
:0301B4000200B195
:0300B10002021038
:1001B700122CDC122CD8122ED112479B1230CC12E3
:1001C7004634121367121E601202E2124F04122302
:1001D700CAD2AF22121E86E5827003124E42024E29
:1001E7009E12489CE58260051239228009900345DA
:1001F700E0F5821238F0900345E0900337F0900362
:100207003A7401F090033BF0221201B712486712CB
:1002170034F41201DB1203C9124F351201E812221E
:100227009D75B10012495D124DAF12170512508727
:10023700120410121EB512235980E6120417AF825A
:10024700BF010690033CE07004C2088002D208A2F6
:1002570008E433F58222AF83024D58AF83024D7510
:10026700C009858109AF82900004EFF0900005E591
:100277000924FCF8E6F008E6A3F0900004124D927A
:10028700D00922AE82AF83900000E0FCA3E0FDEE30
:10029700B50405EFB5050122900000EEF0EFA3F0DD
:1002A700C006C0077582011202671581158122AE4B
:1002B70082AF83900002E0FCA3E0FDEEB50405EFFA
:1002C700B5050122900002EEF0EFA3F0C006C007CB
:1002D700758202120267158115812290020CE4F0E3
:1002E70090020DF090020EF090020FF0900210F0C5
:1002F700C200C201900212E4F0900211F0900207CE
:10030700F0A3F0900209F0A3F0A3F0900213F0A37A
:10031700F0900215F0022FE390020CE4F090020D2A
:10032700F090020EF090020FF0900210F0C200C29F
:1003370001900212E4F0900211F0022FF3AE82AFA7
:1003470083C007C00612041EE582D006D0077001DD
:10035700227D007408C0E08E828F838DF0122FFDFE
:10036700158122AE82AF83C007C00612041EE58244
:10037700D006D0077001227D007416C0E08E828FF0
:10038700838DF012303B158122AE82AF83C007C048
:100397000612041EE582D006D0077001227D007484
:1003A70003C0E08E828F838DF012303B158122309F
:1003B7000103200004C2088002D208A208E433F532
:1003C70082227E007F008E048F05C3EC94A0ED94FB
:1003D7000F503575B100900215E0600D900213E0E3
:1003E700F5F0A3E045F0700B22C3EC94F4ED940113
:1003F700400122900001C007C006122CACD006D0E5
:10040700070EBE00C10F80BE22300203022CCE228F
:1004170090020FE0F5822290020CE0FFBF0203D3A7
:100427008001C39208E433F58222C009E581F5090A
:100437002408F581D310AF01C3C0D0AF090F7E00E8
:100447007D408F828E838DF012133FD0D092AFAF55
:10045700090F8F018706EF04F987058E04BC000298
:10046700802DBC0103020548BE02030205A8BE2178
:10047700030205FDBE8003020506BE810302056671
:10048700BE82030205DFBEA103020647020677BD4F
:1004970001028014BD03028021BD0502802EBD0725
:1004A70002803BBD0950803C8F037C007E408B82DD
:1004B7008C838EF01207A002067D8F037C007E409E
:1004C7008B828C838EF01207E302067D8F037C00FC
:1004D7007E408B828C838EF012075902067D1209AB
:1004E700D602067D8F037C007E408B828C838EF044
:1004F70012090902067D43970843970202067DBD4C
:100507000002800ABD06028017BD082C80248F03D5
:100517007C007E408B828C838EF01209DD02067D83
:100527008F037C007E408B828C838EF0120B390206
:10053700067D120FE102067D4397084397020206E4
:100547007DBD0B128F037C007E408B828C838EF0E7
:1005570012097002067D43970843970202067DBD84
:100567000002800ABD06028017BD0A2C80248F0373
:100577007C007E408B828C838EF0120A1C02067DE3
:100587008F037C007E408B828C838EF0120B3902A6
:10059700067D120FF902067D43970843970202066C
:1005A7007DBD01028005BD032680128F037C007E7E
:1005B700408B828C838EF012082602067D8F037C87
:1005C700007E408B828C838EF01208A602067D4344
:1005D700970843970202067DBD00128F037C007EB9
:1005E700408B828C838EF0120A7802067D4397082F
:1005F70043970202067DBD0902800ABD0A028016E2
:10060700BD0B3580228F037C007E408B828C838ECE
:10061700F012101580608F037C007E408B828C83E4
:100627008EF01210AE804F8F037C007E408B828C41
:10063700838EF01210E5803E439708439702803679
:10064700BD0102800ABD0202800ABD031B800A1297
:10065700100E80221210D3801D7E007D408F828E67
:10066700838DF012113F800E43970843970280064F
:10067700439708439702850981D00922AF92AE9329
:10068700EF7003020716EF30E3275392F790021338
:10069700E0FCA3E0FD900213E0F5F0A3E045F06075
:1006A7000D1CBCFF011D900213ECF0EDA3F0C2017D
:1006B700225392EF53929FEF30E70653927F020245
:1006C700E2EF30E4145392EF90021374F4F07401E4
:1006D700A3F0900215F0020431EF30E2065392FBCB
:1006E700C20122EF30E10E5392FD90020CE0FDBDF6
:1006F700025FD20122EF30E0585392FE439120006F
:1007070000000000005391DF1202E243970122EE3E
:10071700603FEE30E6075393BF439A0122EE30E580
:10072700045393DF22EE30E40A5393EF1211804310
:10073700970122EE30E2065393FB02307AEE30E166
:10074700065393FD023079EE30E0065393FE021113
:10075700C422AD82AE83AFF0900212E4F074022D92
:10076700FDE43EFE8D828E838FF0125C23FBA31285
:100777005C234B600890020C7401F0800590020C1A
:10078700E4F08D828E838FF0125C2390020DF0537C
:100797009BF043970243970422AD82AE83AFF0905C
:1007A7000212E4F08D028E038F048A828B838CF011
:1007B700125C23540F701E74022DFDE43EFE8D82E1
:1007C7008E838FF0125C23FDA3125C23FEBD01050F
:1007D700BE0002C200539BF043970422AD82AE8352
:1007E700AFF0900212E4F08D028E038F048A828BA1
:1007F700838CF0125C23540F701E74022DFDE43EAF
:10080700FE8D828E838FF0125C23FDA3125C23FE84
:10081700BD0105BE0002D200539BF043970422AEF0
:1008270082AD83AFF0900212E4F08E028D038F0445
:100837008A828B838CF0125C23FA53020FBA025818
:1008470074022EFAE43DFB8F048A828B838CF012AC
:100857005C23FAA3125C234A703E74042EFEE43D27
:10086700FD8E828D838FF0125C23FEA3125C23FF23
:100877004E70085397F75397FD801DBE8108BF0040
:10088700055399F78012BE8208BF0005539AF78077
:100897000743970843970222539BF043970422ADDF
:1008A70082AE83AFF0900212E4F08D028E038F04C4
:1008B7008A828B838CF0125C23FA53020FBA0234BC
:1008C70074042DFDE43EFE8D828E838FF0125C232F
:1008D700FDA3125C23FEBD8108BE00054399088075
:1008E7001ABD8208BE0005439A08800F4397084344
:1008F7009702800743970843970222539BF0439739
:100907000422AE82AD83AFF0900212E4F090020DA4
:10091700E0604974022EFEE43DFD8E828D838FF0E8
:10092700125C23FEA3125C23FF4E600A8E048F0520
:10093700BC0121BD001E90020EEEF0EE6008900291
:100947000C7402F0800690020C7401F0539BF04384
:100957009704800E439708439702800643970843FE
:100967009702539BF043970422AE82AD83AFF0907A
:100977000212E4F074022EFAE43DFB8F048A828BA4
:10098700838CF0125C23FAA3125C234A703A740436
:100997002EFEE43DFD8E828D838FF0125C23FEA335
:1009A700125C23FF4E700A539BF043970443970250
:1009B70022BE010DBF000A539BF0439704439702E1
:1009C70022439708439702224397084397022243FB
:1009D700970843970222AD82AE83AFF0900212745C
:1009E70002F08D828E838FF0125C23540F701F30BC
:1009F70000089011087402F08005901108E4F09047
:100A07001109E4F0539BF0439B0243970422439759
:100A17000843970222AE82AD83AFF08E028D038F1B
:100A2700048A828B838CF0125C23FA53020FBA017B
:100A37003974042EFEE43DFD8E828D838FF0125CA7
:100A470023FEA3125C23FF4E6006BE0116BF0013F0
:100A5700901108E4F0901109F0539BF0439B024377
:100A67009704224397084397022243970843970224
:100A770022AD82AE83AFF08D028E038F048A828B04
:100A8700838CF0125C23FA53020FBA02028003022E
:100A97000B3274042DFDE43EFE8D828E838FF0129F
:100AA7005C23FDA3125C23FEBD801BBE0018AC9720
:100AB700530402E4A2E713CC13CC901108ECF09096
:100AC7001109E4F0805BBD8127BE0024AC99530473
:100AD70008E423CCC423541F6CCC541FCC6CCC30FB
:100AE700E40244E0901108ECF0901109E4F0803141
:100AF700BD8227BE0024AE9A530608E423CEC42342
:100B0700541F6ECE541FCE6ECE30E40244E09011D7
:100B170008EEF0901109E4F0800743970843970225
:100B270022539BF0439B0243970422439708439722
:100B37000222C009858109C082C083C0F0E58124F3
:100B47000BF581A80908740226FAE40836FB088623
:100B5700048A828B838CF0125C23FAA3125C23FC39
:100B67008A07BC01547C007A00905D6AE493FDA378
:100B7700E493FE8D828E83E493FF7B00C3EC9FEAB0
:100B87009B501EEC2407FBEA3400FFEC2DF582EAAC
:100B97003EF583E4938B828F83F00CBC00CB0A80F5
:100BA700C87D077E007F00900007E0FBE50924046D
:100BB700F8A603087600020F90BC02028003020D1C
:100BC70055905D6EE493FBC3EF9B4003020D559078
:100BD7005D6FE493FAA3E493FBEF75F002A42AF5A3
:100BE70082EB35F0F583E493FFA3E493FE74092FBA
:100BF700FDE43EFCE509240DF876000876008F82B7
:100C07008E83E5092406F8E493F6E5092406F886B9
:100C1700027B00E509240DF8C3E69A08E69B503EDF
:100C2700E509240DF8E5092407F9E62407F708E69E
:100C3700340009F7E509240DF8E62FF58208E63EAA
:100C4700F583E493FBE5092407F88682088683EB9E
:100C5700F0E509240DF806B60002080680A0E509AC
:100C67002406F8E5092409F9E62407F7E43400091E
:100C7700F7E5092407F8A60508A604E509240DF8F1
:100C87007600087600E5092407F88682088683E45B
:100C970093FFA3E493FE8F828E83E493FB7A00E5B0
:100CA70009240DF8C3E69B08E69A5034E5092409A0
:100CB700F8E509240DF9E726FD09E70836FCE509FB
:100CC700240DF8E62FF58208E63EF583E4938D823E
:100CD7008C83F0E509240DF806B60002080680A506
:100CE7008F828E83E493FBE5092409F8EB26F6E46B
:100CF7000836F6E5092407F8740226F6E40836F6FE
:100D0700E5092407F88682088683E493FAA3E49327
:100D17004A6003020C82900009E0FAA3E04A7017C8
:100D2700E5092409F8E6C39407FA08E69400FB905E
:100D37000009EAF0EBA3F07D077E007F0090000931
:100D4700E5092404F8E0F6A3E008F6020F90E4BCF6
:100D5700030104FB604CEF7049FDFC905D60E49378
:100D6700FA7F00C3ED9AEC9F5020ED2407FFEC3487
:100D770000FEED2460F582EC345DF583E4938F8209
:100D87008E83F00DBD00D40C80D17D077E007F00DF
:100D9700900007E0FAE5092404F8A60208760002A5
:100DA7000F90EB7003020E7AC0047E00EF24FFFD64
:100DB700EE34FFFB905D71E493FA7C00C3ED9AEB90
:100DC70064808CF063F08095F0D0044003020E7AC3
:100DD700905D72E493FDA3E493FCEF24FFFAEE34F5
:100DE700FFFBEA2AFAEB33FBEA2DF582EB3CF583AE
:100DF700E493FEA3E493FD9000077402F0900008CB
:100E070004F0E509240BF874012408F6E43400081B
:100E1700F68E828D83E493FF60418F030EBE00013F
:100E27000DE509240BF88682088683EBF0E5092493
:100E37000BF8740126FAE40836FB8A828B83E4F008
:100E4700E509240BF874012AF6E43B08F69000073D
:100E5700E0FB0B0B900007EBF080B67D077E007F71
:100E670000900007E0FBE5092404F8A603087600D4
:100E7700020F90BC224CA80908740426FFE4083628
:100E8700FE0886058F828E838DF0125C23FA70131D
:100E97007D3F7E5C7F80E5092404F8764E08760066
:100EA700020F90BA01137D8D7E5C7F80E5092404D3
:100EB700F87676087600020F904397084397020268
:100EC7000FDBBC21028003020F88A80908740426DF
:100ED700FAE40836FB0886048A828B838CF0125C5E
:100EE70023FC7048FDFC905D1EE493FB7A00C3ED84
:100EF7009BEC9A5020ED2407FFEC3400FEED241EF6
:100F0700F582EC345DF583E4938F828E83F00DBD1B
:100F170000D40C80D17D077E007F00900007E0FBA6
:100F2700E5092404F8A603087600805DBC014A7F22
:100F3700007E00905D37E493FA7C00C3EF9AEE9C45
:100F47005020EF2407FBEE3400FCEF2437F582EE48
:100F5700345DF583E4938B828C83F00FBF00D40E4E
:100F670080D17D077E007F00900007E0FCE5092423
:100F770004F8A60408760080104397084397028078
:100F870053439708439702804BA80908740626FB2A
:100F9700E40836FA0886048B828A838CF0125C2375
:100FA700FBA3125C23FCE5092404F8C3EB96EC08C9
:100FB70096400AE5092404F88603088604C003C09E
:100FC700048D828E838FF01211ED15811581121217
:100FD70013439704850981D009229002127402F005
:100FE70090020EE0901108F0539BF0439B0143974A
:100FF70004229002127402F0901108E4F0539BF05F
:10100700439B014397042243970843970222C00951
:10101700858109C082C083C0F0A80908740226FB35
:10102700E40836FA0886048B828A838CF0125C23E4
:10103700FBA3125C23FABA02028005BA035D804D56
:10104700A80908740426FDE40836FE0886078D8281
:101057008E838FF0125C23FDA3125C234D7042A890
:101067000908740626FDE40836FE0886078D828E79
:10107700838FF0125C23FDA3125C23FEBD0122BE09
:10108700001F9002127404F04397018014BB0511EE
:101097009002127405F0439701800643970843971F
:1010A70002850981D00922AD82AE83AFF074022D8B
:1010B700FDE43EFE8D828E838FF0125C23A3125CCB
:1010C70023900211F0539BF043970422900211E002
:1010D700901108F0539BF0439B0143970422AD8284
:1010E700AE83AFF074042DFBE43EFA8F048B828A43
:1010F700838CF0125C23FBA3125C23FC4B701874E7
:10110700022DF8E43EF98F02888289838AF0125C07
:101117002390020FF0801ABB0117BC001474022D34
:10112700FDE43EFE8D828E838FF0125C23900210C9
:10113700F0539BF043970422AE82AD83AFF0740463
:101147002EFEE43DFD8E828D838FF0125C23FEA37D
:10115700125C23FF4E700A90020FE0901108F08096
:101167000EBE010BBF0008900210E0901108F0536B
:101177009BF0439B0143970422900212E0FFBF04B8
:1011870015900212E4F0901100E0F582121E7A53D6
:101197009BF043970422BF0518900212E4F09011C8
:1011A70000E0FFBF0516901101E0FFBF750ED202E8
:1011B70022900212E4F0539BF0439704229002120C
:1011C700E0FFBF010A12121343970443970122BF9E
:1011D70002074397014397082243970843970190D3
:1011E700020DE0F59622C009858109AFF0AE83E5CF
:1011F70082900209F0EEA3F0EFA3F0E50924FCF8D2
:10120700900207E6F008E6A3F0D00922900207E073
:10121700FEA3E0FF4E700D9002127402F0539BF094
:10122700859B9B228E048F05C374089CE49D5058B0
:101237009002127401F0900209E0F9A3E0FAA3E02A
:10124700FB7408C0E089828A838BF01212F2158141
:10125700900207E0FAA3E0FBEA24F8FAEB34FFFB7D
:10126700900207EAF0EBA3F0900209E0F9A3E0FA95
:10127700A3E0FB900209740829F0E43AA3F0EBA37A
:10128700F0539BF0439B0822BC0831BD002E90020F
:10129700127401F0900209E0FBA3E0FCA3E0FD74E7
:1012A70008C0E08B828C838DF01212F215819002B8
:1012B70007E4F0A3F0539BF0439B082290021274BB
:1012C70002F0900209E0FCA3E0FDA3E0FFC0068C5A
:1012D700828D838FF01212F21581539BF0900207D3
:1012E700E0FEA3E0AD9BEE4DF59B22C00985810989
:1012F700C082C083C0F0E50924FDF8E624F7403238
:101307007C00E50924FDF8C3EC965026EC2408FA86
:10131700E43411FBA80908EC26FDE40836FE08862C
:10132700078D828E838FF0125C238A828B83F00C69
:1013370080D0850981D00922AD82AE83AFF07C00D1
:10134700BC0800501AEC2DF9E43EFA8F038C827525
:101357008311E089828A838BF012599B0C80E122EA
:105C3F0005010906A101050719E029E7150025014E
:105C4F0075019508810275089501810105071900F5
:105C5F0029FF150026FF0075089505810005FF092E
:105C6F0003750895018102050819012905150025FD
:105C7F0001750195059102750395019101C005010B
:105C8F000980A1018501198129831500250175015D
:105C9F009503810295058101C0050C0901A10185BC
:105CAF000219002A3C021500263C0275109501814D
:105CBF0000C00600FF0901A1018505190129021580
:105CCF000026FF0075089505B102C005010906A160
:105CDF00018506050719E029E715002501750195CE
:105CEF0008810205071900299F15002501750195E7
:105CFF00A08102C01201100100000008AC054F0284
:105D0F000000010203010904000001030101000961
:105D1F002111010001224E00070581031000010926
:105D2F000401000103000000092111010001227686
:105D3F00000705820340000109020000020100A0D4
:105D4F00FA155D1E5D275D2E5D375D405D000047D6
:105D5F005D04030904745D785D845D035D000001DB
:105D6F005E5D03645D534D4B0041697237352028EA
:0A5D7F00534D4B2900303030310045
:10136700900237E4F0900238F0900236F0FFBF1099
:1013770000501BEF2416F582E43402F583E4F0EF06
:101387002426F582E43402F583E4F00F80E022E5B9
:1013970082900238F022C009858109AE82AF83901E
:1013A7000237E0FDE070068E828F838045ED75F091
:1013B700C0A42406FC745E35F0FDE50924FDF8E6BB
:1013C700C42354E02CFCE43DFDE50924FCF8E626A3
:1013D7002CF582E43DF583E493FCA3E493FD8C02B2
:1013E7008D03BA0105BB000280048C068D078E822F
:1013F7008F83D00922C009858109AE82AF838E040D
:101407008F05C3EC94E0ED9400404574E79CE49DA0
:10141700403EE50924FDF8E660198E0374075BF585
:10142700F005F07401800225E0D5F0FBF582121D6E
:101437002280178E0374075BF5F005F074018002B4
:1014470025E0D5F0FBF582121D2B1217DD0214F4EF
:10145700C3EC9404ED9400403474A49CE49D402DA7
:10146700E50924FDF8E660118E03C0039002F975C3
:10147700F000121C381581800F8E03C0039002F90B
:1014870075F000121C8115811217DD8060C3EC9482
:10149700A5ED9400402974A79CE49D4022E509240A
:1014A700FDF8E6600D8E038B82121D76AA82AB8350
:1014B70080047A007B008A828B8312028A802EC383
:1014C700EC94A8ED9400402574C29CE49D401EE571
:1014D7000924FDF8E6600B8E82121D97AE82AF835A
:1014E70080047E007F008E828F831202B6D009228D
:1014F700C009858109AF82900238E075F0C0A42445
:1015070006FD745E35F0FEEFC42354E02DFDE43E86
:10151700FEE50924FDF8E626FC2DF582E43EF58379
:10152700E493FDA3E493FE8D028E03C3EA9420EBBC
:101537009452406C743F9A74529B4064E50924FCB2
:10154700F8E66023C006C0057401C0E0C005C00608
:10155700E50924FDF8E6C0E08F821229DCE5812445
:10156700FCF581D005D006E50924FCF8E660148D6A
:101577000353031F900237EBF08B8212594712185F
:1015870014801A9002F975F000121CCA900237E411
:10159700F01226ED7582001218141217DD02164399
:1015A700E50924FCF8E6603DC007C004E50924FD11
:1015B700F8E6C0E0C0078D828E8312139DAD82AE20
:1015C7008315811581D004D007EF75F020A4243945
:1015D700FA740235F0FBEC2AF582E43BF583EDF073
:1015E700EEA3F0801AEF75F020A42439FA740235BF
:1015F700F0FBEC2AF582E43BF583E0FDA3E0FEC0B7
:1016070006C005E50924FCF8E6C0E0C005C006E50C
:101617000924FDF8E6C0E08F821229DCAF82E5815C
:1016270024FCF581D005D006EF7011E50924FCF8FC
:10163700E6C0E08D828E831216461581D00922C03E
:1016470009858109AE82AF83C007C006E50924FD7D
:10165700F8E6C0E08E828F83124B22AD821581D0CF
:1016670006D007ED70028031C007C006E50924FDEA
:10167700F8E6C0E08E828F83125957AD821581D06C
:1016870006D007ED70028011E50924FDF8E6C0E0F9
:101697008E828F831213FC1581D009221258F512FE
:1016A700462212452D1245207F00BF100050428F61
:1016B70082C00712455390000A122C8C12460FAEB7
:1016C7008290000AC006122C8C12460FAD82D006FB
:1016D700D007EEB5050FEF2416FCE43402FDEEF457
:1016E7008C828D83F08F82C0071245B1D0070F809F
:1016F700B912453A12588C9002367401F022C0098B
:10170700E581F5092410F581122BB9900236E070B6
:1017170005F5820217D7900236E4F0AF090FFEBE37
:1017270010005012EE2FF9EE2416F582E43402F57C
:1017370083E0F70E80E9C2087E00BE100040030276
:1017470017D1EE2FF98705EE2426F582E43402F54A
:1017570083E0FCED6204ECFB606CD208C007C006B6
:10176700C005C003C0211222FDD021D003D005D06F
:1017770006D0077C017A00BA0600503EEC5B603465
:10178700C007EC5D24FFE433FFC007C006C005C0F7
:1017970004C003C002C021C007C0068A821214F722
:1017A70015811581D021D002D003D004D005D006F1
:1017B700D007D0070AEC2CFC80BDEE2426F582E486
:1017C7003402F583EDF00E021741A208E433F582E7
:1017D700850981D00922120242E58260030218BA04
:1017E70002182DAE82AF8374022EFEE43FFF7D0008
:1017F700BD05005014ED2EFBE43FFC8B828C83E08B
:101807006004758201220D80E775820022AF829005
:101817000335EFF0EF700E900300E06008900300CF
:10182700E4F002182D22900585E0FF9002F9F09070
:101837000586E042079002F9EFF0900335E0602259
:10184700900300E0701C9002F91217EAE58260121B
:101857009003087401F090030112025D9003007475
:1018670001F07408C0E0E4C0E07401C0E07403C094
:10187700E0E4C0E09002F9F5F0125A52AE82AF836D
:10188700E58124FBF581EE4F60287F00BF080050FB
:101897001BEF2401FDE43403FEEF24F9F582E43461
:1018A70002F583E08D828E83F00F80E09002F902CB
:1018B700025D229003097406F0900585E0FF90030E
:1018C7000AF0900586E0420790030AEFF07416C00D
:1018D700E0E4C0E0741FC0E07403C0E0E4C0E0903F
:1018E7000309F5F0125A52AE82AF83E58124FBF566
:1018F70081EE4F60287F00BF1600501BEF241FFDAD
:10190700E43403FEEF2409F582E43403F583E08D24
:10191700828E83F00F80E090030902026222AD827B
:10192700AE83AFF074022DFDE43EFE7C05C007C018
:1019370006C005C004120242E582D004D005D006D5
:10194700D00760087D0B7E037F007C147B008C0230
:101957001CEA60158D828E838FF0125C23FAA3AD8B
:1019670082AE83EA60E80B80E58B8222AD82AE838C
:10197700AFF0C007C006C005120242E582D005D00D
:1019870006D007603B7C00BC14005012EC240BFA15
:10199700E43403FB8A828B83E070030C80E9ECC498
:1019A7000354F8FBEC240BF582E43403F583E0F5EC
:1019B70082C003121D4AAC82D003EC42038B822201
:1019C70074022DFDE43EFE8D828E838FF0125C2320
:1019D700F58222C00985810905810581AD82AE8323
:1019E700AFF0E50924FDF8E67005F582021A9FC0FD
:1019F70007C006C005120242E582D005D006D0070F
:101A07006051E50924FDF8E6C423541FFCBC14000B
:101A1700503CEC240BFFE43403FEE50924FDF88673
:101A2700E05407F5F005F07D017A008006ED2DFD05
:101A3700EA33FAD5F0F78F828E83E0FB7C00ED5214
:101A470003EA5204EB4C24FFE433F582804A7582A3
:101A570000804574022DFDE43EFEA809087600A823
:101A67000908B60500502EA80908E62DFAE43EFB42
:101A77008F048A828B838CF0125C23FAE50924FD9C
:101A8700F8E6B50205758201800EA80908A90909BB
:101A9700E604F780CA758200850981D00922C0094A
:101AA700858109C082C083C0F07CFF7B00C3EB64E3
:101AB700809485503AC004A80908740226FAE408FD
:101AC70036FC088607EB2AFAE43CFC8A828C838F73
:101AD700F0125C23FFE50924FDF8E6B50704D004FE
:101AE700800DD004BCFF05EF70028B040B80BEBBDA
:101AF700052ABCFF028025A80908740226FDE40810
:101B070036FE088607EC2DFCE43EFB8F028C828BA9
:101B1700838AF0E50924FDF8E612599B850981D0EF
:101B27000922C009858109058105810581AD82AE3C
:101B370083AFF074022DFDE43EFE7C00BC0500502F
:101B470037A80908EC2DF6E43E08F608A607A80909
:101B57000886820886830886F0125C23FBE5092441
:101B6700FDF8E6B5030FA80908868208868308866C
:101B7700F0E412599B0C80C4850981D00922C00961
:101B8700858109AD82AE83AFF0E50924FDF8E6C48F
:101B970023541FFCBC1400503B74022DFDE43EFE91
:101BA700EC2DFCE43EFB8F02E50924FDF886E054AA
:101BB70007F5F005F07401800225E0D5F0FBFF8CF6
:101BC700828B838AF0125C2342078C828B838AF094
:101BD700EF12599BD00922C009858109AD82AE83D6
:101BE700AFF0E50924FDF8E6C423541FFCBC14003C
:101BF700503C74022DFDE43EFEEC2DFCE43EFB8FD1
:101C070002E50924FDF886E05407F5F005F07401B4
:101C1700800225E0D5F0FBF4FF8C828B838AF012DB
:101C27005C2352078C828B838AF0EF12599BD00971
:101C370022C009858109AD82AE83AFF0C007C00617
:101C4700C005120242E582D005D006D0076015E52F
:101C57000924FDF8E6C0E090030975F000121B8522
:101C670015818013E50924FDF8E6C0E08D828E8397
:101C77008FF0121AA51581D00922C009858109ADF7
:101C870082AE83AFF0C007C006C005120242E582EC
:101C9700D005D006D0076015E50924FDF8E6C0E0B9
:101CA70090030975F000121BDE15818013E50924E6
:101CB700FDF8E6C0E08D828E838FF0121B29158117
:101CC700D00922AD82AE83AFF0C007C006C00512AF
:101CD7000242E582D005D006D00760187414C0E030
:101CE700E4C0E0C0E090030BF5F0125BC915811565
:101CF7008115812274022DFDE43EFE7405C0E0E4E7
:101D0700C0E0C0E08D828E838FF0125BC91581150C
:101D170081158122900585E0F58222AF82900585A5
:101D2700E04FF022E582F4FF900585E05FF022E5C1
:101D370082900585F022900585E4F022900586E0E3
:101D4700F58222AF827E00EFC4540FFD60048D0739
:101D57007E04EF0303543FFD60088D078E05740270
:101D67002DFEEFC31360058E07EF04FE8E8222AFB0
:101D770082BFA502800ABFA6028009BFA70E8008FE
:101D8700900001229000022290000422900000227D
:101D9700AF82BFA8005003021E5CEF243D50030230
:101DA7001E5CEF2458FF240A83F582EF241F83F576
:101DB70083E473F0F4F8FC000C1418101C20243092
:101DC70034383C4044500408484C282C54581D1DB6
:101DD7001D1D1E1E1E1E1E1E1E1E1E1E1E1E1E1E1E
:101DE7001E1E1E1E1E1E1E1E1E9000E2229000E9D1
:101DF700229000EA229000B5229000B6229000B30C
:101E0700229000B4229000B7229000CC229000CDFF
:101E1700229001832290018A2290019222900194BC
:101E27002290019F229001CB22900221229002232F
:101E37002290022422900225229002262290022735
:101E47002290006F229000702290022A2290029F17
:091E5700229002A022900000225A
:02617C00000021
:101E6000900336E4F0900337F0900338F090033994
:101E7000F090033AF090033BF022AF82900336EFEC
:101E8000F02222021E82740AC0E090033D12436ECB
:101E9000AF8215818F8222900347E4F01258E974D3
:101EA0000AC0E090033D12441415810258EF9003DC
:101EB000477401F022900347E06003021E9722C09E
:101EC00009858109AF82BF00028038BF0102800509
:101ED000BF02308017E50924FCF88682125989AFC9
:101EE00082E50924FBF8E62FF5828036E50924FD1A
:101EF000F88682125992AF82E50924FBF8E62FF5A5
:101F000082801FE50924FCF8E6C0E0E50924FDF81D
:101F10008682125962AF821581E50924FBF8E62F0B
:101F2000F582D00922C009E581F5092406F581AFC3
:101F300082BF55005064E50924FBF8A90909E6F7BA
:101F400008E609F708E609F78F03EB75F003A4D359
:101F500094FFF4FBA8090886820886830886F0EBC4
:101F600012599BA80908740126FAE40836FB088672
:101F7000068A828B838EF0E412599BA809087402AA
:101F800026FCE40836FD088606EF75F003A48C8273
:101F90008D838EF012599B022060BFAA0050668F7D
:101FA00006EE24ABFFE50924FBF8A90909E6F708CA
:101FB000E609F708E609F7A8090886820886830873
:101FC00086F0E412599BA809080426FAE40836FDB5
:101FD000088606EF75F003A48A828D838EF012596D
:101FE0009BA80908740226FCE40836FD0886068FC3
:101FF00003EB75F003A4D394FFF48C828D838EF0F1
:1020000012599B805BEF2456FFE50924FBF88604F8
:10201000088605088606EF75F003A48C828D838EF2
:10202000F012599BE5092404F874012CF6E43D08EC
:10203000F608A606EF75F003A4D394FFF4FFE509B4
:102040002404F886820886830886F0EF12599B7470
:10205000022CFCE43DFD8C828D838EF0E412599BB2
:10206000850981D00922C009E581F5092406F58199
:10207000AF82BF0360E50924F7F8860208860308EB
:102080008607E5092404F874012AF6E43B08F608FB
:10209000A60774022AFCE43BFD8F068C828D838E9A
:1020A000F0E50924FAF8E612599BE5092404F886BC
:1020B000820886830886F0E50924FAF9E712599B1D
:1020C0008A828B838FF0E50924FAF8E612599B7512
:1020D0008201022213BF040040067582000222130F
:1020E000E50924FBF8E6C0E0E50924FCF8E6C0E0D9
:1020F000E50924FDF8E6C0E08F82121EBFAF82150D
:102100008115811581E50924F7F8E6C0E008E6C0ED
:10211000E008E6C0E08F82121F2515811581158128
:10212000E50924F7F886050886060886078D828E5D
:10213000838FF0125C23FC7B00E50924FAF8A909DF
:1021400009E6F7097700C007C006C005A80908E638
:10215000C0E008E6C0E08C828B831259B6AC8315D0
:10216000811581D005D006D0078C038D828E838F98
:10217000F0EB12599BE5092404F874012DF6E43EB6
:1021800008F608A607E5092404F88682088683086D
:1021900086F0125C23FC7B00C007C006C005A809BE
:1021A00008E6C0E008E6C0E08C828B831259B6AC2A
:1021B0008315811581D005D006D0078C03E509244D
:1021C00004F886820886830886F0EB12599B740215
:1021D0002DFDE43EFE8D828E838FF0125C23FC7B0E
:1021E00000C007C006C005A80908E6C0E008E6C0B0
:1021F000E08C828B831259B6AC8315811581D00592
:10220000D006D0078C038D828E838FF0EB12599B02
:10221000758201850981D00922C009858109AF82B3
:10222000BF031DE50924F8F886040886050886061C
:102230008C828D838EF074FF12599B758201805AB7
:10224000BF040040057582008050E50924FBF8E6D4
:10225000C0E0E50924FCF8E6C0E0E50924FDF8E665
:10226000C0E08F82121EBFAF82158115811581E5F6
:102270000924F8F88604088605088606BF80005001
:1022800005EF2FFB800774FFC39F25E0FB8C828D39
:10229000838EF0EB12599B758201D009229003487E
:1022A000E4F0A3F090034AF090034BF022E5827033
:1022B000012290034AE0601090034AE4F090034842
:1022C000F0A3F090034BF022900348E0FEA3E0FF60
:1022D000C3EE9408EF94525023900348E02401FE8B
:1022E000A3E03400FF900348EEF0EFA3F0C3EE94B8
:1022F00008EF9452400690034B7401F02290034A79
:102300007401F022AF82BF01028005BF0214800B6E
:1023100090034BE024FFE433F58222A201E433F57D
:1023200082227582002290034C740AF012425F9060
:10233000000A122CAC90033675F00012371AE582B1
:10234000600790033AE060012290000A122CAC90E2
:10235000034CE014F0E070D4221247D3AF82C007E0
:10236000122304E582D0077007BF0101220222FD7B
:1023700090034BE4F0BF0203048001E4B401009237
:10238000085007C021124216D021C02112245AD071
:1023900021C0211258F5D021C021124854D021A2C9
:1023A00008E433F582C021123142D021C021124805
:1023B0005AD021C02112588CD021C02112245DD0C6
:1023C000213008031223260222FD90034D7401F0F0
:1023D00090034EE4F00231D9D310AF01C3C0D090C6
:1023E000034FE0FEA3E0FFD0D092AF8E828F832216
:1023F0007582001231EE1216A390034FE0FEA3E0A7
:10240000FF90034F74012EF0E43FA3F02275820188
:102410001231EE125075E4C0E0900336F5F0125020
:10242000A7AF821581C00712516AD0078F8202229E
:10243000AD90034DE0600C90034DE4F090034EF03E
:102440000223F012240D90034EE02401FFF0BF019F
:1024500000400690034D7401F0220232030232065E
:10246000900346E0B40100B39208E433F58222E51C
:1024700082900384F022122460E582600690038437
:10248000E07004C2088002D208A208E433F5822278
:10249000AF82C007122460AE82D007EEB5070122DA
:1024A000EF60047E0180027E00900346EEF0C007DC
:1024B000121EAED0078F82024B1F900383E0FFE015
:1024C0006008E4BF020104FF8007122460AE828E20
:1024D00007EF24FFE433F58222AF82C0071224BA4B
:1024E000AE82D007EEB5070122900381E0600FEFC6
:1024F00060047E0280027E01900383EEF02290034E
:1025000083E4F08F820224901224BAE582B40100A1
:102510009208E433F5820224D97F00900381E0FE23
:10252000C3EF9E5022EF75F004A42451FD740335CF
:10253000F0FE74022DFDE43EFE8D828E83E0600489
:10254000758201220F80D475820022121D1BAF827A
:102550005307DD900381E0FEE0606BEE14FDC2D511
:1025600075F004ED30E704B2D5F404A430D50AF4D4
:102570002401C5F0F43400C5F02451FC740335F097
:10258000FD74022CFCE43DFD8C828D83E060371EDF
:10259000C2D575F004EE30E704B2D5F404A430D50A
:1025A0000AF42401C5F0F43400C5F02451FD74038D
:1025B00035F0FE74032DFDE43EFE8D828E83E060D7
:1025C0000B4307028006900382E042078F822212AB
:1025D000254B021D36AF82900381E0FE1E8E05ED75
:1025E00020E731C2D575F004ED30E704B2D5F4042C
:1025F000A430D50AF42401C5F0F43400C5F0245108
:10260000F582740335F0F583E0B507038E82221D51
:102610008D0680CB7582FF22AF828F06EE04FD907F
:102620000381E0FCC3ED9C50580EC2D575F004EE5A
:1026300030E704B2D5F404A430D50AF42401C5F07F
:10264000F43400C5F02451FD740335F0FE7B00EF37
:1026500075F004A42451F9740335F0F87A00C0072A
:102660007404C0E0E4C0E0C005C006C003898288ED
:10267000838AF0125B36E58124FBF581D0070F8059
:1026800099EC14900381F022C009858109AF827E04
:10269000007D00BD14005030ED75F004A42489FBCA
:1026A000745D35F0FC8B828C83E493B507158B82C7
:1026B0008C83A3E493FCE50924FDF8E6B504048EBD
:1026C0008280080D8D0680CB7582FFD00922900391
:1026D00081E07018900383E0FFE06010E4BF020126
:1026E00004FF900383E4F08F820224902290038100
:1026F000E4F01225CF0226CEC009858109058105A7
:1027000081AE82AF838E048F05BCE105BD000280DF
:1027100006BCE548BD00458E035303078BF005F06A
:102720007401800225E0D5F0FBFBE50924FDF8E605
:102730006008900382E04BF08009EBF4FB90038289
:10274000E05BF0122519E5827006758201022917F7
:102750001225CF1217DD758200022917C3EC9404ED
:10276000ED9400400774A49CE49D5006758201021C
:102770002917E50924FDF8E6700302289A900381E1
:10278000E0FFBF0C0040067582010229179003820A
:10279000E0B401009208B3E433FFC007C00612247E
:1027A00076E582D006D0076015C007C006C0078E48
:1027B00082122688AD821581D006D00780027DFF67
:1027C000C007900381E0FC04F0EC75F004A4ABF0CA
:1027D0002451FCEB3403FB8C828B83EEF074022CCF
:1027E000FAE43BFFBDFF03D38001C39208B3920913
:1027F0008A828F83A209E433F0A8090874012CF6B9
:10280000E43B08F6D00720081CC007ED75F004A4CF
:102810002489FA745D35F0FF8A828F83A3A3E49341
:10282000FAD00780028E02A809088682088683EA09
:10283000F074032CFCE43BFB20081DC004ED75F094
:1028400004A42489FA745D35F0FC8A828C83A3A3E6
:10285000A3E493FED00480028F06EE24FFE4338CC1
:10286000828B83F0BDFF10122519E58260031225CB
:10287000CF7582010229171225CFA8090886820880
:102880008683E0FFC0079002F975F000121C38152E
:10289000811217DD7582000229178E821225D5E577
:1028A00082FF30E705758201806DC2D575F004EFB7
:1028B00030E704B2D5F404A430D50AF42401C5F0FD
:1028C000F43400C5F02451FD740335F0FE8D828E82
:1028D00083A3A3E0FC8D828E83A3E0FE8F82C006DB
:1028E000C004122618D004D006EC7012122519E587
:1028F0008260031225CF1226CE7582018019C00690
:102900001225CF9002F975F000121C811581121763
:0D291000DD1226CE758200850981D00922D6
:105D890035012E011F012F0023012E0024012301BB
:105D99002501340126012501270126012D0187014D
:105DA9002E002D012E0133012F0030002F0130016B
:105DB90030003200300132013100870031018901A0
:105DC900330134003400240134011F0135002F014F
:10291D00AF838F0653061F7FE0EE30E3047FE38025
:10292D000EEE30E2047FE28006EE30E1027FE1EE52
:10293D0030E4068F0674042EFF7E008F828E832274
:10294D00E58275F007A42485FE740335F0FF8E82B1
:10295D008F837402F08E828F83A3A3A3E0FEA3E086
:10296D00FF8E828F8312291DAE82AF837401C0E06A
:10297D008E828F83121646158122C009858109AF7B
:10298D00827E007D00BD0200503FC006ED75F00750
:10299D00A42485FB740335F0FC8B028C068A828E91
:1029AD0083E0D006601E8B828C83A3E0B507158B68
:1029BD00828C83A3A3E0FCE50924FDF8E6B50404AD
:1029CD008E8280080D8D0680BC758202D00922C0D2
:1029DD0009858109AF82C007E50924FDF8E6C0E04D
:1029ED008F82122987AE821581D007E50924FAF866
:1029FD00E67003022AEE7D00BD0200502EED75F04B
:102A0D0007A42485F582740335F0F583E0FCBC0141
:102A1D0017EDB5060280118D82C007C006C00512E4
:102A2D00294DD005D006D0070D80CDE50924FBF842
:102A3D00860408860574E02D5009C374FF9C743F0D
:102A4D009D5006758200022BB67D00BD0200506DB3
:102A5D00ED75F007A42485FB740335F0FC8B068C13
:102A6D00028E828A83E070528E828A837401F08B8B
:102A7D00828C83A3EFF08B828C83A3A3E50924FDC5
:102A8D00F8E6F08B828C83A3A3A3E50924FBF8E67B
:102A9D00F008E6A3F074052BFFE43CFEC007C0066A
:102AAD001223D8AA82AC83D006D0078F828E83EAF8
:102ABD00F0ECA3F0758201022BB60D808EE5092492
:102ACD00FBF8868208868312291DAD82AF837401BF
:102ADD00C0E08D828F831216461581758201022BFF
:102AED00B6BE0241E50924FBF8860508860774E0A9
:102AFD002F502CC374FF9D743F9F4023E50924FB89
:102B0D00F8868208868312291DAD82AF83E4C0E06A
:102B1D008D828F831216461581758201022BB67533
:102B2D008200022BB6EE75F007A42485FE740335E2
:102B3D00F0FF8E048F058C828D83E0FBBB01368EFA
:102B4D00828F83A3A3A3E0FB7A00C005C004C0035A
:102B5D00C0027401C0E08B828A831216461581D0A3
:102B6D0002D003E4C0E08B828A831216461581D011
:102B7D0004D005802B8E828F83A3A3A3E0FEA3E058
:102B8D00FF8E828F83C005C00412291DAE82AF83D4
:102B9D00E4C0E08E828F831216461581D004D005D5
:102BAD008C828D83E4F0758201D009221223D8AE78
:102BBD0082AF837D00BD02005048ED75F007A4245F
:102BCD0085FB740335F0FC8B828C83E0FABA012F00
:102BDD008B828C83A3A3A3A3A3E0FBA3E0FCEEC392
:102BED009BFBEF9CFCC3EB941DEC940140118D827B
:102BFD00C007C006C00512294DD005D006D0070D5F
:102C0D0080B3227910E9440060237A017B7C7C61DA
:102C1D007D857E058C838B82E493A3AB82AC838E02
:102C2D00838D82F0A3AD82AE83D9E9DAE775820098
:102C3D0022AE82AF83BE0005BF0003801A0F801342
:102C4D0075B1000000000000000000000000000051
:102C5D00000000DEEBDFE922AE82AF83BE0005BFD0
:102C6D000003801A0F801300000000000000000018
:102C7D0000000000000000000000DEEBDFE922AEE6
:102C8D0082AF83EE4F7001228E828F83022C65AE50
:102C9D0082AF83EE4F7001228E828F83022C3EAE67
:102CAD0082AF838E048F051EBEFF011FEC4D601099
:102CBD009003E8C007C006122C9CD006D00780E315
:102CCD0022C2AF75F0A5745A02FF00758F012290D4
:062CDD000393E5B1F022B3
:030165007508FF1B
:102CE30075080253A8FB3275080353A8F732750819
:102CF3000453A8EF3275080553A8DF32750806534D
:102D0300A8BF3275080953A9FB3275080A53A9F7FE
:102D13003275080B53A9EF3275080C53A9DF3275CE
:102D2300080D53A9BF32C009858109AF82D310AF03
:102D330001C3C0D0EF60027401FF8FA77F00E509D4
:102D430024F9F8C3EF96502E8F06E50924FCF88684
:102D5300040886057B00EE2CFCEB3DFDE50924FA17
:102D6300F8EF26FBE40836FE8C828D83E4938B8296
:102D73008E83F00F80C875A700D0D092AFD0092200
:102D8300C009858109AF82D208D310AF01C3C0D077
:102D9300EF60047F0180027F008FA77F00E5092495
:102DA300F9F8C3EF9650388F06E50924FCF886043A
:102DB3000886057B00EE2CFCEB3DFD8C828D83E4C5
:102DC30093FEE50924FAF8EF26F582E40836F58345
:102DD300E0FDEEB505028004C20880030F80BE75D6
:102DE300A700D0D092AFA208E433F582D00922C065
:102DF30009858109AF82D310AF01C3C0D08FA7E586
:102E03000924FCF80886F7E50924FCF886FBE509A4
:102E130024FAF886FCE50924FBF886F275F30575B8
:102E2300F40A75F50975F606000000000075F70051
:102E330075A700D0D092AFD00922C00985810905BA
:102E430081E58260027401FFA80908A6077E00E5F8
:102E53000924F9F8C3EE965043E50924FAF8EE265F
:102E6300F582E40836F583E0FD8E04E50924FCF8D9
:102E730086020886037F00EC2AFAEF3BFBC006C0FC
:102E830005746EC0E0C002C003A809088682122D33
:102E9300F2E58124FCF581D0060E80B31581D009BB
:102EA30022C009858109E58260027401FFE4C0E064
:102EB30074E6C0E0E50924FCF8E6C0E008E6C0E0FB
:102EC3008F82122DF2E58124FCF581D0092275B29F
:102ED3000875BC02E5BC20E20575B10080F643BC71
:102EE3000143B204227F00BFC8005004000F80F7E3
:102EF30022D310AF01C3C0D043B20843BC0275B1A3
:102F030000122EE875BC0375B20C75B100D0D092D7
:102F1300AF22C009858109C082C083C0F0E50924BE
:102F2300FDF8E624EF40327C00E50924FDF8C3EC0C
:102F3300965026EC2420FAE43411FBA80908EC2669
:102F4300FDE40836FE0886078D828E838FF0125CBF
:102F5300238A828B83F00C80D0850981D00922C01B
:102F630009858109C082C083C0F0E50924FDF8E624
:102F730024BF40327C00E50924FDF8C3EC965026BB
:102F8300EC2480FAE43411FBA80908EC26FDE408DC
:102F930036FE0886078D828E838FF0125C238A8229
:102FA3008B83F00C80D0850981D009227F00BFFF7D
:102FB300005012E59930E20D900028C007122C9CB6
:102FC300D0070F80E9227F00BFFF005012E59A303F
:102FD300E20D900028C007122C9CD0070F80E92235
:102FE30075960075945F7595117591C043A901227B
:102FF30075960053913B53A9FE22C009858109AD03
:1030030082AE83AFF0C007C006C005122FAFD00554
:10301300D006D007E50924FDF8E6C0E08D828E8353
:103023008FF0122F151581539CE0E50924FDF8E676
:10303300429C439904D00922C009858109AD82AE1F
:1030430083AFF0C007C006C005122FC9D005D00654
:10305300D007E50924FDF8E6C0E08D828E838FF06A
:10306300122F621581539D80E50924FDF8E6429DE8
:10307300439A04D009222222C021C0E0C0F0C082BA
:10308300C083C007C006C005C004C003C002C0019E
:10309300C000C0D075D000AF86AEA7C007C006126F
:1030A3000683D006D0078EA78F86D0D0D000D0015C
:1030B300D002D003D004D005D006D007D083D0826D
:1030C300D0F0D0E0D0210200B422E5827004439115
:1030D300012202031F53B2FB53BCFE53BCFD53B288
:1030E300F722AF8243948553927AEF700475A90156
:1030F3002275A900538FFE2200758E554387020067
:10310300000000000022AF825392FD5391FE900312
:1031130094E0600EC0071203B6E582D00760034354
:103123009102900394E4F0EF700975945F43A90151
:10313300C20122438F019001F4122C9C0202E2AFE0
:1031430082C0071230CD1230D8D0078F82C0071249
:1031530030E575B100900394E4F01230FB122EF4C5
:10316300D0078F82023109C021C0E0C0F0C082C005
:1031730083C007C006C005C004C003C002C001C0AD
:1031830000C0D075D0001231B19003947401F0D017
:10319300D0D000D001D002D003D004D005D006D0C7
:1031A30007D083D082D0F0D0E0D0210200B475E8FC
:1031B30000221231B175BAF375B640D2A922C2A961
:1031C3000231B1AE82AF83C2CA8F058DCB8ECA8D59
:1031D300CD8ECCD2CA22C2CA75C80075C90090FC74
:1031E300DF1231C6C2CFD2A8D2CA22E58270067ED0
:1031F300377FFF80047EDF7FFC8E828F830231C6A0
:10320300C2A822D2A822C021C0E0C0F0C082C083DD
:10321300C007C006C005C004C003C002C001C0008F
:10322300C0D075D000C2CF122431D0D0D000D0018D
:10323300D002D003D004D005D006D007D083D082EB
:10324300D0F0D0E0D0210200B432C009858109C09A
:1032530082C083C0F0C28543E120C285900003127F
:103263002C9CC2FC43D110C2FCE50924FBF8E660A8
:1032730068D310AF01C3C0D07B007C00E50924FCF8
:10328300F8C3EB96EC64800886F063F08095F05009
:1032930042A80908EB26FAEC0836FE0886078A825C
:1032A3008E838FF0125C23F582C007C006C004C072
:1032B30003C0021233BFAD82D002D003D004D006C4
:1032C300D0078A828E838FF0ED12599B0BBB00AC23
:1032D3000C80A9D0D092AF80437E007F00E5092403
:1032E300FCF8C3EE96EF64800886F063F08095F0F7
:1032F300502AA80908EE26FBEF0836FC0886058B42
:10330300828C838DF0125C23F582C007C0061233D2
:10331300BFD006D0070EBE00C40F80C153D1EFD279
:10332300FC53E17FD28753E1DFD285850981D00940
:1033330022C009858109AD82AE83AFF0A2B2E43326
:10334300FCC004E4C0E0E50924FCF8E6C0E008E6BC
:10335300C0E08D828E838FF012324D158115811559
:1033630081D0047F00BF3200501FA2B2E433B50402
:103373000280057582018014900003C007C0041207
:103383002C9CD004D0070F80DC758200D00922C0AA
:1033930009858109AD82AE83AFF07401C0E0E50910
:1033A30024FCF8E6C0E008E6C0E08D828E838FF04F
:1033B30012324D158115811581D00922AF827E000D
:1033C3007D00BD0800502DEE2EFEC2B743E580C23E
:1033D300B7EF30E70753E17FD2878007C28743E126
:1033E30080C28730860343060153E57FD2B7EF2FB0
:0733F300FF0D80CE8E822247
:100168009003E6E4F09003E704F09003E8E4F090ED
:1001780003E9F09003EAF09003EBF09003ECF090C1
:1001880003EDF09003EEF09003EFF09003F0F090A1
:1001980003F1F09003F5E4F09003F6F09003F7F024
:0C01A8009003F8F09003F9F09003FAF0D7
:1033FA00E5829003B8F022E5829003B9F022AF8209
:10340A009003B8E0600475820022EF6004758200C0
:10341A00229003B9E060047582002275820122AF0E
:10342A0082900587E0FEEFB5060122900587EFF04E
:10343A007E007D00ED905DD993FC6017BE0F0050B1
:10344A0012EE24BAFAE43403FB0E8A828B83ECF080
:10345A000D80E1EE04FDEE24BAF582E43403F5832F
:10346A00742DF0ED04FEED24BAFDE43403FC74304F
:10347A002F8D828C83F0EE24BAF582E43403F5832F
:10348A00E4F0C00674BAC0E07403C0E0E4C0E075BA
:10349A008200124126158115811581900032122C65
:1034AA00ACD0068E077E00EE905DDF93FD6012EFD2
:1034BA0024BAFBE43403FC0F8B828C83EDF00E807C
:1034CA00E6EF24BAF582E43403F583E4F074BAC073
:1034DA00E07403C0E0E4C0E0758201124126158160
:1034EA0015811581900032022CACC009858109052D
:1034FA008105819000FF122CAC9000FF122CAC9039
:10350A0000FF122CAC9000FF122CAC9000FF122C82
:10351A00AC9000FF122CACA909097F0AEF603CC0ED
:10352A0007C00112425FD001D0078F057E008D824D
:10353A008E83C007C001122CACD00189047D007EA5
:10354A00408C828D838EF0C001123AC9E582D00187
:10355A00D0076004E720E7031F80C1758201123497
:10356A00297582001238F0850981D00922AF82C0FC
:10357A0007E4C0E08F82123BC01581900014122C20
:10358A00ACD007E4C0E08F82123BC015812275825D
:10359A0002123F779000C8122CAC7582001240DAF2
:1035AA00900064122CAC1242169000C8122CAC1275
:1035BA0034F49000C8022CACAE82AF8374072EF5A7
:1035CA0082E43FF583E09003DFF08E828F83E09000
:1035DA0003D8F08E828F83A3A3E09003D9F08E8262
:1035EA008F83A3A3A3E09003DAF08E828F83A3A331
:1035FA00A3A3E09003DBF08E828F83A3A3A3A3A3EC
:10360A00E09003DCF074062EF582E43FF583E09047
:10361A0003DDF09003DE7401F00236269003E4E045
:10362A0060279003E0E0FEA3E0FF9003E2E0C0E041
:10363A00A3E0C0E08E828F83124000AF821581150D
:10364A0081EF60059003E4E4F09003DEE07001226C
:10365A009003D875F000123C37E58260059003DECE
:10366A00E4F022AE82AF83D2087D01BD150050126C
:10367A00ED2EFBE43FFC8B828C83E06002C2080DD6
:10368A0080E930081F7D00BD0600500FED24D2F5F9
:10369A0082E43403F583E4F00D80EC9003D275F0F4
:1036AA0000023C3774022EFCE43FFD8E828F83A316
:1036BA00E0FFC004C0058F82123DAC15811581223E
:1036CA00AE82AF83E0FDBD01028005BD0238801BDA
:1036DA009003E0E4F0A3F08E828F83A3E0FCA3E0E2
:1036EA00FD9003E2ECF0EDA3F0801C8E828F83A3A1
:1036FA00E0FEA3E0FF9003E0EEF0EFA3F09003E218
:10370A00E4F0A3F08001229003E47401F00236266B
:10371A00C009858109C082C083C0F005810581E5A1
:10372A00092404F9FA7B007C408A828B838CF0C0DE
:10373A0001123AC9E582D0017005F582023802E722
:10374A0020E707C00112425FD001A80908740226C7
:10375A00FAE40836FB08860487075307078A828B30
:10376A00838CF0EF12599BA809088605088606087B
:10377A0086070987045304078D828E838FF0EC1223
:10378A00599BA80908740426FDE40836FE08860732
:10379A00E7A2E3E4338D828E838FF012599BA80946
:1037AA0008740526FDE40836FE088607E7C45401B6
:1037BA008D828E838FF012599BA80908740326FD07
:1037CA00E40836FE088607E72354018D828E838F2C
:1037DA00F012599BA80908740126FDE40836FE0870
:1037EA0086078704530460ECC40354078D828E83D2
:1037FA008FF012599B758201850981D00922AD8209
:10380A00AE83AFF090058BE02401F0A3E03400F022
:10381A0090058BE0FBA3E0FCC3EB94D0EC9407503B
:10382A00012290058BE4F0A3F074052DFAE43EFB27
:10383A008F048A828B838CF0125C2390058DF08D25
:10384A00828E838FF0C007C006C00512371AE58240
:10385A00D005D006D00770012274052DFAE43EFB8C
:10386A008F048A828B838CF0125C23FC601690058D
:10387A008DE07010900589E4F0A3F0900588E0F5DA
:10388A0082023577900589E0FAA3E0FB900589E08A
:10389A00F5F0A3E045F0600E1ABAFF011B90058906
:1038AA00EAF0EBA3F02274042DF9E43EFA8F0389BF
:1038BA00828A838BF0125C237003EC60190DBD00C1
:1038CA00010E8D828E838FF0125C23FD900588E0B5
:1038DA00FFEDB5070122900588E0FFE4C0E08F8282
:1038EA00123BC0158122E582FF60098F82C0071250
:1038FA003429D007900588EFF0C007E4C0E08F8232
:10390A00123BC01581900014122CACD007E4C0E021
:10391A008F82123BC015812275820112408F90005E
:10392A0014122CAC75820102408F9003E57401F0E9
:10393A009003B5E4F09003B6F09003E4F02290030C
:10394A00B6E0FF700122EF20E0067DE67E038004E8
:10395A007DEC7E037C00EF149003B6F09003B774FD
:10396A0001F08D828E838CF0123C379003B7E4F01D
:10397A0022C009858109058105810581AF829005EB
:10398A0088EFF0C0077401C0E08F82123BC0158136
:10399A009003F4E4F0900064122CACD007E50924FB
:1039AA00FCF88605088606E5092403F8760AE5097F
:1039BA002403F8E67003023AA2C007C006C0051243
:1039CA00425F90000A122CAC9003F275F000123A92
:1039DA00C9E582D005D006D0077003023A87900362
:1039EA00F2E0FB20E703023A87C0078D828E83A3A9
:1039FA00A3530307EBF08D028E039003F3E0FF530A
:103A0A0007078A828B83EFF074042DFBE43EFF9054
:103A1A0003F3E0A2E3E4338B828F83F074052DFB7A
:103A2A00E43EFF9003F3E0C454018B828F83F0A835
:103A3A00090874032DF6E43E08F69003F3E02354D4
:103A4A0001FCA809088682088683ECF0A809087494
:103A5A00012DF6E43E08F69003F3E05460C40354E3
:103A6A0007FCA809088682088683ECF08B828F837C
:103A7A00E0D00760089003F47401F0801B900014F2
:103A8A00C007C006C005122CACD005D006D007E589
:103A9A00092403F8160239B89003F4E06011900083
:103AAA0032C007122CACD0078F82123577800A9069
:103ABA0005897458F07402A3F0850981D00922ADF2
:103ACA0082AE83AFF0C007C006C0051241CD900098
:103ADA0064122C9C123B4CD005D006D0079003955B
:103AEA00E0FCBCBB02800712425F75820022C0075D
:103AFA00C006C0057402C0E0E4C0E0900397F5F088
:103B0A001242A8AC8215811581D005D006D0079043
:103B1A000396E0B50402800712425F758200229084
:103B2A000397E08D828E838FF012599B0DBD0001A1
:103B3A000E900398E08D828E838FF012599B7582C6
:103B4A00012290039574FFF0900396F0900397F08A
:103B5A00900398F07404C0E0E4C0E0900395F5F097
:103B6A001233921581158122C009858109AD82AE71
:103B7A0083AFF07C00BC05005036C007C006C00504
:103B8A00C004E50924FCF8E6C0E008E6C0E08D823E
:103B9A008E838FF0123334AB8215811581D004D015
:103BAA0005D006D007EB600575820180060C80C53A
:103BBA00758200D00922C009858109AF82900395D8
:103BCA0074AAF09003967403F09003977401F0902E
:103BDA000398E50924FDF8E6F0900399EFF07405DF
:103BEA00C0E0E4C0E0900395F5F01242A8AF821558
:103BFA0081158190039AEFF07406C0E0E4C0E0906A
:103C0A000395F5F012333415811581D00922AF825C
:103C1A009003B7E0600122EF60069003B6E4F02259
:103C2A009003B5E060069003B67406F022C00985D9
:103C3A00810905810581AD82AE83AFF09003E5E08D
:103C4A00600A9003E5E4F07DF57E03FF9003957426
:103C5A00AAF0900396741DF09003977402F08D8277
:103C6A008E838FF0125C23900398F074012DFAE48E
:103C7A003EFB8F048A828B838CF0125C239003991B
:103C8A00F074022DFAE43EFB8F048A828B838CF057
:103C9A00125C2390039AF074032DFAE43EFB8F041E
:103CAA008A828B838CF0125C2390039BF074042D20
:103CBA00FAE43EFB8F048A828B838CF0125C239099
:103CCA00039CF074052DFAE43EFB8F048A828B83F1
:103CDA008CF0125C2390039DF07C00A80908760002
:103CEA00A80908B606005029C004A80908E62DFA52
:103CFA00E43EFB8F048A828B838CF0125C23D0040F
:103D0A0060047C01800BA80908A90909E604F78068
:103D1A00CF74F5C0E07403C0E0E4C0E08D828E8306
:103D2A008FF01200DE1581158115817003FF800561
:103D3A009003DFE0FF90039EEFF07F0ABF1F005061
:103D4A000FEF2495F582E43403F583E4F00F80EC59
:103D5A00C004741FC0E0E4C0E0900395F5F012427D
:103D6A00A8AF82158115819003B4EFF07420C0E0EA
:103D7A00E4C0E0900395F5F0123B72AF821581150D
:103D8A0081D004EC24FFE433F582C007C004123C5E
:103D9A0018D004D0079003B5ECF08F82850981D042
:103DAA000922C009858109AF8290039574AAF0900F
:103DBA000396741DF09003977402F0900398EFF045
:103DCA00900399E4F090039AF090039BF090039C7F
:103DDA00F090039DF0EFB40100B39208E433FF7052
:103DEA0020FEBE1400501AE50924FCF8EE26FCE475
:103DFA000836FD8C828D83E060047F0180030E808B
:103E0A00E1EF24FFE433FEF582C007C0061234084E
:103E1A00AD8290039EEDF0E50924FCF8860408863D
:103E2A00058C828D83E090039FF08C828D83A3E0C2
:103E3A009003A0F08C828D83A3A3E09003A1F08C61
:103E4A00828D83A3A3A3E09003A2F08C828D83A327
:103E5A00A3A3A3E09003A3F08C828D83A3A3A3A3BF
:103E6A00A3E09003A4F074062CF582E43DF583E008
:103E7A009003A5F074072CF582E43DF583E09003E6
:103E8A00A6F074082CF582E43DF583E09003A7F0D0
:103E9A0074092CF582E43DF583E09003A8F0740AD6
:103EAA002CF582E43DF583E09003A9F0740B2CF520
:103EBA0082E43DF583E09003AAF0740C2CF582E4C9
:103ECA003DF583E09003ABF0740D2CF582E43DF5EB
:103EDA0083E09003ACF0740E2CF582E43DF583E0A8
:103EEA009003ADF0740F2CF582E43DF583E0900366
:103EFA00AEF074102CF582E43DF583E09003AFF048
:103F0A0074112CF582E43DF583E09003B0F074124D
:103F1A002CF582E43DF583E09003B1F074132CF59F
:103F2A0082E43DF583E09003B2F09003B3E4F074C9
:103F3A001FC0E0E4C0E0900395F5F01242A8AD82FC
:103F4A00158115819003B4EDF07420C0E0E4C0E05F
:103F5A00900395F5F0123B7215811581D0068E8279
:103F6A00123C18D0079003B5EFF0D00922AF829027
:103F7A00039574AAF09003967403F0900397F09057
:103F8A000398EFF0900399E4F07405C0E0E4C0E010
:103F9A00900395F5F01242A8AF821581158190031E
:103FAA009AEFF07406C0E0E4C0E0900395F5F012D1
:103FBA003334158115812290039574AAF0900396E3
:103FCA007401F09003977404F014C0E0E4C0E09028
:103FDA000395F5F01242A8AF8215811581900398D6
:103FEA00EFF07404C0E0E4C0E0900395F5F01233FA
:103FFA00341581158122C009858109AE82AF83906B
:10400A00039574AAF0900396740BF09003977405C5
:10401A00F0900398E4F0900399F090039AF09003DB
:10402A009BF090039CF090039DF08E0590039EED0B
:10403A00F08F0690039FEEF0E50924FCF8860790BE
:10404A0003A0EFF0E50924FCF80886079003A1EF26
:10405A00F0740DC0E0E4C0E0900395F5F01242A8B8
:10406A00AF82158115819003A2EFF0740EC0E0E4CF
:10407A00C0E0900395F5F0123B72AF82158115816D
:10408A008F82D00922AF8290039574AAF09003968A
:10409A007403F090039723F0900398EFF09003993C
:1040AA00E4F07405C0E0E4C0E0900395F5F0124234
:1040BA00A8AF821581158190039AEFF07406C0E0CB
:1040CA00E4C0E0900395F5F012333415811581228E
:1040DA00AF8290039574AAF09003967403F090034C
:1040EA00977407F0900398EFF0900399E4F0740541
:1040FA00C0E0E4C0E0900395F5F01242A8AF821543
:10410A0081158190039AEFF07406C0E0E4C0E09054
:10411A000395F5F01233341581158122C009858182
:10412A0009AF8290039574AAF0900396741DF090DB
:10413A0003977408F0900398EFF0E50924FBF886DA
:10414A00050886060886077C057B008D828E838F8C
:10415A00F0125C23FA601ABC1F005015EC2495F586
:10416A0082E43403F583EAF00DBD00010E0C0B80E6
:10417A00DA900399EBF0BC1F00500FEC2495F582FE
:10418A00E43403F583E4F00C80EC741FC0E0E4C06F
:10419A00E0900395F5F01242A8AF8215811581903F
:1041AA0003B4EFF07420C0E0E4C0E0900395F5F0AA
:1041BA0012333415811581900014122CAC123FC1B0
:1041CA00D0092290039574AAF09003967403F09094
:1041DA000397740AF0900398E4F0900399F0740539
:1041EA00C0E0E4C0E0900395F5F01242A8AF821552
:1041FA0081158190039AEFF07406C0E0E4C0E09064
:10420A000395F5F0123334158115812290039574C4
:10421A00AAF09003967403F0900397740BF090033E
:10422A0098E4F0900399F07405C0E0E4C0E09003CC
:10423A0095F5F01242A8AF821581158190039AEF85
:10424A00F07406C0E0E4C0E0900395F5F012333450
:10425A00158115812290039574AAF0900396740330
:10426A00F0900397740CF0900398E4F0900399F09F
:10427A007405C0E0E4C0E0900395F5F01242A8AFDF
:10428A00821581158190039AEFF07406C0E0E4C0AC
:10429A00E0900395F5F01233341581158122C00997
:1042AA00858109C082C083C0F07C007A007B00E56A
:1042BA000924FCF8C3EA96EB64800886F063F08070
:1042CA0095F0501FA80908EA26FDEB0836FE088675
:1042DA00078D828E838FF0125C232CFC0ABA00CFE2
:0F42EA000B80CC7455C39CF582850981D00922C5
:0D5DD900416972373500204254332E3000EE
:07617E00FF0000000000001B
:1042F900C009858109AE82AF837D007C00E5092470
:10430900FDF8C3EC96500EEC2EF582E43FF583E000
:104319002DFD0C80E88D82D00922AF82C00774037D
:10432900C0E074FBC0E07403C0E0E4C0E074ECC01A
:10433900E0758200122D29E58124FBF581D00790D3
:1043490003FBE0FEBE5A119003FCE0FEBEA50990F6
:1043590003FDE0B507028004C2088002D208A20862
:10436900E433F58222C009858109AE82AF83E5096C
:1043790024FDF88682C007C006124323E582D006D1
:10438900D0077005F582024411C007C006E509246B
:10439900FDF8E6C0E0C006C0077403C0E074ECC0D5
:1043A900E0758200122D29E58124FBF581E50924B8
:1043B900FDF886057C0074032DFD74EC3CFC74014A
:1043C900C0E074FBC0E07403C0E0C005C00475829E
:1043D90000122D29E58124FBF581D006D007900331
:1043E900FBE0FDC005E50924FDF8E6C0E08E828FFB
:1043F900831242F9AF821581D005EDB50703D38049
:1044090001C39208E433F582D00922C009858109E4
:10441900AE82AF83E50924FDF88682C007C0061283
:104429004323E582D006D0076030C007C006E509FE
:1044390024FDF8E6C0E0C006C0077403C0E074ECD0
:10444900C0E0758200122D83AD82E58124FBF581E0
:10445900D006D007ED600302451DC007C006E4C0C1
:10446900E074ECC0E0758200122EA41581158190CC
:1044790003FB745AF09003FCF4F09003FDE5092462
:10448900FDF8E6F07403C0E074FBC0E07403C0E01B
:10449900E4C0E074ECC0E0758200122E3DE5812491
:1044A900FBF581D006D007C007C006E50924FDF851
:1044B900E6C0E0C006C0077403C0E074ECC0E07554
:1044C9008200122E3DE58124FBF581D006D007E557
:1044D9000924FDF8E6C0E08E828F831242F9AF828B
:1044E90015819003FBEFF0E50924FDF886077E00AE
:1044F90074032FFF74EC3EFE7401C0E074FBC0E04E
:104509007403C0E0C007C006758200122E3DE58124
:1045190024FBF581D0092243902043983F43A03FD3
:104529004388072243E22043E33F43E43F43E6074E
:104539002253EADF53E2DF53EBC053E3C053ECC02D
:1045490053E4C053EEF853E6F822E582FF24F05015
:104559000122EF2F90456173801E801F80208021EA
:104569008022802380248025802680278028802916
:10457900802A802B802C802DC28822C28922C28A5F
:1045890022C2A522C2A422C2A322C2A222C2A1225D
:10459900C2A022C29D22C29C22C29B22C29A22C2CE
:1045A9009922C29822C29522E582FF24F050012265
:1045B900EF2F9045BF73801E801F802080218022AD
:1045C9008023802480258026802780288029802AAE
:1045D900802B802C802DD28822D28922D28A22D285
:1045E900A522D2A422D2A322D2A222D2A122D2A02F
:1045F90022D29D22D29C22D29B22D29A22D29922C5
:10460900D29822D29522E5F8540FFFE58825E0FEDD
:1046190074305E4F44C0F582225380E35390F153C6
:10462900B08453887FE5C075C0002212463A02461D
:104639008E758C0575A500758C4575A600758C85DC
:1046490075BB00758CC5758D00758C0075E11C7581
:10465900E22E75E33F75E43F75E57B75E68775E7FF
:10466900FF43EA0175EE7875D98FA2FDB392FE4337
:10467900D14043F81043B0804380A043E9E043EDC3
:104689008443D9102290FF9C7401F090FF98E4F0C4
:1046990090FF9D04F090FF99E4F090FF9E04F09044
:1046A900FF9AE4F075DE01F5DDF5D5F5D2F5C3F530
:1046B900CEF5D6F5D3F5C4F5C1F5D7F5D4F5C5F5DD
:1046C900C290FFBDF090FFA5F090FFEDF090FFD5EF
:1046D900F090FFBCF090FFA4F090FFECF090FFD4B5
:1046E900F090FFBBF090FFA3F090FFEBF090FFD3A9
:1046F900F090FFBAF090FFA2F090FFEAF090FFD29D
:10470900F090FFB9F090FFA1F090FFE9F090FFD190
:10471900F090FFB8F090FFA0F090FFE8F090FFD084
:10472900F090FFC3F090FFABF090FFF3F090FFDB48
:10473900F090FFC2F090FFAAF090FFF2F090FFDA3C
:10474900F090FFC1F090FFA9F090FFF1F090FFD930
:10475900F090FFC0F090FFA8F090FFF0F090FFD824
:10476900F090FFBFF090FFA7F090FFEFF090FFD718
:10477900F090FFBEF090FFA6F090FFEEF090FFD60C
:10478900F090FFC9F090FFB1F090FFF9F090FFE1D0
:10479900F02243D901C28843E6017F007E00BE10A2
:1047A90000501875B1009001F4C007C006122C9C86
:1047B900D006D00720F8010F0E80E3D28853E6FE19
:1047C90053D9FEBF1003022CCE22208D047F018015
:1047D900027F028F822253EADF53E2DF53EBC05399
:1047E900E3C053ECC053E4C053EEF853E6F843E694
:1047F900475388B843E43F53A0C043E33F5398C0AD
:1048090043E2285390D153E9E343E11C5380E35336
:10481900EE7F43E6C053883FE5EF75EF00E5E775A6
:10482900E7FFE5C075C00053ED8443E57B53B084D1
:1048390053EE9F53E69F53889F53E57F53E15F53A0
:10484900D1EFD28ED293C2FED2FF221247DF0231BC
:10485900B51231C1C28543E120C28502463AA28D13
:10486900E4339003FEF0A28EE4339003FFF090034B
:10487900FFE0F58212593A1213969003FFE0F58290
:104889001233FA9003FFE0B401009208E433F58291
:1048990002246F9003FEE0F582227F00BF080050DA
:1048A9000FEF2400F582E43404F583E4F00F80EC83
:1048B900900400124D58120242E58260227F00BF27
:1048C9001600500FEF240BF582E43404F583E4F06D
:1048D9000F80EC90040B7406F090040B124D759048
:1048E9000409E4F0A3F09004087402F0900408129B
:1048F9004D929004087401F0900408024D92AF8221
:10490900C0071248A3D0079003FEEFF0C007124A70
:1049190018D007BF00028006BF010F023922900399
:1049290045E0F5821238F002393422AF829003FF54
:10493900EFF08F82C00712593A121396D0078F826F
:10494900C0071233FAD007EFB401009208E433F537
:104959008202246FA28DE433FF9003FEE0FE8F05EF
:10496900EDB50609900421E4F0A3F0802890042114
:10497900E02401F0A3E03400F0900421E0A3E0C3B7
:1049890094014011900421E4F0A3F0EF24FFE433F3
:10499900F582124907A2FDB392FEA28EE433FF907D
:1049A90003FFE0FE8F05EDB50608900423E4F0A3AC
:1049B900F022900423E02401F0A3E03400F09004F5
:1049C90023E0A3E0C394014011900423E4F0A3F091
:1049D900EF24FFE433F58202493422AE82AF83BE6D
:1049E9004005BF7E028024BE4105BF7E028010BE05
:1049F9004205BF7E02800CBE4311BF7E0E80087542
:104A09008201227582022275820322758200229018
:104A19000590E4F0A3F0900592F022C00985810980
:104A2900C082C083058105817D00E5092404F876EB
:104A390000E5092404F8B606004003024AE87B00B1
:104A4900E5092404F886F005F07401800225E0D513
:104A5900F0FBFAE5092404F8E5092403F9E6C4237F
:104A690054E0F77F00BF10005065C003900237E0A3
:104A790075F0C0A42406FB745E35F0FEE509240335
:104A8900F8E62BFBE43EFEEF2F2BF582E43EF5839F
:104A9900E493FCA3E493FEA80908E6B5040708E635
:104AA900B506028004D0038021D003EF2416F582D5
:104AB900E43402F583E0FEEA5E600F900427EDF02E
:104AC900900428EBF075820180180F8F038096E51A
:104AD900092404F806E5092404F88605024A3A750A
:104AE9008200850981D00922900428E02416F582E4
:104AF900E43402F583E0FF900427E0F5F005F07453
:104B090001800225E0D5F0FB5207EFB40100B39212
:104B190008E433F58222024E79C009858109AE8203
:104B2900AF83C007C006E50924FDF8E6C0E08E8220
:104B39008F831226F8AD821581D006D007ED700556
:104B4900F582024D55C3EE9440EF947E5003024D19
:104B590052C374509E747E9F5003024D528E048F2F
:104B690005EC24C0FC240A83F582EC241583F58323
:104B7900E47390909090E804203C5874AEBECE2225
:104B890032429D4C4C4C4C4B4C4C4C4C4C4B4B4B33
:104B99004D4D4D4BE50924FDF8E6600312250875D6
:104BA9008200024D55E50924FDF8900425E6F075CB
:104BB9008200024D55E50924FDF8900426E6F075BA
:104BC9008200024D55E50924FDF8E6600C900426A3
:104BD900E06006124E98123598758200024D55E52F
:104BE9000924FDF8E6600E900425E06005124FEAFD
:104BF9008003124F5B758200024D55E50924FDF8CB
:104C0900E6600E900425E060051250028003124F01
:104C190073758200024D55E50924FDF8E6600E9092
:104C29000425E0600512501A8003124F8F75820027
:104C3900024D55E50924FDF8E6600E900425E06073
:104C4900051250358003124FAA758200024D55E5B1
:104C59000924FDF8E6600E900425E0600512505025
:104C69008003124FC5758200024D55E50924FDF8F0
:104C7900E6600E900425E060051250638003124F30
:104C8900D8758200024D559003FEE06003024D1D68
:104C9900E50924FDF8E660698E828F83C007C006A6
:104CA9001249E4AD82C0051238F0D005900345EDF4
:104CB900F0C005121EAED005900337EDF090033A0F
:104CC9007401F090033BF0124A18D006D0078E8287
:104CD9008F83C007C006124A24E582D006D0076038
:104CE90033900590EEF0EFA3F01223D8E582858387
:104CF900F090058EF0E5F0A3F09005927401F08034
:104D090013900590E0FCA3E0FDECB50607EDB507AF
:104D190003124A187582008033E50924FDF8E6601C
:104D290003124E727582008023E50924FDF8E660BE
:104D390003124E877582008013E50924FDF8E660A9
:104D490003124E907582008003758201D00922AE4C
:104D590082AF839003FEE0FD600ABD010E8E828F53
:104D6900830203448E828F830235C222AE82AF83CF
:104D79009003FEE0FD600ABD010E8E828F8302035F
:104D89006A8E828F8302366D22AE82AF839003FED4
:104D9900E0FD600ABD010E8E828F830203908E8230
:104DA9008F830236CA22900592E0600A124AF1E521
:104DB900827003124A189003FEE07070900592E029
:104DC900605B900590E0F5F0A3E045F0604F122399
:104DD900D8AE82AF8390058EE0FCA3E0FDEEC39CC4
:104DE900FEEF9DFFC3EE9430EF9411403090059093
:104DF900E0FEA3E0FF8E828F831249E4AF82900325
:104E09003BE4F090033AF07436C0E07403C0E08FDD
:104E19008212397B15811581900592E4F090033651
:104E290075F000123808123626123948900593E0B9
:094E39002401F0A3E03400F02292
:076185000000000000000013
:104E420090033DE4F090033E14F090033F7404F0AD
:104E5200900341E4F090034214F09003437401F094
:104E6200900344E4F090034504F0900346E4F022FA
:104E720090058174C8F022AF82900583EFF090050F
:104E8200827404F0229003447401F0021EAE900377
:104E920044E4F0021EAE124E42021EAE90033DE00A
:104EA20024FB500690033D7404F090033FE0FFBFE3
:104EB2000100500690033F7401F090033FE024EF9D
:104EC200500690033F7410F0900341E024FB50061B
:104ED2009003417404F0900343E0FFBF01005006C9
:104EE2009003437401F0900343E024EF50069003D3
:104EF200437410F0900346E024FE5005900346E40C
:104F0200F0227420C0E07401C0E0E4C0E090042903
:104F1200F5F0125BC91581158115817430C0E0E48A
:104F2200C0E0C0E0900549F5F0125BC9158115811A
:104F3200158122900579E4F090057AF090057FF0D2
:104F420090058004F090057BE4F090057CF09005DC
:104F52007DF090057EF002588C90033DE0FF0F90AB
:104F6200033DEFF0EF24FB500590033DE4F0021EF9
:104F7200AE90033DE0700890033D7404F0800B9006
:104F8200033DE0FF1F90033DEFF0021EAE90033E93
:104F9200E0FF2420500890033E74FFF08007742045
:104FA2002F90033EF0021EAE90033EE0FFBF2000B2
:104FB200500790033EE4F08007EF24E090033EF0B8
:104FC200021EAE90033FE0FFBF100050060F900399
:104FD2003FEFF0021EAE90033FE0FF24FE50061F9B
:104FE20090033FEFF0021EAE900341E0FF0F9003EB
:104FF20041EFF0EF24FB5005900341E4F0021EAEB6
:10500200900341E0FF70089003417404F080061F92
:10501200900341EFF0021EAE900342E0FF242050C5
:105022000890034274FFF0800774202F900342F02F
:10503200021EAE900342E0FFBF20005007900342E1
:10504200E4F08007EF24E0900342F0021EAE9003EA
:1050520043E0FFBF100050060F900343EFF0021E23
:10506200AE900343E0FF24FE50061F900343EFF08F
:10507200021EAE5380E35390F153B08453887FE510
:10508200C075C00022900580E0700122900580E486
:10509200F0FFBF7000500D75B100C007125173D000
:1050A200070F80EE22C00985810990057FE0240167
:1050B200F0E0FFBF7000403B90057FE4F0900343B7
:1050C200E0FE90057CE02EF0900581E0FEE06006B7
:1050D200EE14900581F0900582E0FEE06006EE1489
:1050E200900582F0900584E02401F090058074011F
:1050F200F08014BF601190033FE0FF90057BE02F2A
:10510200F09005807401F01258F57F00900579E067
:10511200FEBE0600501190033DE0FEBE0400500C9E
:105122001255EAAF8280051255EAAF82EF6006128D
:10513200554012588CC20890057AE02401F0E0FF35
:10514200BF0300401A90057AE4F0900579E024014B
:10515200F0E0FFBF07004007900579E4F0D208A213
:1051620008E433F582D0092290FF80E053E0DFF0BB
:1051720022C009E581F5092407F58190057DE0FF4C
:10518200BF06004003025238E5092405F9FC7D0000
:105192007E4090033EE0FB90033DE0FAC001C00474
:1051A200C005C006C00390057BE0C0E090057EE02C
:1051B200C0E0C0078A82122066AF82E58124F9F539
:1051C20081D001EF700302551490057DE075F03037
:1051D200A42429FE740435F0FF90057EE02EF582AA
:1051E200E43FF583E7F090057DE075F030A42429D3
:1051F200FE740435F0FF74102EFEE43FFF90057E2E
:10520200E02EF582E43FF583E904F8E6F090057DAF
:10521200E075F030A42429FE740435F0FF74202ECA
:10522200FEE43FFF90057EE02EF582E43FF5830920
:1052320009E7F002551490057EE0FFBF0800E43351
:10524200FE7003025351900582E06036900583E0C0
:1052520013920850047DFF80027D3CA80908A60530
:105262003008047C0080027C3CE5092404F8A60492
:105272003008047BFF80027B3CA8090808A60302D1
:105282005463900336E030E115A809087632E50947
:105292002404F87678A80908087632025463308D1F
:1052A20015A8090876FFE5092404F876B4A80908C8
:1052B2000876000254637F007E00900337E070049A
:1052C2007FFF80027EFF7AFF90033BE07011900522
:1052D20084E030E2047DFF80027D008D0280219017
:1052E200033AE0701B900584E0543FFD30E5098DE0
:1052F20004743FC39CFC80028D04EC905DE693FA3B
:105302008A047B00A8090876008F027D00C006C0CF
:1053120004C003C004C0038A828D831259B6AD83D0
:1053220015811581D003D004D006E5092404F8A61E
:10533200058E027D00C004C0038A828D831259B695
:10534200AD8315811581A8090808A60502546320BA
:105352008D63900344E07006900581E060579003EE
:1053620039E07008900338E024FE4015A809087659
:10537200FFE5092404F87600A8090808760002541B
:1053820063900338E0FDBD06004015A809087600C9
:10539200E5092404F876FFA8090808760002546398
:1053A200A8090876FFE5092404F876B4A8090808D4
:1053B2007600025463900341E0FDBD0315A809087D
:1053C20076FFE5092404F876FFA809080876FF02AB
:1053D2005463BD04005078BD00028020BD010280EC
:1053E20005BD0218800F8F82125989AD8290057C0B
:1053F200E02DFD801E90057CE0FD8017EE60047EAE
:10540200008004EF24F8FEEE75F024A4FE90057CE3
:10541200E02EFDE5092405F9FA7E007F40C001C0B7
:1054220002C006C0078D82121F25158115811581C4
:10543200D001A80908E7F6E904F8C001E509240447
:10544200F9E6F7D0010909A8090808E7F68012A8C9
:1054520009087600E5092404F87600A80908087608
:105462000090057EE02449FFE43405FEA809088681
:10547200027D00900342E0FB7C00C007C006C0032F
:10548200C0048A828D831259B6AD8315811581D0ED
:1054920006D0078D048F828E83ECF090057EE02487
:1054A20059FFE43405FEE5092404F886047D0090E2
:1054B2000342E0FB7A00C007C006C003C0028C8230
:1054C2008D831259B6AD8315811581D006D0078D13
:1054D200048F828E83ECF090057EE02469FFE43431
:1054E20005FEA809080886037D00900342E0FC7AC5
:1054F20000C007C006C004C0028B828D831259B659
:10550200AD8315811581D006D0078D048F828E83DD
:10551200ECF090057EE02401F0E0FFBF100040189F
:1055220090057EE4F090057DE02401F0E0FFBF07E6
:1055320000400590057DE4F0850981D0092290059F
:1055420079E0FF24F9500122EF2F90555073800C1F
:10555200801E8030804280548066807890057AE098
:10556200FFE07003D2B122BF0103D2C022D2B02227
:1055720090057AE0FFE07003D28422BF0103D2C11A
:1055820022D2832290057AE0FFE07003D2C722BFC5
:105592000103D2C222D2C62290057AE0FFE0700354
:1055A200D28222BF0103D2C322D28F2290057AE097
:1055B200FFE07003D2B522BF0103D2C422D2B622C9
:1055C20090057AE0FFE07003D2B422BF0103D2C596
:1055D20022D2B32290057AE0FFE07003D29122BF7B
:1055E2000103D29222D29322C00985810905810545
:1055F20081900579E0FFBF061390057AE075F010FF
:10560200A4AEF02449FDEE3405FE8019EF75F030AA
:10561200A42429FC740435F0FF90057AE0C454F008
:105622002CFDE43FFEA80908A60508A606A809085D
:105632008682088683E0FF7C008CC38FCEA809088F
:105642008682088683A3E0FC7B008BC48CC1EF4278
:1056520004A809088682088683A3A3E0FF7B008B47
:10566200C58FC2EC4207A80908740326FBE408367A
:10567200FC8B828C83E07E0090FFEDEEF08B828CBF
:1056820083E090FFD5F08B828C83E0FBEF4203A88E
:105692000908740426FEE40836FF8E828F83E07CBC
:1056A2000090FFECECF08E828F83E090FFD4F08EBE
:1056B200828F83E0FEEB4206A80908740526FDE40A
:1056C2000836FF8D828F83E07B0090FFEBEBF08D3D
:1056D200828F83E090FFD3F08D828F83E0FDEE42D4
:1056E20005A80908740626FEE40836FF8E828F8319
:1056F200E07B0090FFEAEBF08E828F83E090FFD296
:10570200F08E828F83E0FEED4206A8090874072618
:10571200FDE40836FF8D828F83E07B0090FFE9EB8A
:10572200F08D828F83E090FFD1F08D828F83E0FD38
:10573200EE4205A80908740826FEE40836FF8E82A8
:105742008F83E07B0090FFE8EBF08E828F83E09006
:10575200FFD0F08E828F83E0FEED4206A809087426
:105762000926FDE40836FF8D828F83E07B0090FFDF
:10577200F3EBF08D828F83E090FFDBF08D828F83DD
:10578200E04206A80908740A26FDE40836FF8D8265
:105792008F83E07B0090FFF2EBF08D828F83E090AD
:1057A200FFDAF08D828F83E0FDEE4205A8090874CE
:1057B2000B26FEE40836FF8E828F83E07B0090FF8B
:1057C200F1EBF08E828F83E090FFD9F08E828F838F
:1057D200E0FEED4206A80908740C26FDE40836FF37
:1057E2008D828F83E07B0090FFF0EBF08D828F83C0
:1057F200E090FFD8F08D828F83E0FDEE4205A8098C
:1058020008740D26FEE40836FF8E828F83E07B004B
:1058120090FFEFEBF08E828F83E090FFD7F08E82C5
:105822008F83E0FEED4206A80908740E26FDE40807
:1058320036FF8D828F83E07B0090FFEEEBF08D824E
:105842008F83E090FFD6F08D828F83E0FDEE4205DC
:10585200A80908740F26FEE40836FF8E828F83E0C3
:105862007B0090FFF9EBF08E828F83E090FFE1F0F6
:105872008E828F83E0FEED4206EEB40100B3920801
:10588200E433F582850981D0092290FF80748AF081
:1058920090FF817408F090FF82F090FF83F090FFF8
:1058A20084F090FF85F090FF86748AF090FF8774F1
:1058B20008F090FF88F090FF89F090FF8AF090FF47
:1058C2008BF090FF8C7482F090FF8DE4F090FF8E4D
:1058D200F090FF8FF090FF907408F090FF91F075B8
:1058E200DA8AF5DBF5DC2212245A0258F512588CBA
:1058F20002245D90FF807402F090FF81F090FF829D
:10590200F090FF83F090FF84F090FF85F090FF8687
:10591200F090FF87F090FF88F090FF89F090FF8A67
:10592200F090FF8BF090FF8CF090FF90F090FF9141
:08593200F0F5DAF5DBF5DC22EB
:105DE600000D1A2733404C5864707C87929CA6B0ED
:105DF600B9C2CAD2D9DFE5EAEFF4F7FBFDFEFFFF31
:10593A00E58260047F0080027F018F8222AF82BFEE
:10594A000203D38001C39208E433F58222C0098599
:08595A008109758201D00922C8
:105E060029003A003B003C003D00477E467E4000AC
:105E160041004200430044004500460049004C0052
:105E260035001E001F002000210022002300240050
:105E36002500260027002D002E002A0000004B001A
