:0600000002010C0229FBC5
:03000B0002295C6B
:030013000224D5EF
:03001B000224DCE0
:030023000224E3D1
:03002B000224EAC2
:030033000224F1B3
:03003B0002286D2B
:03004300022A3E50
:03004B000224F894
:030053000224FF85
:03005B0002250675
:0300630002250D66
:03006B0002251457
:100070000000E2FBEAF2802C0000E0FBEAF08024C2
:10008000E6B50202EBF62200E2B50202EBF2220034
:10009000E0B50202EBF02230F6E0A88220F5D3EAC8
:1000A000C6F582228B822230F6E6A88220F5D9801E
:0100B000CF80
:0301B4000200B195
:0300B10002021038
:1001B7001224CE1224CA1226C3123F8D1228BE1251
:1001C7003E26121367121E021202E21246931223F0
:1001D7006CD2AF22121E28E58270031245E3024655
:1001E7003A12407EE582600512311480099003457A
:1001F700E0F5821230E2900345E0900337F0900378
:100207003A7401F090033BF0221201B712405912E1
:100217002CE61201DB1203C91246C41201E81222AE
:100227003F75B10012412E1245501216AA124816F8
:10023700120410121E571222FB80E6120417AF8217
:10024700BF010690033CE07004C2088002D208A2F6
:1002570008E433F58222AF830244F9AF83024516DF
:10026700C009858109AF82900004EFF0900005E591
:100277000924FCF8E6F008E6A3F0900004124533E1
:10028700D00922AE82AF83900000E0FCA3E0FDEE30
:10029700B50405EFB5050122900000EEF0EFA3F0DD
:1002A700C006C0077582011202671581158122AE4B
:1002B70082AF83900002E0FCA3E0FDEEB50405EFFA
:1002C700B5050122900002EEF0EFA3F0C006C007CB
:1002D700758202120267158115812290020CE4F0E3
:1002E70090020DF090020EF090020FF0900210F0C5
:1002F700C200C201900212E4F0900211F0900207CE
:10030700F0A3F0900209F0A3F0A3F0900213F0A37A
:10031700F0900215F00227D590020CE4F090020D40
:10032700F090020EF090020FF0900210F0C200C29F
:1003370001900212E4F0900211F00227E5AE82AFBD
:1003470083C007C00612041EE582D006D0077001DD
:10035700227D007408C0E08E828F838DF01227EF14
:10036700158122AE82AF83C007C00612041EE58244
:10037700D006D0077001227D007416C0E08E828FF0
:10038700838DF012282D158122AE82AF83C007C05E
:100397000612041EE582D006D0077001227D007484
:1003A70003C0E08E828F838DF012282D15812230B5
:1003B7000103200004C2088002D208A208E433F532
:1003C70082227E007F008E048F05C3EC94A0ED94FB
:1003D7000F503575B100900215E0600D900213E0E3
:1003E700F5F0A3E045F0700B22C3EC94F4ED940113
:1003F700400122900001C007C00612249ED006D0FB
:10040700070EBE00C10F80BE223002030224C022A5
:1004170090020FE0F5822290020CE0FFBF0203D3A7
:100427008001C39208E433F58222C009E581F5090A
:100437002408F581D310AF01C3C0D0AF090F7E00E8
:100447007D408F828E838DF012133FD0D092AFAF55
:10045700090F8F018706EF04F987058E04BC000298
:10046700802DBC0103020548BE02030205A8BE2178
:10047700030205FDBE8003020506BE810302056671
:10048700BE82030205DFBEA103020647020677BD4F
:1004970001028014BD03028021BD0502802EBD0725
:1004A70002803BBD0950803C8F037C007E408B82DD
:1004B7008C838EF01207A002067D8F037C007E409E
:1004C7008B828C838EF01207E302067D8F037C00FC
:1004D7007E408B828C838EF012075902067D1209AB
:1004E700D602067D8F037C007E408B828C838EF044
:1004F70012090902067D43970843970202067DBD4C
:100507000002800ABD06028017BD082C80248F03D5
:100517007C007E408B828C838EF01209DD02067D83
:100527008F037C007E408B828C838EF0120B390206
:10053700067D120FE102067D4397084397020206E4
:100547007DBD0B128F037C007E408B828C838EF0E7
:1005570012097002067D43970843970202067DBD84
:100567000002800ABD06028017BD0A2C80248F0373
:100577007C007E408B828C838EF0120A1C02067DE3
:100587008F037C007E408B828C838EF0120B3902A6
:10059700067D120FF902067D43970843970202066C
:1005A7007DBD01028005BD032680128F037C007E7E
:1005B700408B828C838EF012082602067D8F037C87
:1005C700007E408B828C838EF01208A602067D4344
:1005D700970843970202067DBD00128F037C007EB9
:1005E700408B828C838EF0120A7802067D4397082F
:1005F70043970202067DBD0902800ABD0A028016E2
:10060700BD0B3580228F037C007E408B828C838ECE
:10061700F012101580608F037C007E408B828C83E4
:100627008EF01210AE804F8F037C007E408B828C41
:10063700838EF01210E5803E439708439702803679
:10064700BD0102800ABD0202800ABD031B800A1297
:10065700100E80221210D3801D7E007D408F828E67
:10066700838DF012113F800E43970843970280064F
:10067700439708439702850981D00922AF92AE9329
:10068700EF7003020716EF30E3275392F790021338
:10069700E0FCA3E0FD900213E0F5F0A3E045F06075
:1006A7000D1CBCFF011D900213ECF0EDA3F0C2017D
:1006B700225392EF53929FEF30E70653927F020245
:1006C700E2EF30E4145392EF90021374F4F07401E4
:1006D700A3F0900215F0020431EF30E2065392FBCB
:1006E700C20122EF30E10E5392FD90020CE0FDBDF6
:1006F700025FD20122EF30E0585392FE439120006F
:1007070000000000005391DF1202E243970122EE3E
:10071700603FEE30E6075393BF439A0122EE30E580
:10072700045393DF22EE30E40A5393EF1211804310
:10073700970122EE30E2065393FB02286CEE30E17C
:10074700065393FD02286BEE30E0065393FE021129
:10075700C422AD82AE83AFF0900212E4F074022D92
:10076700FDE43EFE8D828E838FF012531FFBA31292
:10077700531F4B600890020C7401F0800590020C27
:10078700E4F08D828E838FF012531F90020DF05389
:100797009BF043970243970422AD82AE83AFF0905C
:1007A7000212E4F08D028E038F048A828B838CF011
:1007B70012531F540F701E74022DFDE43EFE8D82EE
:1007C7008E838FF012531FFDA312531FFEBD010529
:1007D700BE0002C200539BF043970422AD82AE8352
:1007E700AFF0900212E4F08D028E038F048A828BA1
:1007F700838CF012531F540F701E74022DFDE43EBC
:10080700FE8D828E838FF012531FFDA312531FFE9E
:10081700BD0105BE0002D200539BF043970422AEF0
:1008270082AD83AFF0900212E4F08E028D038F0445
:100837008A828B838CF012531FFA53020FBA025825
:1008470074022EFAE43DFB8F048A828B838CF012AC
:10085700531FFAA312531F4A703E74042EFEE43D41
:10086700FD8E828D838FF012531FFEA312531FFF3D
:100877004E70085397F75397FD801DBE8108BF0040
:10088700055399F78012BE8208BF0005539AF78077
:100897000743970843970222539BF043970422ADDF
:1008A70082AE83AFF0900212E4F08D028E038F04C4
:1008B7008A828B838CF012531FFA53020FBA0234C9
:1008C70074042DFDE43EFE8D828E838FF012531F3C
:1008D700FDA312531FFEBD8108BE00054399088082
:1008E7001ABD8208BE0005439A08800F4397084344
:1008F7009702800743970843970222539BF0439739
:100907000422AE82AD83AFF0900212E4F090020DA4
:10091700E0604974022EFEE43DFD8E828D838FF0E8
:1009270012531FFEA312531FFF4E600A8E048F053A
:10093700BC0121BD001E90020EEEF0EE6008900291
:100947000C7402F0800690020C7401F0539BF04384
:100957009704800E439708439702800643970843FE
:100967009702539BF043970422AE82AD83AFF0907A
:100977000212E4F074022EFAE43DFB8F048A828BA4
:10098700838CF012531FFAA312531F4A703A740450
:100997002EFEE43DFD8E828D838FF012531FFEA342
:1009A70012531FFF4E700A539BF04397044397025D
:1009B70022BE010DBF000A539BF0439704439702E1
:1009C70022439708439702224397084397022243FB
:1009D700970843970222AD82AE83AFF0900212745C
:1009E70002F08D828E838FF012531F540F701F30C9
:1009F70000089011087402F08005901108E4F09047
:100A07001109E4F0539BF0439B0243970422439759
:100A17000843970222AE82AD83AFF08E028D038F1B
:100A2700048A828B838CF012531FFA53020FBA0188
:100A37003974042EFEE43DFD8E828D838FF01253B0
:100A47001FFEA312531FFF4E6006BE0116BF001301
:100A5700901108E4F0901109F0539BF0439B024377
:100A67009704224397084397022243970843970224
:100A770022AD82AE83AFF08D028E038F048A828B04
:100A8700838CF012531FFA53020FBA02028003023B
:100A97000B3274042DFDE43EFE8D828E838FF0129F
:100AA700531FFDA312531FFEBD801BBE0018AC973A
:100AB700530402E4A2E713CC13CC901108ECF09096
:100AC7001109E4F0805BBD8127BE0024AC99530473
:100AD70008E423CCC423541F6CCC541FCC6CCC30FB
:100AE700E40244E0901108ECF0901109E4F0803141
:100AF700BD8227BE0024AE9A530608E423CEC42342
:100B0700541F6ECE541FCE6ECE30E40244E09011D7
:100B170008EEF0901109E4F0800743970843970225
:100B270022539BF0439B0243970422439708439722
:100B37000222C009858109C082C083C0F0E58124F3
:100B47000BF581A80908740226FAE40836FB088623
:100B5700048A828B838CF012531FFAA312531FFC53
:100B67008A07BC01547C007A00905466E493FDA385
:100B7700E493FE8D828E83E493FF7B00C3EC9FEAB0
:100B87009B501EEC2407FBEA3400FFEC2DF582EAAC
:100B97003EF583E4938B828F83F00CBC00CB0A80F5
:100BA700C87D077E007F00900007E0FBE50924046D
:100BB700F8A603087600020F90BC02028003020D1C
:100BC7005590546AE493FBC3EF9B4003020D559085
:100BD700546BE493FAA3E493FBEF75F002A42AF5B0
:100BE70082EB35F0F583E493FFA3E493FE74092FBA
:100BF700FDE43EFCE509240DF876000876008F82B7
:100C07008E83E5092406F8E493F6E5092406F886B9
:100C1700027B00E509240DF8C3E69A08E69B503EDF
:100C2700E509240DF8E5092407F9E62407F708E69E
:100C3700340009F7E509240DF8E62FF58208E63EAA
:100C4700F583E493FBE5092407F88682088683EB9E
:100C5700F0E509240DF806B60002080680A0E509AC
:100C67002406F8E5092409F9E62407F7E43400091E
:100C7700F7E5092407F8A60508A604E509240DF8F1
:100C87007600087600E5092407F88682088683E45B
:100C970093FFA3E493FE8F828E83E493FB7A00E5B0
:100CA70009240DF8C3E69B08E69A5034E5092409A0
:100CB700F8E509240DF9E726FD09E70836FCE509FB
:100CC700240DF8E62FF58208E63EF583E4938D823E
:100CD7008C83F0E509240DF806B60002080680A506
:100CE7008F828E83E493FBE5092409F8EB26F6E46B
:100CF7000836F6E5092407F8740226F6E40836F6FE
:100D0700E5092407F88682088683E493FAA3E49327
:100D17004A6003020C82900009E0FAA3E04A7017C8
:100D2700E5092409F8E6C39407FA08E69400FB905E
:100D37000009EAF0EBA3F07D077E007F0090000931
:100D4700E5092404F8E0F6A3E008F6020F90E4BCF6
:100D5700030104FB604CEF7049FDFC90545CE49385
:100D6700FA7F00C3ED9AEC9F5020ED2407FFEC3487
:100D770000FEED245CF582EC3454F583E4938F8216
:100D87008E83F00DBD00D40C80D17D077E007F00DF
:100D9700900007E0FAE5092404F8A60208760002A5
:100DA7000F90EB7003020E7AC0047E00EF24FFFD64
:100DB700EE34FFFB90546DE493FA7C00C3ED9AEB9D
:100DC70064808CF063F08095F0D0044003020E7AC3
:100DD70090546EE493FDA3E493FCEF24FFFAEE3402
:100DE700FFFBEA2AFAEB33FBEA2DF582EB3CF583AE
:100DF700E493FEA3E493FD9000077402F0900008CB
:100E070004F0E509240BF874012408F6E43400081B
:100E1700F68E828D83E493FF60418F030EBE00013F
:100E27000DE509240BF88682088683EBF0E5092493
:100E37000BF8740126FAE40836FB8A828B83E4F008
:100E4700E509240BF874012AF6E43B08F69000073D
:100E5700E0FB0B0B900007EBF080B67D077E007F71
:100E670000900007E0FBE5092404F8A603087600D4
:100E7700020F90BC224CA80908740426FFE4083628
:100E8700FE0886058F828E838DF012531FFA70132A
:100E97007D3B7E537F80E5092404F8764E08760073
:100EA700020F90BA01137D897E537F80E5092404E0
:100EB700F87676087600020F904397084397020268
:100EC7000FDBBC21028003020F88A80908740426DF
:100ED700FAE40836FB0886048A828B838CF0125367
:100EE7001FFC7048FDFC90541AE493FB7A00C3ED95
:100EF7009BEC9A5020ED2407FFEC3400FEED241AFA
:100F0700F582EC3454F583E4938F828E83F00DBD24
:100F170000D40C80D17D077E007F00900007E0FBA6
:100F2700E5092404F8A603087600805DBC014A7F22
:100F3700007E00905433E493FA7C00C3EF9AEE9C52
:100F47005020EF2407FBEE3400FCEF2433F582EE4C
:100F57003454F583E4938B828C83F00FBF00D40E57
:100F670080D17D077E007F00900007E0FCE5092423
:100F770004F8A60408760080104397084397028078
:100F870053439708439702804BA80908740626FB2A
:100F9700E40836FA0886048B828A838CF012531F82
:100FA700FBA312531FFCE5092404F8C3EB96EC08D6
:100FB70096400AE5092404F88603088604C003C09E
:100FC700048D828E838FF01211ED15811581121217
:100FD70013439704850981D009229002127402F005
:100FE70090020EE0901108F0539BF0439B0143974A
:100FF70004229002127402F0901108E4F0539BF05F
:10100700439B014397042243970843970222C00951
:10101700858109C082C083C0F0A80908740226FB35
:10102700E40836FA0886048B828A838CF012531FF1
:10103700FBA312531FFABA02028005BA035D804D63
:10104700A80908740426FDE40836FE0886078D8281
:101057008E838FF012531FFDA312531F4D7042A8AA
:101067000908740626FDE40836FE0886078D828E79
:10107700838FF012531FFDA312531FFEBD0122BE23
:10108700001F9002127404F04397018014BB0511EE
:101097009002127405F0439701800643970843971F
:1010A70002850981D00922AD82AE83AFF074022D8B
:1010B700FDE43EFE8D828E838FF012531FA31253E1
:1010C7001F900211F0539BF043970422900211E006
:1010D700901108F0539BF0439B0143970422AD8284
:1010E700AE83AFF074042DFBE43EFA8F048B828A43
:1010F700838CF012531FFBA312531FFC4B70187401
:10110700022DF8E43EF98F02888289838AF0125310
:101117001F90020FF0801ABB0117BC001474022D38
:10112700FDE43EFE8D828E838FF012531F900210D6
:10113700F0539BF043970422AE82AD83AFF0740463
:101147002EFEE43DFD8E828D838FF012531FFEA38A
:1011570012531FFF4E700A90020FE0901108F080A3
:101167000EBE010BBF0008900210E0901108F0536B
:101177009BF0439B0143970422900212E0FFBF04B8
:1011870015900212E4F0901100E0F582121E1C5334
:101197009BF043970422BF0518900212E4F09011C8
:1011A70000E0FFBF0516901101E0FFBF750ED202E8
:1011B70022900212E4F0539BF0439704229002120C
:1011C700E0FFBF010A12121343970443970122BF9E
:1011D70002074397014397082243970843970190D3
:1011E700020DE0F59622C009858109AFF0AE83E5CF
:1011F70082900209F0EEA3F0EFA3F0E50924FCF8D2
:10120700900207E6F008E6A3F0D00922900207E073
:10121700FEA3E0FF4E700D9002127402F0539BF094
:10122700859B9B228E048F05C374089CE49D5058B0
:101237009002127401F0900209E0F9A3E0FAA3E02A
:10124700FB7408C0E089828A838BF01212F2158141
:10125700900207E0FAA3E0FBEA24F8FAEB34FFFB7D
:10126700900207EAF0EBA3F0900209E0F9A3E0FA95
:10127700A3E0FB900209740829F0E43AA3F0EBA37A
:10128700F0539BF0439B0822BC0831BD002E90020F
:10129700127401F0900209E0FBA3E0FCA3E0FD74E7
:1012A70008C0E08B828C838DF01212F215819002B8
:1012B70007E4F0A3F0539BF0439B082290021274BB
:1012C70002F0900209E0FCA3E0FDA3E0FFC0068C5A
:1012D700828D838FF01212F21581539BF0900207D3
:1012E700E0FEA3E0AD9BEE4DF59B22C00985810989
:1012F700C082C083C0F0E50924FDF8E624F7403238
:101307007C00E50924FDF8C3EC965026EC2408FA86
:10131700E43411FBA80908EC26FDE40836FE08862C
:10132700078D828E838FF012531F8A828B83F00C76
:1013370080D0850981D00922AD82AE83AFF07C00D1
:10134700BC0800501AEC2DF9E43EFA8F038C827525
:101357008311E089828A838BF012512A0C80E12263
:10533B0005010906A101050719E029E7150025015B
:10534B007501950881027508950181010507190002
:10535B0029FF150026FF0075089505810005FF093B
:10536B00037508950181020508190129051500250A
:10537B0001750195059102750395019101C0050118
:10538B000980A1018501198129831500250175016A
:10539B009503810295058101C0050C0901A10185C9
:1053AB000219002A3C021500263C0275109501815A
:1053BB0000C00600FF0901A101850519012902158D
:1053CB000026FF0075089505B102C005010906A16D
:1053DB00018506050719E029E715002501750195DB
:1053EB0008810205071900299F15002501750195F4
:1053FB00A08102C01201100100000008AC054F0291
:10540B00000001020301090400000103010100096E
:10541B002111010001224E00070581031000010933
:10542B000401000103000000092111010001227693
:10543B00000705820340000109020000020100A0E1
:10544B00FA11541A5423542A5433543C5400004335
:10545B005404030904705474548054FF5300000126
:10546B005A54036054534D4B004169723735202811
:0A547B00534D4B2900303030310052
:10136700900237E4F0900238F0900236F0FFBF1099
:1013770000501BEF2416F582E43402F583E4F0EF06
:101387002426F582E43402F583E4F00F80E022E5B9
:1013970082900238F022C009858109AE82AF83901E
:1013A7000237E0FDE070068E828F838045ED75F091
:1013B700C0A424B2FC745435F0FDE50924FDF8E619
:1013C700C42354E02CFCE43DFDE50924FCF8E626A3
:1013D7002CF582E43DF583E493FCA3E493FD8C02B2
:1013E7008D03BA0105BB000280048C068D078E822F
:1013F7008F83D00922C009858109AE82AF838E040D
:101407008F05C3EC94E0ED9400404574E79CE49DA0
:10141700403EE50924FDF8E660198E0374075BF585
:10142700F005F07401800225E0D5F0FBF582121C6F
:10143700C480178E0374075BF5F005F07401800212
:1014470025E0D5F0FBF582121CCD12177F0214F4AC
:10145700C3EC9404ED9400403474A49CE49D402DA7
:10146700E50924FDF8E660118E03C0039002F975C3
:10147700F000121BDA1581800F8E03C0039002F96A
:1014870075F000121C23158112177F8060C3EC943E
:10149700A5ED9400402974A79CE49D4022E509240A
:1014A700FDF8E6600D8E038B82121D18AA82AB83AE
:1014B70080047A007B008A828B8312028A802EC383
:1014C700EC94A8ED9400402574C29CE49D401EE571
:1014D7000924FDF8E6600B8E82121D39AE82AF83B8
:1014E70080047E007F008E828F831202B6D009228D
:1014F700C009858109AF82900238E075F0C0A42445
:10150700B2FD745435F0FEEFC42354E02DFDE43EE4
:10151700FEE50924FDF8E626FC2DF582E43EF58379
:10152700E493FDA3E493FE8D028E03C3EA9420EBBC
:101537009452403D743F9A74529B4035E50924FC10
:10154700F8E660148D0353031F900237EBF08B828C
:101557001250D61217B680179002F975F000121CB8
:101567006C900237E4F07582001217B612177F806D
:1015770070E50924FCF8E6603DC007C004E50924CE
:10158700FDF8E6C0E0C0078D828E8312139DAD8201
:10159700AE8315811581D004D007EF75F020A42400
:1015A70039FA740235F0FBEC2AF582E43BF583ED5A
:1015B700F0EEA3F0801AEF75F020A42439FB740233
:1015C70035F0FFEC2BF582E43FF583E0FDA3E0FE69
:1015D700E50924FCF8E6C0E08D828E831215EB1531
:1015E70081D00922C009858109AE82AF83C007C0B7
:1015F70006E50924FDF8E6C0E08E828F831242F0EB
:10160700AD821581D006D007ED70028031C007C0CA
:1016170006E50924FDF8E6C0E08E828F831250E6C6
:10162700AD821581D006D007ED70028011E509243F
:10163700FDF8E6C0E08E828F831213FC1581D00976
:1016470022125084123E14123D1F123D127F00BF1A
:10165700100050428F82C007123D4590000A1224A5
:101667007E123E01AE8290000AC00612247E123E10
:1016770001AD82D006D007EEB5050FEF2416FCE4C6
:101687003402FDEEF48C828D83F08F82C007123D09
:10169700A3D0070F80B9123D2C12501B900236744D
:1016A70001F022C009E581F5092410F58190023681
:1016B700E07005F582021779900236E4F0AF090F62
:1016C700FEBE10005012EE2FF9EE2416F582E43418
:1016D70002F583E0F70E80E9C2087E00BE100040E5
:1016E70003021773EE2FF98705EE2426F582E434FB
:1016F70002F583E0FCED6204ECFB606CD208C007E6
:10170700C006C005C003C02112229FD021D003D03C
:1017170005D006D0077C017A00BA0600503EEC5B84
:101727006034C007EC5D24FFE433FFC007C006C088
:1017370005C004C003C002C021C007C0068A8212C8
:1017470014F715811581D021D002D003D004D0051C
:10175700D006D007D0070AEC2CFC80BDEE2426F576
:1017670082E43402F583EDF00E0216E3A208E433B7
:10177700F582850981D00922120242E582600302BF
:10178700185C0217CFAE82AF8374022EFEE43FFFD0
:101797007D00BD05005014ED2EFBE43FFC8B828CD1
:1017A70083E06004758201220D80E775820022AF15
:1017B70082900335EFF0EF700E900300E060089021
:1017C7000300E4F00217CF22900542E0FF9002F9F0
:1017D700F0900543E042079002F9EFF0900335E0FF
:1017E7006022900300E0701C9002F912178CE582CA
:1017F70060129003087401F090030112025D9003D8
:10180700007401F07408C0E0E4C0E07401C0E07443
:1018170003C0E0E4C0E09002F9F5F01251E1AE82B6
:10182700AF83E58124FBF581EE4F60287F00BF0879
:1018370000501BEF2401FDE43403FEEF24F9F58289
:10184700E43402F583E08D828E83F00F80E090020E
:10185700F902025D229003097406F0900542E0FF49
:1018670090030AF0900543E0420790030AEFF074F3
:1018770016C0E0E4C0E0741FC0E07403C0E0E4C039
:10188700E0900309F5F01251E1AE82AF83E58124C0
:10189700FBF581EE4F60287F00BF1600501BEF2439
:1018A7001FFDE43403FEEF2409F582E43403F583D6
:1018B700E08D828E83F00F80E0900309020262229E
:1018C700AD82AE83AFF074022DFDE43EFE7C05C011
:1018D70007C006C005C004120242E582D004D00545
:1018E700D006D00760087D0B7E037F007C147B0049
:1018F7008C021CEA60158D828E838FF012531FFABB
:10190700A3AD82AE83EA60E80B80E58B8222AD82CD
:10191700AE83AFF0C007C006C005120242E582D011
:1019270005D006D007603B7C00BC14005012EC24A5
:101937000BFAE43403FB8A828B83E070030C80E9A3
:10194700ECC40354F8FBEC240BF582E43403F58371
:10195700E0F582C003121CECAC82D003EC42038B8F
:10196700822274022DFDE43EFE8D828E838FF0125B
:10197700531FF58222C00985810905810581AD8242
:10198700AE83AFF0E50924FDF8E67005F582021A8B
:1019970041C007C006C005120242E582D005D00645
:1019A700D0076051E50924FDF8E6C423541FFCBCA9
:1019B7001400503CEC240BFFE43403FEE50924FD3E
:1019C700F886E05407F5F005F07D017A008006ED12
:1019D7002DFDEA33FAD5F0F78F828E83E0FB7C008A
:1019E700ED5203EA5204EB4C24FFE433F582804ABC
:1019F700758200804574022DFDE43EFEA809087635
:101A070000A80908B60500502EA80908E62DFAE433
:101A17003EFB8F048A828B838CF012531FFAE509F1
:101A270024FDF8E6B50205758201800EA80908A90C
:101A37000909E604F780CA758200850981D0092261
:101A4700C009858109C082C083C0F07CFF7B00C3C9
:101A5700EB64809485503AC004A80908740226FAFA
:101A6700E40836FC088607EB2AFAE43CFC8A828CF9
:101A7700838FF012531FFFE50924FDF8E6B507042D
:101A8700D004800DD004BCFF05EF70028B040B80DF
:101A9700BEBB052ABCFF028025A80908740226FDE3
:101AA700E40836FE088607EC2DFCE43EFB8F028C2B
:101AB700828B838AF0E50924FDF8E612512A85090D
:101AC70081D00922C009858109058105810581AD7C
:101AD70082AE83AFF074022DFDE43EFE7C00BC05B0
:101AE700005037A80908EC2DF6E43E08F608A607CB
:101AF700A8090886820886830886F012531FFBE52B
:101B07000924FDF8E6B5030FA8090886820886832D
:101B17000886F0E412512A0C80C4850981D0092275
:101B2700C009858109AD82AE83AFF0E50924FDF8D0
:101B3700E6C423541FFCBC1400503B74022DFDE483
:101B47003EFEEC2DFCE43EFB8F02E50924FDF88602
:101B5700E05407F5F005F07401800225E0D5F0FBAD
:101B6700FF8C828B838AF012531F42078C828B83F0
:101B77008AF0EF12512AD00922C009858109AD8266
:101B8700AE83AFF0E50924FDF8E6C423541FFCBC7F
:101B97001400503C74022DFDE43EFEEC2DFCE43EA7
:101BA700FB8F02E50924FDF886E05407F5F005F000
:101BB7007401800225E0D5F0FBF4FF8C828B838AC9
:101BC700F012531F52078C828B838AF0EF12512A2F
:101BD700D00922C009858109AD82AE83AFF0C00765
:101BE700C006C005120242E582D005D006D00760C4
:101BF70015E50924FDF8E6C0E090030975F0001229
:101C07001B2715818013E50924FDF8E6C0E08D82C6
:101C17008E838FF0121A471581D00922C00985815A
:101C270009AD82AE83AFF0C007C006C005120242FD
:101C3700E582D005D006D0076015E50924FDF8E652
:101C4700C0E090030975F000121B8015818013E531
:101C57000924FDF8E6C0E08D828E838FF0121ACB3F
:101C67001581D00922AD82AE83AFF0C007C006C090
:101C770005120242E582D005D006D0076018741419
:101C8700C0E0E4C0E0C0E090030BF5F01252C515C8
:101C970081158115812274022DFDE43EFE7405C075
:101CA700E0E4C0E0C0E08D828E838FF01252C5154C
:101CB700811581158122900542E0F58222AF82903D
:101CC7000542E04FF022E582F4FF900542E05FF025
:101CD70022E582900542F022900542E4F022900529
:101CE70043E0F58222AF827E00EFC4540FFD60040B
:101CF7008D077E04EF0303543FFD60088D078E05B3
:101D070074022DFEEFC31360058E07EF04FE8E826B
:101D170022AF82BFA502800ABFA6028009BFA70E15
:101D27008008900001229000022290000422900077
:101D37000022AF82BFA8005003021DFEEF243D50D2
:101D470003021DFEEF2458FF240A83F582EF241FA8
:101D570083F583E47392969A9EA2AEB6BAB2BEC2D8
:101D6700C6D2D6DADEE2E6F2A6AAEAEECACEF6FADC
:101D77001D1D1D1D1D1D1D1D1D1D1D1D1D1D1D1D8C
:101D87001D1D1D1D1D1D1D1D1D1D1D9000E22290E9
:101D970000E9229000EA229000B5229000B6229036
:101DA70000B3229000B4229000B7229000CC22907A
:101DB70000CD229001832290018A229001922290E5
:101DC70001942290019F229001CB22900221229020
:101DD700022322900224229002252290022622909A
:101DE70002272290006F229000702290022A2290F0
:0B1DF700029F229002A0229000002218
:0258280000007E
:101E0200900336E4F0900337F0900338F0900339F2
:101E1200F090033AF090033BF022AF82900336EF4A
:101E2200F02222021E247409C0E090033D123B609E
:101E3200AF8215818F8222900346E4F012507874AB
:101E420009C0E090033D123C06158102507E9003CA
:101E5200467401F022900346E06003021E3922C05C
:101E620009858109AF82BF00028038BF0102800567
:101E7200BF02308017E50924FCF88682125118AFA0
:101E820082E50924FBF8E62FF5828036E50924FD78
:101E9200F88682125121AF82E50924FBF8E62FF57C
:101EA20082801FE50924FCF8E6C0E0E50924FDF87C
:101EB20086821250F1AF821581E50924FBF8E62FE4
:101EC200F582D00922C009E581F5092406F581AF22
:101ED20082BF55005064E50924FBF8A90909E6F719
:101EE20008E609F708E609F78F03EB75F003A4D3B8
:101EF20094FFF4FBA8090886820886830886F0EB23
:101F020012512AA80908740126FAE40836FB088649
:101F1200068A828B838EF0E412512AA80908740281
:101F220026FCE40836FD088606EF75F003A48C82D1
:101F32008D838EF012512A022002BFAA0050668FB2
:101F420006EE24ABFFE50924FBF8A90909E6F70828
:101F5200E609F708E609F7A80908868208868308D1
:101F620086F0E412512AA809080426FAE40836FD8C
:101F7200088606EF75F003A48A828D838EF01251D3
:101F82002AA80908740226FCE40836FD0886068F92
:101F920003EB75F003A4D394FFF48C828D838EF04F
:101FA20012512A805BEF2456FFE50924FBF88604D0
:101FB200088605088606EF75F003A48C828D838E51
:101FC200F012512AE5092404F874012CF6E43D08C4
:101FD200F608A606EF75F003A4D394FFF4FFE50913
:101FE2002404F886820886830886F0EF12512A7448
:101FF200022CFCE43DFD8C828D838EF0E412512A8A
:10200200850981D00922C009E581F5092406F581F7
:10201200AF82BF0360E50924F7F886020886030849
:102022008607E5092404F874012AF6E43B08F60859
:10203200A60774022AFCE43BFD8F068C828D838EF8
:10204200F0E50924FAF8E612512AE5092404F88693
:10205200820886830886F0E50924FAF9E712512AF4
:102062008A828B838FF0E50924FAF8E612512A75E9
:1020720082010221B5BF040040067582000221B52B
:10208200E50924FBF8E6C0E0E50924FCF8E6C0E037
:10209200E50924FDF8E6C0E08F82121E61AF8215C9
:1020A2008115811581E50924F7F8E6C0E008E6C04C
:1020B200E008E6C0E08F82121EC7158115811581E6
:1020C200E50924F7F886050886060886078D828EBC
:1020D200838FF012531FFC7B00E50924FAF8A9094B
:1020E20009E6F7097700C007C006C005A80908E697
:1020F200C0E008E6C0E08C828B83125145AC8315A8
:10210200811581D005D006D0078C038D828E838FF6
:10211200F0EB12512AE5092404F874012DF6E43E8D
:1021220008F608A607E5092404F8868208868308CB
:1021320086F012531FFC7B00C007C006C005A80929
:1021420008E6C0E008E6C0E08C828B83125145AC01
:102152008315811581D005D006D0078C03E50924AB
:1021620004F886820886830886F0EB12512A7402EC
:102172002DFDE43EFE8D828E838FF012531FFC7B79
:1021820000C007C006C005A80908E6C0E008E6C00E
:10219200E08C828B83125145AC8315811581D00569
:1021A200D006D0078C038D828E838FF0EB12512ADA
:1021B200758201850981D00922C009858109AF8212
:1021C200BF031DE50924F8F886040886050886067B
:1021D2008C828D838EF074FF12512A758201805A8F
:1021E200BF040040057582008050E50924FBF8E633
:1021F200C0E0E50924FCF8E6C0E0E50924FDF8E6C4
:10220200C0E08F82121E61AF82158115811581E5B2
:102212000924F8F88604088605088606BF8000505F
:1022220005EF2FFB800774FFC39F25E0FB8C828D97
:10223200838EF0EB12512A758201D0092290034756
:10224200E4F0A3F0900349F090034AF022E5827093
:102252000122900349E06010900349E4F0900347A3
:10226200F0A3F090034AF022900347E0FEA3E0FFC0
:10227200C3EE9408EF94525023900347E02401FEEA
:10228200A3E03400FF900347EEF0EFA3F0C3EE9417
:1022920008EF9452400690034A7401F022900349D9
:1022A2007401F022AF82BF01028005BF0214800BCD
:1022B20090034AE024FFE433F58222A201E433F5DD
:1022C20082227582002290034B740AF0123A5190D6
:1022D200000A12249E90033675F000122F0CE5823C
:1022E200600790033AE060012290000A12249E9057
:1022F200034BE014F0E070D422123FC5AF82C00756
:102302001222A6E582D0077007BF01012202229F96
:1023120090034AE4F0BF0203048001E4B401009296
:10232200085007C021123A08D021C0211223FCD044
:1023320021C021125084D021C021124046D021A2B6
:1023420008E433F582C021122934D021C021124081
:102352004CD021C02112501BD021C0211223FFD00A
:10236200213008031222C802229F90034C7401F00C
:1023720090034DE4F00229CBD310AF01C3C0D0903B
:10238200034EE0FEA3E0FFD0D092AF8E828F832275
:102392007582001229E012164890034EE0FEA3E077
:1023A200FF90034E74012EF0E43FA3F022758201E8
:1023B2001229E0124804E4C0E0900336F5F0124816
:1023C20036AF821581C0071248F9D0078F820222E8
:1023D2004F90034CE0600C90034CE4F090034DF0FE
:1023E2000223921223AF90034DE02401FFF0BF01BC
:1023F20000400690034C7401F0220229F50229F8EC
:102402007910E9440060237A017B287C587D427E62
:10241200058C838B82E493A3AB82AC838E838D8203
:10242200F0A3AD82AE83D9E9DAE775820022AE82EB
:10243200AF83BE0005BF0003801A0F801375B10081
:10244200000000000000000000000000000000008A
:10245200DEEBDFE922AE82AF83BE0005BF00038060
:102462001A0F8013000000000000000000000000AE
:1024720000000000000000DEEBDFE922AE82AF8345
:10248200EE4F7001228E828F83022457AE82AF8379
:10249200EE4F7001228E828F83022430AE82AF8390
:1024A2008E048F051EBEFF011FEC4D60109003E8E5
:1024B200C007C00612248ED006D00780E322C2AF26
:1024C20075F0A5745A02FF00758F0122900350E542
:0324D200B1F02244
:030165007508FF1B
:1024D50075080253A8FB3275080353A8F73275082F
:1024E5000453A8EF3275080553A8DF327508065363
:1024F500A8BF3275080953A9FB3275080A53A9F715
:102505003275080B53A9EF3275080C53A9DF3275E4
:10251500080D53A9BF32C009858109AF82D310AF19
:1025250001C3C0D0EF60027401FF8FA77F00E509EA
:1025350024F9F8C3EF96502E8F06E50924FCF8869A
:10254500040886057B00EE2CFCEB3DFDE50924FA2D
:10255500F8EF26FBE40836FE8C828D83E4938B82AC
:102565008E83F00F80C875A700D0D092AFD0092216
:10257500C009858109AF82D208D310AF01C3C0D08D
:10258500EF60047F0180027F008FA77F00E50924AB
:10259500F9F8C3EF9650388F06E50924FCF8860450
:1025A5000886057B00EE2CFCEB3DFD8C828D83E4DB
:1025B50093FEE50924FAF8EF26F582E40836F5835B
:1025C500E0FDEEB505028004C20880030F80BE75EC
:1025D500A700D0D092AFA208E433F582D00922C07B
:1025E50009858109AF82D310AF01C3C0D08FA7E59C
:1025F5000924FCF80886F7E50924FCF886FBE509BB
:1026050024FAF886FCE50924FBF886F275F30575CE
:10261500F40A75F50975F606000000000075F70067
:1026250075A700D0D092AFD00922C00985810905D0
:1026350081E58260027401FFA80908A6077E00E50E
:102645000924F9F8C3EE965043E50924FAF8EE2675
:10265500F582E40836F583E0FD8E04E50924FCF8EF
:1026650086020886037F00EC2AFAEF3BFBC006C012
:1026750005746EC0E0C002C003A809088682122551
:10268500E4E58124FCF581D0060E80B31581D009DF
:1026950022C009858109E58260027401FFE4C0E07A
:1026A50074E6C0E0E50924FCF8E6C0E008E6C0E011
:1026B5008F821225E4E58124FCF581D0092275B2CB
:1026C5000875BC02E5BC20E20575B10080F643BC87
:1026D5000143B204227F00BFC8005004000F80F7F9
:1026E50022D310AF01C3C0D043B20843BC0275B1B9
:1026F500001226DA75BC0375B20C75B100D0D09204
:10270500AF22C009858109C082C083C0F0E50924D4
:10271500FDF8E624EF40327C00E50924FDF8C3EC22
:10272500965026EC2420FAE43411FBA80908EC267F
:10273500FDE40836FE0886078D828E838FF01253DE
:102745001F8A828B83F00C80D0850981D00922C035
:1027550009858109C082C083C0F0E50924FDF8E63A
:1027650024BF40327C00E50924FDF8C3EC965026D1
:10277500EC2480FAE43411FBA80908EC26FDE408F2
:1027850036FE0886078D828E838FF012531F8A824C
:102795008B83F00C80D0850981D009227F00BFFF93
:1027A500005012E59930E20D900028C00712248EE2
:1027B500D0070F80E9227F00BFFF005012E59A3055
:1027C500E20D900028C00712248ED0070F80E92261
:1027D50075960075945F7595117591C043A9012291
:1027E50075960053913B53A9FE22C009858109AD19
:1027F50082AE83AFF0C007C006C0051227A1D00581
:10280500D006D007E50924FDF8E6C0E08D828E8369
:102815008FF01227071581539CE0E50924FDF8E6A2
:10282500429C439904D00922C009858109AD82AE35
:1028350083AFF0C007C006C0051227BBD005D00680
:10284500D007E50924FDF8E6C0E08D828E838FF080
:102855001227541581539D80E50924FDF8E6429D14
:10286500439A04D009222222C021C0E0C0F0C082D0
:10287500C083C007C006C005C004C003C002C001B4
:10288500C000C0D075D000AF86AEA7C007C0061285
:102895000683D006D0078EA78F86D0D0D000D00172
:1028A500D002D003D004D005D006D007D083D08283
:1028B500D0F0D0E0D0210200B422E582700443912B
:1028C500012202031F53B2FB53BCFE53BCFD53B29E
:1028D500F722AF8243948553927AEF700475A9016C
:1028E5002275A900538FFE2200758E55438702007D
:1028F500000000000022AF825392FD5391FE900329
:1029050051E0600EC0071203B6E582D007600343AD
:102915009102900351E4F0EF700975945F43A901AA
:10292500C20122438F019001F412248E0202E2AF0C
:1029350082C0071228BF1228CAD0078F82C007128B
:1029450028D775B100900351E4F01228ED1226E660
:10295500D0078F820228FBC021C0E0C0F0C082C032
:1029650083C007C006C005C004C003C002C001C0C3
:1029750000C0D075D0001229A39003517401F0D086
:10298500D0D000D001D002D003D004D005D006D0DD
:1029950007D083D082D0F0D0E0D0210200B475E812
:1029A50000221229A375BAF375B640D2A922C2A98D
:1029B5000229A3AE82AF83C2CA8F058DCB8ECA8D85
:1029C500CD8ECCD2CA22C2CA75C80075C90090FC8A
:1029D500DF1229B8C2CFD2A8D2CA22E58270067EFC
:1029E500377FFF80047EDF7FFC8E828F830229B8CC
:1029F500C2A822D2A822C021C0E0C0F0C082C083F4
:102A0500C007C006C005C004C003C002C001C000A5
:102A1500C0D075D000C2CF1223D3D0D0D000D00102
:102A2500D002D003D004D005D006D007D083D08201
:102A3500D0F0D0E0D0210200B432C009858109C0B0
:102A450082C083C0F0C28543E120C2859000031295
:102A5500248EC2FC43D110C2FCE50924FBF8E660D4
:102A650068D310AF01C3C0D07B007C00E50924FC0E
:102A7500F8C3EB96EC64800886F063F08095F0501F
:102A850042A80908EB26FAEC0836FE0886078A8272
:102A95008E838FF012531FF582C007C006C004C095
:102AA50003C002122BB1AD82D002D003D004D006F0
:102AB500D0078A828E838FF0ED12512A0BBB00ACB2
:102AC5000C80A9D0D092AF80437E007F00E5092419
:102AD500FCF8C3EE96EF64800886F063F08095F00D
:102AE500502AA80908EE26FBEF0836FC0886058B58
:102AF500828C838DF012531FF582C007C006122BFE
:102B0500B1D006D0070EBE00C40F80C153D1EFD29D
:102B1500FC53E17FD28753E1DFD285850981D00956
:102B250022C009858109AD82AE83AFF0A2B2E4333C
:102B3500FCC004E4C0E0E50924FCF8E6C0E008E6D2
:102B4500C0E08D828E838FF0122A3F158115811585
:102B550081D0047F00BF3200501FA2B2E433B50418
:102B65000280057582018014900003C007C004121D
:102B7500248ED004D0070F80DC758200D00922C0D6
:102B850009858109AD82AE83AFF07401C0E0E50926
:102B950024FCF8E6C0E008E6C0E08D828E838FF065
:102BA500122A3F158115811581D00922AF827E0039
:102BB5007D00BD0800502DEE2EFEC2B743E580C254
:102BC500B7EF30E70753E17FD2878007C28743E13C
:102BD50080C28730860343060153E57FD2B7EF2FC6
:072BE500FF0D80CE8E82225D
:100168009003A3E4F09003A404F09003A5E4F090B6
:1001780003A6F09003A7F09003A8F09003A9F090CD
:1001880003AAF09003ABF09003ACF09003ADF090AD
:1001980003AEF09003B2E4F09003B3F09003B4F030
:0C01A8009003B5F09003B6F09003B7F0A0
:102BEC00E582900375F022E582900376F022AF82A5
:102BFC00900375E0600475820022EF60047582001A
:102C0C0022900376E060047582002275820122AF67
:102C1C0082900544E0FEEFB5060122900544EFF0EA
:102C2C007E007D00ED90548593FC6017BE0F005024
:102C3C0012EE2477FAE43403FB0E8A828B83ECF0D9
:102C4C000D80E1EE04FDEE2477F582E43403F58388
:102C5C00742DF0ED04FEED2477FDE43403FC7430A8
:102C6C002F8D828C83F0EE2477F582E43403F58388
:102C7C00E4F0C0067477C0E07403C0E0E4C0E07513
:102C8C008200123918158115811581900032122499
:102C9C009ED0068E077E00EE90548B93FD6012EF53
:102CAC002477FBE43403FC0F8B828C83EDF00E80D5
:102CBC00E6EF2477F582E43403F583E4F07477C00F
:102CCC00E07403C0E0E4C0E075820112391815818C
:102CDC001581158190003202249EC0098581090559
:102CEC008105819000FF12249E9000FF12249E907B
:102CFC0000FF12249E9000FF12249E9000FF1224CD
:102D0C009E9000FF12249EA909097F0AEF603CC027
:102D1C0007C001123A51D001D0078F057E008D8279
:102D2C008E83C007C00112249ED00189047D007ED1
:102D3C00408C828D838EF0C0011232BBE582D001B3
:102D4C00D0076004E720E7031F80C1758201122CB5
:102D5C001B7582001230E2850981D00922AF82C036
:102D6C0007E4C0E08F821233B21581900014122454
:102D7C009ED007E4C0E08F821233B2158122758297
:102D8C00021237699000C812249E7582001238CC4A
:102D9C0090006412249E123A089000C812249E12CD
:102DAC002CE69000C802249EAE82AF8374072EF5E9
:102DBC0082E43FF583E090039CF08E828F83E09059
:102DCC000395F08E828F83A3A3E0900396F08E82FE
:102DDC008F83A3A3A3E0900397F08E828F83A3A38A
:102DEC00A3A3E0900398F08E828F83A3A3A3A3A345
:102DFC00E0900399F074062EF582E43FF583E090A1
:102E0C00039AF090039B7401F0022E189003A1E03A
:102E1C00602790039DE0FEA3E0FF90039FE0C0E0DD
:102E2C00A3E0C0E08E828F831237F2AF821581153A
:102E3C0081EF60059003A1E4F090039BE070012208
:102E4C0090039575F000123429E582600590039B80
:102E5C00E4F022AE82AF83D2087D01BD1500501282
:102E6C00ED2EFBE43FFC8B828C83E06002C2080DEC
:102E7C0080E930081F7D00BD0600500FED248FF552
:102E8C0082E43403F583E4F00D80EC90038F75F04D
:102E9C000002342974022EFCE43FFD8E828F83A342
:102EAC00E0FFC004C0058F8212359E15811581226A
:102EBC00AE82AF83E0FDBD01028005BD0238801BF0
:102ECC0090039DE4F0A3F08E828F83A3E0FCA3E03B
:102EDC00FD90039FECF0EDA3F0801C8E828F83A3FA
:102EEC00E0FEA3E0FF90039DEEF0EFA3F090039FB4
:102EFC00E4F0A3F08001229003A17401F0022E18DB
:102F0C00C009858109C082C083C0F005810581E5B7
:102F1C00092404F9FA7B007C408A828B838CF0C0F4
:102F2C00011232BBE582D0017005F582022FF4E765
:102F3C0020E707C001123A51D001A80908740226F3
:102F4C00FAE40836FB08860487075307078A828B46
:102F5C00838CF0EF12512AA809088605088606080A
:102F6C0086070987045304078D828E838FF0EC1239
:102F7C00512AA80908740426FDE40836FE088607C1
:102F8C00E7A2E3E4338D828E838FF012512AA809D5
:102F9C0008740526FDE40836FE088607E7C45401CC
:102FAC008D828E838FF012512AA80908740326FD96
:102FBC00E40836FE088607E72354018D828E838F42
:102FCC00F012512AA80908740126FDE40836FE08FF
:102FDC0086078704530460ECC40354078D828E83E8
:102FEC008FF012512A758201850981D00922AD8298
:102FFC00AE83AFF0900548E02401F0A3E03400F07C
:10300C00900548E0FBA3E0FCC3EB94D0EC94075094
:10301C000122900548E4F0A3F074052DFAE43EFB80
:10302C008F048A828B838CF012531F90054AF08D8B
:10303C00828E838FF0C007C006C005122F0CE5826C
:10304C00D005D006D00770012274052DFAE43EFBA2
:10305C008F048A828B838CF012531FFC60169005B0
:10306C004AE07010900546E4F0A3F0900545E0F5B9
:10307C0082022D69900546E0FAA3E0FB900546E03C
:10308C00F5F0A3E045F0600E1ABAFF011B9005465F
:10309C00EAF0EBA3F02274042DF9E43EFA8F0389D5
:1030AC00828A838BF012531F7003EC60190DBD00E4
:1030BC00010E8D828E838FF012531FFD900545E01B
:1030CC00FFEDB5070122900545E0FFE4C0E08F82DB
:1030DC001233B2158122E582FF60098F82C007127C
:1030EC002C1BD007900545EFF0C007E4C0E08F82A1
:1030FC001233B2158190001412249ED007E4C0E064
:10310C008F821233B21581227582011238819000A0
:10311C001412249E7582010238819003A27401F06E
:10312C00900372E4F0900373F09003A1F0229003EB
:10313C0073E0FF700122EF20E0067DA37E03800484
:10314C007DA97E037C00EF14900373F090037474DC
:10315C0001F08D828E838CF0123429900374E4F08C
:10316C0022C009858109058105810581AF82900501
:10317C0045EFF0C0077401C0E08F821233B21581A5
:10318C009003B1E4F090006412249ED007E509246A
:10319C00FCF88605088606E5092403F8760AE50995
:1031AC002403F8E67003023294C007C006C005126F
:1031BC003A5190000A12249E9003AF75F00012321F
:1031CC00BBE582D005D006D007700302327990039C
:1031DC00AFE0FB20E703023279C0078D828E83A318
:1031EC00A3530307EBF08D028E039003B0E0FF5363
:1031FC0007078A828B83EFF074042DFBE43EFF906B
:10320C0003B0E0A2E3E4338B828F83F074052DFBD3
:10321C00E43EFF9003B0E0C454018B828F83F0A88E
:10322C00090874032DF6E43E08F69003B0E023542D
:10323C0001FCA809088682088683ECF0A8090874AA
:10324C00012DF6E43E08F69003B0E05460C403543C
:10325C0007FCA809088682088683ECF08B828F8392
:10326C00E0D00760089003B17401F0801B9000144B
:10327C00C007C006C00512249ED005D006D007E5B5
:10328C00092403F8160231AA9003B1E060119000F2
:10329C0032C00712249ED0078F82122D69800A90AB
:1032AC0005467458F07402A3F0850981D00922AD4B
:1032BC0082AE83AFF0C007C006C0051239BF9000C4
:1032CC006412248E12333ED005D006D007900352E0
:1032DC00E0FCBCBB028007123A5175820022C00789
:1032EC00C006C0057402C0E0E4C0E0900354F5F0E1
:1032FC00123A9AAC8215811581D005D006D0079070
:10330C000353E0B504028007123A517582002290F3
:10331C000354E08D828E838FF012512A0DBD000173
:10332C000E900355E08D828E838FF012512A758298
:10333C00012290035274FFF0900353F0900354F069
:10334C00900355F07404C0E0E4C0E0900352F5F033
:10335C00122B841581158122C009858109AD82AE9D
:10336C0083AFF07C00BC05005036C007C006C0051A
:10337C00C004E50924FCF8E6C0E008E6C0E08D8254
:10338C008E838FF0122B26AB8215811581D004D041
:10339C0005D006D007EB600575820180060C80C550
:1033AC00758200D00922C009858109AF8290035231
:1033BC0074AAF09003537403F09003547401F090CA
:1033CC000355E50924FDF8E6F0900356EFF074057B
:1033DC00C0E0E4C0E0900352F5F0123A9AAF8215C7
:1033EC00811581900357EFF07406C0E0E4C0E090C3
:1033FC000352F5F0122B2615811581D00922AF82CC
:10340C00900374E0600122EF6006900373E4F022F5
:10341C00900372E060069003737406F022C0098575
:10342C00810905810581AD82AE83AFF09003A2E0E6
:10343C00600A9003A2E4F07DB27E03FF9003527405
:10344C00AAF0900353741DF09003547402F08D8213
:10345C008E838FF012531F900355F074012DFAE4F4
:10346C003EFB8F048A828B838CF012531F90035681
:10347C00F074022DFAE43EFB8F048A828B838CF06D
:10348C0012531F900357F074032DFAE43EFB8F0484
:10349C008A828B838CF012531F900358F074042D86
:1034AC00FAE43EFB8F048A828B838CF012531F90BC
:1034BC000359F074052DFAE43EFB8F048A828B834A
:1034CC008CF012531F90035AF07C00A80908760068
:1034DC00A80908B606005029C004A80908E62DFA68
:1034EC00E43EFB8F048A828B838CF012531FD00432
:1034FC0060047C01800BA80908A90909E604F7807F
:10350C00CF74B2C0E07403C0E0E4C0E08D828E835F
:10351C008FF01200DE1581158115817003FF800577
:10352C0090039CE0FF90035BEFF07F0ABF1F0050FD
:10353C000FEF2452F582E43403F583E4F00F80ECB2
:10354C00C004741FC0E0E4C0E0900352F5F0123ADE
:10355C009AAF8215811581900371EFF07420C0E051
:10356C00E4C0E0900352F5F0123364AF821581157C
:10357C0081D004EC24FFE433F582C007C00412347C
:10358C000AD004D007900372ECF08F82850981D0A9
:10359C000922C009858109AF8290035274AAF09068
:1035AC000353741DF09003547402F0900355EFF024
:1035BC00900356E4F0900357F0900358F0900359A1
:1035CC00F090035AF0EFB40100B39208E433FF70AB
:1035DC0020FEBE1400501AE50924FCF8EE26FCE48B
:1035EC000836FD8C828D83E060047F0180030E80A1
:1035FC00E1EF24FFE433FEF582C007C006122BFA7C
:10360C00AD8290035BEDF0E50924FCF88604088696
:10361C00058C828D83E090035CF08C828D83A3E01B
:10362C0090035DF08C828D83A3A3E090035EF08CFD
:10363C00828D83A3A3A3E090035FF08C828D83A380
:10364C00A3A3A3E0900360F08C828D83A3A3A3A318
:10365C00A3E0900361F074062CF582E43DF583E061
:10366C00900362F074072CF582E43DF583E090033F
:10367C0063F074082CF582E43DF583E0900364F06C
:10368C0074092CF582E43DF583E0900365F0740A2F
:10369C002CF582E43DF583E0900366F0740B2CF579
:1036AC0082E43DF583E0900367F0740C2CF582E422
:1036BC003DF583E0900368F0740D2CF582E43DF544
:1036CC0083E0900369F0740E2CF582E43DF583E001
:1036DC0090036AF0740F2CF582E43DF583E09003BF
:1036EC006BF074102CF582E43DF583E090036CF0E4
:1036FC0074112CF582E43DF583E090036DF07412A7
:10370C002CF582E43DF583E090036EF074132CF5F8
:10371C0082E43DF583E090036FF0900370E4F07465
:10372C001FC0E0E4C0E0900352F5F0123A9AAD826B
:10373C0015811581900371EDF07420C0E0E4C0E0B8
:10374C00900352F5F012336415811581D0068E82E8
:10375C0012340AD007900372EFF0D00922AF829096
:10376C00035274AAF09003537403F0900354F09036
:10377C000355EFF0900356E4F07405C0E0E4C0E0AC
:10378C00900352F5F0123A9AAF821581158190038D
:10379C0057EFF07406C0E0E4C0E0900352F5F0126D
:1037AC002B26158115812290035274AAF090035395
:1037BC007401F09003547404F014C0E0E4C0E09081
:1037CC000352F5F0123A9AAF821581158190035588
:1037DC00EFF07404C0E0E4C0E0900352F5F0122B5B
:1037EC00261581158122C009858109AE82AF83908F
:1037FC00035274AAF0900353740BF09003547405A5
:10380C00F0900355E4F0900356F0900357F09003BA
:10381C0058F0900359F090035AF08E0590035BED2D
:10382C00F08F0690035CEEF0E50924FCF886079017
:10383C00035DEFF0E50924FCF808860790035EEFC2
:10384C00F0740DC0E0E4C0E0900352F5F0123A9A27
:10385C00AF821581158190035FEFF0740EC0E0E428
:10386C00C0E0900352F5F0123364AF8215811581DC
:10387C008F82D00922AF8290035274AAF090035326
:10388C007403F090035423F0900355EFF09003561B
:10389C00E4F07405C0E0E4C0E0900352F5F0123A95
:1038AC009AAF8215811581900357EFF07406C0E032
:1038BC00E4C0E0900352F5F0122B261581158122FD
:1038CC00AF8290035274AAF09003537403F09003E8
:1038DC00547407F0900355EFF0900356E4F0740520
:1038EC00C0E0E4C0E0900352F5F0123A9AAF8215B2
:1038FC00811581900357EFF07406C0E0E4C0E090AE
:10390C000352F5F0122B261581158122C0098581F1
:10391C0009AF8290035274AAF0900353741DF09077
:10392C0003547408F0900355EFF0E50924FBF88676
:10393C00050886060886077C057B008D828E838FA2
:10394C00F012531FFA601ABC1F005015EC2452F5EC
:10395C0082E43403F583EAF00DBD00010E0C0B80FC
:10396C00DA900356EBF0BC1F00500FEC2452F5829A
:10397C00E43403F583E4F00C80EC741FC0E0E4C085
:10398C00E0900352F5F0123A9AAF821581158190AE
:10399C000371EFF07420C0E0E4C0E0900352F5F046
:1039AC00122B261581158190001412249E1237B308
:1039BC00D0092290035274AAF09003537403F09030
:1039CC000354740AF0900355E4F0900356F0740518
:1039DC00C0E0E4C0E0900352F5F0123A9AAF8215C1
:1039EC00811581900357EFF07406C0E0E4C0E090BD
:1039FC000352F5F0122B2615811581229003527477
:103A0C00AAF09003537403F0900354740BF09003DA
:103A1C0055E4F0900356F07405C0E0E4C0E0900368
:103A2C0052F5F0123A9AAF8215811581900357EF37
:103A3C00F07406C0E0E4C0E0900352F5F0122B26BF
:103A4C00158115812290035274AAF09003537403CC
:103A5C00F0900354740CF0900355E4F0900356F07E
:103A6C007405C0E0E4C0E0900352F5F0123A9AAF4E
:103A7C008215811581900357EFF07406C0E0E4C005
:103A8C00E0900352F5F0122B261581158122C00906
:103A9C00858109C082C083C0F07C007A007B00E580
:103AAC000924FCF8C3EA96EB64800886F063F08086
:103ABC0095F0501FA80908EA26FDEB0836FE08868B
:103ACC00078D828E838FF012531F2CFC0ABA00CF05
:0F3ADC000B80CC7455C39CF582850981D00922DB
:0D548500416972373500204254332E30004B
:07582A00FF00000000000078
:103AEB00C009858109AE82AF837D007C00E5092486
:103AFB00FDF8C3EC96500EEC2EF582E43FF583E017
:103B0B002DFD0C80E88D82D00922AF82C007740393
:103B1B00C0E074B8C0E07403C0E0E4C0E074ECC073
:103B2B00E075820012251BE58124FBF581D00790FF
:103B3B0003B8E0FEBE5A119003B9E0FEBEA5099092
:103B4B0003BAE0B507028004C2088002D208A208BB
:103B5B00E433F58222C009858109AE82AF83E50982
:103B6B0024FDF88682C007C006123B15E582D006FD
:103B7B00D0077005F582023C03C007C006E5092497
:103B8B00FDF8E6C0E0C006C0077403C0E074ECC0EB
:103B9B00E075820012251BE58124FBF581E50924E4
:103BAB00FDF886057C0074032DFD74EC3CFC740160
:103BBB00C0E074B8C0E07403C0E0C005C0047582F7
:103BCB000012251BE58124FBF581D006D00790035D
:103BDB00B8E0FDC005E50924FDF8E6C0E08E828F54
:103BEB0083123AEBAF821581D005EDB50703D38075
:103BFB0001C39208E433F582D00922C009858109FB
:103C0B00AE82AF83E50924FDF88682C007C0061299
:103C1B003B15E582D006D0076030C007C006E5092A
:103C2B0024FDF8E6C0E0C006C0077403C0E074ECE6
:103C3B00C0E0758200122575AD82E58124FBF5810C
:103C4B00D006D007ED6003023D0FC007C006E4C0ED
:103C5B00E074ECC0E07582001226961581158190F8
:103C6B0003B8745AF09003B9F4F09003BAE5092441
:103C7B00FDF8E6F07403C0E074B8C0E07403C0E074
:103C8B00E4C0E074ECC0E075820012262FE58124BD
:103C9B00FBF581D006D007C007C006E50924FDF867
:103CAB00E6C0E0C006C0077403C0E074ECC0E0756A
:103CBB00820012262FE58124FBF581D006D007E583
:103CCB000924FDF8E6C0E08E828F83123AEBAF82B7
:103CDB0015819003B8EFF0E50924FDF886077E0007
:103CEB0074032FFF74EC3EFE7401C0E074B8C0E0A7
:103CFB007403C0E0C007C00675820012262FE58151
:103D0B0024FBF581D0092243902043983F43A03FE9
:103D1B004388072243E22043E33F43E43F43E60764
:103D2B002253EADF53E2DF53EBC053E3C053ECC043
:103D3B0053E4C053EEF853E6F822E582FF24F0502B
:103D4B000122EF2F903D5373801E801F8020802116
:103D5B00802280238024802580268027802880292C
:103D6B00802A802B802C802DC28822C28922C28A75
:103D7B0022C2A522C2A422C2A322C2A222C2A12273
:103D8B00C2A022C29D22C29C22C29B22C29A22C2E4
:103D9B009922C29822C29522E582FF24F05001227B
:103DAB00EF2F903DB173801E801F802080218022D9
:103DBB008023802480258026802780288029802AC4
:103DCB00802B802C802DD28822D28922D28A22D29B
:103DDB00A522D2A422D2A322D2A222D2A122D2A045
:103DEB0022D29D22D29C22D29B22D29A22D29922DB
:103DFB00D29822D29522E5F8540FFFE58825E0FEF4
:103E0B0074305E4F44C0F582225380E35390F153DC
:103E1B00B08453887FE5C075C00022123E2C023E51
:103E2B0080758C0575A500758C4575A600758C8500
:103E3B0075BB00758CC5758D00758C0075E11C7597
:103E4B00E22E75E33F75E43F75E57B75E68775E715
:103E5B00FF43EA0175EE7875D98FA2FDB392FE434D
:103E6B00D14043F81043B0804380A043E9E043EDD9
:103E7B008443D9102290FF9C7401F090FF98E4F0DA
:103E8B0090FF9D04F090FF99E4F090FF9E04F0905A
:103E9B00FF9AE4F075DE01F5DDF5D5F5D2F5C3F546
:103EAB00CEF5D6F5D3F5C4F5C1F5D7F5D4F5C5F5F3
:103EBB00C290FFBDF090FFA5F090FFEDF090FFD505
:103ECB00F090FFBCF090FFA4F090FFECF090FFD4CB
:103EDB00F090FFBBF090FFA3F090FFEBF090FFD3BF
:103EEB00F090FFBAF090FFA2F090FFEAF090FFD2B3
:103EFB00F090FFB9F090FFA1F090FFE9F090FFD1A7
:103F0B00F090FFB8F090FFA0F090FFE8F090FFD09A
:103F1B00F090FFC3F090FFABF090FFF3F090FFDB5E
:103F2B00F090FFC2F090FFAAF090FFF2F090FFDA52
:103F3B00F090FFC1F090FFA9F090FFF1F090FFD946
:103F4B00F090FFC0F090FFA8F090FFF0F090FFD83A
:103F5B00F090FFBFF090FFA7F090FFEFF090FFD72E
:103F6B00F090FFBEF090FFA6F090FFEEF090FFD622
:103F7B00F090FFC9F090FFB1F090FFF9F090FFE1E6
:103F8B00F02243D901C28843E6017F007E00BE10B8
:103F9B0000501875B1009001F4C007C00612248EB2
:103FAB00D006D00720F8010F0E80E3D28853E6FE2F
:103FBB0053D9FEBF10030224C022208D047F018041
:103FCB00027F028F822253EADF53E2DF53EBC053AF
:103FDB00E3C053ECC053E4C053EEF853E6F843E6AA
:103FEB00475388B843E43F53A0C043E33F5398C0C3
:103FFB0043E2285390D153E9E343E11C5380E3534D
:10400B00EE7F43E6C053883FE5EF75EF00E5E775BC
:10401B00E7FFE5C075C00053ED8443E57B53B084E7
:10402B0053EE9F53E69F53889F53E57F53E15F53B6
:10403B00D1EFD28ED293C2FED2FF22123FD10229F0
:10404B00A71229B3C28543E120C285023E2CA28D63
:10405B00E4339003BBF0A28EE4339003BCF09003E7
:10406B00BCE0F5821250C91213969003BCE0F582A6
:10407B00022BEC9003BBE0F582227F00BF080050BF
:10408B000FEF24BDF582E43403F583E4F00F80ECED
:10409B009003BD1244F9120242E58260227F00BFF9
:1040AB001600500FEF24C8F582E43403F583E4F0D7
:1040BB000F80EC9003C87406F09003C8124516905D
:1040CB0003C6E4F0A3F09003C57402F09003C5128D
:1040DB0045339003C57401F09003C5024533AF829D
:1040EB00C007124085D0079003BBEFF0C007124109
:1040FB00E9D007BF00028006BF010F023114900305
:10410B0045E0F5821230E202312622AF829003BCE9
:10411B00EFF08F82C0071250C9121396D0078F820F
:10412B00022BECA28DE433FF9003BBE0FE8F05ED79
:10413B00B506099003DEE4F0A3F080289003DEE0DF
:10414B002401F0A3E03400F09003DEE0A3E0C3947D
:10415B000140119003DEE4F0A3F0EF24FFE433F50C
:10416B00821240E9A2FDB392FEA28EE433FF9003CC
:10417B00BCE0FE8F05EDB506089003E0E4F0A3F07C
:10418B00229003E0E02401F0A3E03400F09003E080
:10419B00E0A3E0C3940140119003E0E4F0A3F0EF3F
:1041AB0024FFE433F58202411622AE82AF83BE4078
:1041BB0005BF7E028024BE4105BF7E028010BE4239
:1041CB0005BF7E02800CBE4311BF7E0E8008758238
:1041DB0001227582022275820322758200229005CC
:1041EB004DE4F0A3F090054FF022C009858109C082
:1041FB0082C083058105817D00E5092404F87600E2
:10420B00E5092404F8B6060040030242B97B00E539
:10421B00092404F886F005F07401800225E0D5F03E
:10422B00FBFAE5092404F8E5092403F9E6C4235451
:10423B00E0F77F00BF10005065C003900237E075B8
:10424B00F0C0A424B2FB745435F0FEE5092403F846
:10425B00E62BFBE43EFEEF2F2BF582E43EF583E4E9
:10426B0093FCA3E493FEA80908E6B5040708E6B59A
:10427B0006028004D0038021D003EF2416F582E4DC
:10428B003402F583E0FEEA5E600F9003E4EDF090FC
:10429B0003E5EBF075820180180F8F038096E5091B
:1042AB002404F806E5092404F8860502420B7582FE
:1042BB0000850981D009229003E5E02416F582E4FC
:1042CB003402F583E0FF9003E4E0F5F005F07401B0
:1042DB00800225E0D5F0FB5207EFB40100B3920842
:1042EB00E433F58222C009858109AE82AF83C3EE28
:1042FB009440EF947E50030244F3C3744F9E747E3C
:10430B009F50030244F38E048F05EC24C0FC2C2C2D
:10431B0090431F7302443102443102443102443151
:10432B000243890243A50243C10243DD0243F90262
:10433B00441502434F02435F02436F0244C30244DE
:10434B00D30244E3E50924FDF89003E2E6F075821D
:10435B00000244F6E50924FDF89003E3E6F07582CC
:10436B00000244F6E50924FDF8E6600C9003E3E057
:10437B006006124634122D8A7582000244F6E50956
:10438B0024FDF8E6600E9003E2E0600512477980A9
:10439B00031246EA7582000244F6E50924FDF8E6AD
:1043AB00600E9003E2E06005124791800312470212
:1043BB007582000244F6E50924FDF8E6600E9003D1
:1043CB00E2E060051247A9800312471E75820002C6
:1043DB0044F6E50924FDF8E6600E9003E2E0600583
:1043EB001247C480031247397582000244F6E5096F
:1043FB0024FDF8E6600E9003E2E060051247DF80D3
:10440B00031247547582000244F6E50924FDF8E6D1
:10441B00600E9003E2E060051247F28003124767DB
:10442B007582000244F69003BBE060030244BEE5D4
:10443B000924FDF8E660698E828F83C007C00612DF
:10444B0041B5AD82C0051230E2D005900345EDF0C9
:10445B00C005121E50D005900337EDF090033A744F
:10446B0001F090033BF01241E9D006D0078E828F0A
:10447B0083C007C0061241F5E582D006D007603332
:10448B0090054DEEF0EFA3F012237AE5828583F0D1
:10449B0090054BF0E5F0A3F090054F7401F08013FD
:1044AB0090054DE0FCA3E0FDECB50607EDB5070369
:1044BB001241E97582008033E50924FDF8E66003BB
:1044CB0012460E7582008023E50924FDF8E6600391
:1044DB001246237582008013E50924FDF8E660037C
:1044EB0012462C7582008003758201D00922AE82A0
:1044FB00AF839003BBE0FD600ABD010E8E828F83FC
:10450B000203448E828F83022DB422AE82AF83903E
:10451B0003BBE0FD600ABD010E8E828F8302036A2E
:10452B008E828F83022E5F22AE82AF839003BBE01D
:10453B00FD600ABD010E8E828F830203908E828FE7
:10454B0083022EBC2290054FE0600A1242C2E58224
:10455B0070031241E99003BBE0707090054FE0606F
:10456B005B90054DE0F5F0A3E045F0604F12237A28
:10457B00AE82AF8390054BE0FCA3E0FDEEC39CFE47
:10458B00EF9DFFC3EE9430EF9411403090054DE05A
:10459B00FEA3E0FF8E828F831241B5AF8290033B67
:1045AB00E4F090033AF07436C0E07403C0E08F82FD
:1045BB0012316D1581158190054FE4F0900336751E
:1045CB00F000122FFA122E1812313A900550E024F7
:0845DB0001F0A3E03400F0221E
:075831000000000000000070
:1045E30090033DE4F090033E14F090033F7404F015
:1045F300900341E4F090034214F09003437401F0FC
:10460300900344E4F090034504F02290053E74C8FF
:10461300F022AF82900540EFF090053F7404F02242
:104623009003447401F0021E50900344E4F0021E10
:10463300501245E3021E5090033DE024FB500690C8
:10464300033D7404F090033FE0FFBF010050069068
:10465300033F7401F090033FE024EF500690033FC3
:104663007410F0900341E024FB500690034174045E
:10467300F0900343E0FFBF01005006900343740131
:10468300F0900343E024EF50069003437410F022AC
:104693007420C0E07401C0E0E4C0E09003E6F5F0EC
:1046A3001252C51581158115817430C0E0E4C0E054
:1046B300C0E0900506F5F01252C5158115811581EC
:1046C30022900536E4F0900537F090053CF0900514
:1046D3003D04F0900538E4F0900539F090053AF088
:1046E30090053BF002501B90033DE0FF0F90033D0C
:1046F300EFF0EF24FB500590033DE4F0021E5090D1
:10470300033DE0700890033D7404F0800B90033D7B
:10471300E0FF1F90033DEFF0021E5090033EE0FFC9
:104723002420500890033E74FFF0800774202F90DC
:10473300033EF0021E5090033EE0FFBF20005007EF
:1047430090033EE4F08007EF24E090033EF0021E66
:104753005090033FE0FFBF100050060F90033FEF60
:10476300F0021E5090033FE0FF24FE50061F90030B
:104773003FEFF0021E50900341E0FF0F900341EF23
:10478300F0EF24FB5005900341E4F0021E50900328
:1047930041E0FF70089003417404F080061F90030A
:1047A30041EFF0021E50900342E0FF242050089096
:1047B300034274FFF0800774202F900342F0021E1F
:1047C30050900342E0FFBF20005007900342E4F003
:1047D3008007EF24E0900342F0021E50900343E071
:1047E300FFBF100050060F900343EFF0021E5090DE
:1047F3000343E0FF24FE50061F900343EFF0021E25
:10480300505380E35390F153B08453887FE5C075D0
:10481300C0002290053DE070012290053DE4F0FFC9
:10482300BF7000500D75B100C007124902D0070FC9
:1048330080EE22C00985810990053CE02401F0E067
:10484300FFBF7000403B90053CE4F0900343E0FE63
:10485300900539E02EF090053EE0FEE06006EE1490
:1048630090053EF090053FE0FEE06006EE149005F3
:104873003FF0900541E02401F090053D7401F08084
:1048830014BF601190033FE0FF900538E02FF090D4
:10489300053D7401F01250847F00900536E0FEBEA2
:1048A3000600501190033DE0FEBE0400500C124D73
:1048B30079AF828005124D79AF82EF6006124CCF3B
:1048C30012501BC208900537E02401F0E0FFBF033C
:1048D30000401A900537E4F0900536E02401F0E03B
:1048E300FFBF07004007900536E4F0D208A208E4B2
:1048F30033F582D0092290FF80E053E0DFF022C03D
:1049030009E581F5092407F58190053AE0FFBF0623
:104913000040030249C7E5092405F9FC7D007E40F8
:1049230090033EE0FB90033DE0FAC001C004C005E4
:10493300C006C003900538E0C0E090053BE0C0E04E
:10494300C0078A82122008AF82E58124F9F581D05D
:1049530001EF7003024CA390053AE075F030A424F4
:10496300E6FE740335F0FF90053BE02EF582E43F4D
:10497300F583E7F090053AE075F030A424E6FE7481
:104983000335F0FF74102EFEE43FFF90053BE02E4D
:10499300F582E43FF583E904F8E6F090053AE07523
:1049A300F030A424E6FE740335F0FF74202EFEE4F9
:1049B3003FFF90053BE02EF582E43FF5830909E7CD
:1049C300F0024CA390053BE0FFBF0800E433FE7008
:1049D30003024AE090053FE06036900540E0139201
:1049E3000850047DFF80027D3CA80908A605300815
:1049F300047C0080027C3CE5092404F8A60430080A
:104A0300047BFF80027B3CA8090808A603024BF243
:104A1300900336E030E115A809087632E50924044D
:104A2300F87678A80908087632024BF2308D15A87B
:104A3300090876FFE5092404F876B4A8090808767E
:104A430000024BF27F007E00900337E070047FFF8B
:104A530080027EFF7AFF90033BE07011900541E0F6
:104A630030E2047DFF80027D008D02802190033AB5
:104A7300E0701B900541E0543FFD30E5098D04745F
:104A83003FC39CFC80028D04EC90549293FA8A04F9
:104A93007B00A8090876008F027D00C006C004C011
:104AA30003C004C0038A828D83125145AD831581EF
:104AB3001581D003D004D006E5092404F8A6058E99
:104AC300027D00C004C0038A828D83125145AD83E9
:104AD30015811581A8090808A605024BF2208D63EC
:104AE300900344E0700690053EE06057900339E080
:104AF3007008900338E024FE4015A8090876FFE506
:104B0300092404F87600A80908087600024BF290FD
:104B13000338E0FDBD06004015A809087600E50945
:104B23002404F876FFA80908087600024BF2A809C6
:104B33000876FFE5092404F876B4A8090808760086
:104B4300024BF2900341E0FDBD0315A8090876FF6F
:104B5300E5092404F876FFA809080876FF024BF25A
:104B6300BD04005078BD00028020BD01028005BD58
:104B73000218800F8F82125118AD82900539E02DF3
:104B8300FD801E900539E0FD8017EE60047E0080F5
:104B930004EF24F8FEEE75F024A4FE900539E02E10
:104BA300FDE5092405F9FA7E007F40C001C002C07B
:104BB30006C0078D82121EC7158115811581D0018C
:104BC300A80908E7F6E904F8C001E5092404F9E6B1
:104BD300F7D0010909A8090808E7F68012A809080F
:104BE3007600E5092404F87600A809080876009001
:104BF300053BE02406FFE43405FEA8090886027D90
:104C030000900342E0FB7C00C007C006C003C00461
:104C13008A828D83125145AD8315811581D006D0CB
:104C2300078D048F828E83ECF090053BE02416FF02
:104C3300E43405FEE5092404F886047D009003426C
:104C4300E0FB7A00C007C006C003C0028C828D83DC
:104C5300125145AD8315811581D006D0078D048F80
:104C6300828E83ECF090053BE02426FFE43405FEBE
:104C7300A809080886037D00900342E0FC7A00C07F
:104C830007C006C004C0028B828D83125145AD83D9
:104C930015811581D006D0078D048F828E83ECF0A9
:104CA30090053BE02401F0E0FFBF100040189005A1
:104CB3003BE4F090053AE02401F0E0FFBF07004039
:104CC3000590053AE4F0850981D00922900536E084
:104CD300FF24F9500122EF2F904CDF73800C801ECC
:104CE30080308042805480668078900537E0FFE012
:104CF3007003D2B122BF0103D2C022D2B0229005E9
:104D030037E0FFE07003D28422BF0103D2C122D275
:104D13008322900537E0FFE07003D2C722BF01036F
:104D2300D2C222D2C622900537E0FFE07003D282BE
:104D330022BF0103D2C322D28F22900537E0FFE0C6
:104D43007003D2B522BF0103D2C422D2B62290058A
:104D530037E0FFE07003D2B422BF0103D2C522D2F1
:104D6300B322900537E0FFE07003D29122BF010325
:104D7300D29222D29322C0098581090581058190AF
:104D83000536E0FFBF0613900537E075F010A4AEBB
:104D9300F02406FDEE3405FE8019EF75F030A424EF
:104DA300E6FC740335F0FF900537E0C454F02CFDA6
:104DB300E43FFEA80908A60508A606A809088682F6
:104DC300088683E0FF7C008CC38FCEA80908868207
:104DD300088683A3E0FC7B008BC48CC1EF4204A84C
:104DE30009088682088683A3A3E0FF7B008BC58F17
:104DF300C2EC4207A80908740326FBE40836FC8BBF
:104E0300828C83E07E0090FFEDEEF08B828C83E05A
:104E130090FFD5F08B828C83E0FBEF4203A8090857
:104E2300740426FEE40836FF8E828F83E07C0090B4
:104E3300FFECECF08E828F83E090FFD4F08E828FB4
:104E430083E0FEEB4206A80908740526FDE4083654
:104E5300FF8D828F83E07B0090FFEBEBF08D828FE1
:104E630083E090FFD3F08D828F83E0FDEE4205A8AF
:104E73000908740626FEE40836FF8E828F83E07BE2
:104E83000090FFEAEBF08E828F83E090FFD2F08EEA
:104E9300828F83E0FEED4206A80908740726FDE42D
:104EA3000836FF8D828F83E07B0090FFE9EBF08D66
:104EB300828F83E090FFD1F08D828F83E0FDEE42FD
:104EC30005A80908740826FEE40836FF8E828F833E
:104ED300E07B0090FFE8EBF08E828F83E090FFD0C1
:104EE300F08E828F83E0FEED4206A809087409263E
:104EF300FDE40836FF8D828F83E07B0090FFF3EBA8
:104F0300F08D828F83E090FFDBF08D828F83E04210
:104F130006A80908740A26FDE40836FF8D828F83EC
:104F2300E07B0090FFF2EBF08D828F83E090FFDA5D
:104F3300F08D828F83E0FDEE4205A80908740B26ED
:104F4300FEE40836FF8E828F83E07B0090FFF1EB57
:104F5300F08E828F83E090FFD9F08E828F83E0FE04
:104F6300ED4206A80908740C26FDE40836FF8D827D
:104F73008F83E07B0090FFF0EBF08D828F83E090D6
:104F8300FFD8F08D828F83E0FDEE4205A8090874F7
:104F93000D26FEE40836FF8E828F83E07B0090FFB0
:104FA300EFEBF08E828F83E090FFD7F08E828F83BA
:104FB300E0FEED4206A80908740E26FDE40836FF5C
:104FC3008D828F83E07B0090FFEEEBF08D828F83E9
:104FD300E090FFD6F08D828F83E0FDEE4205A809B5
:104FE30008740F26FEE40836FF8E828F83E07B0071
:104FF30090FFF9EBF08E828F83E090FFE1F08E82D9
:105003008F83E0FEED4206EEB40100B39208E43371
:10501300F582850981D0092290FF80748AF090FF80
:10502300817408F090FF82F090FF83F090FF84F08A
:1050330090FF85F090FF86748AF090FF877408F0E4
:1050430090FF88F090FF89F090FF8AF090FF8BF03B
:1050530090FF8C7482F090FF8DE4F090FF8EF090BF
:10506300FF8FF090FF907408F090FF91F075DA8A4B
:10507300F5DBF5DC221223FC02508412501B0223C1
:10508300FF90FF807402F090FF81F090FF82F09018
:10509300FF83F090FF84F090FF85F090FF86F090FF
:1050A300FF87F090FF88F090FF89F090FF8AF090DF
:1050B300FF8BF090FF8CF090FF90F090FF91F0F554
:0650C300DAF5DBF5DC224A
:10549200000D1A2733404C5864707C87929CA6B04A
:1054A200B9C2CAD2D9DFE5EAEFF4F7FBFDFEFFFF8E
:1050C900E58260047F0080027F018F8222AF82BF68
:1050D9000203D38001C39208E433F58222C0098513
:0850E9008109758201D0092242
:1054B20029003A003B003C003D00477E467E40000A
:1054C20041004200430044004500460049004C00B0
:1054D20035001E001F0020002100220023002400AE
:1054E2002500260027002D002E002A0000004B0078
:1054F2002B0014001A000800150017001C001800E9
:105502000C00120013002F003000310000004E008A
:10551200390004001600070009000A000B000D0004
:105522000E000F00330034000000280000004A0083
:10553200E1001D001B00060019000500110010000B
:1055420036003700380000000000E50052004D0030
:10555200E000E200E300000000002C000000000078
:10556200E7002252E40000000000500051004F000A
:1055720029003A003B003C003D003E003F00400055
:1055820041004200430044004500460049004C00EF
:1055920035001E001F0020002100220023002400ED
:1055A2002500260027002D002E002A0000004B00B7
:1055B2002B0014001A000800150017001C00180028
:1055C2000C00120013002F003000310000004E00CA
:1055D200390004001600070009000A000B000D0044
:1055E2000E000F00330034000000280000004A00C3
:1055F200E1001D001B00060019000500110010004B
:1056020036003700380000000000E50052004D006F
:10561200E000E300E200000000002C0000000000B7
:10562200E6002352E40000000000500051004F0049
:105632004B7E01000100010001003E003F0001001D
:105642000100010001000100010001000100010050
:105652000100010001000100010001000100010040
:105662000100010001000100010001000000010031
:105672000100417E427E437E407E01000100010026
:105682000100010001004D7E4E7E4F7E00000100B0
:105692000100010001000100010001000100010000
:1056A20001000100010001000000010000000100F2
:1056B20001000100010001004C7E01000100010017
:1056C200497E487E4A7E000000000100467E0100BD
:1056D20001000100010000000000010000000000C4
:1056E20001000100010000000000457E477E447E6B
:1056F2004B7EBE00BD000100010003780478BC00AF
:10570200AE00BB00A800AA00A90001000100010030
:10571200010001000100010001000100010001007F
:105722000100010001000100010001000000010070
:105732000100417E427E437E407E01000100010065
:105742000100010001004D7E4E7E4F7E00000100EF
:10575200010001000100010001000100010001003F
:105762000100010001000100000001000000010031
:1057720001000100010001004C7E01000100010056
:10578200497E487E4A7E000000000100467E0100FC
:105792000100010001000000000001000000000003
:1057A20001000100010000000000457E477E447EAA
:1050F100C009858109E58275F010A424B2FE7457B8
:1051010035F0FFE50924FDF8E62EF582E43FF5834D
:10511100E493F582D00922E58290581293F5822218
:09512100E58290582293F58222E8
:1057B200FFDDCCAA8877555555557788AACCDDFFF1
:1057C200FFDDBB99775544333344557799BBDDFFF1
:1057D200FFDDBB99775533111133557799BBDDFF47
:1057E200FFDDBB99775533111133557799BBDDFF37
:1057F200FFDDBB99775544333344557799BBDDFFC1
:10580200FFDDCCAA8877555555557788AACCDDFFA0
:1058120000102030405060708090A0B0C0D0E0F006
:06582200002A5580AAD502
:06013B00E478FFF6D8FD98
:100119007910E94400601B7A01905828784275A04B
:1001290005E493F2A308B8000205A0D9F4DAF27540
:02013900A0FF25
:1000B400C000A88118C0D0B6001B18B67000401547
:1000C400B697005010C0E0E65407B406005004E6AA
:0A00D40054F8F6D0E0D0D0D000328E
:10512A0020F71130F6138883A88220F509F6A883A0
:10513A007583002280FEF280F5F022C0098581097C
:10514A00C082C083E5812405F581AF090FE50924F2
:10515A0003F8A607087600087640E50924FCFD7ED8
:10516A00007F40E5092406FCF9A809088603E50939
:10517A0024FCF886028BF0EAA4F709A7F019EC04DC
:10518A00F88604C000A80908860374012DFAE43ED3
:10519A00FE8A828E838FF012531F8BF0A4FBE509DF
:1051AA002403F8740126FDE40836FE0886078D827A
:1051BA008E838FF012531FFDE50924FCF88607D071
:1051CA00008DF0EFA42B2CF687060987078E828FB5
:1051DA0083850981D00922C009858109C082C083DB
:1051EA00C0F0058105810581E50924F9F8E608463C
:1051FA0070069000000252BFE50924FBF8860208F7
:10520A008603088604E50924F9F8E5092404F9E681
:10521A00F708E609F7E5092404F816B6FF020816A6
:10522A00E5092404F8E608466043A8090886050843
:10523A0086060886078D828E838FF0E5092406F894
:10524A0012531FF68A058B068C078D828E838FF088
:10525A0012531FFDE5092406F8E6B50510A809084A
:10526A0006B6000208060ABA00AB0B80A8E50924B4
:10527A00FBF8A60208A60308A604A80908860508DA
:10528A0086060886078D828E838FF012531FFD7F54
:10529A0000E50924FBF886030886040886068B8243
:1052AA008C838EF012531FFB7E00EDC39BFDEF9E95
:0B52BA00FF8D828F83850981D00922BF
:100141007800E84400600A790075A000E4F309D85A
:10015100FC7842E84405600C7906900000E4F0A3C5
:04016100D8FCD9FAF3
:1052C500C009858109C082C083C0F0E50924FBF8C7
:1052D5008605088606E50924FBF8E60846602AA83F
:1052E50009088602088603088604E50924FDF88670
:1052F500078A828B838CF0EF12512AA3AA82AB8393
:105305001DBDFF011EED4E70E8A8090886820886BE
:0A531500830886F0850981D0092283
:1000DE00E58124FCC3C8C0E0E608467006E582450B
:1000EE00836016C08218E58296F58208E5839642F3
:1000FE008208E5F0964582D082C8D0E0C82275818C
:0B010E0021122402E58260030200B110
:10531F0020F71430F6148883A88220F507E6A883B7
:0C532F0075830022E280F7E49322E02264
:00000001FF
