:0600000002010C023BECC2
:03000B00023B4B6A
:0300130002343480
:03001B0002343B71
:0300230002344262
:03002B0002344953
:0300330002345044
:03003B00023A6125
:03004300023C2F4D
:03004B0002345725
:0300530002345E16
:03005B0002346507
:0300630002346CF8
:03006B00023473E9
:100070000000E2FBEAF2802C0000E0FBEAF08024C2
:10008000E6B50202EBF62200E2B50202EBF2220034
:10009000E0B50202EBF02230F6E0A88220F5D3EAC8
:1000A000C6F582228B822230F6E6A88220F5D9801E
:0100B000CF80
:0301B9000200B190
:0300B10002020A3E
:1001BC001233871233831236461251C4123AB212DA
:1001CC00505C121513122036120316125825122ADF
:1001DC009AD2AF2212244FE5827003125760125745
:1001EC00BF22900333E0F5821242F8900333E09083
:1001FC000282F09002857401F0900286F0221201C6
:10020C00BC745DC0E07466C0E01221461581158196
:10021C00746AC0E07466C0E01221461581158174C1
:10022C0085C0E07466C0E01221461581158112521A
:10023C0092123EF51201E01224601203EF1258568E
:10024C001201EE12296675B1001253531256BA12EE
:10025C00186A1259B512043812257E122A25123446
:0A026C000612347A1223D480DD223A
:10665D00534D4B2076616C7068610D0A004B4220E2
:10666D006E757068792D6169723735202F206465DC
:10667D006661756C740D0A00444556494345207694
:10668D0049643A307830356163207049643A307826
:07669D00303234660A0D00E3
:100276001204F8AF82BF0106900287E07004C2083C
:100286008002D208A208E433F5822212565D2212B9
:10029600567C22C009858109AF82900004EFF09058
:1002A6000005E50924FCF8E6F008E6A3F090000452
:1002B60012569BD00922AE82AF83900000E0FCA3C9
:1002C600E0FDEEB50406EFB505028016900000EEDF
:1002D600F0EFA3F0C006C0077582011202991581DE
:1002E600158122AE82AF83900002E0FCA3E0FDEE12
:1002F600B50406EFB505028016900002EEF0EFA3F6
:10030600F0C006C007758202120299158115812276
:10031600900215E4F0900216F0900217F090021881
:10032600F0900219F0C200C20190021BE4F09002A4
:100336001AF0900210F0A3F0900212F0A3F0A3F0CE
:1003460090021CF0A3F090021EF012396B2290026C
:1003560015E4F0900216F0900217F0900218F09053
:100366000219F0C200C20190021BE4F090021AF0DA
:1003760012397B22AE82AF83C007C0061204FFE5A6
:1003860082D006D007700280117D007408C0E08E0E
:10039600828F838DF0123985158122AE82AF83C09C
:1003A60007C0061204FFE582D006D007700280114E
:1003B6007D007416C0E08E828F838DF01239C315CE
:1003C6008122AE82AF83C007C0061204FFE582D049
:1003D60006D007700280117D007403C0E08E828F04
:1003E600838DF01239C31581227E007F008E048F23
:1003F60005C3EC94A0ED940F503775B10090021E22
:10040600E0600E90021CE0F5F0A3E045F0700D8070
:1004160020C3EC94F4ED940140028015900001C0D5
:1004260007C006123357D006D0070EBE00BF0F8096
:10043600BC2230020312337990021FE0FF900007BE
:10044600E0FEEFB50602803D900007E090021FF047
:1004560090000CE0FEA3E0FF90000AE0FCA3E0FDA4
:10046600900008E0FAA3E0FBC006C007C004C00580
:10047600C002C00374F0C0E07467C0E0122146E514
:100486008124F8F581900220E0FF90000EE0FEEF57
:10049600B50602802490000EE0900220F090000F36
:1004A600E0FE7F00C006C0077422C0E07468C0E0AA
:1004B600122146E58124FCF581221204FFE58260C3
:1004C60007123A03E5827004C2088002D208A20825
:1004D600E433F58222C009858109AE82AF83E5093E
:1004E60024FDF8E6C0E08E828F83123A131581D080
:1004F6000922900218E0F58222900215E0FFBF0261
:1005060003D38001C39208E433F58222C009E58152
:10051600F5092408F581D310AF01C3C0D0AF090F88
:100526007E007D408F828E838DF01214EBD0D092A8
:10053600AFAF090F8F018706EF04F987058E04BC5C
:100546000002802DBC0103020629BE0203020689B1
:10055600BE21030206DEBE80030205E7BE8103025A
:100566000647BE82030206C0BEA103020728020791
:1005760058BD01028014BD03028021BD0502802EF4
:10058600BD0702803BBD0950803C8F037C007E4046
:100596008B828C838EF012089202075E8F037C009A
:1005A6007E408B828C838EF01208D502075E8F0305
:1005B6007C007E408B828C838EF012084B02075E95
:1005C600120ACD02075E8F037C007E408B828C83ED
:1005D6008EF01209FD02075E439708439702020751
:1005E6005EBD0002800ABD06028017BD082C80246D
:1005F6008F037C007E408B828C838EF0120AD4029D
:10060600075E8F037C007E408B828C838EF0120CFB
:100616003502075E1210DD02075E43970843970214
:1006260002075EBD0B128F037C007E408B828C839B
:100636008EF0120A6402075E439708439702020788
:100646005EBD0002800ABD06028017BD0A2C80240A
:100656008F037C007E408B828C838EF0120B1402FB
:10066600075E8F037C007E408B828C838EF0120C9B
:100676003502075E1210F502075E4397084397029C
:1006860002075EBD01028005BD032680128F037C32
:10069600007E408B828C838EF012091802075E8FD3
:1006A600037C007E408B828C838EF01209990207B0
:1006B6005E43970843970202075EBD00128F037CD4
:1006C600007E408B828C838EF0120B7202075E4393
:1006D600970843970202075EBD0902800ABD0A0217
:1006E6008016BD0B3580228F037C007E408B828C6A
:1006F600838EF012111180608F037C007E408B8206
:100706008C838EF0121231804F8F037C007E408BDB
:10071600828C838EF0121268803E439708439702BC
:100726008036BD0102800ABD0202800ABD031B801D
:100736000A12110A8022121256801D7E007D408FF9
:10074600828E838DF01212C2800E43970843970261
:100756008006439708439702850981D00922AF9204
:10076600AE93EF7003020801EF30E3295392F7903E
:10077600021CE0FCA3E0FD90021CE0F5F0A3E045BE
:10078600F0600D1CBCFF011D90021CECF0EDA3F007
:10079600C20102084A5392EF53929FEF30E7095382
:1007A600927F12031602084AEF30E4175392EF9035
:1007B600021C74F4F07401A3F090021EF0120512EC
:1007C60002084AEF30E2065392FB02084AEF30E194
:1007D6000F5392FD900215E0FDBD0268D2018064C0
:1007E600EF30E0605392FE439120000000000000CD
:1007F6005391DF1203164397018049EE6046EE30AF
:10080600E6085393BF439A01803AEE30E5055393C9
:10081600DF8031EE30E40B5393EF1213034397015D
:100826008022EE30E2085393FB123A028016EE3035
:10083600E1085393FD123A01800AEE30E006539325
:10084600FE12136A22AD82AE83AFF090021BE4F073
:1008560074022DFDE43EFE8D828E838FF01265C3F9
:10086600FBA31265C34B60089002157401F0800566
:10087600900215E4F08D828E838FF01265C390028C
:1008860016F0539BF043970243970422AD82AE8342
:10089600AFF090021BE4F08D028E038F048A828BE8
:1008A600838CF01265C3540F701E74022DFDE43E56
:1008B600FE8D828E838FF01265C3FDA31265C3FE83
:1008C600BD0105BE0002C200539BF043970422AD52
:1008D60082AE83AFF090021BE4F08D028E038F048C
:1008E6008A828B838CF01265C3540F701E74022D9E
:1008F600FDE43EFE8D828E838FF01265C3FDA3124A
:1009060065C3FEBD0105BE0002D200539BF04397AE
:100916000422AE82AD83AFF090021BE4F08E028D0E
:10092600038F048A828B838CF01265C3FA53020FFD
:10093600BA025974022EFAE43DFB8F048A828B8335
:100946008CF01265C3FAA31265C34A703F74042E75
:10095600FEE43DFD8E828D838FF01265C3FEA312E9
:1009660065C3FF4E70085397F75397FD801EBE81EF
:1009760008BF00055399F78013BE8208BF000553D0
:100986009AF780084397084397028006539BF043E3
:10099600970422AD82AE83AFF090021BE4F08D0285
:1009A6008E038F048A828B838CF01265C3FA5302FE
:1009B6000FBA023474042DFDE43EFE8D828E838FC1
:1009C600F01265C3FDA31265C3FEBD8108BE000516
:1009D600439908801BBD8208BE0005439A08801013
:1009E6004397084397028008439708439702800677
:1009F600539BF043970422AE82AD83AFF090021B67
:100A0600E4F0900216E0604974022EFEE43DFD8E8D
:100A1600828D838FF01265C3FEA31265C3FF4E60FD
:100A26000A8E048F05BC0121BD001E900217EEF050
:100A3600EE60089002157402F080069002157401AB
:100A4600F0539BF0439704800E4397084397028028
:100A560006439708439702539BF043970422AE82BE
:100A6600AD83AFF090021BE4F074022EFAE43DFB76
:100A76008F048A828B838CF01265C3FAA31265C336
:100A86004A703D74042EFEE43DFD8E828D838FF008
:100A96001265C3FEA31265C3FF4E700B539BF04352
:100AA6009704439702801FBE010EBF000B539BF0B5
:100AB600439704439702800E4397084397028006A4
:100AC6004397084397022243970843970222AD8231
:100AD600AE83AFF090021B7402F08D828E838FF08E
:100AE6001265C3540F70203000089011087402F08C
:100AF6008005901108E4F0901109E4F0539BF0434F
:100B06009B02439704800643970843970222AE82CE
:100B1600AD83AFF08E028D038F048A828B838CF0B7
:100B26001265C3FA53020FBA013B74042EFEE43D6C
:100B3600FD8E828D838FF01265C3FEA31265C3FFFF
:100B46004E6006BE0117BF0014901108E4F0901124
:100B560009F0539BF0439B02439704800E4397088A
:100B6600439702800643970843970222AD82AE83DD
:100B7600AFF08D028E038F048A828B838CF0126510
:100B8600C3FA53020FBA02028003020C2E74042D1C
:100B9600FDE43EFE8D828E838FF01265C3FDA312A7
:100BA60065C3FEBD801BBE0018AC97530402E4A2C9
:100BB600E713CC13CC901108ECF0901109E4F08007
:100BC6005CBD8127BE0024AC99530408E423CCC441
:100BD60023541F6CCC541FCC6CCC30E40244E09000
:100BE6001108ECF0901109E4F08032BD8227BE00B6
:100BF60024AE9A530608E423CEC423541F6ECE5463
:100C06001FCE6ECE30E40244E0901108EEF0901153
:100C160009E4F080084397084397028011539BF03C
:100C2600439B02439704800643970843970222C0DA
:100C360009858109C082C083C0F0E581240BF58156
:100C4600A80908740226FAE40836FB0886048A8294
:100C56008B838CF01265C3FAA31265C3FC8A07BCAA
:100C660001547C007A009067E6E493FDA3E493FECA
:100C76008D828E83E493FF7B00C3EC9FEA9B501E1C
:100C8600EC2410FBEA3400FFEC2DF582EA3EF583F6
:100C9600E4938B828F83F00CBC00CB0A80C87D1056
:100CA6007E007F00900010E0FBE5092404F8A6030F
:100CB60008760002108CBC02028003020E51906777
:100CC600EAE493FBC3EF9B4003020E519067EBE40B
:100CD60093FAA3E493FBEF75F002A42AF582EB35B1
:100CE600F0F583E493FFA3E493FE74092FFDE43E3D
:100CF600FCE509240DF876000876008F828E83E5E0
:100D0600092406F8E493F6E5092406F886027B0032
:100D1600E509240DF8C3E69A08E69B503EE509244A
:100D26000DF8E5092407F9E62410F708E63400096A
:100D3600F7E509240DF8E62FF58208E63EF583E48B
:100D460093FBE5092407F88682088683EBF0E5091C
:100D5600240DF806B60002080680A0E5092406F868
:100D6600E5092409F9E62410F7E4340009F7E50952
:100D76002407F8A60508A604E509240DF876000858
:100D86007600E5092407F88682088683E493FFA3A4
:100D9600E493FE8F828E83E493FB7A00E509240DAB
:100DA600F8C3E69B08E69A5034E5092409F8E509F4
:100DB600240DF9E726FD09E70836FCE509240DF8B8
:100DC600E62FF58208E63EF583E4938D828C83F068
:100DD600E509240DF806B60002080680A58F828E66
:100DE60083E493FBE5092409F8EB26F6E40836F6D6
:100DF600E5092407F8740226F6E40836F6E5092420
:100E060007F88682088683E493FAA3E4934A60038C
:100E1600020D7E900012E0FAA3E04A7017E509245D
:100E260009F8E6C39410FA08E69400FB900012EA6B
:100E3600F0EBA3F07D107E007F00900012E5092400
:100E460004F8E0F6A3E008F602108CE4BC03010403
:100E5600FB604CEF7049FDFC9067DCE493FA7F0081
:100E6600C3ED9AEC9F5020ED2410FFEC3400FEED0C
:100E760024DCF582EC3467F583E4938F828E83F06D
:100E86000DBD00D40C80D17D107E007F0090001037
:100E9600E0FAE5092404F8A60208760002108CEBB5
:100EA6007003020F76C0047E00EF24FFFDEE34FFD0
:100EB600FB9067EDE493FA7C00C3ED9AEB64808CBB
:100EC600F063F08095F0D0044003020F769067EE51
:100ED600E493FDA3E493FCEF24FFFAEE34FFFBEA70
:100EE6002AFAEB33FBEA2DF582EB3CF583E493FE1D
:100EF600A3E493FD9000107402F090001104F0E555
:100F060009240BF874012411F6E4340008F68E82E5
:100F16008D83E493FF60418F030EBE00010DE5094A
:100F2600240BF88682088683EBF0E509240BF87417
:100F36000126FAE40836FB8A828B83E4F0E509246D
:100F46000BF874012AF6E43B08F6900010E0FB0B60
:100F56000B900010EBF080B67D107E007F009000B5
:100F660010E0FBE5092404F8A60308760002108CBD
:100F7600BC224CA80908740426FFE40836FE08863D
:100F8600058F828E838DF01265C3FA70137DA47E61
:100F9600667F80E5092404F8764E08760002108CF8
:100FA600BA01137DF27E667F80E5092404F8768D0A
:100FB60008760002108C4397084397020210D7BCAC
:100FC60021028003021084A80908740426FAE408A2
:100FD60036FB0886048A828B838CF01265C3FC700C
:100FE60048FDFC90679AE493FB7A00C3ED9BEC9A6C
:100FF6005020ED2410FFEC3400FEED249AF582EC2F
:101006003467F583E4938F828E83F00DBD00D40C94
:1010160080D17D107E007F00900010E0FBE5092462
:1010260004F8A603087600805DBC014A7F007E00B6
:101036009067B3E493FA7C00C3EF9AEE9C5020EFDE
:101046002410FBEE3400FCEF24B3F582EE3467F592
:1010560083E4938B828C83F00FBF00D40E80D17D06
:10106600107E007F00900010E0FCE5092404F8A63D
:1010760004087600801043970843970280534397ED
:1010860008439702804BA80908740626FBE4083635
:10109600FA0886048B828A838CF01265C3FBA3123E
:1010A60065C3FCE5092404F8C3EB96EC0896400AF0
:1010B600E5092404F88603088604C003C0048D826B
:1010C6008E838FF0121395158115811213BB4397EA
:1010D60004850981D0092290021B7402F090021740
:1010E600E0901108F0539BF0439B01439704229034
:1010F600021B7402F0901108E4F0539BF0439B012D
:101106004397042243970843970222C00985810921
:10111600C082C083C0F0E5812406F581A809087461
:101126000226FAE40836FB0886048A828B838CF052
:101136001265C3FEA31265C3FF900008EEF0EFA38D
:10114600F0A80908E5092404F9740426F7E408362A
:1011560009F708E609F7E5092404F8868208868374
:101166000886F01265C3FEA31265C3FF90000AEE5F
:10117600F0EFA3F0A80908E5092407F9740626F795
:10118600E4083609F708E609F7E5092407F8868230
:101196000886830886F01265C3FEA31265C3FF9016
:1011A600000CEEF0EFA3F0900007E004F08A828BCB
:1011B600838CF01265C3FEA31265C3FCBC020280D9
:1011C60005BC035B803FE5092404F8868208868314
:1011D6000886F01265C3FCA31265C34C7047E50987
:1011E6002407F886820886830886F01265C3FCA366
:1011F6001265C3FDBC012EBD002B90021B7404F0CA
:101206004397018020BE050990021B7405F04397A1
:1012160001BE071190021B7406F043970180064336
:101226009708439702850981D00922AD82AE83AF24
:10123600F074022DFDE43EFE8D828E838FF01265E2
:10124600C3A31265C390021AF0539BF0439704227E
:1012560090021AE0901108F0539BF0439B014397CC
:101266000422AD82AE83AFF074042DFBE43EFA8F08
:10127600048B828A838CF01265C3FBA31265C3FCC0
:101286004B701874022DF8E43EF98F028882898328
:101296008AF01265C3900218F0801ABB0117BC00D1
:1012A6001474022DFDE43EFE8D828E838FF012654E
:1012B600C3900219F0539BF043970422AE82AD838C
:1012C600AFF074042EFEE43DFD8E828D838FF01206
:1012D60065C3FEA31265C3FF4E700A900218E09024
:1012E6001108F0800EBE010BBF0008900219E090B5
:1012F6001108F0539BF0439B014397042290021B75
:10130600E0FFBF042490021BE4F0901100E0F58298
:10131600122050901100E090000FF090000EE004B3
:10132600F0539BF0439704803ABF051990021BE4E3
:10133600F0901100E0FEBE052A901101E0FEBE7598
:1013460022D202801EBF061090021BE4F012237404
:10135600539BF0439704800B90021BE4F0539BF0E1
:101366004397042290021BE0FFBF010B1213BB43FD
:1013760097044397018017BF0208439701439708D4
:10138600800C439708439701900216E0F59622C019
:1013960009858109AFF0AE83E582900212F0EEA3D3
:1013A600F0EFA3F0E50924FCF8900210E6F008E659
:1013B600A3F0D00922900210E0FEA3E0FF4E700FCA
:1013C60090021B7402F0539BF0859B9B02149D8E2A
:1013D600048F05C374089CE49D505990021B740148
:1013E600F0900212E0F9A3E0FAA3E0FB7408C0E073
:1013F60089828A838BF012149E1581900210E0FA7E
:10140600A3E0FBEA24F8FAEB34FFFB900210EAF0C3
:10141600EBA3F0900212E0F9A3E0FAA3E0FB90023E
:1014260012740829F0E43AA3F0EBA3F0539BF043BF
:101436009B088063BC0832BD002F90021B7401F02C
:10144600900212E0FBA3E0FCA3E0FD7408C0E08B71
:10145600828C838DF012149E1581900210E4F0A305
:10146600F0539BF0439B08802E90021B7402F09071
:101476000212E0FCA3E0FDA3E0FFC0068C828D8390
:101486008FF012149E1581539BF0900210E0FEA37C
:10149600E0AD9BEE4DF59B22C009858109C082C057
:1014A60083C0F0E50924FDF8E624F740327C00E528
:1014B6000924FDF8C3EC965026EC2408FAE434110E
:1014C600FBA80908EC26FDE40836FE0886078D828F
:1014D6008E838FF01265C38A828B83F00C80D08551
:1014E6000981D00922AD82AE83AFF07C00BC080032
:1014F600501AEC2DF9E43EFA8F038C82758311E0C5
:0D15060089828A838BF012633B0C80E12206
:1066A40005010906A101050719E029E715002501DF
:1066B4007501950881027508950181010507190086
:1066C40029FF150026FF0075089505810005FF09BF
:1066D400037508950181020508190129051500258E
:1066E40001750195059102750395019101C005019C
:1066F4000980A101850119812983150025017501EE
:106704009503810295058101C0050C0901A101854C
:106714000219002A3C021500263C027510950181DD
:1067240000C00600FF0901A1018505190129021510
:106734000026FF0075089505B102C00631FF0974F3
:10674400A10185070975150026FF007508952081AC
:1067540002C005010906A1018506050719E029E71C
:106764001500250175019508810205071900299F67
:1067740015002501750195A08102C01201100100C8
:10678400000008AC054F02000001020301090400E7
:10679400000103010100092111010001224E00073B
:1067A4000581031000010904010001030000000930
:1067B4002111010001228D00070582034000010917
:1067C400020000020100A0FA91679A67A367AA6712
:1067D400B367BC670000C367040309042D6831680C
:1067E4003D687F67000001DA6703E0675345545F43
:1067F4005245504F5254207756616C75653D253093
:1068040034782077496E6465783D25303478207774
:106814004C656E6774683D253034780D0A004C452C
:106824004420253032780D0A00534D4B00416972E3
:0E68340037352028534D4B29003030303100CD
:10151300900242E4F0900243F0900241F0FFBF10CA
:1015230000501BEF2421F582E43402F583E4F0EF4D
:101533002431F582E43402F583E4F00F80E022E500
:1015430082900243F022C009858109AE82AF839065
:101553000242E0FDE070068E828F838045ED75F0D8
:10156300C0A42421FC746A35F0FDE50924FDF8E6E6
:10157300C42354E02CFCE43DFDE50924FCF8E626F5
:101583002CF582E43DF583E493FCA3E493FD8C0204
:101593008D03BA0105BB000280048C068D078E8281
:1015A3008F83D00922C009858109AE82AF838E045F
:1015B3008F05C3EC94E0ED9400404574E79CE49DF3
:1015C300403EE50924FDF8E660198E0374075BF5D8
:1015D300F005F07401800225E0D5F0FBF582121EC0
:1015E300CD80178E0374075BF5F005F0740180025C
:1015F30025E0D5F0FBF582121ED61219420216A081
:10160300C3EC9404ED9400403474A49CE49D402DF9
:10161300E50924FDF8E660118E03C00390024475CA
:10162300F000121DE21581800F8E03C00390024467
:1016330075F000121E2B15811219428060C3EC94C1
:10164300A5ED9400402974A79CE49D4022E509245C
:10165300FDF8E6600D8E038B82121F21AA82AB83F5
:1016630080047A007B008A828B831202BC802EC3A3
:10167300EC94A8ED9400402574C29CE49D401EE5C3
:101683000924FDF8E6600B8E82121F45AE82AF83FC
:1016930080047E007F008E828F831202E9D00922AC
:1016A300C009858109AF82900243E075F0C0A4248C
:1016B30021FD746A35F0FEEFC42354E02DFDE43EB2
:1016C300FEE50924FDF8E6262DF582E43EF583E4E4
:1016D30093FDA3E493FE8D038E04C3EB9420EC945B
:1016E300524068743F9B74529C4060E50924FCF8A7
:1016F300E66023C006C0057401C0E0C005C006E56E
:101703000924FDF8E6C0E08F821230BCE58124FC99
:10171300F581D005D006E50924FCF8E660148D04B4
:1017230053041F900242ECF08C8212629B12197DCB
:10173300807390024475F000121E74900242E4F02C
:10174300122DCC75820012197D805AC007E5092439
:10175300FDF8E6C0E0C0078D828E83121549AD8285
:10176300AE8315811581D007C006C005E50924FCA9
:10177300F8E6C0E0C005C006E50924FDF8E6C0E0D0
:101783008F821230BCAF82E58124FCF581D005D075
:1017930006EF7011E50924FCF8E6C0E08D828E8324
:1017A3001217AB1581D00922C009858109AE82AF1A
:1017B30083C007C006E50924FDF8E6C0E08E828FEA
:1017C30083125416AD821581D006D007ED700280C6
:1017D30031C007C006E50924FDF8E6C0E08E828F1C
:1017E300831262ABAD821581D006D007ED70028003
:1017F30011E50924FDF8E6C0E08E828F831215A857
:101803001581D0092212624912504A124F33124FE6
:10181300267F00BF100050428F82C007124F59909D
:10182300000A123345125037AE8290000AC00612E6
:101833003345125037AD82D006D007EEB5050FEF12
:101843002421FCE43402FDEEF48C828D83F08F823C
:10185300C007124FC8D0070F80B9124F401261DE84
:101863009002417401F022C009E581F5092410F5C5
:1018730081123299900241E07005F58202193C9081
:101883000241E4F0AF090FFEBE10005012EE2FF933
:10189300EE2421F582E43402F583E0F70E80E9C2F9
:1018A300087E00BE10004003021936EE2FF98705AB
:1018B300EE2431F582E43402F583E0FCED6204ECBE
:1018C300FB606CD208C007C006C005C003C021126C
:1018D30029C6D021D003D005D006D0077C017A00D9
:1018E300BA0600503EEC5B6034C007EC5D24FFE4B5
:1018F30033FFC007C006C005C004C003C002C02137
:10190300C007C0068A821216A315811581D021D083
:1019130002D003D004D005D006D007D0070AEC2CA0
:10192300FC80BDEE2431F582E43402F583EDF00E44
:101933000218A6A208E433F582850981D009221290
:101943000276E5826005121A23800312199622AEED
:1019530082AF8374022EFEE43FFF7D00BD0500507D
:1019630015ED2EFBE43FFC8B828C83E060057582D2
:101973000180060D80E675820022AF82900280EF1F
:10198300F0EF700E90024BE0600890024BE4F0120F
:1019930019962290055DE0FF900244F090055EE009
:1019A3004207900244EFF0900280E0602290024BE5
:1019B300E0701C900244121952E5826012900253A7
:1019C3007401F090024C12029190024B7401F07476
:1019D30008C0E0E4C0E0744CC0E07402C0E0E4C0BE
:1019E300E0900244F5F01263F2AE82AF83E5812406
:1019F300FBF581EE4F60287F00BF0800501BEF24EA
:101A03004CFDE43402FEEF2444F582E43402F58312
:101A1300E08D828E83F00F80E090024412029122C7
:101A23009002547406F090055DE0FF900255F0902B
:101A3300055EE04207900255EFF07416C0E0E4C083
:101A4300E0746AC0E07402C0E0E4C0E0900254F5C0
:101A5300F01263F2AE82AF83E58124FBF581EE4F92
:101A630060287F00BF1600501BEF246AFDE4340298
:101A7300FEEF2454F582E43402F583E08D828E83F5
:101A8300F00F80E090025412029522AD82AE83AF34
:101A9300F074022DFDE43EFE7C05C007C006C005C0
:101AA300C004120276E582D004D005D006D00760C8
:101AB300087D567E027F007C147B008C021CEA604A
:101AC300158D828E838FF01265C3FAA3AD82AE8328
:101AD300EA60E80B80E58B8222AD82AE83AFF0C073
:101AE30007C006C005120276E582D005D006D007EE
:101AF300603C7C00BC14005012EC2456FAE434021F
:101B0300FB8A828B83E070030C80E9ECC40354F8F6
:101B1300FBEC2456F582E43402F583E0F582C0033E
:101B2300121EF5AC82D003EC42038B828012740246
:101B33002DFDE43EFE8D828E838FF01265C3F58208
:101B430022C00985810905810581AD82AE83AFF08D
:101B5300E50924FDF8E67005F582021C09C007C0FB
:101B630006C005120276E582D005D006D007605183
:101B7300E50924FDF8E6C423541FFCBC1400503CC3
:101B8300EC2456FFE43402FEE50924FDF886E05414
:101B930007F5F005F07D017A008006ED2DFDEA33AF
:101BA300FAD5F0F78F828E83E0FB7C00ED5203EAD7
:101BB3005204EB4C24FFE433F582804A75820080A3
:101BC3004574022DFDE43EFEA809087600A8090825
:101BD300B60500502EA80908E62DFAE43EFB8F0453
:101BE3008A828B838CF01265C3FAE50924FDF8E63B
:101BF300B50205758201800EA80908A90909E60442
:101C0300F780CA758200850981D00922C0098581C0
:101C130009C082C083C0F07CFF7B00C3EB64809467
:101C230085503AC004A80908740226FAE40836FC71
:101C3300088607EB2AFAE43CFC8A828C838FF01235
:101C430065C3FFE50924FDF8E6B50704D004800D5C
:101C5300D004BCFF05EF70028B040B80BEBB052ACA
:101C6300BCFF028025A80908740226FDE40836FE9D
:101C7300088607EC2DFCE43EFB8F028C828B838A63
:101C8300F0E50924FDF8E612633B850981D00922BA
:101C9300C009858109058105810581AD82AE83AFC8
:101CA300F074022DFDE43EFE7C00BC05005037A815
:101CB3000908EC2DF6E43E08F608A607A8090886ED
:101CC300820886830886F01265C3FBE50924FDF8C4
:101CD300E6B5030FA8090886820886830886F0E420
:101CE30012633B0C80C4850981D00922C009858118
:101CF30009AD82AE83AFF0E50924FDF8E6C42354B1
:101D03001FFCBC14004020E50924FDF886027B007B
:101D1300C002C0037442C0E07468C0E0122146E50B
:101D23008124FCF581803B74022DFDE43EFEEC2D05
:101D3300FCE43EFB8F02E50924FDF886E05407F539
:101D4300F005F07401800225E0D5F0FBFF8C828B57
:101D5300838AF01265C342078C828B838AF0EF1269
:101D6300633BD00922C009858109AD82AE83AFF000
:101D7300E50924FDF8E6C423541FFCBC14004020ED
:101D8300E50924FDF886027B00C002C003745FC02E
:101D9300E07468C0E0122146E58124FCF581803CB3
:101DA30074022DFDE43EFEEC2DFCE43EFB8F02E5C8
:101DB3000924FDF886E05407F5F005F0740180026C
:101DC30025E0D5F0FBF4FF8C828B838AF01265C388
:101DD30052078C828B838AF0EF12633BD00922C0B7
:101DE30009858109AD82AE83AFF0C007C006C00587
:101DF300120276E582D005D006D0076015E50924E6
:101E0300FDF8E6C0E090025475F000121CEF158156
:101E13008013E50924FDF8E6C0E08D828E838FF000
:101E2300121C0F1581D00922C009858109AD82AE2C
:101E330083AFF0C007C006C005120276E582D00565
:101E4300D006D0076015E50924FDF8E6C0E090024E
:101E53005475F000121D6815818013E50924FDF8FF
:101E6300E6C0E08D828E838FF0121C931581D0091A
:101E730022AD82AE83AFF0C007C006C00512027662
:101E8300E582D005D006D00760197414C0E0E4C021
:101E9300E0C0E0900256F5F01265691581158115D1
:101EA30081801F74022DFDE43EFE7405C0E0E4C092
:101EB300E0C0E08D828E838FF012656915811581F4
:101EC30015812290055DE0F58222AF8290055DE0E9
:101ED3004FF022E582F4FF90055DE05FF022E5829A
:101EE30090055DF02290055DE4F02290055EE0F53B
:101EF3008222AF827E00EFC4540FFD60048D077E03
:101F030004EF0303543FFD60088D078E0574022D13
:101F1300FEEFC31360058E07EF04FE8E8222AF82AD
:101F2300BFA502800ABFA602800ABFA711800A903C
:101F33000001800D9000028008900004800390004F
:101F43000022AF82BFA8005003022032EF243D508D
:101F530003022032EF2458FF240A83F582EF241F63
:101F630083F583E4739EA4AAB0B6C8D4DACEE0E6C0
:101F7300ECFB00050A0F1423BCC2191EF1F6282D31
:101F83001F1F1F1F1F1F1F1F1F1F1F1F1F2020205B
:101F93002020201F1F20201F1F20209000E202204E
:101FA300359000E90220359000EA0220359000B513
:101FB3000220359000B60220359000B30220359000
:101FC30000B40220359000B70220359000CC0220E7
:101FD300359000CD02203590018302203590018A8F
:101FE30002203590019202203590019480449001A3
:101FF3009F803F9001CB803A90022180359002234D
:102003008030900224802B90022580269002268027
:1020130021900227801C90006F801790007080121F
:1020230090022A800D90029F80089002A080039066
:0320330000002288
:106842006E6B726F20616464206F7574206F6620B6
:1068520072616E676520253032780D0A006E6B72A8
:106862006F2064656C206F7574206F662072616E94
:0A687200676520253032780D0A001A
:026D97000000FA
:10203600900281E4F0900282F0900283F090028494
:10204600F0900285F0900286F022AF82900281EF36
:10205600F022C009858109C082C083E5812406F586
:1020660081E5092403FDE5092408F87600E509243D
:10207600FDF886027B00C005C003C002C002C00393
:10208600A8090886820886831265DFAC8215811549
:1020960081D002D003D005E5092408F8E62DF9E53C
:1020A600092408F806BC0A0050088C0774302FFF74
:1020B6008013E50924FAF8E660047E4180027E6119
:1020C600EC2E24F6FFA707C005C002C003A8090826
:1020D60086820886831262EFA80908A68208A6836C
:1020E60015811581D005A80908E608466003022077
:1020F60073E5092408F88607E5092408F88606E545
:102106000924FCF8C3EE965019E50924FBF88682EB
:10211600C007C006C005122447D005D006D0070E5A
:1021260080DDEF60151FEF2DF987068E82C007C090
:1021360005122447D005D00780E8850981D00922F9
:10214600C0098581090581A80908E50924FCF6E589
:102156000924FCF88682088683E493FEEE70030267
:10216600236FBE250280088E82122447022354E57F
:102176000924FCF806B600020806E50924FCF886E0
:10218600040886058C828D83E493FB7E207A00BB4F
:10219600301C7E30E50924FCF874012CF6E43D0879
:1021A600F6E50924FCF88682088683E493FBBB31B6
:1021B600004023EB24C6401E8B05ED24D0FAE5092A
:1021C60024FCF806B600020806E50924FCF8868217
:1021D600088683E493FBBB000302236FBB2503023F
:1021E600233DBB580302230FBB63028019BB640265
:1021F600806BBB73028027BB75030222B3BB7803D7
:102206000222E1022345A80908E624FEFDA80908E2
:10221600A6058D0187058D82122447022354A8093D
:1022260008E624FDFDA80908A6058D01870609878D
:102236000509870419198E828D838CF01265C3FFF8
:1022460070030223540EBE00010D8F82C006C00526
:10225600C004122447D004D005D00680D9A80908A6
:10226600E624FEFFA80908A6078F01870509870748
:1022760019EF30E71D75822DC007C006C005C002E4
:10228600122447D002D005D006D007C3E49DFDE452
:102296009FFFE4C0E0C006C002740AC0E08D828FD2
:1022A60083122058E58124FCF581022354A80908ED
:1022B600E624FEFFA80908A6078F018705098707F8
:1022C60019E4C0E0C006C002740AC0E08D828F83A4
:1022D600122058E58124FCF5818073A80908E624BC
:1022E600FEFFA80908A6078F01870509870719E4D5
:1022F600C0E0C006C0027410C0E08D828F83122039
:1023060058E58124FCF5818045A80908E624FEFFEE
:10231600A80908A6078F018705098707197401C050
:10232600E0C006C002C4C0E08D828F83122058E54B
:102336008124FCF5818017758225122447800F754C
:102346008225C003122447D0038B82122447E50955
:1023560024FCF806B600020806E50924FCF8868285
:10236600088683E493FE0221621581D00922900338
:102376000A7401F02290030AE06010900308E0FF5F
:10238600900309E0FEEFB506028004C2088002D27F
:1023960008A208E433F58222AF82D310AF01C3C08E
:1023A600D0900308E0FE0E53067F900309E0FDEE91
:1023B600B505028014900308E02488F582E434020F
:1023C600F583EFF0900308EEF0D0D092AF2212041E
:1023D600FFE582700790030AE4F0806490030AE048
:1023E600605E900308E0FF900309E0FEEFB5060289
:1023F600804E1204C0E58260477F00BF2000503641
:10240600900309E0FE900308E0FDEEB50502802684
:10241600EF240BFDE43403FE0F900309E02488F556
:1024260082E43402F583E08D828E83F0900309E026
:1024360004547FF080C5C00790030B1204DB15819E
:102446002212239E2212244722740AC0E090032BF4
:10245600124D74AF8215818F8222C009E581F5097C
:10246600240CF581900333E0FF7E00900332E0FDFB
:102476007C00900331E0FBE5092403F8A603087607
:1024860000900330E0FBA80908A603087600900335
:102496002FE0FBE5092405F8A60308760090032E35
:1024A600E0FBE5092407F8A60308760090032DE073
:1024B600FBE5092409F8A60308760090032CE0FB47
:1024C600E509240BF8A60308760090032BE0FB7AB7
:1024D60000C007C006C005C004E5092403F8E6C02D
:1024E600E008E6C0E0A80908E6C0E008E6C0E0E5C6
:1024F600092405F8E6C0E008E6C0E0E5092407F887
:10250600E6C0E008E6C0E0E5092409F8E6C0E00810
:10251600E6C0E0E509240BF8E6C0E008E6C0E0C046
:1025260003C002747CC0E07468C0E0122146E581F5
:1025360024ECF581900334E0FF7E00C007C00674EA
:10254600D0C0E07468C0E0122146E58124FCF58124
:10255600850981D00922900335E4F01224601262C5
:102566003B740AC0E090032B124E1A158112624288
:10257600229003357401F022900335E060031225A2
:022586005C22D5
:10687C0073657474696E6773206C653D253032786E
:10688C00206C623D25303278206C733D2530327897
:10689C00206C633D253032782075653D253032788B
:1068AC002075623D253032782075733D2530327865
:1068BC00206261743D253032782072663D2530327D
:1068CC00780D0A0073657474696E67732075736A4A
:0A68DC0069733D253032780D0A0083
:10258800C009858109AF82BF00028038BF0102807F
:1025980005BF02308017E50924FCF886821262DD47
:1025A800AF82E50924FBF8E62FF5828036E5092499
:1025B800FDF886821262E6AF82E50924FBF8E62F71
:1025C800F582801FE50924FCF8E6C0E0E50924FD52
:1025D800F886821262B6AF821581E50924FBF8E617
:1025E8002FF582D00922C009E581F5092406F58175
:1025F800AF82BF55005064E50924FBF8A90909E634
:10260800F708E609F708E609F78F03EB75F003A466
:10261800D394FFF4FBA8090886820886830886F00D
:10262800EB12633BA80908740126FAE40836FB0894
:1026380086068A828B838EF0E412633BA8090874AD
:102648000226FCE40836FD088606EF75F003A48C24
:10265800828D838EF012633B022729BFAA00506641
:102668008F06EE24ABFFE50924FBF8A90909E6F774
:1026780008E609F708E609F7A809088682088683A4
:102688000886F0E412633BA809080426FAE4083631
:10269800FD088606EF75F003A48A828D838EF012FA
:1026A800633BA80908740226FCE40836FD08860680
:1026B8008F03EB75F003A4D394FFF48C828D838E83
:1026C800F012633B805BEF2456FFE50924FBF88694
:1026D80004088605088606EF75F003A48C828D83AE
:1026E8008EF012633BE5092404F874012CF6E43DEE
:1026F80008F608A606EF75F003A4D394FFF4FFE5E7
:10270800092404F886820886830886F0EF12633B62
:1027180074022CFCE43DFD8C828D838EF0E4126300
:102728003B850981D00922C009E581F5092406F510
:1027380081AF82BF0360E50924F7F88602088603A3
:10274800088607E5092404F874012AF6E43B08F62C
:1027580008A60774022AFCE43BFD8F068C828D8351
:102768008EF0E50924FAF8E612633BE5092404F83B
:1027780086820886830886F0E50924FAF9E7126359
:102788003B8A828B838FF0E50924FAF8E612633BD3
:102798007582010228DCBF04004006758200022809
:1027A800DCE50924FBF8E6C0E0E50924FCF8E6C00E
:1027B800E0E50924FDF8E6C0E08F82122588AF82A3
:1027C800158115811581E50924F7F8E6C0E008E6CA
:1027D800C0E008E6C0E08F821225EE15811581154C
:1027E80081E50924F7F886050886060886078D829C
:1027F8008E838FF01265C3FC7B00E50924FAF8A9E3
:102808000909E6F7097700C007C006C005A8090846
:10281800E6C0E008E6C0E08C828B83126356AC8386
:1028280015811581D005D006D0078C038D828E8343
:102838008FF0EB12633BE5092404F874012DF6E4EC
:102848003E08F608A607E5092404F8868208868368
:102858000886F01265C3FC7B00C007C006C005A847
:102868000908E6C0E008E6C0E08C828B8312635654
:10287800AC8315811581D005D006D0078C03E509F6
:102888002404F886820886830886F0EB12633B747A
:10289800022DFDE43EFE8D828E838FF01265C3FC0F
:1028A8007B00C007C006C005A80908E6C0E008E626
:1028B800C0E08C828B83126356AC8315811581D05E
:1028C80005D006D0078C038D828E838FF0EB1263C0
:1028D8003B758201850981D00922C009858109AF2C
:1028E80082BF031DE50924F8F886040886050886D2
:1028F800068C828D838EF074FF12633B7582018093
:102908005ABF040040057582008050E50924FBF891
:10291800E6C0E0E50924FCF8E6C0E0E50924FDF896
:10292800E6C0E08F82122588AF8215811581158156
:10293800E50924F8F88604088605088606BF80009D
:102948005005EF2FFB800774FFC39F25E0FB8C82A7
:102958008D838EF0EB12633B758201D009229003C0
:1029680036E4F0A3F0900338F0900339F022E582C2
:10297800604B900338E06011900338E4F090033620
:10298800F0A3F0900339F08034900336E0FEA3E022
:10299800FFC3EE9408EF94525023900336E02401CD
:1029A800FEA3E03400FF900336EEF0EFA3F0C3EE91
:1029B8009408EF945240069003397401F022900372
:1029C800387401F022AF82BF01028005BF02168071
:1029D8000C900339E024FFE433F582800BA201E474
:1029E80033F58280037582002290033A740AF0124C
:1029F8004C6590000A12335790028175F00012401E
:102A0800E8E5826008900285E06002800F90000A85
:102A180012335790033AE014F0E070D3221251FCBD
:102A2800AF82C0071229CDE582D007700ABF010224
:102A3800805F1229C6805A900339E4F0BF0203046C
:102A48008001E4B4010092085007C021124C1CD048
:102A580021C021122B2ED021C021126249D021C0C1
:102A68002112527DD021A208E433F582C021123B05
:102A780022D021C021125284D021C0211261DED07F
:102A880021C021122B32D0213008031229F112293A
:102A9800C62290033B7401F090033CE4F0123BBB68
:102AA80022D310AF01C3C0D090033DE0FEA3E0FFE6
:102AB800D0D092AF8E828F8322758200123BD012C3
:102AC800180890033DE0FEA3E0FF90033D74012E3B
:102AD800F0E43FA3F022758201123BD01259A3E41F
:102AE800C0E0900281F5F01259D3AF821581C0077A
:102AF800125A96D0078F821229762290033BE06003
:102B08000E90033BE4F090033CF0122AC1801612A9
:102B18002ADE90033CE02401FFF0BF01004006904C
:102B2800033B7401F022123BE622123BE922900398
:102B380034E0B40100B39208E433F58222E58290D0
:102B48000372F022122B36E5826006900372E07061
:102B580004C2088002D208A208E433F58222AF82B8
:102B6800C007122B36AE82D007EEB50702801AEFE7
:102B780060047E0180027E00900334EEF0C00712EC
:102B88002577D0078F8212541222900371E0FFE05C
:102B98006008E4BF020104FF8007122B36AE828E64
:102BA80007EF24FFE433F58222AF82C007122B928D
:102BB800AE82D007EEB50702802090036FE0601068
:102BC800EF60047E0280027E01900371EEF0800ABD
:102BD800900371E4F08F82122B6622122B92E58209
:102BE800B401009208E433F582122BB1227F0090E1
:102BF800036FE0FEC3EF9E5023EF75F004A4243F5B
:102C0800FD740335F0FE74022DFDE43EFE8D828EC8
:102C180083E0600575820180060F80D375820022EB
:102C2800121EC6AF825307DD90036FE0FEE0606BB3
:102C3800EE14FDC2D575F004ED30E704B2D5F40406
:102C4800A430D50AF42401C5F0F43400C5F0243FBB
:102C5800FC740335F0FD74022CFCE43DFD8C828D80
:102C680083E060371EC2D575F004EE30E704B2D5B4
:102C7800F404A430D50AF42401C5F0F43400C5F0F6
:102C8800243FFD740335F0FE74032DFDE43EFE8DF4
:102C9800828E83E0600B4307028006900370E04257
:102CA800078F8222122C28121EE122AF8290036F16
:102CB800E0FE1E8E05ED20E732C2D575F004ED303A
:102CC800E704B2D5F404A430D50AF42401C5F0F41D
:102CD8003400C5F0243FF582740335F0F583E0B580
:102CE80007048E8280081D8D0680CA7582FF22AF78
:102CF800828F06EE04FD90036FE0FCC3ED9C5058F4
:102D08000EC2D575F004EE30E704B2D5F404A43051
:102D1800D50AF42401C5F0F43400C5F0243FFD744D
:102D28000335F0FE7B00EF75F004A4243FF974032B
:102D380035F0F87A00C0077404C0E0E4C0E0C005CC
:102D4800C006C003898288838AF01264D6E581248C
:102D5800FBF581D0070F8099EC1490036FF022C027
:102D680009858109AF827E007D00BD14005030EDD9
:102D780075F004A424E6FB746835F0FC8B828C8320
:102D8800E493B507158B828C83A3E493FCE50924AF
:102D9800FDF8E6B504048E8280080D8D0680CB759B
:102DA80082FFD0092290036FE07018900371E0FF52
:102DB800E06010E4BF020104FF900371E4F08F8229
:102DC800122B662290036FE4F0122CAC122DAD2268
:102DD800C00985810905810581AE82AF838E048F84
:102DE80005BCE105BD00028006BCE548BD00458E76
:102DF800035303078BF005F07401800225E0D5F03A
:102E0800FBFBE50924FDF8E66008900370E04BF051
:102E18008009EBF4FB900370E05BF0122BF5E58280
:102E28007006758201022FF7122CAC1219427582B6
:102E380000022FF7C3EC9404ED9400400774A49C9F
:102E4800E49D5006758201022FF7E50924FDF8E696
:102E58007003022F7A90036FE0FFBF0C00400675E5
:102E68008201022FF7900370E0B401009208B3E4E6
:102E780033FFC007C006122B4CE582D006D007608E
:102E880015C007C006C0078E82122D67AD82158156
:102E9800D006D00780027DFFC00790036FE0FC04D6
:102EA800F0EC75F004A4ABF0243FFCEB3403FB8C8E
:102EB800828B83EEF074022CFAE43BFFBDFF03D350
:102EC8008001C39208B392098A828F83A209E433EE
:102ED800F0A8090874012CF6E43B08F6D00720088E
:102EE8001CC007ED75F004A424E6FA746835F0FFF9
:102EF8008A828F83A3A3E493FAD00780028E02A864
:102F080009088682088683EAF074032CFCE43BFBFC
:102F180020081DC004ED75F004A424E6FA74683591
:102F2800F0FC8A828C83A3A3A3E493FED0048002DE
:102F38008F06EE24FFE4338C828B83F0BDFF1012E2
:102F48002BF5E5826003122CAC758201022FF71273
:102F58002CACA809088682088683E0FFC007900287
:102F68004475F000121DE2158112194275820002A3
:102F78002FF78E82122CB3E582FF30E705758201A8
:102F8800806DC2D575F004EF30E704B2D5F404A41F
:102F980030D50AF42401C5F0F43400C5F0243FFD0F
:102FA800740335F0FE8D828E83A3A3E0FC8D828EA0
:102FB80083A3E0FE8F82C006C004122CF7D004D091
:102FC80006EC7012122BF5E5826003122CAC122D60
:102FD800AD7582018019C006122CAC90024475F0C0
:102FE80000121E2B1581121942122DAD7582008513
:052FF8000981D009224F
:1068E60035012E011F012F0023012E002401230153
:1068F6002501340126012501270126012D018701E5
:106906002E002D012E0133012F0030002F01300102
:106916003000320030013201310087003101890137
:10692600330134003400240134011F0135002F01E6
:102FFD00AF838F0653061F7FE0EE30E3047FE3803F
:10300D000EEE30E2047FE28006EE30E1027FE1EE6B
:10301D0030E4068F0674042EFF7E008F828E83228D
:10302D00E58275F007A42473FE740335F0FF8E82DC
:10303D008F837402F08E828F83A3A3A3E0FEA3E09F
:10304D00FF8E828F83122FFDAE82AF837401C0E09D
:10305D008E828F831217AB158122C009858109AF2E
:10306D00827E007D00BD0200503FC006ED75F00769
:10307D00A42473FB740335F0FC8B028C068A828EBC
:10308D0083E0D006601E8B828C83A3E0B507158B81
:10309D00828C83A3A3E0FCE50924FDF8E6B50404C6
:1030AD008E8280080D8D0680BC758202D00922C0EB
:1030BD0009858109AF82C007E50924FDF8E6C0E066
:1030CD008F82123067AE821581D007E50924FAF898
:1030DD00E670030231CE7D00BD0200502EED75F07D
:1030ED0007A42473F582740335F0F583E0FCBC016D
:1030FD0017EDB5060280118D82C007C006C00512FE
:10310D00302DD005D006D0070D80CDE50924FBF874
:10311D00860408860574E02D5009C374FF9C743F26
:10312D009D50067582000232967D00BD0200506DE5
:10313D00ED75F007A42473FB740335F0FC8B068C3E
:10314D00028E828A83E070528E828A837401F08BA4
:10315D00828C83A3EFF08B828C83A3A3E50924FDDE
:10316D00F8E6F08B828C83A3A3A3E50924FBF8E694
:10317D00F008E6A3F074052BFFE43CFEC007C00683
:10318D00122AA9AA82AC83D006D0078F828E83EA39
:10319D00F0ECA3F07582010232960D808EE50924C4
:1031AD00FBF88682088683122FFDAD82AF837401F2
:1031BD00C0E08D828F831217AB15817582010232AB
:1031CD0096BE0241E50924FBF8860508860774E0E2
:1031DD002F502CC374FF9D743F9F4023E50924FBA2
:1031ED00F88682088683122FFDAD82AF83E4C0E09E
:1031FD008D828F831217AB15817582010232967500
:10320D008200023296EE75F007A42473FE74033526
:10321D00F0FF8E048F058C828D83E0FBBB01368E13
:10322D00828F83A3A3A3E0FB7A00C005C004C00373
:10323D00C0027401C0E08B828A831217AB1581D056
:10324D0002D003E4C0E08B828A831217AB1581D0C4
:10325D0004D005802B8E828F83A3A3A3E0FEA3E071
:10326D00FF8E828F83C005C004122FFDAE82AF8307
:10327D00E4C0E08E828F831217AB1581D004D00588
:10328D008C828D83E4F0758201D00922122AA9AEB9
:10329D0082AF837D00BD02005048ED75F007A42478
:1032AD0073FB740335F0FC8B828C83E0FABA012F2B
:1032BD008B828C83A3A3A3A3A3E0FBA3E0FCEEC3AB
:1032CD009BFBEF9CFCC3EB941DEC940140118D8294
:1032DD00C007C006C00512302DD005D006D0070D91
:1032ED0080B3227910E9440060237A017B977C6DCD
:1032FD007D5D7E058C838B82E493A3AB82AC838E44
:10330D00838D82F0A3AD82AE83D9E9DAE7758200B1
:10331D0022AE82AF83BE0005BF0003801A0F80135B
:10332D0075B100000000000000000000000000006A
:10333D00000000DEEBDFE922AE82AF83EE4F7002BC
:10334D0080078E828F8312331E22AE82AF838E044E
:10335D008F051EBEFF011FEC4D60109003E8C007E6
:10336D00C006123345D006D00780E322C2AF75F0F8
:10337D00A5745A02FF00758F0122900381E5B1F00B
:01338D00221D
:05016500900393E4F09B
:10338E00C009858109AE82AF83E50924FBF8E6C04A
:10339E00E0E50924FCF8E6C0E008E6C0E0C006C09F
:1033AE000775820112349EE58124FBF581D0092236
:1033BE00C009858109AE82AF837D00E50924FDF841
:1033CE00C3ED965030ED2EF582E43FF583E0FC7BA5
:1033DE0000C007C006C005C004C0037436C0E07448
:1033EE0069C0E0122146E58124FCF581D005D006A6
:1033FE00D0070D80C6D00922900393E0FFBFFF02D5
:10340E00802312237BE582601C900393E0F58212E9
:10341E00368AE582700890039374FFF0800790035C
:06342E0093E02401F022EE
:0569360025303278005D
:03016A007508FF16
:1034340075080253A8FB3275080353A8F7327508C0
:103444000453A8EF3275080553A8DF3275080653F4
:10345400A8BF3275080953A9FB3275080A53A9F7A6
:103464003275080B53A9EF3275080C53A9DF327576
:10347400080D53A9BF3274FFB50802801CAF08754C
:1034840008FF7E00C007C006743BC0E07469C0E05A
:0A349400122146E58124FCF5812297
:10693B00554E5553454420494E542025752C2073F4
:10694B006F757263652064697361626C65640D0AAF
:01695B00003B
:10349E00C009858109AF82D310AF01C3C0D0EF60E0
:1034AE00027401FF8FA77F00E50924F9F8C3EF9698
:1034BE00502E8F06E50924FCF886040886057B004D
:1034CE00EE2CFCEB3DFDE50924FAF8EF26FBE408B3
:1034DE0036FE8C828D83E4938B828E83F00F80C8B0
:1034EE0075A700D0D092AFD00922C009858109AF4F
:1034FE0082D208D310AF01C3C0D0EF60047F018029
:10350E00027F008FA77F00E50924F9F8C3EF9650DC
:10351E00388F06E50924FCF886040886057B00EE44
:10352E002CFCEB3DFD8C828D83E493FEE50924FAA1
:10353E00F8EF26F582E40836F583E0FDEEB50502D8
:10354E008004C20880030F80BE75A700D0D092AF52
:10355E00A208E433F582D00922C009858109AF8221
:10356E00D310AF01C3C0D08FA7E50924FCF808869D
:10357E00F7E50924FCF886FBE50924FAF886FCE554
:10358E000924FBF886F275F30575F40A75F50975CD
:10359E00F606000000000075F70075A700D0D09267
:1035AE00AFD00922C0098581090581E582600274C8
:1035BE0001FFA80908A6077E00E50924F9F8C3EE65
:1035CE00965043E50924FAF8EE26F582E40836F51E
:1035DE0083E0FD8E04E50924FCF886020886037F4D
:1035EE0000EC2AFAEF3BFBC006C005746EC0E0C0CB
:1035FE0002C003A809088682123567E58124FCF50E
:10360E0081D0060E80B31581D00922C009858109AB
:10361E00E58260027401FFE4C0E074E6C0E0E509F3
:10362E0024FCF8E6C0E008E6C0E08F82123567E5BC
:10363E008124FCF581D0092275B20875BC02E5BC67
:10364E0020E20575B10080F643BC0143B204227F2F
:10365E0000BFC8005004000F80F722D310AF01C383
:10366E00C0D043B20843BC0275B10012365D75BCC2
:10367E000375B20C75B100D0D092AF22E582FF2453
:10368E00FA5003023894EF2F2F90369B730236AD0B
:10369E000236F20237370237AF0237F40238387487
:1036AE0005C0E07482C0E07403C0E09012091233CA
:1036BE008E158115811581745CC0E07469C0E012AD
:1036CE002146158115817405C0E09003821233BE28
:1036DE0015817462C0E07469C0E01221461581152F
:1036EE00810238997405C0E07482C0E07403C0E0B2
:1036FE0090127B12338E1581158115817465C0E091
:10370E007469C0E0122146158115817405C0E090E0
:10371E0003821233BE15817462C0E07469C0E01278
:10372E002146158115810238997404C0E07482C057
:10373E00E07403C0E090100012338E1581158115D0
:10374E0081746AC0E07469C0E0122146158115814A
:10375E007404C0E09003821233BE15817402C0E07F
:10376E007482C0E07403C0E090100412338E158191
:10377E0015811581746FC0E07469C0E01221461581
:10378E008115817402C0E09003821233BE158174DC
:10379E0062C0E07469C0E0122146158115810238BD
:1037AE00997404C0E07482C0E07403C0E090103CD1
:1037BE0012338E1581158115817475C0E07469C040
:1037CE00E0122146158115817404C0E09003821227
:1037DE0033BE15817462C0E07469C0E012214615D3
:1037EE008115810238997411C0E07482C0E07403AF
:1037FE00C0E090100A12338E1581158115817479EF
:10380E00C0E07469C0E0122146158115817411C0A3
:10381E00E09003821233BE15817462C0E07469C0F9
:10382E00E01221461581158180617404C0E0748216
:10383E00C0E07403C0E090100612338E158115811E
:10384E0015817404C0E07486C0E07403C0E090116A
:10385E000012338E158115811581747EC0E0746956
:10386E00C0E0122146158115817408C0E0900382D4
:10387E001233BE15817462C0E07469C0E012214635
:0F388E00158115818005758200800375820122E6
:10695C005041525420000D0A00554944200043492F
:10696C00442000204F504E2000534E2000534543EE
:07697C0020004F50542000E1
:10389D00C009858109C082C083C0F0E50924FDF807
:1038AD00E624EF40327C00E50924FDF8C3EC965088
:1038BD0026EC2420FAE43411FBA80908EC26FDE4DB
:1038CD000836FE0886078D828E838FF01265C38AB7
:1038DD00828B83F00C80D0850981D00922C00985A7
:1038ED008109C082C083C0F0E50924FDF8E624BF3C
:1038FD0040327C00E50924FDF8C3EC965026EC24FB
:10390D0080FAE43411FBA80908EC26FDE40836FE24
:10391D000886078D828E838FF01265C38A828B8312
:10392D00F00C80D0850981D009227F00BFFF0050A7
:10393D0012E59930E20D900028C007123345D007EB
:10394D000F80E9227F00BFFF005012E59A30E20D93
:10395D00900028C007123345D0070F80E9227596D5
:10396D000075945F7595117591C043A901227596E7
:10397D000053913B53A9FE22C009858109AD82AE4A
:10398D0083AFF0C007C006C005123937D005D00689
:10399D00D007E50924FDF8E6C0E08D828E838FF017
:1039AD0012389D1581539CE0E50924FDF8E6429CF3
:1039BD00439904D00922C009858109AD82AE83AF38
:1039CD00F0C007C006C005123951D005D006D0078A
:1039DD00E50924FDF8E6C0E08D828E838FF0123864
:1039ED00EA1581539D80E50924FDF8E6429D439A31
:1039FD0004D009222222E59A03035401B401009256
:103A0D0008E433F58222C009858109AE82AF839027
:103A1D0011807407F07D00BD2000502C8D040CEC3E
:103A2D002480FBE43411FCE50924FDF8C3ED965028
:103A3D000CED2EF582E43FF583E0FA80027A008BDF
:103A4D00828C83EAF00D80CF539D80439D21439A54
:103A5D0004D00922C021C0E0C0F0C082C083C007DD
:103A6D00C006C005C004C003C002C001C000C0D064
:103A7D0075D000AF86AEA7C007C006120764D0068A
:103A8D00D0078EA78F86D0D0D000D001D002D00322
:103A9D00D004D005D006D007D083D082D0F0D0E0AE
:103AAD00D0210200B422E5827005439101800312FA
:103ABD0003542253B2FB53BCFE53BCFD53B2F72249
:103ACD00AF8243948553927AEF700575A9018006F4
:103ADD0075A900538FFE2200758E55438702000095
:103AED000000000022AF825392FD5391FE9003948B
:103AFD00E06008439102900394E4F0EF700A75942E
:103B0D005F43A901C201800C438F019001F4123370
:103B1D004512031622AF82C007123AB3123AC0D033
:103B2D00078F82C007123ACD75B100900394E4F06F
:103B3D00123AE4123669D0078F82123AF222C0216E
:103B4D00C0E0C0F0C082C083C007C006C005C0047D
:103B5D00C003C002C001C000C0D075D000123B929E
:103B6D009003947401F0D0D0D000D001D002D003D6
:103B7D00D004D005D006D007D083D082D0F0D0E0CD
:103B8D00D0210200B475E80022123B9275BAF3758C
:103B9D00B640D2A922C2A9123B9222AE82AF83C2F5
:103BAD00CA8F058DCB8ECA8DCD8ECCD2CA22C2CAFC
:103BBD0075C80075C90090FCDF123BA8C2CFD2A812
:103BCD00D2CA22E58270067E377FFF80047EDF7FBA
:103BDD00FC8E828F83123BA822C2A822D2A822C0BB
:103BED0021C0E0C0F0C082C083C007C006C005C0C0
:103BFD0004C003C002C001C000C0D075D000C2CF48
:103C0D00122B03D0D0D000D001D002D003D004D0DD
:103C1D0005D006D007D083D082D0F0D0E0D02102DD
:103C2D0000B432C009858109C082C083C0F0C2854D
:103C3D0043E120C285900003123345C2FC43D110ED
:103C4D00C2FCE50924FBF8E66068D310AF01C3C0E0
:103C5D00D07B007C00E50924FCF8C3EB96EC648076
:103C6D000886F063F08095F05042A80908EB26FA1B
:103C7D00EC0836FE0886078A828E838FF01265C3A4
:103C8D00F582C007C006C004C003C002123DBAAD24
:103C9D0082D002D003D004D006D0078A828E838FC3
:103CAD00F0ED12633B0BBB00AC0C80A9D0D092AFF2
:103CBD00805B7E007F00E50924FCF8C3EE96EF647F
:103CCD00800886F063F08095F05042A80908EE2632
:103CDD00FBEF0836FC0886058B828C838DF0126510
:103CED00C3F582C007C006C005C004C003123DBAAB
:103CFD00AA82D003D004D005D006D0078B828C8346
:103D0D008DF0EA12633B0EBE00AC0F80A953D1EFCC
:103D1D00D2FC53E17FD28753E1DFD285850981D073
:103D2D000922C009858109AD82AE83AFF0A2B2E44C
:103D3D0033FCC004E4C0E0E50924FCF8E6C0E0086B
:103D4D00E6C0E08D828E838FF0123C301581158197
:103D5D001581D0047F00BF3200501FA2B2E433B5ED
:103D6D00040280057582018014900003C007C00411
:103D7D00123345D004D0070F80DC758200D00922A4
:103D8D00C009858109AD82AE83AFF07401C0E0E555
:103D9D000924FCF8E6C0E008E6C0E08D828E838F32
:103DAD00F0123C30158115811581D00922AF827E2C
:103DBD00007D00BD0800502DEE2EFEC2B743E580FC
:103DCD00C2B7EF30E70753E17FD2878007C2874341
:103DDD00E180C28730860343060153E57FD2B7EFFA
:083DED002FFF0D80CE8E822213
:10016D009003E1E4F09003E204F09003E3E4F090F7
:10017D0003E4F09003E5F09003E6F09003E7F090D0
:10018D0003E8F09003E9F09003EAF09003EBF090B0
:10019D0003ECF09003F0E4F09003F1F09003F2F033
:0C01AD009003F3F09003F4F09003F5F0E1
:103DF500E5829003B8F022E5829003B9F022AF8204
:103E05009003B8E060057582008016EF6005758245
:103E150000800E9003B9E06005758200800375820D
:103E25000122AF8290055FE0FEEFB50603023EF486
:103E350090055FEFF07E007D00ED90698393FC6057
:103E450017BE0F005012EE24BAFAE43403FB0E8AB3
:103E5500828B83ECF00D80E1EE04FDEE24BAF58251
:103E6500E43403F583742DF0ED04FEED24BAFDE48E
:103E75003403FC74302F8D828C83F0EE24BAF582E6
:103E8500E43403F583E4F0C00674BAC0E07403C0FB
:103E9500E0E4C0E0758200124B2C15811581158177
:103EA500900032123357D0068E077E00EE90698956
:103EB50093FD6012EF24BAFBE43403FC0F8B828C74
:103EC50083EDF00E80E6EF24BAF582E43403F58342
:103ED500E4F074BAC0E07403C0E0E4C0E0758201A8
:103EE500124B2C1581158115819000321233572202
:103EF500C009858109058105819000FF123357901E
:103F050000FF1233579000FF1233579000FF123312
:103F1500579000FF1233579000FF123357A9090934
:103F25007F0AEF603CC007C001124C65D001D00785
:103F35008F057E008D828E83C007C001123357D056
:103F45000189047D007E408C828D838EF0C0011234
:103F550044CFE582D001D0076004E720E7031F8046
:103F6500C1758201123E277582001242F8850981CA
:103F7500D00922AF82C007E4C0E08F821245C81580
:103F850081900014123357D007E4C0E08F821245A8
:103F9500C81581227582021249819000C8123357D3
:103FA500758200124AE0900064123357124C1C903F
:103FB50000C8123357123EF59000C812335722AE8F
:103FC50082AF8374072EF582E43FF583E09003DF2B
:103FD500F08E828F83E09003D8F08E828F83A3A327
:103FE500E09003D9F08E828F83A3A3A3E09003DA38
:103FF500F08E828F83A3A3A3A3E09003DBF08E82D0
:104005008F83A3A3A3A3A3E09003DCF074062EF58E
:1040150082E43FF583E09003DDF09003DE7401F068
:10402500124029229003DEE0700280129003D875B9
:10403500F000124641E58260059003DEE4F022AE11
:1040450082AF83D2087D01BD15005012ED2EFBE431
:104055003FFC8B828C83E06002C2080D80E930084A
:10406500217D00BD0600500FED24D2F582E4340316
:10407500F583E4F00D80EC9003D275F00012464113
:10408500801B74022EFCE43FFD8E828F83A3E0FF2C
:10409500C004C0058F821247B61581158122AE82F4
:1040A500AF83E0FDBD01028005BD0236801A8E8218
:1040B5008F83A3E0FCA3E0FDC004C00590000012BF
:1040C5004A0A15811581801A8E828F83A3E0FEA38B
:1040D500E0FFE4C0E0C0E08E828F83124A0A1581BA
:1040E500158122C009858109C082C083C0F0058180
:1040F5000581E5092404F9FA7B007C408A828B83DB
:104105008CF0C0011244CFE582D0017005F5820222
:104115004202E720E707C001124C65D001A8090853
:10412500740226FAE40836FB088604870753070756
:104135008A828B838CF0EF12633BA80908860508F9
:1041450086060886070987045304078D828E838FA8
:10415500F0EC12633BA80908740426FDE40836FE5A
:10416500088607E7A2E3E4338D828E838FF012631E
:104175003BA80908740526FDE40836FE088607E70E
:10418500C454018D828E838FF012633BA809087495
:104195000326FDE40836FE088607E72354018D82D1
:1041A5008E838FF012633BA80908740126FDE4088D
:1041B50036FE0886078D828E838FF01265C3FC87D5
:1041C50003530360EBC4035407FB8D828E838FF08A
:1041D50012633BECB5030280218D828E838FF01232
:1041E50065C3FD7F00C005C0077490C0E07469C059
:1041F500E0122146E58124FCF5817582018509815E
:10420500D00922AD82AE83AFF0900563E02401F0C2
:10421500A3E03400F0900563E0FBA3E0FCC3EB945E
:10422500D0EC940750030242F7900563E4F0A3F045
:1042350074052DFAE43EFB8F048A828B838CF01281
:1042450065C3900565F08D828E838FF0C007C0062B
:10425500C0051240E8E582D005D006D007700302FC
:1042650042F774052DFAE43EFB8F048A828B838C1A
:10427500F01265C3FC6018900565E0701290056149
:10428500E4F0A3F0900560E0F582123F788063903A
:104295000561E0FAA3E0FB900561E0F5F0A3E045D8
:1042A500F0600F1ABAFF011B900561EAF0EBA3F06D
:1042B500804074042DF9E43EFA8F0389828A838B4A
:1042C500F01265C37003EC601A0DBD00010E8D82FE
:1042D5008E838FF01265C3FD900560E0FFEDB50795
:1042E50002800F900560E0FFE4C0E08F821245C8B0
:1042F500158122E582FF60098F82C007123E27D013
:1043050007900560EFF0C007E4C0E08F821245C852
:104315001581900014123357D007E4C0E08F821244
:1043250045C8158122758201124A959000141233F1
:1043350057758201124A95229003E07401F09003AB
:10434500B5E4F09003B6F0229003B6E0FF7002806A
:104355002AEF20E0067DE17E0380047DE77E037C75
:1043650000EF149003B6F09003B77401F08D828EC0
:10437500838CF01246419003B7E4F022C009858191
:1043850009058105810581AF82900560EFF0C007C1
:104395007401C0E08F821245C815819003EFE4F0E7
:1043A500900064123357D007E50924FCF886050808
:1043B5008606E5092403F8760AE5092403F8E6707C
:1043C500030244A8C007C006C005124C6590000A48
:1043D5001233579003ED75F0001244CFE582D005F6
:1043E500D006D007700302448D9003EDE0FB20E773
:1043F5000302448DC0078D828E83A3A3530307EB6D
:10440500F08D028E039003EEE0FF5307078A828B3F
:1044150083EFF074042DFBE43EFF9003EEE0A2E38E
:10442500E4338B828F83F074052DFBE43EFF90030C
:10443500EEE0C454018B828F83F0A8090874032D24
:10444500F6E43E08F69003EEE0235401FCA80908C3
:104455008682088683ECF0A8090874012DF6E43EEF
:1044650008F69003EEE05460C4035407FCA809085D
:104475008682088683ECF08B828F83E0D007600804
:104485009003EF7401F0801B900014C007C006C0B4
:1044950005123357D005D006D007E5092403F816D1
:1044A5000243BE9003EFE06011900032C007123363
:1044B50057D0078F82123F78800A9005617458F0B3
:1044C5007402A3F0850981D00922AD82AE83AFF0D5
:1044D500C007C006C005124BD390006412334512C5
:1044E5004554D005D006D007900395E0FCBCBB022F
:1044F5008008124C657582008054C007C006C0054F
:104505007402C0E0E4C0E0900397F5F0124CAEAC45
:104515008215811581D005D006D007900396E0B5A8
:1045250004028008124C657582008022900397E092
:104535008D828E838FF012633B0DBD00010E9003BB
:1045450098E08D828E838FF012633B7582012290F5
:10455500039574FFF0900396F0900397F0900398FD
:10456500F07404C0E0E4C0E0900395F5F0123D8DD1
:104575001581158122C009858109AD82AE83AFF011
:104585007C00BC05005036C007C006C005C004E568
:104595000924FCF8E6C0E008E6C0E08D828E838F32
:1045A500F0123D2FAB8215811581D004D005D006C0
:1045B500D007EB600575820180060C80C575820009
:1045C500D00922C009858109AF8290039574AAF0AC
:1045D5009003967403F09003977401F0900398E5A7
:1045E5000924FDF8E6F0900399EFF07405C0E0E4C6
:1045F500C0E0900395F5F0124CAEAF8215811581A0
:1046050090039AEFF07406C0E0E4C0E0900395F5DE
:10461500F0123D2F15811581D00922AF829003B785
:10462500E060028016EF60079003B6E4F0800C901E
:1046350003B5E060069003B67406F022C0098581D3
:104645000905810581AD82AE83AFF09003E0E0609E
:104655000A9003E0E4F07DF07E03FF90039574AAD1
:10466500F0900396741DF09003977402F08D828E7E
:10467500838FF01265C3900398F074012DFAE43E20
:10468500FB8F048A828B838CF01265C3900399F0AB
:1046950074022DFAE43EFB8F048A828B838CF01220
:1046A50065C390039AF074032DFAE43EFB8F048AE8
:1046B500828B838CF01265C390039BF074042DFAF2
:1046C500E43EFB8F048A828B838CF01265C39003D2
:1046D5009CF074052DFAE43EFB8F048A828B838C53
:1046E500F01265C390039DF07C00A809087600A828
:1046F5000908B606005029C004A80908E62DFAE401
:104705003EFB8F048A828B838CF01265C3D00460D4
:10471500047C01800BA80908A90909E604F780CFE4
:1047250074F0C0E07403C0E0E4C0E08D828E838F36
:10473500F01200DE1581158115817003FF8005904B
:1047450003DFE0FF90039EEFF07F0ABF1F00500FCD
:10475500EF2495F582E43403F583E4F00F80ECC093
:1047650004741FC0E0E4C0E0900395F5F0124CAE70
:10477500AF82158115819003B4EFF07420C0E0E499
:10478500C0E0900395F5F012457AAF821581158149
:10479500D004EC24FFE433F582C007C004124620A0
:1047A500D004D0079003B5ECF08F82850981D0093C
:1047B50022C009858109AF8290039574AAF0900300
:1047C50096741DF09003977402F0900398EFF090A3
:1047D5000399E4F090039AF090039BF090039CF00A
:1047E50090039DF0EFB40100B39208E433FF70200D
:1047F500FEBE1400501AE50924FCF8EE26FCE40878
:1048050036FD8C828D83E060047F0180030E80E19C
:10481500EF24FFE433FEF582C007C006123E03AD68
:104825008290039EEDF0E50924FCF88604088605D0
:104835008C828D83E090039FF08C828D83A3E09022
:1048450003A0F08C828D83A3A3E09003A1F08C825A
:104855008D83A3A3A3E09003A2F08C828D83A3A3F1
:10486500A3A3E09003A3F08C828D83A3A3A3A3A3AA
:10487500E09003A4F074062CF582E43DF583E09006
:1048850003A5F074072CF582E43DF583E09003A6BB
:10489500F074082CF582E43DF583E09003A7F074ED
:1048A500092CF582E43DF583E09003A8F0740A2C09
:1048B500F582E43DF583E09003A9F0740B2CF582B5
:1048C500E43DF583E09003AAF0740C2CF582E43DF9
:1048D500F583E09003ABF0740D2CF582E43DF58390
:1048E500E09003ACF0740E2CF582E43DF583E09086
:1048F50003ADF0740F2CF582E43DF583E09003AE33
:10490500F074102CF582E43DF583E09003AFF0746C
:10491500112CF582E43DF583E09003B0F074122C80
:10492500F582E43DF583E09003B1F074132CF58234
:10493500E43DF583E09003B2F09003B3E4F0741F17
:10494500C0E0E4C0E0900395F5F0124CAEAD8215E1
:104955008115819003B4EDF07420C0E0E4C0E090CF
:104965000395F5F012457A15811581D0068E8212D0
:104975004620D0079003B5EFF0D00922AF8290030F
:104985009574AAF09003967403F0900397F0900342
:1049950098EFF0900399E4F07405C0E0E4C0E0906E
:1049A5000395F5F0124CAEAF821581158190039AEF
:1049B500EFF07406C0E0E4C0E0900395F5F0123D19
:1049C5002F158115812290039574AAF09003967492
:1049D50001F09003977404F014C0E0E4C0E0900384
:1049E50095F5F0124CAEAF8215811581900398EFC5
:1049F500F07404C0E0E4C0E0900395F5F0123D2F9B
:104A05001581158122C009858109AE82AF83900386
:104A15009574AAF0900396740BF09003977405F0C3
:104A2500900398E4F0900399F090039AF090039B1B
:104A3500F090039CF090039DF08E0590039EEDF0A1
:104A45008F0690039FEEF0E50924FCF88607900396
:104A5500A0EFF0E50924FCF80886079003A1EFF024
:104A6500740DC0E0E4C0E0900395F5F0124CAEAFD4
:104A750082158115819003A2EFF0740EC0E0E4C0A9
:104A8500E0900395F5F012457A15811581D009223C
:104A9500AF8290039574AAF09003967403F0900387
:104AA5009723F0900398EFF0900399E4F07405C014
:104AB500E0E4C0E0900395F5F0124CAEAF821581AD
:104AC500158190039AEFF07406C0E0E4C0E090030E
:104AD50095F5F0123D2F1581158122AF8290039532
:104AE50074AAF09003967403F09003977407F090FE
:104AF5000398EFF0900399E4F07405C0E0E4C0E09A
:104B0500900395F5F0124CAEAF8215811581900397
:104B15009AEFF07406C0E0E4C0E0900395F5F0125A
:104B25003D2F1581158122C009858109AF8290032A
:104B35009574AAF0900396741DF09003977408F08D
:104B4500900398EFF0E50924FBF88605088606082A
:104B550086077C057B008D828E838FF01265C3FAF4
:104B6500601ABC1F005015EC2495F582E43403F55A
:104B750083EAF00DBD00010E0C0B80DA900399EB72
:104B8500F0BC1F00500FEC2495F582E43403F58347
:104B9500E4F00C80EC741FC0E0E4C0E0900395F5F0
:104BA500F0124CAEAF82158115819003B4EFF0740D
:104BB50020C0E0E4C0E0900395F5F0123D2F15818B
:104BC50015819000141233571249CBD00922900356
:104BD5009574AAF09003967403F0900397740AF005
:104BE500900398E4F0900399F07405C0E0E4C0E008
:104BF500900395F5F0124CAEAF82158115819003A7
:104C05009AEFF07406C0E0E4C0E0900395F5F01269
:104C15003D2F158115812290039574AAF090039676
:104C25007403F0900397740BF0900398E4F09003ED
:104C350099F07405C0E0E4C0E0900395F5F0124CDE
:104C4500AEAF821581158190039AEFF07406C0E02E
:104C5500E4C0E0900395F5F0123D2F1581158122F2
:104C650090039574AAF09003967403F090039774DB
:104C75000CF0900398E4F0900399F07405C0E0E41B
:104C8500C0E0900395F5F0124CAEAF821581158109
:104C950090039AEFF07406C0E0E4C0E0900395F548
:104CA500F0123D2F1581158122C009858109C08229
:104CB500C083C0F07C007A007B00E50924FCF8C3C2
:104CC500EA96EB64800886F063F08095F0501FA8A3
:104CD5000908EA26FDEB0836FE0886078D828E83D5
:104CE5008FF01265C32CFC0ABA00CF0B80CC74552B
:0A4CF500C39CF582850981D00922D5
:10698300416972373500204254332E30007266203D
:106993006C696E6B206368616E67656420253032B5
:0469A300780D0A0061
:076D9900FF000000000000F4
:104CFF00C009858109AE82AF837D007C00E5092460
:104D0F00FDF8C3EC96500EEC2EF582E43FF583E0F0
:104D1F002DFD0C80E88D82D00922AF82C00774036D
:104D2F00C0E074F6C0E07403C0E0E4C0E074ECC00F
:104D3F00E075820012349EE58124FBF581D0079047
:104D4F0003F6E0FEBE5A119003F7E0FEBEA50990F0
:104D5F0003F8E0B507028004C2088002D208A20857
:104D6F00E433F58222C009858109AE82AF83E5095C
:104D7F0024FDF88682C007C006124D29E582D006B1
:104D8F00D0077005F582024E17C007C006E509244B
:104D9F00FDF8E6C0E0C006C0077403C0E074ECC0C5
:104DAF00E075820012349EE58124FBF581E509242C
:104DBF00FDF886057C0074032DFD74EC3CFC74013A
:104DCF00C0E074F6C0E07403C0E0C005C004758293
:104DDF000012349EE58124FBF581D006D0079003A5
:104DEF00F6E0FDC005E50924FDF8E6C0E08E828FF0
:104DFF0083124CFFAF821581D005EDB50703D38029
:104E0F0001C39208E433F582D00922C009858109D4
:104E1F00AE82AF83E50924FDF88682C007C0061273
:104E2F004D29E582D006D0076030C007C006E509DE
:104E3F0024FDF8E6C0E0C006C0077403C0E074ECC0
:104E4F00C0E07582001234F8AD82E58124FBF58154
:104E5F00D006D007ED6003024F23C007C006E4C0A1
:104E6F00E074ECC0E075820012361915811581903F
:104E7F0003F6745AF09003F7F4F09003F8E5092461
:104E8F00FDF8E6F07403C0E074F6C0E07403C0E010
:104E9F00E4C0E074ECC0E07582001235B2E5812405
:104EAF00FBF581D006D007C007C006E50924FDF841
:104EBF00E6C0E0C006C0077403C0E074ECC0E07544
:104ECF0082001235B2E58124FBF581D006D007E5CB
:104EDF000924FDF8E6C0E08E828F83124CFFAF826B
:104EEF0015819003F6EFF0E50924FDF886077E00A3
:104EFF0074032FFF74EC3EFE7401C0E074F6C0E043
:104F0F007403C0E0C007C0067582001235B2E58198
:104F1F0024FBF581D0092243902043983F43A03FC3
:104F2F004388072243E22043E33F43E43F43E6073E
:104F3F002253EADF53E2DF53EBC053E3C053ECC01D
:104F4F0053E4C053EEF853E6F822E582FF24F05005
:104F5F0003024FC7EF2F904F6973801E802080226E
:104F6F00802480268028802A802C802E80308032DA
:104F7F00803480368038803A803CC288803AC2893B
:104F8F008036C28A8032C2A5802EC2A4802AC2A3D4
:104F9F008026C2A28022C2A1801EC2A0801AC29DFA
:104FAF008016C29C8012C29B800EC29A800AC29940
:104FBF008006C2988002C29522E582FF24F050033A
:104FCF00025036EF2F904FD873801E8020802280A2
:104FDF002480268028802A802C802E80308032806A
:104FEF003480368038803A803CD288803AD28980AB
:104FFF0036D28A8032D2A5802ED2A4802AD2A38024
:10500F0026D2A28022D2A1801ED2A0801AD29D8049
:10501F0016D29C8012D29B800ED29A800AD299808F
:10502F0006D2988002D29522E5F8540FFFE5882525
:10503F00E0FE74305E4F44C0F582225380E35390FC
:10504F00F153B08453887FE5C075C00022125063BE
:10505F001250B722758C0575A500758C4575A60085
:10506F00758C8575BB00758CC5758D00758C00753D
:10507F00E11C75E22E75E33F75E43F75E57B75E640
:10508F008775E7FF43EA0175EE7875D98FA2FDB3F7
:10509F0092FE43D14043F81043B0804380A043E9D0
:1050AF00E043ED8443D9102290FF9C7401F090FFF0
:1050BF0098E4F090FF9D04F090FF99E4F090FF9E2C
:1050CF0004F090FF9AE4F075DE01F5DDF5D5F5D229
:1050DF00F5C3F5CEF5D6F5D3F5C4F5C1F5D7F5D4AF
:1050EF00F5C5F5C290FFBDF090FFA5F090FFEDF074
:1050FF0090FFD5F090FFBCF090FFA4F090FFECF084
:10510F0090FFD4F090FFBBF090FFA3F090FFEBF077
:10511F0090FFD3F090FFBAF090FFA2F090FFEAF06B
:10512F0090FFD2F090FFB9F090FFA1F090FFE9F05F
:10513F0090FFD1F090FFB8F090FFA0F090FFE8F053
:10514F0090FFD0F090FFC3F090FFABF090FFF3F023
:10515F0090FFDBF090FFC2F090FFAAF090FFF2F00B
:10516F0090FFDAF090FFC1F090FFA9F090FFF1F0FF
:10517F0090FFD9F090FFC0F090FFA8F090FFF0F0F3
:10518F0090FFD8F090FFBFF090FFA7F090FFEFF0E7
:10519F0090FFD7F090FFBEF090FFA6F090FFEEF0DB
:1051AF0090FFD6F090FFC9F090FFB1F090FFF9F0AB
:1051BF0090FFE1F02243D901C28843E6017F007ED0
:1051CF0000BE1000501875B1009001F4C007C00662
:1051DF00123345D006D00720F8010F0E80E3D28896
:1051EF0053E6FE53D9FEBF100312337922208D04EC
:1051FF007F0180027F028F822253EADF53E2DF5367
:10520F00EBC053E3C053ECC053E4C053EEF853E686
:10521F00F843E6475388B843E43F53A0C043E33F06
:10522F005398C043E2285390D153E9E343E11C5311
:10523F0080E353EE7F43E6C053883FE5EF75EF0001
:10524F00E5E775E7FFE5C075C00053ED8443E57BE7
:10525F0053B08453EE9F53E69F53889F53E57F537C
:10526F00E15F53D1EFD28ED293C2FED2FF22125200
:10527F0008123B9622123BA2C28543E120C285123F
:10528F00506322A28DE4339003F9F0A28EE43390A1
:10529F0003FAF09003FAE0F58212628E1215429033
:1052AF0003FAE0F582123DF59003FAE0B4010092A3
:1052BF0008E433F582122B4522AF829003F9EFF009
:1052CF00BF00028017BF012F74A7C0E07469C0E050
:1052DF001221461581158112432A801B74B2C0E03A
:1052EF007469C0E012214615811581900333E0F5F2
:1052FF00821242F812433D22AF828F069003FAEFDB
:10530F00F08F82C007C00612628E121542D006D0EF
:10531F0007EF60067DBC7F6980047DC77F69C0068B
:10532F00C005C00712214615811581D0068E82C097
:10533F0006123DF5D006EEB401009208E433F58273
:10534F00122B4522A28DE433FF9003F9E0FE8F0567
:10535F00EDB506099003FBE4F0A3F080289003FB62
:10536F00E02401F0A3E03400F09003FBE0A3E0C3DE
:10537F00940140119003FBE4F0A3F0EF24FFE4331A
:10538F00F5821252C8A2FDB392FEA28EE433FF90B3
:10539F0003FAE0FE8F05EDB506099003FDE4F0A3D7
:1053AF00F080289003FDE02401F0A3E03400F0909A
:1053BF0003FDE0A3E0C3940140119003FDE4F0A3CB
:1053CF00F0EF24FFE433F58212530722AE82AF834E
:1053DF00BE4005BF7E028027BE4105BF7E02801002
:1053EF00BE4205BF7E02800DBE4314BF7E11800AF0
:1053FF00758201800D7582028008758203800375A6
:10540F0082002212579722C009858109AE82AF838D
:10541F00C007C006E50924FDF8E6C0E08E828F8341
:10542F00122DD8AD821581D006D007ED7005F5820B
:10543F0002565AC3EE9440EF947E5003025657C360
:10544F0074509E747E9F50030256578E048F05EC46
:10545F0024C0FC240A83F582EC241583F583E473BE
:10546F0084848484DCF814304C68A2B2C227374796
:10547F009155555555545455555555545454565694
:10548F005654E50924FDF8E66003122BE3758200FC
:10549F0002565AE50924FDF89003FFE6F0758200E5
:1054AF0002565AE50924FDF8900400E6F0758200D3
:1054BF0002565AE50924FDF8E6600C900400E060FE
:1054CF00061257B8123F9975820002565AE5092401
:1054DF00FDF8E6600E9003FFE0600512591280039D
:1054EF0012587D75820002565AE50924FDF8E660D0
:1054FF000E9003FFE0600512592B8003125896752A
:10550F00820002565AE50924FDF8E6600E9003FF6B
:10551F00E0600512594480031258B3758200025699
:10552F005AE50924FDF8E6600E9003FFE0600512CE
:10553F00596080031258CF75820002565AE509242C
:10554F00FDF8E6600E9003FFE0600512597C8003C2
:10555F001258EB75820002565AE50924FDF8E660F1
:10556F000E9003FFE0600512599080031258FF75EB
:10557F00820002565A9003F9E06003025622E509B1
:10558F0024FDF8E660728E828F83C007C006125327
:10559F00DBAD828D037C00C005C003C00474D2C094
:1055AF00E07469C0E0122146E58124FCF581D00545
:1055BF008D82C0051242F8D005900333EDF0C0057F
:1055CF00122577D005D006D007900282EDF0900219
:1055DF00857401F0900286F0900568EEF0EFA3F06D
:1055EF00122AA9E5828583F0900566F0E5F0A3F015
:1055FF0090056A7401F0801B900568E0FCA3E0FD44
:10560F00ECB5060FEDB5070B900568E4F0A3F0902D
:10561F00056AF07582008033E50924FDF8E6600322
:10562F001257907582008023E50924FDF8E6600388
:10563F001257A57582008013E50924FDF8E6600373
:10564F001257AF7582008003758201D00922AE8296
:10565F00AF839003F9E0FD600CBD01108E828F8344
:10566F0012037A80078E828F83123FC422AE82AFDD
:10567F00839003F9E0FD600CBD01108E828F8312C1
:10568F0003A180078E828F8312404422AE82AF83A4
:10569F009003F9E0FD600CBD01108E828F83120321
:1056AF00C880078E828F831240A3229003F9E06097
:1056BF000302575390056AE0700302574490056840
:1056CF00E0F5F0A3E045F0606C122AA9AE82AF833B
:1056DF00900566E0FCA3E0FDEEC39CFEEF9DFFC3CB
:1056EF00EE9430EF9411404D900568E0FEA3E0FF7B
:1056FF008E828F831253DBAF828F057E00C007C06F
:10570F0005C00674EAC0E07469C0E0122146E58165
:10571F0024FCF581D007900286E4F0900285F074A6
:10572F0081C0E07402C0E08F821243811581158120
:10573F0090056AE4F090028175F000124208124061
:10574F002912434D90056BE02401F0A3E03400F0E3
:01575F002227
:1069A7005553425F4D4F44450D0A0052465F4D4FC8
:1069B70044450D0A004D41435F4D4F44450D0A00C4
:1069C70057494E5F4D4F44450D0A007266206C696A
:1069D7006E6B2073656C656374656420253032784F
:1069E7000D0A007266206C696E6B207061697269AE
:0A69F7006E6720253032780D0A008B
:076DA00000000000000000EC
:1057600090032BE4F090032C14F090032D7404F0BC
:1057700090032FE4F090033014F09003317401F0A3
:10578000900332E4F090033304F0900334E4F02209
:1057900090055974C8F022AF8290055BEFF0900538
