:0600000002010C02294E72
:03000B000228AF19
:0300130002243391
:03001B0002243A82
:0300230002244173
:03002B0002244864
:0300330002244F55
:03003B000227CBCE
:03004300022991FE
:03004B0002245636
:0300530002245D27
:03005B0002246418
:0300630002246B09
:03006B00022472FA
:100070000000E2FBEAF2802C0000E0FBEAF08024C2
:10008000E6B50202EBF62200E2B50202EBF2220034
:10009000E0B50202EBF02230F6E0A88220F5D3EAC8
:1000A000C6F582228B822230F6E6A88220F5D9801E
:0100B000CF80
:0301B4000200B195
:0300B10002020444
:1001B70012242C122428122621123EB712281C12B0
:1001C7003D50121346121D971202D612441C1223D9
:1001D70001D2AF22121DBDE582700312436C0243A8
:1001E700C3900285E0F582123014900285E09002F8
:1001F70077F090027A7401F090027BF0221201B737
:10020700123F83122C511201DB1203AA12444D1222
:1002170001E81221D475B100123FDF1242E912162C
:100227003F12459F1203F1121DEC12229080E61235
:1002370003F8AF82BF010690027CE07004C2088019
:1002470002D208A208E433F58222AF83024292AFBA
:10025700830242AFC009858109AF82900004EFF0A5
:10026700900005E50924FCF8E6F008E6A3F0900005
:10027700041242CCD00922AE82AF83900000E0FC8A
:10028700A3E0FDEEB50405EFB5050122900000EEF1
:10029700F0EFA3F0C006C00775820112025B15815B
:1002A700158122AE82AF83900002E0FCA3E0FDEE51
:1002B700B50405EFB5050122900002EEF0EFA3F0BB
:1002C700C006C00775820212025B15811581229054
:1002D700020CE4F090020DF090020EF090020FF085
:1002E700900210F0C200C201900212E4F0900211D5
:1002F700F0900207F0A3F0900209F0A3F0A3F090AA
:100307000213F0A3F0900215F002273390020CE4D9
:10031700F090020DF090020EF090020FF090021094
:10032700F0C200C201900212E4F0900211F002271D
:1003370043AE82AF83C007C0061203FFE582D00633
:10034700D0077001227D007408C0E08E828F838DF4
:10035700F012274D158122AE82AF83C007C0061267
:1003670003FFE582D006D0077001227D007416C016
:10037700E08E828F838DF012278B158122AE82AF9C
:1003870083C007C0061203FFE582D006D0077001BD
:10039700227D007403C0E08E828F838DF012278B3D
:1003A7001581227E007F008E048F05C3EC94A0ED9B
:1003B700940F503575B100900215E0600D9002134F
:1003C700E0F5F0A3E045F0700B22C3EC94F4ED9454
:1003D70001400122900001C007C0061223FCD0068D
:1003E700D0070EBE00C10F80BE2230020302241EBA
:1003F7002290020FE0F5822290020CE0FFBF020379
:10040700D38001C39208E433F58222C009E581F560
:10041700092408F581D310AF01C3C0D0AF090F7EFF
:10042700007D408F828E838DF012131ED0D092AF45
:10043700AF090F8F018706EF04F987058E04BC000B
:1004470002802DBC0103020529BE0203020589BEF5
:1004570021030205DEBE80030204E7BE8103020515
:1004670047BE82030205C0BEA10302062802065842
:10047700BD01028014BD03028021BD0502802EBD8F
:100487000702803BBD0950803C8F037C007E408B78
:10049700828C838EF012077F02065E8F037C007EBC
:1004A700408B828C838EF01207C202065E8F037C1C
:1004B700007E408B828C838EF012073802065E1214
:1004C70009B502065E8F037C007E408B828C838E8B
:1004D700F01208E802065E43970843970202065E99
:1004E700BD0002800ABD06028017BD082C80248F3C
:1004F700037C007E408B828C838EF01209BC02063F
:100507005E8F037C007E408B828C838EF0120B18EB
:1005170002065E120FC002065E4397084397020267
:10052700065EBD0B128F037C007E408B828C838E10
:10053700F012094F02065E43970843970202065ED0
:10054700BD0002800ABD06028017BD0A2C80248FD9
:10055700037C007E408B828C838EF01209FB02069F
:100567005E8F037C007E408B828C838EF0120B188B
:1005770002065E120FD802065E43970843970202EF
:10058700065EBD01028005BD032680128F037C0035
:100597007E408B828C838EF012080502065E8F03E5
:1005A7007C007E408B828C838EF012088502065E6B
:1005B70043970843970202065EBD00128F037C0033
:1005C7007E408B828C838EF0120A5702065E439719
:1005D7000843970202065EBD0902800ABD0A02802F
:1005E70016BD0B3580228F037C007E408B828C8367
:1005F7008EF0120FF480608F037C007E408B828C1C
:10060700838EF012108D804F8F037C007E408B828B
:100617008C838EF01210C4803E4397084397028064
:1006270036BD0102800ABD0202800ABD031B800A93
:10063700120FED80221210B2801D7E007D408F8246
:100647008E838DF012111E800E4397084397028008
:1006570006439708439702850981D00922AF92AED6
:1006670093EF70030206F5EF30E3275392F79002FA
:1006770013E0FCA3E0FD900213E0F5F0A3E045F0E2
:10068700600D1CBCFF011D900213ECF0EDA3F0C23E
:1006970001225392EF53929FEF30E70653927F0266
:1006A70002D6EF30E4145392EF90021374F4F0740F
:1006B70001A3F0900215F0020412EF30E204539206
:1006C700FB22EF30E10E5392FD90020CE0FDBD02DC
:1006D7005FD20122EF30E0585392FE439120000091
:1006E700000000005391DF1202D643970122EE600B
:1006F7003FEE30E6075393BF439A0122EE30E504FD
:100707005393DF22EE30E40A5393EF12115F4397BE
:100717000122EE30E2065393FB0227CAEE30E106D0
:100727005393FD0227C9EE30E0065393FE0211A34F
:1007370022AD82AE83AFF0900212E4F074022DFD79
:10074700E43EFE8D828E838FF01250A5FBA31250DC
:10075700A54B600890020C7401F0800590020CE430
:10076700F08D828E838FF01250A590020DF0539B6F
:10077700F043970243970422AD82AE83AFF0900215
:1007870012E4F08D028E038F048A828B838CF01221
:1007970050A5540F701E74022DFDE43EFE8D828E0F
:1007A700838FF01250A5FDA31250A5FEBD0105BE13
:1007B7000002C200539BF043970422AD82AE83AF81
:1007C700F0900212E4F08D028E038F048A828B83ED
:1007D7008CF01250A5540F701E74022DFDE43EFEDE
:1007E7008D828E838FF01250A5FDA31250A5FEBDFA
:1007F7000105BE0002D200539BF043970422AE824C
:10080700AD83AFF0900212E4F08E028D038F048A5D
:10081700828B838CF01250A5FA53020FBA025874D8
:10082700022EFAE43DFB8F048A828B838CF01250F0
:10083700A5FAA31250A54A703E74042EFEE43DFDAE
:100847008E828D838FF01250A5FEA31250A5FF4E06
:1008570070085397F75397FD801DBE8108BF0005A9
:100867005399F78012BE8208BF0005539AF7800795
:1008770043970843970222539BF043970422AD8284
:10088700AE83AFF0900212E4F08D028E038F048ADC
:10089700828B838CF01250A5FA53020FBA0234747C
:1008A700042DFDE43EFE8D828E838FF01250A5FD50
:1008B700A31250A5FEBD8108BE0005439908801A02
:1008C700BD8208BE0005439A08800F4397084397E7
:1008D70002800743970843970222539BF0439704EC
:1008E70022AE82AD83AFF0900212E4F090020DE0E9
:1008F700604974022EFEE43DFD8E828D838FF012D7
:1009070050A5FEA31250A5FF4E600A8E048F05BCAA
:100917000121BD001E90020EEEF0EE600890020C61
:100927007402F0800690020C7401F0539BF0439719
:1009370004800E439708439702800643970843971E
:1009470002539BF043970422AE82AD83AFF090022F
:1009570012E4F074022EFAE43DFB8F048A828B8343
:100967008CF01250A5FAA31250A54A703A74042EBF
:10097700FEE43DFD8E828D838FF01250A5FEA312FB
:1009870050A5FF4E700A539BF043970443970222EA
:10099700BE010DBF000A539BF04397044397022201
:1009A70043970843970222439708439702224397A6
:1009B7000843970222AD82AE83AFF0900212740211
:1009C700F08D828E838FF01250A5540F701F300068
:1009D700089011087402F08005901108E4F0901156
:1009E70009E4F0539BF0439B024397042243970883
:1009F70043970222AE82AD83AFF08E028D038F0440
:100A07008A828B838CF01250A5FA53020FBA0139F0
:100A170074042EFEE43DFD8E828D838FF01250A567
:100A2700FEA31250A5FF4E6006BE0116BF0013902D
:100A37001108E4F0901109F0539BF0439B02439790
:100A470004224397084397022243970843970222B9
:100A5700AD82AE83AFF08D028E038F048A828B83C3
:100A67008CF01250A5FA53020FBA02028003020B50
:100A77001174042DFDE43EFE8D828E838FF012509B
:100A8700A5FDA31250A5FEBD801BBE0018AC975351
:100A97000402E4A2E713CC13CC901108ECF09011F8
:100AA70009E4F0805BBD8127BE0024AC995304089C
:100AB700E423CCC423541F6CCC541FCC6CCC30E43F
:100AC7000244E0901108ECF0901109E4F08031BD88
:100AD7008227BE0024AE9A530608E423CEC42354CB
:100AE7001F6ECE541FCE6ECE30E40244E090110844
:100AF700EEF0901109E4F08007439708439702222C
:100B0700539BF0439B024397042243970843970262
:100B170022C009858109C082C083C0F0E581240B0A
:100B2700F581A80908740226FAE40836FB0886044A
:100B37008A828B838CF01250A5FAA31250A5FC8AE7
:100B470007BC01547C007A009051ECE493FDA3E4C8
:100B570093FE8D828E83E493FF7B00C3EC9FEA9B19
:100B6700501EEC2407FBEA3400FFEC2DF582EA3E29
:100B7700F583E4938B828F83F00CBC00CB0A80C88B
:100B87007D077E007F00900007E0FBE5092404F85D
:100B9700A603087600020F6FBC02028003020D3421
:100BA7009051F0E493FBC3EF9B4003020D34905147
:100BB700F1E493FAA3E493FBEF75F002A42AF5821C
:100BC700EB35F0F583E493FFA3E493FE74092FFD5F
:100BD700E43EFCE509240DF876000876008F828E46
:100BE70083E5092406F8E493F6E5092406F8860266
:100BF7007B00E509240DF8C3E69A08E69B503EE51D
:100C070009240DF8E5092407F9E62407F708E6346F
:100C17000009F7E509240DF8E62FF58208E63EF509
:100C270083E493FBE5092407F88682088683EBF0C3
:100C3700E509240DF806B60002080680A0E5092498
:100C470006F8E5092409F9E62407F7E4340009F76B
:100C5700E5092407F8A60508A604E509240DF87692
:100C670000087600E5092407F88682088683E4935E
:100C7700FFA3E493FE8F828E83E493FB7A00E5095A
:100C8700240DF8C3E69B08E69A5034E5092409F8D1
:100C9700E509240DF9E726FD09E70836FCE50924EF
:100CA7000DF8E62FF58208E63EF583E4938D828CF6
:100CB70083F0E509240DF806B60002080680A58F23
:100CC700828E83E493FBE5092409F8EB26F6E40812
:100CD70036F6E5092407F8740226F6E40836F6E541
:100CE700092407F88682088683E493FAA3E4934AE3
:100CF7006003020C61900009E0FAA3E04A7017E56F
:100D0700092409F8E6C39407FA08E69400FB900063
:100D170009EAF0EBA3F07D077E007F00900009E56C
:100D2700092404F8E0F6A3E008F6020F6FE4BC0319
:100D37000104FB604CEF7049FDFC9051E2E493FA2B
:100D47007F00C3ED9AEC9F5020ED2407FFEC3400A1
:100D5700FEED24E2F582EC3451F583E4938F828E25
:100D670083F00DBD00D40C80D17D077E007F0090FD
:100D77000007E0FAE5092404F8A602087600020F46
:100D87006FEB7003020E59C0047E00EF24FFFDEEE7
:100D970034FFFB9051F3E493FA7C00C3ED9AEB64C4
:100DA700808CF063F08095F0D0044003020E5990D8
:100DB70051F4E493FDA3E493FCEF24FFFAEE34FF30
:100DC700FBEA2AFAEB33FBEA2DF582EB3CF583E4E9
:100DD70093FEA3E493FD9000077402F090000804CB
:100DE700F0E509240BF874012408F6E4340008F64A
:100DF7008E828D83E493FF60418F030EBE00010D49
:100E0700E509240BF88682088683EBF0E509240BB5
:100E1700F8740126FAE40836FB8A828B83E4F0E54E
:100E270009240BF874012AF6E43B08F6900007E062
:100E3700FB0B0B900007EBF080B67D077E007F0071
:100E4700900007E0FBE5092404F8A60308760002F2
:100E57000F6FBC224CA80908740426FFE40836FE6D
:100E67000886058F828E838DF01250A5FA70137D48
:100E7700C17E507F80E5092404F8764E087600028B
:100E87000F6FBA01137D0F7E517F80E5092404F8A7
:100E97007676087600020F6F439708439702020F92
:100EA700BABC21028003020F67A80908740426FA56
:100EB700E40836FB0886048A828B838CF01250A5DF
:100EC700FC7048FDFC9051A0E493FB7A00C3ED9BB6
:100ED700EC9A5020ED2407FFEC3400FEED24A0F53A
:100EE70082EC3451F583E4938F828E83F00DBD003D
:100EF700D40C80D17D077E007F00900007E0FBE5E2
:100F0700092404F8A603087600805DBC014A7F0027
:100F17007E009051B9E493FA7C00C3EF9AEE9C509F
:100F270020EF2407FBEE3400FCEF24B9F582EE3402
:100F370051F583E4938B828C83F00FBF00D40E802E
:100F4700D17D077E007F00900007E0FCE5092404BF
:100F5700F8A6040876008010439708439702805349
:100F6700439708439702804BA80908740626FBE4B9
:100F77000836FA0886048B828A838CF01250A5FB08
:100F8700A31250A5FCE5092404F8C3EB96EC0896D8
:100F9700400AE5092404F88603088604C003C00450
:100FA7008D828E838FF01211CC158115811211F26B
:100FB700439704850981D009229002127402F090A8
:100FC700020EE0901108F0539BF0439B01439704F6
:100FD700229002127402F0901108E4F0539BF04340
:100FE7009B014397042243970843970222C0098530
:100FF7008109C082C083C0F0A80908740226FBE4F7
:101007000836FA0886048B828A838CF01250A5FB77
:10101700A31250A5FABA02028005BA035D804DA853
:101027000908740426FDE40836FE0886078D828EBB
:10103700838FF01250A5FDA31250A54D7042A80949
:1010470008740626FDE40836FE0886078D828E831F
:101057008FF01250A5FDA31250A5FEBD0122BE00C0
:101067001F9002127404F04397018014BB0511907E
:1010770002127405F04397018006439708439702CD
:10108700850981D00922AD82AE83AFF074022DFDB0
:10109700E43EFE8D828E838FF01250A5A31250A5D9
:1010A700900211F0539BF043970422900211E090B5
:1010B7001108F0539BF0439B0143970422AD82AE86
:1010C70083AFF074042DFBE43EFA8F048B828A838E
:1010D7008CF01250A5FBA31250A5FC4B701874029C
:1010E7002DF8E43EF98F02888289838AF01250A591
:1010F70090020FF0801ABB0117BC001474022DFD7B
:10110700E43EFE8D828E838FF01250A5900210F080
:10111700539BF043970422AE82AD83AFF074042E45
:10112700FEE43DFD8E828D838FF01250A5FEA31243
:1011370050A5FF4E700A90020FE0901108F0800E44
:10114700BE010BBF0008900210E0901108F0539BFE
:10115700F0439B0143970422900212E0FFBF04155E
:10116700900212E4F0901100E0F582121DB1539B3A
:10117700F043970422BF0518900212E4F090110083
:10118700E0FFBF0516901101E0FFBF750ED20222E6
:10119700900212E4F0539BF043970422900212E06E
:1011A700FFBF010A1211F243970443970122BF02BE
:1011B70007439701439708224397084397019002F3
:1011C7000DE0F59622C009858109AFF0AE83E5826F
:1011D700900209F0EEA3F0EFA3F0E50924FCF890E4
:1011E7000207E6F008E6A3F0D00922900207E0FE26
:1011F700A3E0FF4E700D9002127402F0539BF0852E
:101207009B9B228E048F05C374089CE49D505890C5
:1012170002127401F0900209E0F9A3E0FAA3E0FBDF
:101227007408C0E089828A838BF01212D1158190ED
:101237000207E0FAA3E0FBEA24F8FAEB34FFFB909D
:101247000207EAF0EBA3F0900209E0F9A3E0FAA3A2
:10125700E0FB900209740829F0E43AA3F0EBA3F04D
:10126700539BF0439B0822BC0831BD002E9002120D
:101277007401F0900209E0FBA3E0FCA3E0FD740811
:10128700C0E08B828C838DF01212D11581900207FA
:10129700E4F0A3F0539BF0439B08229002127402E0
:1012A700F0900209E0FCA3E0FDA3E0FFC0068C82FA
:1012B7008D838FF01212D11581539BF0900207E0B6
:1012C700FEA3E0AD9BEE4DF59B22C009858109C0C9
:1012D70082C083C0F0E50924FDF8E624F740327C9C
:1012E70000E50924FDF8C3EC965026EC2408FAE43F
:1012F7003411FBA80908EC26FDE40836FE0886072A
:101307008D828E838FF01250A58A828B83F00C809A
:10131700D0850981D00922AD82AE83AFF07C00BCB5
:101327000800501AEC2DF9E43EFA8F038C8275837E
:0F13370011E089828A838BF0124EB00C80E12284
:1050C10005010906A101050719E029E715002501D8
:1050D100750195088102750895018101050719007F
:1050E10029FF150026FF0075089505810005FF09B8
:1050F1000375089501810205081901290515002587
:1051010001750195059102750395019101C0050194
:105111000980A101850119812983150025017501E6
:105121009503810295058101C0050C0901A1018545
:105131000219002A3C021500263C027510950181D6
:1051410000C00600FF0901A1018505190129021509
:105151000026FF0075089505B102C005010906A1E9
:10516100018506050719E029E71500250175019557
:1051710008810205071900299F1500250175019570
:10518100A08102C01201100100000008AC054F020D
:1051910000000102030109040000010301010009EB
:1051A1002111010001224E000705810310000109B0
:1051B1000401000103000000092111010001227610
:1051C100000705820340000109020000020100A05E
:1051D100FA9751A051A951B051B951C2510000C91A
:1051E1005104030904F651FA510652855100000198
:1051F100E05103E651534D4B004169723735202888
:0A520100534D4B29003030303100CE
:10134600900237E4F0900238F0900236F0FFBF10BA
:1013560000501BEF2416F582E43402F583E4F0EF27
:101366002426F582E43402F583E4F00F80E022E5DA
:1013760082900238F022C009858109AE82AF83903F
:101386000237E0FDE070068E828F838045ED75F0B2
:10139600C0A42438FC745235F0FDE50924FDF8E6B6
:1013A600C42354E02CFCE43DFDE50924FCF8E626C4
:1013B6002CF582E43DF583E493FCA3E493FD8C02D3
:1013C6008D03BA0105BB000280048C068D078E8250
:1013D6008F83D00922C009858109AE82AF838E042E
:1013E6008F05C3EC94E0ED9400404574E79CE49DC2
:1013F600403EE50924FDF8E660198E0374075BF5A7
:10140600F005F07401800225E0D5F0FBF582121C90
:101416005980178E0374075BF5F005F0740180029E
:1014260025E0D5F0FBF582121C621217140214D3C4
:10143600C3EC9404ED9400403474A49CE49D402DC8
:10144600E50924FDF8E660118E03C00390023975A4
:10145600F000121B6F1581800F8E03C003900239B6
:1014660075F000121BB815811217148060C3EC9436
:10147600A5ED9400402974A79CE49D4022E509242B
:10148600FDF8E6600D8E038B82121CADAA82AB833B
:1014960080047A007B008A828B8312027E802EC3B0
:1014A600EC94A8ED9400402574C29CE49D401EE592
:1014B6000924FDF8E6600B8E82121CCEAE82AF8345
:1014C60080047E007F008E828F831202AAD00922BA
:1014D600C009858109AF82900238E075F0C0A42466
:1014E60038FD745235F0FEEFC42354E02DFDE43E82
:1014F600FEE50924FDF8E6262DF582E43EF583E4B3
:1015060093FDA3E493FE8D038E04C3EB9420EC9429
:1015160052403A743F9B74529C4032E50924FCF8D1
:10152600E660148D0453041F900237ECF08C82128F
:101536004E5C12174B804090023975F000121C0168
:10154600900237E4F075820012174B802AE50924D1
:10155600FDF8E6C0E0C0078D828E8312137CAE8252
:10156600AF8315811581E50924FCF8E6C0E08E827B
:101576008F831215801581D00922C009858109AE95
:1015860082AF83C007C006E50924FDF8E6C0E08EF9
:10159600828F8312409AAD821581D006D007ED70F6
:1015A600028031C007C006E50924FDF8E6C0E08EDA
:1015B600828F83124E6CAD821581D006D007ED70F6
:1015C600028011E50924FDF8E6C0E08E828F8312C1
:1015D60013DB1581D00922124E0A123D3E123C49F8
:1015E600123C3C7F00BF100050428F82C007123C65
:1015F6006F90000A1223EC123D2BAE8290000AC0B7
:10160600061223EC123D2BAD82D006D007EEB505AF
:101616000FEF2416FCE43402FDEEF48C828D83F089
:101626008F82C007123CCDD0070F80B9123C5612EC
:101636004DA19002367401F022C009E581F5092416
:1016460010F581900236E07005F58202170E9002C1
:1016560036E4F0AF090FFEBE10005012EE2FF9EE81
:101666002416F582E43402F583E0F70E80E9C20819
:101676007E00BE10004003021708EE2FF98705EE24
:101686002426F582E43402F583E0FCED6204ECFBEB
:10169600606CD208C007C006C005C003C021122274
:1016A60034D021D003D005D006D0077C017A00BA09
:1016B6000600503EEC5B6034C007EC5D24FFE4336B
:1016C600FFC007C006C005C004C003C002C021C0D9
:1016D60007C0068A821214D615811581D021D00240
:1016E600D003D004D005D006D007D0070AEC2CFCD6
:1016F60080BDEE2426F582E43402F583EDF00E0279
:101706001678A208E433F582850981D009221202EF
:1017160036E58260030217F1021764AE82AF837466
:10172600022EFEE43FFF7D00BD05005014ED2EFBAA
:10173600E43FFC8B828C83E06004758201220D807D
:10174600E775820022AF82900275EFF0EF700E907F
:101756000240E06008900240E4F002176422900420
:101766005AE0FF900239F090045BE042079002399C
:10177600EFF0900275E06022900240E0701C90024B
:1017860039121721E58260129002487401F0900226
:10179600411202519002407401F07408C0E0E4C0A6
:1017A600E07441C0E07402C0E0E4C0E0900239F5A4
:1017B600F0124F67AE82AF83E58124FBF581EE4FD1
:1017C60060287F00BF0800501BEF2441FDE434026F
:1017D600FEEF2439F582E43402F583E08D828E83B0
:1017E600F00F80E0900239020251229002497406FD
:1017F600F090045AE0FF90024AF090045BE0420742
:1018060090024AEFF07416C0E0E4C0E0745FC0E0F6
:101816007402C0E0E4C0E0900249F5F0124F67AEF2
:1018260082AF83E58124FBF581EE4F60287F00BF00
:101836001600501BEF245FFDE43402FEEF2449F549
:1018460082E43402F583E08D828E83F00F80E0908F
:10185600024902025622AD82AE83AFF074022DFD1C
:10186600E43EFE7C05C007C006C005C00412023671
:10187600E582D004D005D006D00760087D4B7E02F5
:101886007F007C147B008C021CEA60158D828E839F
:101896008FF01250A5FAA3AD82AE83EA60E80B8002
:1018A600E58B8222AD82AE83AFF0C007C006C005CD
:1018B600120236E582D005D006D007603B7C00BC1C
:1018C60014005012EC244BFAE43402FB8A828B8318
:1018D600E070030C80E9ECC40354F8FBEC244BF5F0
:1018E60082E43402F583E0F582C003121C81AC82E7
:1018F600D003EC42038B822274022DFDE43EFE8D62
:10190600828E838FF01250A5F58222C00985810947
:1019160005810581AD82AE83AFF0E50924FDF8E6C9
:101926007005F5820219D6C007C006C00512023638
:10193600E582D005D006D0076051E50924FDF8E61A
:10194600C423541FFCBC1400503CEC244BFFE4346D
:1019560002FEE50924FDF886E05407F5F005F07D62
:10196600017A008006ED2DFDEA33FAD5F0F78F8275
:101976008E83E0FB7C00ED5203EA5204EB4C24FF1D
:10198600E433F582804A758200804574022DFDE4B9
:101996003EFEA809087600A80908B60500502EA83C
:1019A6000908E62DFAE43EFB8F048A828B838CF0CD
:1019B6001250A5FAE50924FDF8E6B502057582017F
:1019C600800EA80908A90909E604F780CA758200ED
:1019D600850981D00922C009858109C082C083C0DA
:1019E600F07CFF7B00C3EB64809485503AC004A86A
:1019F6000908740226FAE40836FC088607EB2AFA78
:101A0600E43CFC8A828C838FF01250A5FFE5092402
:101A1600FDF8E6B50704D004800DD004BCFF05EF41
:101A260070028B040B80BEBB052ABCFF028025A872
:101A36000908740226FDE40836FE088607EC2DFC2C
:101A4600E43EFB8F028C828B838AF0E50924FDF845
:101A5600E6124EB0850981D00922C00985810905A3
:101A66008105810581AD82AE83AFF074022DFDE460
:101A76003EFE7C00BC05005037A80908EC2DF6E4B4
:101A86003E08F608A607A8090886820886830886FF
:101A9600F01250A5FBE50924FDF8E6B5030FA809E9
:101AA6000886820886830886F0E4124EB00C80C44D
:101AB600850981D00922C009858109AD82AE83AF2F
:101AC600F0E50924FDF8E6C423541FFCBC140050BD
:101AD6003B74022DFDE43EFEEC2DFCE43EFB8F0242
:101AE600E50924FDF886E05407F5F005F074018059
:101AF6000225E0D5F0FBFF8C828B838AF01250A57D
:101B060042078C828B838AF0EF124EB0D00922C036
:101B160009858109AD82AE83AFF0E50924FDF8E6BB
:101B2600C423541FFCBC1400503C74022DFDE43E3B
:101B3600FEEC2DFCE43EFB8F02E50924FDF886E071
:101B46005407F5F005F07401800225E0D5F0FBF4AA
:101B5600FF8C828B838AF01250A552078C828B836E
:101B66008AF0EF124EB0D00922C009858109AD82F4
:101B7600AE83AFF0C007C006C005120236E582D0BC
:101B860005D006D0076015E50924FDF8E6C0E0900B
:101B9600024975F000121ABC15818013E50924FD6F
:101BA600F8E6C0E08D828E838FF01219DC1581D0A5
:101BB6000922C009858109AD82AE83AFF0C007C096
:101BC60006C005120236E582D005D006D00760159C
:101BD600E50924FDF8E6C0E090024975F000121B05
:101BE6001515818013E50924FDF8E6C0E08D828E87
:101BF600838FF0121A601581D00922AD82AE83AFB1
:101C0600F0C007C006C005120236E582D005D00630
:101C1600D00760187414C0E0E4C0E0C0E090024B46
:101C2600F5F012504B1581158115812274022DFD98
:101C3600E43EFE7405C0E0E4C0E0C0E08D828E8321
:101C46008FF012504B1581158115812290045AE0B0
:101C5600F58222AF8290045AE04FF022E582F4FF2B
:101C660090045AE05FF022E58290045AF022900434
:101C76005AE4F02290045BE0F58222AF827E00EF08
:101C8600C4540FFD60048D077E04EF0303543FFD2B
:101C960060088D078E0574022DFEEFC31360058E56
:101CA60007EF04FE8E8222AF82BFA502800ABFA67E
:101CB600028009BFA70E8008900001229000022230
:101CC6009000042290000022AF82BFA800500302B9
:101CD6001D93EF243D5003021D93EF2458FF240A61
:101CE60083F582EF241F83F583E473272B2F333785
:101CF600434B4F4753575B676B6F73777B873B3F0E
:101D06007F835F638B8F1D1D1D1D1D1D1D1D1D1DCD
:101D16001D1D1D1D1D1D1D1D1D1D1D1D1D1D1D1DED
:101D26001D9000E2229000E9229000EA229000B580
:101D3600229000B6229000B3229000B4229000B701
:101D4600229000CC229000CD229001832290018A1D
:101D560022900192229001942290019F229001CB21
:101D66002290022122900223229002242290022510
:101D760022900226229002272290006F2290007065
:101D86002290022A2290029F229002A02290000016
:011D9600222A
:0255AE000000FB
:101D9700900276E4F0900277F0900278F090027962
:101DA700F090027AF090027BF022AF82900276EFF9
:101DB700F02222021DB97409C0E090027D123A8A0E
:101DC700AF8215818F8222900286E4F0124DFE7455
:101DD70009C0E090027D123B301581024E0490024B
:101DE700867401F022900286E06003021DCE22C0B5
:101DF70009858109AF82BF00028038BF01028005D3
:101E0700BF02308017E50924FCF88682124E9EAF88
:101E170082E50924FBF8E62FF5828036E50924FDE3
:101E2700F88682124EA7AF82E50924FBF8E62FF564
:101E370082801FE50924FCF8E6C0E0E50924FDF8E7
:101E47008682124E77AF821581E50924FBF8E62FCB
:101E5700F582D00922C009E581F5092406F581AF8D
:101E670082BF55005064E50924FBF8A90909E6F784
:101E770008E609F708E609F78F03EB75F003A4D323
:101E870094FFF4FBA8090886820886830886F0EB8E
:101E9700124EB0A80908740126FAE40836FB088632
:101EA700068A828B838EF0E4124EB0A8090874026A
:101EB70026FCE40836FD088606EF75F003A48C823D
:101EC7008D838EF0124EB0021F97BFAA0050668F07
:101ED70006EE24ABFFE50924FBF8A90909E6F70894
:101EE700E609F708E609F7A809088682088683083D
:101EF70086F0E4124EB0A809080426FAE40836FD75
:101F0700088606EF75F003A48A828D838EF0124E41
:101F1700B0A80908740226FCE40836FD0886068F77
:101F270003EB75F003A4D394FFF48C828D838EF0BA
:101F3700124EB0805BEF2456FFE50924FBF88604B8
:101F4700088605088606EF75F003A48C828D838EBC
:101F5700F0124EB0E5092404F874012CF6E43D08AC
:101F6700F608A606EF75F003A4D394FFF4FFE5097E
:101F77002404F886820886830886F0EF124EB07430
:101F8700022CFCE43DFD8C828D838EF0E4124EB072
:101F9700850981D00922C009E581F5092406F58163
:101FA700AF82BF0360E50924F7F8860208860308B5
:101FB7008607E5092404F874012AF6E43B08F608C5
:101FC700A60774022AFCE43BFD8F068C828D838E64
:101FD700F0E50924FAF8E6124EB0E5092404F8867C
:101FE700820886830886F0E50924FAF9E7124EB0DD
:101FF7008A828B838FF0E50924FAF8E6124EB075D2
:10200700820102214ABF0400400675820002214A6C
:10201700E50924FBF8E6C0E0E50924FCF8E6C0E0A2
:10202700E50924FDF8E6C0E08F82121DF6AF8215A0
:102037008115811581E50924F7F8E6C0E008E6C0B7
:10204700E008E6C0E08F82121E5C158115811581BC
:10205700E50924F7F886050886060886078D828E27
:10206700838FF01250A5FC7B00E50924FAF8A90933
:1020770009E6F7097700C007C006C005A80908E602
:10208700C0E008E6C0E08C828B83124ECBAC831590
:10209700811581D005D006D0078C038D828E838F62
:1020A700F0EB124EB0E5092404F874012DF6E43E76
:1020B70008F608A607E5092404F886820886830837
:1020C70086F01250A5FC7B00C007C006C005A80912
:1020D70008E6C0E008E6C0E08C828B83124ECBACEA
:1020E7008315811581D005D006D0078C03E5092417
:1020F70004F886820886830886F0EB124EB07402D5
:102107002DFDE43EFE8D828E838FF01250A5FC7B61
:1021170000C007C006C005A80908E6C0E008E6C079
:10212700E08C828B83124ECBAC8315811581D00551
:10213700D006D0078C038D828E838FF0EB124EB0C2
:10214700758201850981D00922C009858109AF827D
:10215700BF031DE50924F8F88604088605088606E6
:102167008C828D838EF074FF124EB0758201805A77
:10217700BF040040057582008050E50924FBF8E69E
:10218700C0E0E50924FCF8E6C0E0E50924FDF8E62F
:10219700C0E08F82121DF6AF82158115811581E58A
:1021A7000924F8F88604088605088606BF800050CB
:1021B70005EF2FFB800774FFC39F25E0FB8C828D03
:1021C700838EF0EB124EB0758201D0092290028700
:1021D700E4F0A3F0900289F090028AF022E5827081
:1021E7000122900289E06010900289E4F090028752
:1021F700F0A3F090028AF022900287E0FEA3E0FFAE
:10220700C3EE9408EF94525023900287E02401FE16
:10221700A3E03400FF900287EEF0EFA3F0C3EE9443
:1022270008EF9452400690028A7401F022900289C6
:102237007401F022AF82BF01028005BF0214800B38
:1022470090028AE024FFE433F58222A201E433F509
:1022570082227582002290028B740AF012397B90D9
:10226700000A1223FC90027675F000122E3EE582DA
:10227700600790027AE060012290000A1223FC9026
:10228700028BE014F0E070D422123EEFAF82C00759
:1022970012223BE582D0077007BF010122022234D8
:1022A70090028AE4F0BF0203048001E4B4010092C3
:1022B700085007C021123932D021C021122391D0F2
:1022C70021C021124E0AD021C021123F70D021A275
:1022D70008E433F582C021122887D021C021123F9C
:1022E70076D021C021124DA1D021C021122394D034
:1022F7002130080312225D02223490028C7401F00F
:1023070090028DE4F002291ED310AF01C3C0D09014
:10231700028EE0FEA3E0FFD0D092AF8E828F8322A1
:102327007582001229331215DD90028EE0FEA3E0BC
:10233700FF90028E74012EF0E43FA3F02275820114
:1023470012293312458DE4C0E0900276F5F012456C
:10235700BCAF821581C00712467FD0078F8202214A
:10236700E490028CE0600C90028CE4F090028DF017
:1023770002232712234490028DE02401FFF0BF01BE
:1023870000400690028C7401F02202294802294B72
:102397007910E9440060237A017BAE7C557D5A7E33
:1023A700048C838B82E493A3AB82AC838E838D8270
:1023B700F0A3AD82AE83D9E9DAE775820022AE8257
:1023C700AF83BE0005BF0003801A0F801375B100ED
:1023D70000000000000000000000000000000000F6
:1023E700DEEBDFE922AE82AF83EE4F7001228E82F1
:1023F7008F830223C5AE82AF838E048F051EBEFF77
:10240700011FEC4D60109003E8C007C0061223ECD3
:10241700D006D00780E322C2AF75F0A5745A02FF39
:0C24270000758F0122900290E5B1F022B8
:030165007508FF1B
:1024330075080253A8FB3275080353A8F7327508D1
:102443000453A8EF3275080553A8DF327508065305
:10245300A8BF3275080953A9FB3275080A53A9F7B7
:102463003275080B53A9EF3275080C53A9DF327587
:10247300080D53A9BF32C009858109AF82D310AFBC
:1024830001C3C0D0EF60027401FF8FA77F00E5098D
:1024930024F9F8C3EF96502E8F06E50924FCF8863D
:1024A300040886057B00EE2CFCEB3DFDE50924FAD0
:1024B300F8EF26FBE40836FE8C828D83E4938B824F
:1024C3008E83F00F80C875A700D0D092AFD00922B9
:1024D300C009858109AF82D208D310AF01C3C0D030
:1024E300EF60047F0180027F008FA77F00E509244E
:1024F300F9F8C3EF9650388F06E50924FCF88604F3
:102503000886057B00EE2CFCEB3DFD8C828D83E47D
:1025130093FEE50924FAF8EF26F582E40836F583FD
:10252300E0FDEEB505028004C20880030F80BE758E
:10253300A700D0D092AFA208E433F582D00922C01D
:1025430009858109AF82D310AF01C3C0D08FA7E53E
:102553000924FCF80886F7E50924FCF886FBE5095D
:1025630024FAF886FCE50924FBF886F275F3057571
:10257300F40A75F50975F606000000000075F7000A
:1025830075A700D0D092AFD00922C0098581090573
:1025930081E58260027401FFA80908A6077E00E5B1
:1025A3000924F9F8C3EE965043E50924FAF8EE2618
:1025B300F582E40836F583E0FD8E04E50924FCF892
:1025C30086020886037F00EC2AFAEF3BFBC006C0B5
:1025D30005746EC0E0C002C003A8090886821225F4
:1025E30042E58124FCF581D0060E80B31581D00924
:1025F30022C009858109E58260027401FFE4C0E01D
:1026030074E6C0E0E50924FCF8E6C0E008E6C0E0B3
:102613008F82122542E58124FCF581D0092275B20F
:102623000875BC02E5BC20E20575B10080F643BC29
:102633000143B204227F00BFC8005004000F80F79B
:1026430022D310AF01C3C0D043B20843BC0275B15B
:102653000012263875BC0375B20C75B100D0D09248
:10266300AF22C009858109C082C083C0F0E5092477
:10267300FDF8E624EF40327C00E50924FDF8C3ECC5
:10268300965026EC2420FAE43411FBA80908EC2622
:10269300FDE40836FE0886078D828E838FF0125084
:1026A300A58A828B83F00C80D0850981D00922C052
:1026B30009858109C082C083C0F0E50924FDF8E6DD
:1026C30024BF40327C00E50924FDF8C3EC96502674
:1026D300EC2480FAE43411FBA80908EC26FDE40895
:1026E30036FE0886078D828E838FF01250A58A826C
:1026F3008B83F00C80D0850981D009227F00BFFF36
:10270300005012E59930E20D900028C0071223EC27
:10271300D0070F80E9227F00BFFF005012E59A30F7
:10272300E20D900028C0071223ECD0070F80E922A6
:1027330075960075945F7595117591C043A9012233
:1027430075960053913B53A9FE22C009858109ADBB
:1027530082AE83AFF0C007C006C0051226FFD005C6
:10276300D006D007E50924FDF8E6C0E08D828E830C
:102773008FF01226651581539CE0E50924FDF8E6E8
:10278300429C439904D00922C009858109AD82AED8
:1027930083AFF0C007C006C005122719D005D006C5
:1027A300D007E50924FDF8E6C0E08D828E838FF023
:1027B3001226B21581539D80E50924FDF8E6429D5A
:1027C300439A04D009222222C021C0E0C0F0C08273
:1027D300C083C007C006C005C004C003C002C00157
:1027E300C000C0D075D000AF86AEA7C007C0061228
:1027F3000664D006D0078EA78F86D0D0D000D00134
:10280300D002D003D004D005D006D007D083D08225
:10281300D0F0D0E0D0210200B422E58270044391CD
:10282300012202031353B2FB53BCFE53BCFD53B24C
:10283300F722AF8243948553927AEF700475A9010E
:102843002275A900538FFE2200758E55438702001F
:10285300000000000022AF825392FD5391FE9002CC
:1028630091E06008439102900291E4F0EF700975E2
:10287300945F43A901C20122438F019001F4122303
:10288300EC0202D6AF82C00712281D122828D007F7
:102893008F82C00712283575B100900291E4F012BF
:1028A300284B122644D0078F82022859C021C0E04A
:1028B300C0F0C082C083C007C006C005C004C00307
:1028C300C002C001C000C0D075D0001228F690022B
:1028D300917401F0D0D0D000D001D002D003D00445
:1028E300D005D006D007D083D082D0F0D0E0D0215D
:1028F3000200B475E800221228F675BAF375B640E3
:10290300D2A922C2A90228F6AE82AF83C2CA8F051A
:102913008DCB8ECA8DCD8ECCD2CA22C2CA75C800C9
:1029230075C90090FCDF12290BC2CFD2A8D2CA22EC
:10293300E58270067E377FFF80047EDF7FFC8E8218
:102943008F8302290BC2A822D2A822C021C0E0C0D3
:10295300F0C082C083C007C006C005C004C003C066
:1029630002C001C000C0D075D000C2CF122368D00E
:10297300D0D000D001D002D003D004D005D006D0EF
:1029830007D083D082D0F0D0E0D0210200B432C08F
:1029930009858109C082C083C0F0C28543E120C29A
:1029A300859000031223ECC2FC43D110C2FCE5095D
:1029B30024FBF8E66068D310AF01C3C0D07B007C72
:1029C30000E50924FCF8C3EB96EC64800886F06309
:1029D300F08095F05042A80908EB26FAEC0836FE81
:1029E3000886078A828E838FF01250A5F582C0076E
:1029F300C006C004C003C002122B1CAD82D002D09B
:102A030003D004D006D0078A828E838FF0ED124E56
:102A1300B00BBB00AC0C80A9D0D092AF805B7E0022
:102A23007F00E50924FCF8C3EE96EF64800886F086
:102A330063F08095F05042A80908EE26FBEF0836B4
:102A4300FC0886058B828C838DF01250A5F582C01D
:102A530007C006C005C004C003122B1CAA82D00302
:102A6300D004D005D006D0078B828C838DF0EA1278
:102A73004EB00EBE00AC0F80A953D1EFD2FC53E190
:102A83007FD28753E1DFD285850981D00922C0092E
:102A9300858109AD82AE83AFF0A2B2E433FCC004FA
:102AA300E4C0E0E50924FCF8E6C0E008E6C0E08DF8
:102AB300828E838FF0122992158115811581D0049E
:102AC3007F00BF3200501FA2B2E433B50402800579
:102AD3007582018014900003C007C0041223ECD058
:102AE30004D0070F80DC758200D00922C0098581DC
:102AF30009AD82AE83AFF07401C0E0E50924FCF8B0
:102B0300E6C0E008E6C0E08D828E838FF012299242
:102B1300158115811581D00922AF827E007D00BD0C
:102B23000800502DEE2EFEC2B743E580C2B7EF304A
:102B3300E70753E17FD2878007C28743E180C287DB
:102B430030860343060153E57FD2B7EF2FFF0D8095
:042B5300CE8E82227E
:100168009002DEE4F09002DF04F09002E0E4F09008
:1001780002E1F09002E2F09002E3F09002E4F090E5
:1001880002E5F09002E6F09002E7F09002E8F090C5
:1001980002E9F09002EDE4F09002EEF09002EFF048
:0C01A8009002F0F09002F1F09002F2F0F2
:102B5700E5829002B5F022E5829002B6F022AF82BC
:102B67009002B5E0600475820022EF600475820070
:102B7700229002B6E060047582002275820122AFBE
:102B87008290045CE0FEEFB506012290045CEFF052
:102B97007E007D00ED90520B93FC6017BE0F005036
:102BA70012EE24B7FAE43402FB0E8A828B83ECF030
:102BB7000D80E1EE04FDEE24B7F582E43402F583DF
:102BC700742DF0ED04FEED24B7FDE43402FC7430FF
:102BD7002F8D828C83F0EE24B7F582E43402F583DF
:102BE700E4F0C00674B7C0E07402C0E0E4C0E0756A
:102BF7008200123842158115811581900032122307
:102C0700FCD0068E077E00EE90521193FD6012EF06
:102C170024B7FBE43402FC0F8B828C83EDF00E802B
:102C2700E6EF24B7F582E43402F583E4F074B7C025
:102C3700E07402C0E0E4C0E07582011238421581F9
:102C4700158115819000320223FCC0098581090591
:102C57008105819000FF1223FC9000FF1223FC9056
:102C670000FF1223FC9000FF1223FC9000FF1223A9
:102C7700FC9000FF1223FCA909097F0AEF603CC002
:102C870007C00112397BD001D0078F057E008D82E6
:102C97008E83C007C0011223FCD00189047D007E0A
:102CA700408C828D838EF0C0011231E9E582D0011C
:102CB700D0076004E720E7031F80C1758201122B4C
:102CC70086758200123014850981D00922AF82C02F
:102CD70007E4C0E08F821232E015819000141223BE
:102CE700FCD007E4C0E08F821232E01581227582A2
:102CF700021236979000C81223FC7582001237F62D
:102D07009000641223FC1239329000C81223FC127F
:102D17002C519000C80223FCAE82AF8374072EF5B6
:102D270082E43FF583E09002DCF08E828F83E090AF
:102D370002D5F08E828F83A3A3E09002D6F08E8215
:102D47008F83A3A3A3E09002D7F08E828F83A3A3E0
:102D5700A3A3E09002D8F08E828F83A3A3A3A3A39B
:102D6700E09002D9F074062EF582E43FF583E090F7
:102D770002DAF09002DB7401F0022D839002DBE0AF
:102D87007001229002D575F000123357E582600575
:102D97009002DBE4F022AE82AF83D2087D01BD153D
:102DA700005012ED2EFBE43FFC8B828C83E0600227
:102DB700C2080D80E930081F7D00BD0600500FEDE9
:102DC70024CFF582E43402F583E4F00D80EC900221
:102DD700CF75F00002335774022EFCE43FFD8E825C
:102DE7008F83A3E0FFC004C0058F821234CC158106
:102DF700158122AE82AF83E0FDBD01028005BD02D1
:102E07003580198E828F83A3E0FCA3E0FDC004C048
:102E17000590000012372015811581228E828F833D
:102E2700A3E0FEA3E0FFE4C0E0C0E08E828F831240
:102E370037201581158122C009858109C082C08389
:102E4700C0F005810581E5092404F9FA7B007C407F
:102E57008A828B838CF0C0011231E9E582D0017040
:102E670005F582022F26E720E707C00112397BD03C
:102E770001A80908740226FAE40836FB08860487C5
:102E8700075307078A828B838CF0EF124EB0A8098D
:102E97000886050886060886070987045304078DF0
:102EA700828E838FF0EC124EB0A80908740426FDB9
:102EB700E40836FE088607E7A2E3E4338D828E83B3
:102EC7008FF0124EB0A80908740526FDE40836FEF7
:102ED700088607E7C454018D828E838FF0124EB0A7
:102EE700A80908740326FDE40836FE088607E723C9
:102EF70054018D828E838FF0124EB0A80908740199
:102F070026FDE40836FE0886078704530460ECC4F0
:102F17000354078D828E838FF0124EB07582018520
:102F27000981D00922AD82AE83AFF0900460E0241E
:102F370001F0A3E03400F0900460E0FBA3E0FCC3E1
:102F4700EB94D0EC9407500122900460E4F0A3F0D6
:102F570074052DFAE43EFB8F048A828B838CF01272
:102F670050A5900462F08D828E838FF0C007C00653
:102F7700C005122E3EE582D005D006D0077001228B
:102F870074052DFAE43EFB8F048A828B838CF01242
:102F970050A5FC6016900462E0701090045EE4F0A7
:102FA700A3F090045DE0F582022CD490045EE0FA71
:102FB700A3E0FB90045EE0F5F0A3E045F0600E1A95
:102FC700BAFF011B90045EEAF0EBA3F02274042D14
:102FD700F9E43EFA8F0389828A838BF01250A57039
:102FE70003EC60190DBD00010E8D828E838FF012E8
:102FF70050A5FD90045DE0FFEDB507012290045D4B
:10300700E0FFE4C0E08F821232E0158122E582FF03
:1030170060098F82C007122B86D00790045DEFF0FE
:10302700C007E4C0E08F821232E0158190001412CD
:1030370023FCD007E4C0E08F821232E015812275AD
:1030470082011237AB9000141223FC7582010237FC
:10305700AB9002DD7401F09002B2E4F09002B3F09D
:10306700229002B3E0FF700122EF20E0067DDE7EB2
:103077000280047DE47E027C00EF149002B3F0909E
:1030870002B47401F08D828E838CF0123357900254
:10309700B4E4F022C009858109058105810581AF66
:1030A7008290045DEFF0C0077401C0E08F82123296
:1030B700E015819002ECE4F09000641223FCD00745
:1030C700E50924FCF88605088606E5092403F87651
:1030D7000AE5092403F8E670030231C2C007C006F7
:1030E700C00512397B90000A1223FC9002EA75F0A2
:1030F700001231E9E582D005D006D007700302310E
:10310700A79002EAE0FB20E7030231A7C0078D8200
:103117008E83A3A3530307EBF08D028E039002EB7C
:10312700E0FF5307078A828B83EFF074042DFBE4DB
:103137003EFF9002EBE0A2E3E4338B828F83F074CF
:10314700052DFBE43EFF9002EBE0C454018B828F18
:1031570083F0A8090874032DF6E43E08F69002EB05
:10316700E0235401FCA809088682088683ECF0A8AE
:10317700090874012DF6E43E08F69002EBE054606E
:10318700C4035407FCA809088682088683ECF08BE1
:10319700828F83E0D00760089002EC7401F0801BF7
:1031A700900014C007C006C0051223FCD005D00646
:1031B700D007E5092403F8160230D89002ECE06046
:1031C70011900032C0071223FCD0078F82122CD433
:1031D700800A90045E7458F07402A3F0850981D0C8
:1031E7000922AD82AE83AFF0C007C006C005123812
:1031F700E99000641223EC12326CD005D006D00798
:10320700900292E0FCBCBB02800712397B758200FA
:1032170022C007C006C0057402C0E0E4C0E0900207
:1032270094F5F01239C4AC8215811581D005D0060A
:10323700D007900293E0B50402800712397B7582AC
:103247000022900294E08D828E838FF0124EB00D93
:10325700BD00010E900295E08D828E838FF0124E95
:10326700B07582012290029274FFF0900293F09061
:103277000294F0900295F07404C0E0E4C0E090027C
:1032870092F5F0122AEF1581158122C0098581096F
:10329700AD82AE83AFF07C00BC05005036C007C0DE
:1032A70006C005C004E50924FCF8E6C0E008E6C04E
:1032B700E08D828E838FF0122A91AB821581158162
:1032C700D004D005D006D007EB60057582018006D3
:1032D7000C80C5758200D00922C009858109AF829B
:1032E70090029274AAF09002937403F0900294747F
:1032F70001F0900295E50924FDF8E6F0900296EFBB
:10330700F07405C0E0E4C0E0900292F5F01239C411
:10331700AF8215811581900297EFF07406C0E0E443
:10332700C0E0900292F5F0122A9115811581D0091B
:1033370022AF829002B4E0600122EF60069002B3F0
:10334700E4F0229002B2E060069002B37406F02225
:10335700C00985810905810581AD82AE83AFF090F3
:1033670002DDE0600A9002DDE4F07DED7E02FF9071
:10337700029274AAF0900293741DF0900294740262
:10338700F08D828E838FF01250A5900295F0740114
:103397002DFAE43EFB8F048A828B838CF01250A5B2
:1033A700900296F074022DFAE43EFB8F048A828B1A
:1033B700838CF01250A5900297F074032DFAE43E27
:1033C700FB8F048A828B838CF01250A5900298F0B1
:1033D70074042DFAE43EFB8F048A828B838CF012EF
:1033E70050A5900299F074052DFAE43EFB8F048AEC
:1033F700828B838CF01250A590029AF07C00A8096A
:10340700087600A80908B606005029C004A80908CC
:10341700E62DFAE43EFB8F048A828B838CF01250F0
:10342700A5D00460047C01800BA80908A90909E656
:1034370004F780CF74EDC0E07402C0E0E4C0E08D13
:10344700828E838FF01200DE15811581158170033E
:10345700FF80059002DCE0FF90029BEFF07F0ABF40
:103467001F00500FEF2492F582E43402F583E4F055
:103477000F80ECC004741FC0E0E4C0E0900292F536
:10348700F01239C4AF82158115819002B1EFF07443
:1034970020C0E0E4C0E0900292F5F0123292AF82D1
:1034A70015811581D004EC24FFE433F582C007C0F1
:1034B70004123338D004D0079002B2ECF08F828523
:1034C7000981D00922C009858109AF8290029274CF
:1034D700AAF0900293741DF09002947402F0900287
:1034E70095EFF0900296E4F0900297F0900298F032
:1034F700900299F090029AF0EFB40100B39208E4B9
:1035070033FF7020FEBE1400501AE50924FCF8EEC4
:1035170026FCE40836FD8C828D83E060047F018001
:10352700030E80E1EF24FFE433FEF582C007C006F7
:10353700122B65AD8290029BEDF0E50924FCF8861D
:10354700040886058C828D83E090029CF08C828D26
:1035570083A3E090029DF08C828D83A3A3E0900269
:103567009EF08C828D83A3A3A3E090029FF08C82B0
:103577008D83A3A3A3A3E09002A0F08C828D83A3E5
:10358700A3A3A3A3E09002A1F074062CF582E43D67
:10359700F583E09002A2F074072CF582E43DF583F1
:1035A700E09002A3F074082CF582E43DF583E090E7
:1035B70002A4F074092CF582E43DF583E09002A59E
:1035C700F0740A2CF582E43DF583E09002A6F074CE
:1035D7000B2CF582E43DF583E09002A7F0740C2CE8
:1035E700F582E43DF583E09002A8F0740D2CF58296
:1035F700E43DF583E09002A9F0740E2CF582E43DDA
:10360700F583E09002AAF0740F2CF582E43DF58370
:10361700E09002ABF074102CF582E43DF583E09066
:1036270002ACF074112CF582E43DF583E09002AD15
:10363700F074122CF582E43DF583E09002AEF0744D
:10364700132CF582E43DF583E09002AFF09002B0D1
:10365700E4F0741FC0E0E4C0E0900292F5F0123984
:10366700C4AD82158115819002B1EDF07420C0E0E0
:10367700E4C0E0900292F5F012329215811581D0E4
:10368700068E82123338D0079002B2EFF0D00922AB
:10369700AF8290029274AAF09002937403F09002A2
:1036A70094F0900295EFF0900296E4F07405C0E074
:1036B700E4C0E0900292F5F01239C4AF821581158B
:1036C70081900297EFF07406C0E0E4C0E0900292A8
:1036D700F5F0122A91158115812290029274AAF0B1
:1036E7009002937401F09002947404F014C0E0E423
:1036F700C0E0900292F5F01239C4AF8215811581AE
:10370700900295EFF07404C0E0E4C0E0900292F5F7
:10371700F0122A911581158122C009858109AE828F
:10372700AF8390029274AAF0900293740BF0900208
:10373700947405F0900295E4F0900296F090029749
:10374700F0900298F0900299F090029AF08E05900E
:10375700029BEDF08F0690029CEEF0E50924FCF841
:10376700860790029DEFF0E50924FCF8088607908C
:10377700029EEFF0740DC0E0E4C0E0900292F5F015
:103787001239C4AF821581158190029FEFF0740E34
:10379700C0E0E4C0E0900292F5F012329215811574
:1037A70081D00922AF8290029274AAF0900293749A
:1037B70003F090029423F0900295EFF0900296E4C4
:1037C700F07405C0E0E4C0E0900292F5F01239C44D
:1037D700AF8215811581900297EFF07406C0E0E47F
:1037E700C0E0900292F5F0122A911581158122AF5F
:1037F7008290029274AAF09002937403F09002945C
:103807007407F0900295EFF0900296E4F07405C00B
:10381700E0E4C0E0900292F5F01239C4AF8215815E
:103827001581900297EFF07406C0E0E4C0E09002C3
:1038370092F5F0122A911581158122C00985810917
:10384700AF8290029274AAF0900293741DF09002D6
:10385700947408F0900295EFF0E50924FBF88605CB
:103867000886060886077C057B008D828E838FF08D
:103877001250A5FA601ABC1F005015EC2492F5826D
:10388700E43402F583EAF00DBD00010E0C0B80DA7B
:10389700900296EBF0BC1F00500FEC2492F582E4E7
:1038A7003402F583E4F00C80EC741FC0E0E4C0E060
:1038B700900292F5F01239C4AF82158115819002FA
:1038C700B1EFF07420C0E0E4C0E0900292F5F0128E
:1038D7002A91158115819000141223FC1236E1D02C
:1038E700092290029274AAF09002937403F0900256
:1038F70094740AF0900295E4F0900296F07405C073
:10390700E0E4C0E0900292F5F01239C4AF8215816D
:103917001581900297EFF07406C0E0E4C0E09002D2
:1039270092F5F0122A91158115812290029274AABC
:10393700F09002937403F0900294740BF090029548
:10394700E4F0900296F07405C0E0E4C0E0900292C3
:10395700F5F01239C4AF8215811581900297EFF007
:103967007406C0E0E4C0E0900292F5F0122A9115C7
:103977008115812290029274AAF09002937403F049
:10398700900294740CF0900295E4F0900296F07413
:1039970005C0E0E4C0E0900292F5F01239C4AF82AE
:1039A70015811581900297EFF07406C0E0E4C0E03E
:1039B700900292F5F0122A911581158122C009858E
:1039C7008109C082C083C0F07C007A007B00E509D2
:1039D70024FCF8C3EA96EB64800886F063F08095D0
:1039E700F0501FA80908EA26FDEB0836FE088607EF
:1039F7008D828E838FF01250A52CFC0ABA00CF0B54
:0E3A070080CC7455C39CF582850981D00922BC
:0D520B00416972373500204254332E3000C7
:0755B000FF000000000000F5
:103A1500C009858109AE82AF837D007C00E509245C
:103A2500FDF8C3EC96500EEC2EF582E43FF583E0ED
:103A35002DFD0C80E88D82D00922AF82C00774036A
:103A4500C0E074F3C0E07402C0E0E4C0E074ECC010
:103A5500E0758200122479E58124FBF581D0079079
:103A650002F3E0FEBE5A119002F4E0FEBEA50990F5
:103A750002F5E0B507028004C2088002D208A20858
:103A8500E433F58222C009858109AE82AF83E50959
:103A950024FDF88682C007C006123A3FE582D006AB
:103AA500D0077005F582023B2DC007C006E5092445
:103AB500FDF8E6C0E0C006C0077403C0E074ECC0C2
:103AC500E0758200122479E58124FBF581E509245E
:103AD500FDF886057C0074032DFD74EC3CFC740137
:103AE500C0E074F3C0E07402C0E0C005C004758294
:103AF50000122479E58124FBF581D006D0079002D8
:103B0500F3E0FDC005E50924FDF8E6C0E08E828FEF
:103B150083123A15AF821581D005EDB50703D38021
:103B250001C39208E433F582D00922C009858109D1
:103B3500AE82AF83E50924FDF88682C007C0061270
:103B45003A3FE582D006D0076030C007C006E509D8
:103B550024FDF8E6C0E0C006C0077403C0E074ECBD
:103B6500C0E07582001224D3AD82E58124FBF58186
:103B7500D006D007ED6003023C39C007C006E4C09B
:103B8500E074ECC0E07582001225F4158115819072
:103B950002F3745AF09002F4F4F09002F5E509246A
:103BA500FDF8E6F07403C0E074F3C0E07402C0E011
:103BB500E4C0E074ECC0E075820012258DE5812437
:103BC500FBF581D006D007C007C006E50924FDF83E
:103BD500E6C0E0C006C0077403C0E074ECC0E07541
:103BE500820012258DE58124FBF581D006D007E5FD
:103BF5000924FDF8E6C0E08E828F83123A15AF8264
:103C050015819002F3EFF0E50924FDF886077E00A3
:103C150074032FFF74EC3EFE7401C0E074F3C0E042
:103C25007402C0E0C007C00675820012258DE581CB
:103C350024FBF581D0092243902043983F43A03FC0
:103C45004388072243E22043E33F43E43F43E6073B
:103C55002253EADF53E2DF53EBC053E3C053ECC01A
:103C650053E4C053EEF853E6F822E582FF24F05002
:103C75000122EF2F903C7D73801E801F80208021C4
:103C85008022802380248025802680278028802903
:103C9500802A802B802C802DC28822C28922C28A4C
:103CA50022C2A522C2A422C2A322C2A222C2A1224A
:103CB500C2A022C29D22C29C22C29B22C29A22C2BB
:103CC5009922C29822C29522E582FF24F050012252
:103CD500EF2F903CDB73801E801F80208021802287
:103CE5008023802480258026802780288029802A9B
:103CF500802B802C802DD28822D28922D28A22D272
:103D0500A522D2A422D2A322D2A222D2A122D2A01B
:103D150022D29D22D29C22D29B22D29A22D29922B1
:103D2500D29822D29522E5F8540FFFE58825E0FECA
:103D350074305E4F44C0F582225380E35390F153B3
:103D4500B08453887FE5C075C00022123D56023D00
:103D5500AA758C0575A500758C4575A600758C85AD
:103D650075BB00758CC5758D00758C0075E11C756E
:103D7500E22E75E33F75E43F75E57B75E68775E7EC
:103D8500FF43EA0175EE7875D98FA2FDB392FE4324
:103D9500D14043F81043B0804380A043E9E043EDB0
:103DA5008443D9102290FF9C7401F090FF98E4F0B1
:103DB50090FF9D04F090FF99E4F090FF9E04F09031
:103DC500FF9AE4F075DE01F5DDF5D5F5D2F5C3F51D
:103DD500CEF5D6F5D3F5C4F5C1F5D7F5D4F5C5F5CA
:103DE500C290FFBDF090FFA5F090FFEDF090FFD5DC
:103DF500F090FFBCF090FFA4F090FFECF090FFD4A2
:103E0500F090FFBBF090FFA3F090FFEBF090FFD395
:103E1500F090FFBAF090FFA2F090FFEAF090FFD289
:103E2500F090FFB9F090FFA1F090FFE9F090FFD17D
:103E3500F090FFB8F090FFA0F090FFE8F090FFD071
:103E4500F090FFC3F090FFABF090FFF3F090FFDB35
:103E5500F090FFC2F090FFAAF090FFF2F090FFDA29
:103E6500F090FFC1F090FFA9F090FFF1F090FFD91D
:103E7500F090FFC0F090FFA8F090FFF0F090FFD811
:103E8500F090FFBFF090FFA7F090FFEFF090FFD705
:103E9500F090FFBEF090FFA6F090FFEEF090FFD6F9
:103EA500F090FFC9F090FFB1F090FFF9F090FFE1BD
:103EB500F02243D901C28843E6017F007E00BE108F
:103EC50000501875B1009001F4C007C0061223EC2C
:103ED500D006D00720F8010F0E80E3D28853E6FE06
:103EE50053D9FEBF100302241E22208D047F0180BA
:103EF500027F028F822253EADF53E2DF53EBC05386
:103F0500E3C053ECC053E4C053EEF853E6F843E680
:103F1500475388B843E43F53A0C043E33F5398C099
:103F250043E2285390D153E9E343E11C5380E35323
:103F3500EE7F43E6C053883FE5EF75EF00E5E77593
:103F4500E7FFE5C075C00053ED8443E57B53B084BE
:103F550053EE9F53E69F53889F53E57F53E15F538D
:103F6500D1EFD28ED293C2FED2FF22123EFB02289F
:103F7500FA122906C28543E120C285023D56A28D6B
:103F8500E4339002F6F0A28EE4339002F7F090024B
:103F9500F7E0F582124E4F1213759002F7E0F582A5
:103FA500022B57AF829002F6EFF0BF00028006BFEA
:103FB500010F023046900285E0F58212301402307E
:103FC5005822AF829002F7EFF08F82C007124E4F52
:103FD500121375D0078F82022B57A28DE433FF9001
:103FE50002F6E0FE8F05EDB506099002F8E4F0A3B0
:103FF500F080289002F8E02401F0A3E03400F0906E
:1040050002F8E0A3E0C3940140119002F8E4F0A3A4
:10401500F0EF24FFE433F582123FA8A2FDB392FE30
:10402500A28EE433FF9002F7E0FE8F05EDB506089A
:104035009002FAE4F0A3F0229002FAE02401F0A342
:10404500E03400F09002FAE0A3E0C394014011903F
:1040550002FAE4F0A3F0EF24FFE433F582023FC750
:1040650022AE82AF83BE4005BF7E028024BE4105DD
:10407500BF7E028010BE4205BF7E02800CBE43118A
:10408500BF7E0E8008758201227582022275820329
:104095002275820022C009858109AE82AF83C3EEF5
:1040A5009440EF947E500302428CC3744F9E747EFD
:1040B5009F500302428C8E048F05EC24C0FC2C2CEF
:1040C5009040C9730241DB0241DB0241DB0241DB67
:1040D50002413302414F02416B0241870241A30273
:1040E50041BF0240F902410902411902425C024204
:1040F5006C02427CE50924FDF89002FCE6F075822D
:104105000002428FE50924FDF89002FDE6F0758274
:104115000002428FE50924FDF8E6600C9002FDE0FF
:1041250060061243BD122CF575820002428FE50927
:1041350024FDF8E6600E9002FCE060051245028061
:104145000312447375820002428FE50924FDF8E6E7
:10415500600E9002FCE0600512451A800312448B44
:1041650075820002428FE50924FDF8E6600E900293
:10417500FCE0600512453280031244A775820002F7
:10418500428FE50924FDF8E6600E9002FCE060052B
:1041950012454D80031244C275820002428FE50923
:1041A50024FDF8E6600E9002FCE06005124568808B
:1041B500031244DD75820002428FE50924FDF8E60D
:1041C500600E9002FCE0600512457B80031244F00E
:1041D50075820002428F9002F6E07076E50924FDB3
:1041E500F8E660538E828F83C007C006124066AD25
:1041F50082C005123014D005900285EDF0C005127D
:104205001DE5D005D006D007900277EDF090027A33
:104215007401F090027BF0900465EEF0EFA3F012CC
:10422500230FE5828583F0900463F0E5F0A3F09019
:1042350004677401F0801B900465E0FCA3E0FDECCD
:10424500B5060FEDB5070B900465E4F0A3F09004F7
:1042550067F07582008033E50924FDF8E6600312F6
:1042650043977582008023E50924FDF8E660031273
:1042750043AC7582008013E50924FDF8E66003125E
:1042850043B57582008003758201D00922AE82AFE5
:10429500839002F6E0FD600ABD010E8E828F8302D7
:1042A50003388E828F83022D1F22AE82AF83900248
:1042B500F6E0FD600ABD010E8E828F8302035E8EDD
:1042C500828F83022D9D22AE82AF839002F6E0FDA0
:1042D500600ABD010E8E828F830203848E828F83D6
:1042E500022DFA229002F6E07070900467E0605BA0
:1042F500900465E0F5F0A3E045F0604F12230FAEA2
:1043050082AF83900463E0FCA3E0FDEEC39CFEEF67
:104315009DFFC3EE9430EF94114030900465E0FEAC
:10432500A3E0FF8E828F83124066AF8290027BE40A
:10433500F090027AF07476C0E07402C0E08F8212C9
:10434500309B15811581900467E4F090027675F035
:1043550000122F2C122D83123068900468E024017E
:07436500F0A3E03400F02298
:0755B70000000000000000ED
:10436C0090027DE4F090027E14F090027F7404F0D1
:10437C00900281E4F090028214F09002837401F0B8
:10438C00900284E4F090028504F02290045674C8E4
:10439C00F022AF82900458EFF09004577404F0228E
:1043AC009002847401F0021DE5900284E4F0021D79
:1043BC00E512436C021DE590027DE024FB50069053
:1043CC00027D7404F090027FE0FFBF010050069064
:1043DC00027F7401F090027FE024EF500690027F80
:1043EC007410F0900281E024FB500690028174045A
:1043FC00F0900283E0FFBF0100500690028374012D
:10440C00F0900283E024EF50069002837410F022A7
:10441C007420C0E07401C0E0E4C0E09002FEF5F04E
:10442C0012504B1581158115817430C0E0E4C0E049
:10443C00C0E090041EF5F012504B158115811581CA
:10444C002290044EE4F090044FF0900454F0900449
:10445C005504F0900450E4F0900451F0900452F0A4
:10446C00900453F0024DA190027DE0FF0F90027D6D
:10447C00EFF0EF24FB500590027DE4F0021DE59077
:10448C00027DE0700890027D7404F0800B90027D38
:10449C00E0FF1F90027DEFF0021DE590027EE0FF31
:1044AC002420500890027E74FFF0800774202F9017
:1044BC00027EF0021DE590027EE0FFBF2000500757
:1044CC0090027EE4F08007EF24E090027EF0021D63
:1044DC00E590027FE0FFBF100050060F90027FEFC7
:1044EC00F0021DE590027FE0FF24FE50061F9002B3
:1044FC007FEFF0021DE5900281E0FF0F900281EF4B
:10450C00F0EF24FB5005900281E4F0021DE59002CF
:10451C0081E0FF70089002817404F080061F900205
:10452C0081EFF0021DE5900282E0FF2420500890FC
:10453C00028274FFF0800774202F900282F0021D1B
:10454C00E5900282E0FFBF20005007900282E4F069
:10455C008007EF24E0900282F0021DE5900283E0D8
:10456C00FFBF100050060F900283EFF0021DE59084
:10457C000283E0FF24FE50061F900283EFF0021D21
:10458C00E55380E35390F153B08453887FE5C075B5
:10459C00C00022900455E0700122900455E4F0FF15
:1045AC00BF7000500AC007124688D0070F80F12256
:1045BC00C009858109900454E02401F0E0FFBF702C
:1045CC0000403B900454E4F0900283E0FE900451D0
:1045DC00E02EF0900456E0FEE06006EE14900456D7
:1045EC00F0900457E0FEE06006EE14900457F09053
:1045FC000459E02401F09004557401F08014BF605C
:10460C001190027FE0FF900450E02FF0900455745D
:10461C0001F0124E0A7F0090044EE0FEBE060050E0
:10462C001190027DE0FEBE0400500C124AFFAF82D6
:10463C008005124AFFAF82EF6006124A55124DA157
:10464C00C20890044FE02401F0E0FFBF0300401AC1
:10465C0090044FE4F090044EE02401F0E0FFBF071B
:10466C0000400790044EE4F0D208A208E433F5822F
:10467C00D0092290FF80E053E0DFF022C009E581F1
:10468C00F5092407F581900452E0FFBF06004003B2
:10469C0002474DE5092405F9FC7D007E4090027E21
:1046AC00E0FB90027DE0FAC001C004C005C006C06A
:1046BC0003900450E0C0E0900453E0C0E0C0078ACF
:1046CC0082121F9DAF82E58124F9F581D001EF7034
:1046DC0003024A29900452E075F030A424FEFE74C3
:1046EC000235F0FF900453E02EF582E43FF583E7AA
:1046FC00F0900452E075F030A424FEFE740235F004
:10470C00FF74102EFEE43FFF900453E02EF582E47C
:10471C003FF583E904F8E6F0900452E075F030A41C
:10472C0024FEFE740235F0FF74202EFEE43FFF9051
:10473C000453E02EF582E43FF5830909E7F0024AC1
:10474C0029900453E0FFBF0800E433FE70030248D5
:10475C0066900457E06036900458E01392085004B9
:10476C007DFF80027D3CA80908A6053008047C006A
:10477C0080027C3CE5092404F8A6043008047BFF85
:10478C0080027B3CA8090808A603024978900276AF
:10479C00E030E115A809087632E5092404F87678AA
:1047AC00A80908087632024978308D15A8090876D0
:1047BC00FFE5092404F876B4A80908087600024934
:1047CC00787F007E00900277E070047FFF80027E8D
:1047DC00FF7AFF90027BE07011900459E030E20404
:1047EC007DFF80027D008D02802190027AE0701B9B
:1047FC00900459E0543FFD30E5098D04743FC39C8F
:10480C00FC80028D04EC90521893FA8A047B00A869
:10481C00090876008F027D00C006C004C003C004E6
:10482C00C0038A828D83124ECBAD8315811581D046
:10483C0003D004D006E5092404F8A6058E027D00F9
:10484C00C004C0038A828D83124ECBAD83158115B3
:10485C0081A8090808A605024978208D6390028476
:10486C00E07006900456E06057900279E070089072
:10487C000278E024FE4015A8090876FFE509240417
:10488C00F87600A80908087600024978900278E0CA
:10489C00FDBD06004015A809087600E5092404F8BA
:1048AC0076FFA80908087600024978A8090876FF5F
:1048BC00E5092404F876B4A80908087600024978BA
:1048CC00900281E0FDBD0315A8090876FFE50924D7
:1048DC0004F876FFA809080876FF024978BD0400A1
:1048EC005078BD00028020BD01028005BD021880F9
:1048FC000F8F82124E9EAD82900451E02DFD801ED2
:10490C00900451E0FD8017EE60047E008004EF24DB
:10491C00F8FEEE75F024A4FE900451E02EFDE5099E
:10492C002405F9FA7E007F40C001C002C006C00712
:10493C008D82121E5C158115811581D001A8090884
:10494C00E7F6E904F8C001E5092404F9E6F7D0011B
:10495C000909A8090808E7F68012A809087600E5F5
:10496C00092404F87600A80908087600900453E09E
:10497C00241EFFE43404FEA8090886027D00900280
:10498C0082E0FB7C00C007C006C003C0048A828D95
:10499C0083124ECBAD8315811581D006D0078D04C3
:1049AC008F828E83ECF0900453E0242EFFE43404C9
:1049BC00FEE5092404F886047D00900282E0FB7A6F
:1049CC0000C007C006C003C0028C828D83124ECB80
:1049DC00AD8315811581D006D0078D048F828E830F
:1049EC00ECF0900453E0243EFFE43404FEA80908E4
:1049FC000886037D00900282E0FC7A00C007C006A6
:104A0C00C004C0028B828D83124ECBAD83158115F1
:104A1C0081D006D0078D048F828E83ECF0900453E6
:104A2C00E02401F0E0FFBF10004018900453E4F0C4
:104A3C00900452E02401F0E0FFBF07004005900411
:104A4C0052E4F0850981D0092290044EE0FF24F94C
:104A5C00500122EF2F904A6573800C801E803080AD
:104A6C004280548066807890044FE0FFE07003D25F
:104A7C00B122BF0103D2C022D2B02290044FE0FF7A
:104A8C00E07003D28422BF0103D2C122D2832290D0
:104A9C00044FE0FFE07003D2C722BF0103D2C22251
:104AAC00D2C62290044FE0FFE07003D28222BF01F5
:104ABC0003D2C322D28F2290044FE0FFE07003D2C6
:104ACC00B522BF0103D2C422D2B62290044FE0FF1C
:104ADC00E07003D2B422BF0103D2C522D2B322901C
:104AEC00044FE0FFE07003D29122BF0103D2922267
:104AFC00D29322C0098581090581058190044EE07D
:104B0C00FFBF061390044FE075F010A4AEF0241E06
:104B1C00FDEE3404FE8019EF75F030A424FEFC7415
:104B2C000235F0FF90044FE0C454F02CFDE43FFE3E
:104B3C00A80908A60508A606A8090886820886837F
:104B4C00E0FF7C008CC38FCEA80908868208868380
:104B5C00A3E0FC7B008BC48CC1EF4204A80908863F
:104B6C0082088683A3A3E0FF7B008BC58FC2EC4237
:104B7C0007A80908740326FBE40836FC8B828C8397
:104B8C00E07E0090FFEDEEF08B828C83E090FFD501
:104B9C00F08B828C83E0FBEF4203A8090874042697
:104BAC00FEE40836FF8E828F83E07C0090FFECECF5
:104BBC00F08E828F83E090FFD4F08E828F83E0FEA4
:104BCC00EB4206A80908740526FDE40836FF8D8221
:104BDC008F83E07B0090FFEBEBF08D828F83E09076
:104BEC00FFD3F08D828F83E0FDEE4205A809087497
:104BFC000626FEE40836FF8E828F83E07B0090FF52
:104C0C00EAEBF08E828F83E090FFD2F08E828F835E
:104C1C00E0FEED4206A80908740726FDE40836FFFD
:104C2C008D828F83E07B0090FFE9EBF08D828F8388
:104C3C00E090FFD1F08D828F83E0FDEE4205A80954
:104C4C0008740826FEE40836FF8E828F83E07B0012
:104C5C0090FFE8EBF08E828F83E090FFD0F08E8295
:104C6C008F83E0FEED4206A80908740926FDE408CE
:104C7C0036FF8D828F83E07B0090FFF3EBF08D820B
:104C8C008F83E090FFDBF08D828F83E04206A809D2
:104C9C0008740A26FDE40836FF8D828F83E07B00C2
:104CAC0090FFF2EBF08D828F83E090FFDAF08D8233
:104CBC008F83E0FDEE4205A80908740B26FEE4087C
:104CCC0036FF8E828F83E07B0090FFF1EBF08E82BB
:104CDC008F83E090FFD9F08E828F83E0FEED420649
:104CEC00A80908740C26FDE40836FF8D828F83E03A
:104CFC007B0090FFF0EBF08D828F83E090FFD8F07B
:104D0C008D828F83E0FDEE4205A80908740D26FE06
:104D1C00E40836FF8E828F83E07B0090FFEFEBF090
:104D2C008E828F83E090FFD7F08E828F83E0FEED32
:104D3C004206A80908740E26FDE40836FF8D828F02
:104D4C0083E07B0090FFEEEBF08D828F83E090FF91
:104D5C00D6F08D828F83E0FDEE4205A80908740F12
:104D6C0026FEE40836FF8E828F83E07B0090FFF9ED
:104D7C00EBF08E828F83E090FFE1F08E828F83E0E8
:104D8C00FEED4206EEB40100B39208E433F58285E1
:104D9C000981D0092290FF80748AF090FF817408F9
:104DAC00F090FF82F090FF83F090FF84F090FF85ED
:104DBC00F090FF86748AF090FF877408F090FF885B
:104DCC00F090FF89F090FF8AF090FF8BF090FF8CB1
:104DDC007482F090FF8DE4F090FF8EF090FF8FF0D6
:104DEC0090FF907408F090FF91F075DA8AF5DBF57E
:104DFC00DC22122391024E0A124DA102239490FF41
:104E0C00807402F090FF81F090FF82F090FF83F0AD
:104E1C0090FF84F090FF85F090FF86F090FF87F074
:104E2C0090FF88F090FF89F090FF8AF090FF8BF054
:104E3C0090FF8CF090FF90F090FF91F0F5DAF5DB9D
:034E4C00F5DC2270
:10521800000D1A2733404C5864707C87929CA6B0C6
:10522800B9C2CAD2D9DFE5EAEFF4F7FBFDFEFFFF0A
:104E4F00E58260047F0080027F018F8222AF82BFE4
:104E5F000203D38001C39208E433F58222C009858F
:084E6F008109758201D00922BE
:1052380029003A003B003C003D00477E467E400086
:1052480041004200430044004500460049004C002C
:1052580035001E001F00200021002200230024002A
:105268002500260027002D002E002A0000004B00F4
:105278002B0014001A000800150017001C00180065
:105288000C00120013002F003000310000004E0007
:10529800390004001600070009000A000B000D0081
:1052A8000E000F00330034000000280000004A0000
:1052B800E1001D001B000600190005001100100088
:1052C80036003700380000000000E50052004D00AD
:1052D800E000E200E300000000002C0000000000F5
:1052E800E7002252E40000000000500051004F0087
:1052F80029003A003B003C003D003E003F004000D2
:1053080041004200430044004500460049004C006B
:1053180035001E001F002000210022002300240069
:105328002500260027002D002E002A0000004B0033
:105338002B0014001A000800150017001C001800A4
:105348000C00120013002F003000310000004E0046
:10535800390004001600070009000A000B000D00C0
:105368000E000F00330034000000280000004A003F
:10537800E1001D001B0006001900050011001000C7
:1053880036003700380000000000E50052004D00EC
:10539800E000E300E200000000002C000000000034
:1053A800E6002352E40000000000500051004F00C6
:1053B8004B7E01000100010001003E003F0001009A
:1053C80001000100010001000100010001000100CD
:1053D80001000100010001000100010001000100BD
:1053E80001000100010001000100010000000100AE
:1053F8000100417E427E437E407E010001000100A3
:105408000100010001004D7E4E7E4F7E000001002C
:10541800010001000100010001000100010001007C
:10542800010001000100010000000100000001006E
:1054380001000100010001004C7E01000100010093
:10544800497E487E4A7E000000000100467E010039
:105458000100010001000000000001000000000040
:1054680001000100010000000000457E477E447EE7
:105478004B7EBE00BD000100010003780478BC002B
:10548800AE00BB00A800AA00A900010001000100AD
:1054980001000100010001000100010001000100FC
:1054A80001000100010001000100010000000100ED
:1054B8000100417E427E437E407E010001000100E2
:1054C8000100010001004D7E4E7E4F7E000001006C
:1054D80001000100010001000100010001000100BC
:1054E80001000100010001000000010000000100AE
:1054F80001000100010001004C7E010001000100D3
:10550800497E487E4A7E000000000100467E010078
:10551800010001000100000000000100000000007F
:1055280001000100010000000000457E477E447E26
:104E7700C009858109E58275F010A42438FE7455B0
:104E870035F0FFE50924FDF8E62EF582E43FF583CA
:104E9700E493F582D00922E58290559893F5822212
:094EA700E5829055A893F58222E2
:10553800FFDDCCAA8877555555557788AACCDDFF6D
:10554800FFDDBB99775544333344557799BBDDFF6D
:10555800FFDDBB99775533111133557799BBDDFFC3
:10556800FFDDBB99775533111133557799BBDDFFB3
:10557800FFDDBB99775544333344557799BBDDFF3D
:10558800FFDDCCAA8877555555557788AACCDDFF1D
:1055980000102030405060708090A0B0C0D0E0F083
:0655A800002A5580AAD57F
:06013B00E478FFF6D8FD98
:100119007910E94400601B7A019055AE785A75A0B0
:1001290004E493F2A308B8000205A0D9F4DAF27541
:02013900A0FF25
:1000B400C000A88118C0D0B6001B18B67000401547
:1000C400B697005010C0E0E65407B406005004E6AA
:0A00D40054F8F6D0E0D0D0D000328E
:104EB00020F71130F6138883A88220F509F6A8831D
:104EC0007583002280FEF280F5F022C009858109F9
:104ED000C082C083E5812405F581AF090FE509246F
:104EE00003F8A607087600087640E50924FCFD7E55
:104EF000007F40E5092406FCF9A809088603E509B6
:104F000024FCF886028BF0EAA4F709A7F019EC0458
:104F1000F88604C000A80908860374012DFAE43E4F
:104F2000FE8A828E838FF01250A58BF0A4FBE509D8
:104F30002403F8740126FDE40836FE0886078D82F6
:104F40008E838FF01250A5FDE50924FCF88607D06A
:104F5000008DF0EFA42B2CF687060987078E828F31
:104F600083850981D00922C009858109C082C08357
:104F7000C0F0058105810581E50924F9F8E60846B8
:104F80007006900000025045E50924FBF8860208EF
:104F90008603088604E50924F9F8E5092404F9E6FE
:104FA000F708E609F7E5092404F816B6FF02081623
:104FB000E5092404F8E608466043A80908860508C0
:104FC00086060886078D828E838FF0E5092406F811
:104FD0001250A5F68A058B068C078D828E838FF082
:104FE0001250A5FDE5092406F8E6B50510A8090844
:104FF00006B6000208060ABA00AB0B80A8E5092431
:10500000FBF8A60208A60308A604A8090886050856
:1050100086060886078D828E838FF01250A5FD7F4D
:1050200000E50924FBF886030886040886068B82BF
:105030008C838EF01250A5FB7E00EDC39BFDEF9E8E
:0B504000FF8D828F83850981D009223B
:100141007800E84400600A790075A000E4F309D85A
:10015100FC785AE84404600C7905900000E4F0A3AF
:04016100D8FCD9FAF3
:10504B00C009858109C082C083C0F0E50924FBF843
:10505B008605088606E50924FBF8E60846602AA8BB
:10506B0009088602088603088604E50924FDF886EC
:10507B00078A828B838CF0EF124EB0A3AA82AB838C
:10508B001DBDFF011EED4E70E8A80908868208863B
:0A509B00830886F0850981D0092200
:1000DE00E58124FCC3C8C0E0E608467006E582450B
:1000EE00836016C08218E58296F58208E5839642F3
:1000FE008208E5F0964582D082C8D0E0C82275818C
:0B010E0021122397E58260030200B17C
:1050A50020F71430F6148883A88220F507E6A88334
:0C50B50075830022E280F7E49322E022E1
:00000001FF
